{
  "contractName": "Comment",
  "abi": [
    {
      "constant": true,
      "inputs": [],
      "name": "totalVotes",
      "outputs": [
        {
          "name": "",
          "type": "uint256"
        }
      ],
      "payable": false,
      "stateMutability": "view",
      "type": "function"
    },
    {
      "constant": true,
      "inputs": [],
      "name": "text",
      "outputs": [
        {
          "name": "",
          "type": "string"
        }
      ],
      "payable": false,
      "stateMutability": "view",
      "type": "function"
    },
    {
      "constant": true,
      "inputs": [],
      "name": "contentUrl",
      "outputs": [
        {
          "name": "",
          "type": "string"
        }
      ],
      "payable": false,
      "stateMutability": "view",
      "type": "function"
    },
    {
      "constant": true,
      "inputs": [],
      "name": "totalVotesValue",
      "outputs": [
        {
          "name": "",
          "type": "uint256"
        }
      ],
      "payable": false,
      "stateMutability": "view",
      "type": "function"
    },
    {
      "constant": true,
      "inputs": [],
      "name": "timestamp",
      "outputs": [
        {
          "name": "",
          "type": "uint256"
        }
      ],
      "payable": false,
      "stateMutability": "view",
      "type": "function"
    },
    {
      "constant": true,
      "inputs": [
        {
          "name": "",
          "type": "address"
        }
      ],
      "name": "votes",
      "outputs": [
        {
          "name": "",
          "type": "uint256"
        }
      ],
      "payable": false,
      "stateMutability": "view",
      "type": "function"
    },
    {
      "constant": true,
      "inputs": [],
      "name": "lastVoteTime",
      "outputs": [
        {
          "name": "",
          "type": "uint256"
        }
      ],
      "payable": false,
      "stateMutability": "view",
      "type": "function"
    },
    {
      "inputs": [
        {
          "name": "user_contract_address",
          "type": "address"
        },
        {
          "name": "comment_text",
          "type": "string"
        },
        {
          "name": "content_url",
          "type": "string"
        }
      ],
      "payable": false,
      "stateMutability": "nonpayable",
      "type": "constructor"
    },
    {
      "constant": true,
      "inputs": [],
      "name": "getComment",
      "outputs": [
        {
          "name": "",
          "type": "address"
        },
        {
          "name": "",
          "type": "string"
        },
        {
          "name": "",
          "type": "string"
        },
        {
          "name": "",
          "type": "uint256"
        },
        {
          "name": "",
          "type": "string"
        },
        {
          "name": "",
          "type": "string"
        }
      ],
      "payable": false,
      "stateMutability": "view",
      "type": "function"
    },
    {
      "constant": false,
      "inputs": [
        {
          "name": "userContractAddress",
          "type": "address"
        },
        {
          "name": "voteValue",
          "type": "uint256"
        }
      ],
      "name": "vote",
      "outputs": [],
      "payable": false,
      "stateMutability": "nonpayable",
      "type": "function"
    },
    {
      "constant": true,
      "inputs": [
        {
          "name": "user_contract_address",
          "type": "address"
        }
      ],
      "name": "getUserVote",
      "outputs": [
        {
          "name": "",
          "type": "uint256"
        }
      ],
      "payable": false,
      "stateMutability": "view",
      "type": "function"
    },
    {
      "constant": true,
      "inputs": [],
      "name": "getAverageOfVotes",
      "outputs": [
        {
          "name": "",
          "type": "uint256"
        }
      ],
      "payable": false,
      "stateMutability": "view",
      "type": "function"
    },
    {
      "constant": true,
      "inputs": [],
      "name": "checkLastVote",
      "outputs": [
        {
          "name": "",
          "type": "bool"
        }
      ],
      "payable": false,
      "stateMutability": "view",
      "type": "function"
    },
    {
      "constant": true,
      "inputs": [
        {
          "name": "user_contract_address",
          "type": "address"
        },
        {
          "name": "msg_sender",
          "type": "address"
        }
      ],
      "name": "auth",
      "outputs": [
        {
          "name": "",
          "type": "bool"
        }
      ],
      "payable": false,
      "stateMutability": "view",
      "type": "function"
    }
  ],
  "bytecode": "0x6080604052600060045560006005553480156200001b57600080fd5b50604051620016b8380380620016b8833981018060405260608110156200004157600080fd5b810190808051906020019092919080516401000000008111156200006457600080fd5b828101905060208101848111156200007b57600080fd5b81518560018202830111640100000000821117156200009957600080fd5b50509291906020018051640100000000811115620000b657600080fd5b82810190506020810184811115620000cd57600080fd5b8151856001820283011164010000000082111715620000eb57600080fd5b505092919050505081600190805190602001906200010b92919062000175565b5080600290805190602001906200012492919062000175565b5042600381905550826000806101000a81548173ffffffffffffffffffffffffffffffffffffffff021916908373ffffffffffffffffffffffffffffffffffffffff16021790555050505062000224565b828054600181600116156101000203166002900490600052602060002090601f016020900481019282601f10620001b857805160ff1916838001178555620001e9565b82800160010185558215620001e9579182015b82811115620001e8578251825591602001919060010190620001cb565b5b509050620001f89190620001fc565b5090565b6200022191905b808211156200021d57600081600090555060010162000203565b5090565b90565b61148480620002346000396000f3fe6080604052600436106100c5576000357c0100000000000000000000000000000000000000000000000000000000900463ffffffff1680630d15fd77146100ca5780631f1bd692146100f55780635f74bbde14610185578063850710c3146101e0578063a0ccc8b914610270578063a4ff78d11461029b578063b80777ea146102ca578063cc773044146102f5578063ce5036ce14610503578063d4923d4e1461058c578063d8bff5a5146105f1578063dac1743014610656578063e38106c414610681575b600080fd5b3480156100d657600080fd5b506100df6106ac565b6040518082815260200191505060405180910390f35b34801561010157600080fd5b5061010a6106b2565b6040518080602001828103825283818151815260200191508051906020019080838360005b8381101561014a57808201518184015260208101905061012f565b50505050905090810190601f1680156101775780820380516001836020036101000a031916815260200191505b509250505060405180910390f35b34801561019157600080fd5b506101de600480360360408110156101a857600080fd5b81019080803573ffffffffffffffffffffffffffffffffffffffff16906020019092919080359060200190929190505050610750565b005b3480156101ec57600080fd5b506101f5610aa8565b6040518080602001828103825283818151815260200191508051906020019080838360005b8381101561023557808201518184015260208101905061021a565b50505050905090810190601f1680156102625780820380516001836020036101000a031916815260200191505b509250505060405180910390f35b34801561027c57600080fd5b50610285610b46565b6040518082815260200191505060405180910390f35b3480156102a757600080fd5b506102b0610b4c565b604051808215151515815260200191505060405180910390f35b3480156102d657600080fd5b506102df610b95565b6040518082815260200191505060405180910390f35b34801561030157600080fd5b5061030a610b9b565b604051808773ffffffffffffffffffffffffffffffffffffffff1673ffffffffffffffffffffffffffffffffffffffff1681526020018060200180602001868152602001806020018060200185810385528a818151815260200191508051906020019080838360005b8381101561038e578082015181840152602081019050610373565b50505050905090810190601f1680156103bb5780820380516001836020036101000a031916815260200191505b50858103845289818151815260200191508051906020019080838360005b838110156103f45780820151818401526020810190506103d9565b50505050905090810190601f1680156104215780820380516001836020036101000a031916815260200191505b50858103835287818151815260200191508051906020019080838360005b8381101561045a57808201518184015260208101905061043f565b50505050905090810190601f1680156104875780820380516001836020036101000a031916815260200191505b50858103825286818151815260200191508051906020019080838360005b838110156104c05780820151818401526020810190506104a5565b50505050905090810190601f1680156104ed5780820380516001836020036101000a031916815260200191505b509a505050505050505050505060405180910390f35b34801561050f57600080fd5b506105726004803603604081101561052657600080fd5b81019080803573ffffffffffffffffffffffffffffffffffffffff169060200190929190803573ffffffffffffffffffffffffffffffffffffffff169060200190929190505050610fea565b604051808215151515815260200191505060405180910390f35b34801561059857600080fd5b506105db600480360360208110156105af57600080fd5b81019080803573ffffffffffffffffffffffffffffffffffffffff1690602001909291905050506110df565b6040518082815260200191505060405180910390f35b3480156105fd57600080fd5b506106406004803603602081101561061457600080fd5b81019080803573ffffffffffffffffffffffffffffffffffffffff169060200190929190505050611128565b6040518082815260200191505060405180910390f35b34801561066257600080fd5b5061066b611140565b6040518082815260200191505060405180910390f35b34801561068d57600080fd5b50610696611146565b6040518082815260200191505060405180910390f35b60045481565b60018054600181600116156101000203166002900480601f0160208091040260200160405190810160405280929190818152602001828054600181600116156101000203166002900480156107485780601f1061071d57610100808354040283529160200191610748565b820191906000526020600020905b81548152906001019060200180831161072b57829003601f168201915b505050505081565b61075a8233610fea565b15156107f4576040517f08c379a00000000000000000000000000000000000000000000000000000000081526004018080602001828103825260228152602001807f7573657220636f6e74726163742061646472657373206973206e6f7420796f7581526020017f727300000000000000000000000000000000000000000000000000000000000081525060400191505060405180910390fd5b600181101580156108065750600a8111155b15156108a0576040517f08c379a00000000000000000000000000000000000000000000000000000000081526004018080602001828103825260228152602001807f74686520766f74652076616c7565206973206265747765656e203120616e642081526020017f313000000000000000000000000000000000000000000000000000000000000081525060400191505060405180910390fd5b6000600760008473ffffffffffffffffffffffffffffffffffffffff1673ffffffffffffffffffffffffffffffffffffffff168152602001908152602001600020541415156108f8576108f3828261117e565b610aa4565b80600760008473ffffffffffffffffffffffffffffffffffffffff1673ffffffffffffffffffffffffffffffffffffffff16815260200190815260200160002081905550806005600082825401925050819055506000809054906101000a900473ffffffffffffffffffffffffffffffffffffffff1673ffffffffffffffffffffffffffffffffffffffff16633de3f629826040518263ffffffff167c010000000000000000000000000000000000000000000000000000000002815260040180828152602001915050600060405180830381600087803b1580156109dc57600080fd5b505af11580156109f0573d6000803e3d6000fd5b505050506000809054906101000a900473ffffffffffffffffffffffffffffffffffffffff1673ffffffffffffffffffffffffffffffffffffffff16638b7374726040518163ffffffff167c0100000000000000000000000000000000000000000000000000000000028152600401600060405180830381600087803b158015610a7957600080fd5b505af1158015610a8d573d6000803e3d6000fd5b505050506004600081548092919060010191905055505b5050565b60028054600181600116156101000203166002900480601f016020809104026020016040519081016040528092919081815260200182805460018160011615610100020316600290048015610b3e5780601f10610b1357610100808354040283529160200191610b3e565b820191906000526020600020905b815481529060010190602001808311610b2157829003601f168201915b505050505081565b60055481565b600061012c6006544203118015610b665750600060065414155b15610b8d576005610b75611146565b1015610b845760009050610b92565b60019050610b92565b600190505b90565b60035481565b60006060806000606080610bad610b4c565b1515610c47576040517f08c379a00000000000000000000000000000000000000000000000000000000081526004018080602001828103825260228152602001807f74686520636f6d6d656e742068617665206c6f77206176657261676520766f7481526020017f657300000000000000000000000000000000000000000000000000000000000081525060400191505060405180910390fd5b6000809054906101000a900473ffffffffffffffffffffffffffffffffffffffff166000809054906101000a900473ffffffffffffffffffffffffffffffffffffffff1673ffffffffffffffffffffffffffffffffffffffff166306fdde036040518163ffffffff167c010000000000000000000000000000000000000000000000000000000002815260040160006040518083038186803b158015610cec57600080fd5b505afa158015610d00573d6000803e3d6000fd5b505050506040513d6000823e3d601f19601f820116820180604052506020811015610d2a57600080fd5b810190808051640100000000811115610d4257600080fd5b82810190506020810184811115610d5857600080fd5b8151856001820283011164010000000082111715610d7557600080fd5b5050929190505050600160035460026000809054906101000a900473ffffffffffffffffffffffffffffffffffffffff1673ffffffffffffffffffffffffffffffffffffffff16630aaf15306040518163ffffffff167c010000000000000000000000000000000000000000000000000000000002815260040160006040518083038186803b158015610e0757600080fd5b505afa158015610e1b573d6000803e3d6000fd5b505050506040513d6000823e3d601f19601f820116820180604052506020811015610e4557600080fd5b810190808051640100000000811115610e5d57600080fd5b82810190506020810184811115610e7357600080fd5b8151856001820283011164010000000082111715610e9057600080fd5b5050929190505050849450838054600181600116156101000203166002900480601f016020809104026020016040519081016040528092919081815260200182805460018160011615610100020316600290048015610f305780601f10610f0557610100808354040283529160200191610f30565b820191906000526020600020905b815481529060010190602001808311610f1357829003601f168201915b50505050509350818054600181600116156101000203166002900480601f016020809104026020016040519081016040528092919081815260200182805460018160011615610100020316600290048015610fcc5780601f10610fa157610100808354040283529160200191610fcc565b820191906000526020600020905b815481529060010190602001808311610faf57829003601f168201915b50505050509150809050955095509550955095509550909192939495565b6000808390508073ffffffffffffffffffffffffffffffffffffffff16632f54bf6e846040518263ffffffff167c0100000000000000000000000000000000000000000000000000000000028152600401808273ffffffffffffffffffffffffffffffffffffffff1673ffffffffffffffffffffffffffffffffffffffff16815260200191505060206040518083038186803b15801561108957600080fd5b505afa15801561109d573d6000803e3d6000fd5b505050506040513d60208110156110b357600080fd5b8101908080519060200190929190505050156110d35760019150506110d9565b60009150505b92915050565b6000600760008373ffffffffffffffffffffffffffffffffffffffff1673ffffffffffffffffffffffffffffffffffffffff168152602001908152602001600020549050919050565b60076020528060005260406000206000915090505481565b60065481565b600080600454148061115a57506000600554145b15611168576000905061117b565b60045460055481151561117757fe5b0490505b90565b6111888233610fea565b1515611222576040517f08c379a00000000000000000000000000000000000000000000000000000000081526004018080602001828103825260228152602001807f7573657220636f6e74726163742061646472657373206973206e6f7420796f7581526020017f727300000000000000000000000000000000000000000000000000000000000081525060400191505060405180910390fd5b600760008373ffffffffffffffffffffffffffffffffffffffff1673ffffffffffffffffffffffffffffffffffffffff168152602001908152602001600020546005600082825403925050819055506000809054906101000a900473ffffffffffffffffffffffffffffffffffffffff1673ffffffffffffffffffffffffffffffffffffffff16630381dc93600760008573ffffffffffffffffffffffffffffffffffffffff1673ffffffffffffffffffffffffffffffffffffffff168152602001908152602001600020546040518263ffffffff167c010000000000000000000000000000000000000000000000000000000002815260040180828152602001915050600060405180830381600087803b15801561134057600080fd5b505af1158015611354573d6000803e3d6000fd5b5050505080600760008473ffffffffffffffffffffffffffffffffffffffff1673ffffffffffffffffffffffffffffffffffffffff16815260200190815260200160002081905550806005600082825401925050819055506000809054906101000a900473ffffffffffffffffffffffffffffffffffffffff1673ffffffffffffffffffffffffffffffffffffffff16633de3f629826040518263ffffffff167c010000000000000000000000000000000000000000000000000000000002815260040180828152602001915050600060405180830381600087803b15801561143c57600080fd5b505af1158015611450573d6000803e3d6000fd5b50505050505056fea165627a7a72305820a647904a84f92b9462802c3defa25708b33082a5096704b55b81f9cefef9196b0029",
  "source": "pragma solidity ^0.5.0;\nimport \"./User.sol\";\n\ncontract Comment {\n    \n    User owner;\n    string public text;\n    string public contentUrl;\n    uint256 public timestamp;\n    \n    uint public totalVotes = 0;\n    uint public totalVotesValue = 0;\n    uint256 public lastVoteTime;\n    mapping(address => uint) public votes;\n    \n\n    constructor(address user_contract_address,string memory comment_text, string memory content_url) public {\n        text = comment_text;\n        contentUrl = content_url;\n        timestamp = now;\n        owner = User(user_contract_address);\n    }\n    \n\n    function getComment() public view returns(address,string memory,string memory,uint256, string memory, string memory ){\n        require(checkLastVote(),\"the comment have low average votes\");\n        return (\n        address(owner),\n        owner.name(),\n        text,\n        timestamp,\n        contentUrl,\n        owner.profilePic()\n            );\n    }\n\n   function vote(address userContractAddress,uint voteValue) public {\n\n        require(auth(userContractAddress,msg.sender),\"user contract address is not yours\");\n        require(voteValue >= 1 && voteValue <= 10, \"the vote value is between 1 and 10\");\n        \n        if(votes[userContractAddress] != 0 ){\n            editVoteValue(userContractAddress,voteValue);\n            return;\n        }\n        votes[userContractAddress] = voteValue;\n        totalVotesValue += voteValue;\n        owner.addVoteValue(voteValue);\n        owner.addTotalVotes();\n        totalVotes++;\n    }\n    \n    function editVoteValue(address voter, uint voteValue) private {\n        require(auth(voter,msg.sender),\"user contract address is not yours\");\n        totalVotesValue -= votes[voter];\n        owner.subVoteValue(votes[voter]);\n        votes[voter] = voteValue;\n        totalVotesValue += voteValue;\n        owner.addVoteValue(voteValue);\n    }\n\n    function getUserVote(address user_contract_address) public view returns(uint256){\n        return votes[user_contract_address];\n    }\n\n    function getAverageOfVotes() public view returns(uint){\n        if(totalVotes == 0 || totalVotesValue == 0){\n            return 0;\n        }\n        return totalVotesValue/totalVotes;\n    }\n\n    function checkLastVote() public view returns(bool){\n         if(now-lastVoteTime>300&&lastVoteTime!=0){\n             if(getAverageOfVotes()<5)\n                return false;\n             else\n                return true;\n         }\n            \n        return true;\n    }\n\n    function auth(address user_contract_address,address msg_sender) public view returns(bool){\n        User user = User(user_contract_address);\n        if(user.isOwner(msg_sender))\n            return true;\n        else\n            return false;\n    }\n    \n}\n",
  "sourcePath": "/media/adam/Source/GP/Eth-Smithereens/contracts/Comment.sol",
  "compiler": {
    "name": "solc",
    "version": "0.5.0+commit.1d4f565a.Emscripten.clang"
  },
  "schemaVersion": "3.0.1",
  "updatedAt": "2019-06-22T06:01:35.714Z",
  "devdoc": {
    "methods": {}
  },
  "userdoc": {
    "methods": {}
  }
}