{
  "contractName": "GroupFactory",
  "abi": [
    {
      "constant": true,
      "inputs": [],
      "name": "userFactory",
      "outputs": [
        {
          "name": "",
          "type": "address"
        }
      ],
      "payable": false,
      "stateMutability": "view",
      "type": "function"
    },
    {
      "constant": true,
      "inputs": [
        {
          "name": "",
          "type": "uint256"
        }
      ],
      "name": "groups",
      "outputs": [
        {
          "name": "",
          "type": "address"
        }
      ],
      "payable": false,
      "stateMutability": "view",
      "type": "function"
    },
    {
      "constant": true,
      "inputs": [
        {
          "name": "",
          "type": "address"
        }
      ],
      "name": "groupsIndexs",
      "outputs": [
        {
          "name": "",
          "type": "uint256"
        }
      ],
      "payable": false,
      "stateMutability": "view",
      "type": "function"
    },
    {
      "inputs": [
        {
          "name": "UserFactoryAddress",
          "type": "address"
        }
      ],
      "payable": false,
      "stateMutability": "nonpayable",
      "type": "constructor"
    },
    {
      "constant": false,
      "inputs": [
        {
          "name": "initialTitle",
          "type": "string"
        },
        {
          "name": "initialDescription",
          "type": "string"
        },
        {
          "name": "user_contract_address",
          "type": "address"
        }
      ],
      "name": "createGroup",
      "outputs": [],
      "payable": false,
      "stateMutability": "nonpayable",
      "type": "function"
    },
    {
      "constant": true,
      "inputs": [],
      "name": "getGroups",
      "outputs": [
        {
          "name": "",
          "type": "address[]"
        }
      ],
      "payable": false,
      "stateMutability": "view",
      "type": "function"
    },
    {
      "constant": true,
      "inputs": [
        {
          "name": "group_address",
          "type": "address"
        }
      ],
      "name": "getGroup",
      "outputs": [
        {
          "name": "",
          "type": "address"
        },
        {
          "name": "",
          "type": "string"
        },
        {
          "name": "",
          "type": "string"
        },
        {
          "name": "",
          "type": "address[]"
        },
        {
          "name": "",
          "type": "address[]"
        },
        {
          "name": "",
          "type": "uint256"
        }
      ],
      "payable": false,
      "stateMutability": "view",
      "type": "function"
    }
  ],
  "bytecode": "0x608060405234801561001057600080fd5b50604051602080616c5c8339810180604052602081101561003057600080fd5b810190808051906020019092919050505080600260006101000a81548173ffffffffffffffffffffffffffffffffffffffff021916908373ffffffffffffffffffffffffffffffffffffffff16021790555050616bca806100926000396000f3fe608060405260043610610078576000357c0100000000000000000000000000000000000000000000000000000000900463ffffffff168063283097ab1461007d57806353adce21146100d457806396324bd4146102d45780639a2597981461034f578063c72b5176146104ce578063ffc91afb1461053a575b600080fd5b34801561008957600080fd5b5061009261059f565b604051808273ffffffffffffffffffffffffffffffffffffffff1673ffffffffffffffffffffffffffffffffffffffff16815260200191505060405180910390f35b3480156100e057600080fd5b50610123600480360360208110156100f757600080fd5b81019080803573ffffffffffffffffffffffffffffffffffffffff1690602001909291905050506105c5565b604051808773ffffffffffffffffffffffffffffffffffffffff1673ffffffffffffffffffffffffffffffffffffffff1681526020018060200180602001806020018060200186815260200185810385528a818151815260200191508051906020019080838360005b838110156101a757808201518184015260208101905061018c565b50505050905090810190601f1680156101d45780820380516001836020036101000a031916815260200191505b50858103845289818151815260200191508051906020019080838360005b8381101561020d5780820151818401526020810190506101f2565b50505050905090810190601f16801561023a5780820380516001836020036101000a031916815260200191505b50858103835288818151815260200191508051906020019060200280838360005b8381101561027657808201518184015260208101905061025b565b50505050905001858103825287818151815260200191508051906020019060200280838360005b838110156102b857808201518184015260208101905061029d565b505050509050019a505050505050505050505060405180910390f35b3480156102e057600080fd5b5061030d600480360360208110156102f757600080fd5b8101908080359060200190929190505050610859565b604051808273ffffffffffffffffffffffffffffffffffffffff1673ffffffffffffffffffffffffffffffffffffffff16815260200191505060405180910390f35b34801561035b57600080fd5b506104cc6004803603606081101561037257600080fd5b810190808035906020019064010000000081111561038f57600080fd5b8201836020820111156103a157600080fd5b803590602001918460018302840111640100000000831117156103c357600080fd5b91908080601f016020809104026020016040519081016040528093929190818152602001838380828437600081840152601f19601f8201169050808301925050505050505091929192908035906020019064010000000081111561042657600080fd5b82018360208201111561043857600080fd5b8035906020019184600183028401116401000000008311171561045a57600080fd5b91908080601f016020809104026020016040519081016040528093929190818152602001838380828437600081840152601f19601f820116905080830192505050505050509192919290803573ffffffffffffffffffffffffffffffffffffffff169060200190929190505050610897565b005b3480156104da57600080fd5b506104e3610c0e565b6040518080602001828103825283818151815260200191508051906020019060200280838360005b8381101561052657808201518184015260208101905061050b565b505050509050019250505060405180910390f35b34801561054657600080fd5b506105896004803603602081101561055d57600080fd5b81019080803573ffffffffffffffffffffffffffffffffffffffff169060200190929190505050610c9c565b6040518082815260200191505060405180910390f35b600260009054906101000a900473ffffffffffffffffffffffffffffffffffffffff1681565b60006060806060806000806000808973ffffffffffffffffffffffffffffffffffffffff1673ffffffffffffffffffffffffffffffffffffffff168152602001908152602001600020549050600180820381548110151561062257fe5b9060005260206000200160009054906101000a900473ffffffffffffffffffffffffffffffffffffffff1673ffffffffffffffffffffffffffffffffffffffff16634b79c0746040518163ffffffff167c010000000000000000000000000000000000000000000000000000000002815260040160006040518083038186803b1580156106ae57600080fd5b505afa1580156106c2573d6000803e3d6000fd5b505050506040513d6000823e3d601f19601f8201168201806040525060c08110156106ec57600080fd5b8101908080519060200190929190805164010000000081111561070e57600080fd5b8281019050602081018481111561072457600080fd5b815185600182028301116401000000008211171561074157600080fd5b5050929190602001805164010000000081111561075d57600080fd5b8281019050602081018481111561077357600080fd5b815185600182028301116401000000008211171561079057600080fd5b505092919060200180516401000000008111156107ac57600080fd5b828101905060208101848111156107c257600080fd5b81518560208202830111640100000000821117156107df57600080fd5b505092919060200180516401000000008111156107fb57600080fd5b8281019050602081018481111561081157600080fd5b815185602082028301116401000000008211171561082e57600080fd5b5050929190602001805190602001909291905050509650965096509650965096505091939550919395565b60018181548110151561086857fe5b906000526020600020016000915054906101000a900473ffffffffffffffffffffffffffffffffffffffff1681565b600260009054906101000a900473ffffffffffffffffffffffffffffffffffffffff1673ffffffffffffffffffffffffffffffffffffffff1663133f50f5336040518263ffffffff167c0100000000000000000000000000000000000000000000000000000000028152600401808273ffffffffffffffffffffffffffffffffffffffff1673ffffffffffffffffffffffffffffffffffffffff16815260200191505060206040518083038186803b15801561095257600080fd5b505afa158015610966573d6000803e3d6000fd5b505050506040513d602081101561097c57600080fd5b81019080805190602001909291905050501515610a27576040517f08c379a00000000000000000000000000000000000000000000000000000000081526004018080602001828103825260298152602001807f796f7520617265206e6f74207265676973746572656420696e2074686520617081526020017f706c69636174696f6e000000000000000000000000000000000000000000000081525060400191505060405180910390fd5b6000838383610a34610cb4565b8080602001806020018473ffffffffffffffffffffffffffffffffffffffff1673ffffffffffffffffffffffffffffffffffffffff168152602001838103835286818151815260200191508051906020019080838360005b83811015610aa7578082015181840152602081019050610a8c565b50505050905090810190601f168015610ad45780820380516001836020036101000a031916815260200191505b50838103825285818151815260200191508051906020019080838360005b83811015610b0d578082015181840152602081019050610af2565b50505050905090810190601f168015610b3a5780820380516001836020036101000a031916815260200191505b5095505050505050604051809103906000f080158015610b5e573d6000803e3d6000fd5b50905060018190806001815401808255809150509060018203906000526020600020016000909192909190916101000a81548173ffffffffffffffffffffffffffffffffffffffff021916908373ffffffffffffffffffffffffffffffffffffffff1602179055506000808373ffffffffffffffffffffffffffffffffffffffff1673ffffffffffffffffffffffffffffffffffffffff1681526020019081526020016000208190555050505050565b60606001805480602002602001604051908101604052809291908181526020018280548015610c9257602002820191906000526020600020905b8160009054906101000a900473ffffffffffffffffffffffffffffffffffffffff1673ffffffffffffffffffffffffffffffffffffffff1681526020019060010190808311610c48575b5050505050905090565b60006020528060005260406000206000915090505481565b604051615ed98062000cc68339019056fe608060405260006006553480156200001657600080fd5b5060405162005ed938038062005ed9833981018060405260608110156200003c57600080fd5b8101908080516401000000008111156200005557600080fd5b828101905060208101848111156200006c57600080fd5b81518560018202830111640100000000821117156200008a57600080fd5b50509291906020018051640100000000811115620000a757600080fd5b82810190506020810184811115620000be57600080fd5b8151856001820283011164010000000082111715620000dc57600080fd5b50509291906020018051906020019092919050505082600090805190602001906200010992919062000227565b5081600190805190602001906200012292919062000227565b5080600260006101000a81548173ffffffffffffffffffffffffffffffffffffffff021916908373ffffffffffffffffffffffffffffffffffffffff16021790555060058190806001815401808255809150509060018203906000526020600020016000909192909190916101000a81548173ffffffffffffffffffffffffffffffffffffffff021916908373ffffffffffffffffffffffffffffffffffffffff160217905550600760008373ffffffffffffffffffffffffffffffffffffffff1673ffffffffffffffffffffffffffffffffffffffff16815260200190815260200160002081905550600660008154809291906001019190505550505050620002d6565b828054600181600116156101000203166002900490600052602060002090601f016020900481019282601f106200026a57805160ff19168380011785556200029b565b828001600101855582156200029b579182015b828111156200029a5782518255916020019190600101906200027d565b5b509050620002aa9190620002ae565b5090565b620002d391905b80821115620002cf576000816000905550600101620002b5565b5090565b90565b615bf380620002e66000396000f3fe60806040526004361062000126576000357c0100000000000000000000000000000000000000000000000000000000900463ffffffff168062ce8e3e146200012b5780630323bd58146200019c57806314bfd6d0146200028b5780631785f53c146200030a57806328ffe6c8146200035f57806331ae450b14620003b4578063324ddb1514620004255780634a79d50c14620004925780634b79c07414620005285780634caf9d0b14620006fb5780637048027514620007a75780637284e41614620007fc5780638da5cb5b14620008925780638e2f229f14620008ec578063985751881462000955578063bdd4d18d14620009aa578063bedf77a614620009d8578063c096cdd51462000a2d578063c1d87b381462000bb6578063dba984811462000c1f575b600080fd5b3480156200013857600080fd5b506200014362000d0e565b6040518080602001828103825283818151815260200191508051906020019060200280838360005b83811015620001885780820151818401526020810190506200016b565b505050509050019250505060405180910390f35b348015620001a957600080fd5b506200028960048036036040811015620001c257600080fd5b81019080803573ffffffffffffffffffffffffffffffffffffffff169060200190929190803590602001906401000000008111156200020057600080fd5b8201836020820111156200021357600080fd5b803590602001918460018302840111640100000000831117156200023657600080fd5b91908080601f016020809104026020016040519081016040528093929190818152602001838380828437600081840152601f19601f82011690508083019250505050505050919291929050505062000d9e565b005b3480156200029857600080fd5b50620002c860048036036020811015620002b157600080fd5b810190808035906020019092919050505062000ecd565b604051808273ffffffffffffffffffffffffffffffffffffffff1673ffffffffffffffffffffffffffffffffffffffff16815260200191505060405180910390f35b3480156200031757600080fd5b506200035d600480360360208110156200033057600080fd5b81019080803573ffffffffffffffffffffffffffffffffffffffff16906020019092919050505062000f0c565b005b3480156200036c57600080fd5b50620003b2600480360360208110156200038557600080fd5b81019080803573ffffffffffffffffffffffffffffffffffffffff16906020019092919050505062001207565b005b348015620003c157600080fd5b50620003cc620013a8565b6040518080602001828103825283818151815260200191508051906020019060200280838360005b8381101562000411578082015181840152602081019050620003f4565b505050509050019250505060405180910390f35b3480156200043257600080fd5b5062000478600480360360208110156200044b57600080fd5b81019080803573ffffffffffffffffffffffffffffffffffffffff16906020019092919050505062001438565b604051808215151515815260200191505060405180910390f35b3480156200049f57600080fd5b50620004aa62001497565b6040518080602001828103825283818151815260200191508051906020019080838360005b83811015620004ec578082015181840152602081019050620004cf565b50505050905090810190601f1680156200051a5780820380516001836020036101000a031916815260200191505b509250505060405180910390f35b3480156200053557600080fd5b506200054062001539565b604051808773ffffffffffffffffffffffffffffffffffffffff1673ffffffffffffffffffffffffffffffffffffffff1681526020018060200180602001806020018060200186815260200185810385528a818151815260200191508051906020019080838360005b83811015620005c6578082015181840152602081019050620005a9565b50505050905090810190601f168015620005f45780820380516001836020036101000a031916815260200191505b50858103845289818151815260200191508051906020019080838360005b838110156200062f57808201518184015260208101905062000612565b50505050905090810190601f1680156200065d5780820380516001836020036101000a031916815260200191505b50858103835288818151815260200191508051906020019060200280838360005b838110156200069b5780820151818401526020810190506200067e565b50505050905001858103825287818151815260200191508051906020019060200280838360005b83811015620006df578082015181840152602081019050620006c2565b505050509050019a505050505050505050505060405180910390f35b3480156200070857600080fd5b506200074e600480360360208110156200072157600080fd5b81019080803573ffffffffffffffffffffffffffffffffffffffff169060200190929190505050620017d9565b6040518080602001828103825283818151815260200191508051906020019060200280838360005b838110156200079357808201518184015260208101905062000776565b505050509050019250505060405180910390f35b348015620007b457600080fd5b50620007fa60048036036020811015620007cd57600080fd5b81019080803573ffffffffffffffffffffffffffffffffffffffff16906020019092919050505062001924565b005b3480156200080957600080fd5b506200081462001c2e565b6040518080602001828103825283818151815260200191508051906020019080838360005b838110156200085657808201518184015260208101905062000839565b50505050905090810190601f168015620008845780820380516001836020036101000a031916815260200191505b509250505060405180910390f35b3480156200089f57600080fd5b50620008aa62001cd0565b604051808273ffffffffffffffffffffffffffffffffffffffff1673ffffffffffffffffffffffffffffffffffffffff16815260200191505060405180910390f35b348015620008f957600080fd5b506200093f600480360360208110156200091257600080fd5b81019080803573ffffffffffffffffffffffffffffffffffffffff16906020019092919050505062001cf6565b6040518082815260200191505060405180910390f35b3480156200096257600080fd5b50620009a8600480360360208110156200097b57600080fd5b81019080803573ffffffffffffffffffffffffffffffffffffffff16906020019092919050505062001d0e565b005b348015620009b757600080fd5b50620009c262001fd9565b6040518082815260200191505060405180910390f35b348015620009e557600080fd5b5062000a2b60048036036020811015620009fe57600080fd5b81019080803573ffffffffffffffffffffffffffffffffffffffff16906020019092919050505062001fdf565b005b34801562000a3a57600080fd5b5062000bb46004803603606081101562000a5357600080fd5b81019080803573ffffffffffffffffffffffffffffffffffffffff1690602001909291908035906020019064010000000081111562000a9157600080fd5b82018360208201111562000aa457600080fd5b8035906020019184600183028401116401000000008311171562000ac757600080fd5b91908080601f016020809104026020016040519081016040528093929190818152602001838380828437600081840152601f19601f8201169050808301925050505050505091929192908035906020019064010000000081111562000b2b57600080fd5b82018360208201111562000b3e57600080fd5b8035906020019184600183028401116401000000008311171562000b6157600080fd5b91908080601f016020809104026020016040519081016040528093929190818152602001838380828437600081840152601f19601f82011690508083019250505050505050919291929050505062002172565b005b34801562000bc357600080fd5b5062000c096004803603602081101562000bdc57600080fd5b81019080803573ffffffffffffffffffffffffffffffffffffffff169060200190929190505050620023da565b6040518082815260200191505060405180910390f35b34801562000c2c57600080fd5b5062000d0c6004803603604081101562000c4557600080fd5b81019080803573ffffffffffffffffffffffffffffffffffffffff1690602001909291908035906020019064010000000081111562000c8357600080fd5b82018360208201111562000c9657600080fd5b8035906020019184600183028401116401000000008311171562000cb957600080fd5b91908080601f016020809104026020016040519081016040528093929190818152602001838380828437600081840152601f19601f820116905080830192505050505050509192919290505050620023f2565b005b6060600580548060200260200160405190810160405280929190818152602001828054801562000d9457602002820191906000526020600020905b8160009054906101000a900473ffffffffffffffffffffffffffffffffffffffff1673ffffffffffffffffffffffffffffffffffffffff168152602001906001019080831162000d49575b5050505050905090565b600260009054906101000a900473ffffffffffffffffffffffffffffffffffffffff1673ffffffffffffffffffffffffffffffffffffffff168273ffffffffffffffffffffffffffffffffffffffff16148062000e3b57506000600460008473ffffffffffffffffffffffffffffffffffffffff1673ffffffffffffffffffffffffffffffffffffffff1681526020019081526020016000205414155b151562000eb0576040517f08c379a00000000000000000000000000000000000000000000000000000000081526004018080602001828103825260148152602001807f596f7520417265204e6f7420416e2041646d696e00000000000000000000000081525060200191505060405180910390fd5b806001908051906020019062000ec892919062002521565b505050565b60038181548110151562000edd57fe5b906000526020600020016000915054906101000a900473ffffffffffffffffffffffffffffffffffffffff1681565b600260009054906101000a900473ffffffffffffffffffffffffffffffffffffffff1673ffffffffffffffffffffffffffffffffffffffff163373ffffffffffffffffffffffffffffffffffffffff1614151562000fd2576040517f08c379a000000000000000000000000000000000000000000000000000000000815260040180806020018281038252601b8152602001807f596f7520417265204e6f74207468652047726f7570204f776e6572000000000081525060200191505060405180910390fd5b6000600460008373ffffffffffffffffffffffffffffffffffffffff1673ffffffffffffffffffffffffffffffffffffffff16815260200190815260200160002054141515156200108b576040517f08c379a00000000000000000000000000000000000000000000000000000000081526004018080602001828103825260198152602001807f546869732055736572204973204e6f7420416e2041646d696e0000000000000081525060200191505060405180910390fd5b60036001600460008473ffffffffffffffffffffffffffffffffffffffff1673ffffffffffffffffffffffffffffffffffffffff1681526020019081526020016000205403815481101515620010dd57fe5b9060005260206000200160006101000a81549073ffffffffffffffffffffffffffffffffffffffff02191690556000600460008373ffffffffffffffffffffffffffffffffffffffff1673ffffffffffffffffffffffffffffffffffffffff168152602001908152602001600020819055503073ffffffffffffffffffffffffffffffffffffffff1663bedf77a6826040518263ffffffff167c0100000000000000000000000000000000000000000000000000000000028152600401808273ffffffffffffffffffffffffffffffffffffffff1673ffffffffffffffffffffffffffffffffffffffff168152602001915050600060405180830381600087803b158015620011eb57600080fd5b505af115801562001200573d6000803e3d6000fd5b5050505050565b6000600760008373ffffffffffffffffffffffffffffffffffffffff1673ffffffffffffffffffffffffffffffffffffffff16815260200190815260200160002054141515620012e5576040517f08c379a00000000000000000000000000000000000000000000000000000000081526004018080602001828103825260228152602001807f596f7520416c72656164792041206d656d626572206f6620746869732067726f81526020017f757000000000000000000000000000000000000000000000000000000000000081525060400191505060405180910390fd5b600060058290806001815401808255809150509060018203906000526020600020016000909192909190916101000a81548173ffffffffffffffffffffffffffffffffffffffff021916908373ffffffffffffffffffffffffffffffffffffffff160217905550905080600760008473ffffffffffffffffffffffffffffffffffffffff1673ffffffffffffffffffffffffffffffffffffffff168152602001908152602001600020819055506006600081548092919060010191905055505050565b606060038054806020026020016040519081016040528092919081815260200182805480156200142e57602002820191906000526020600020905b8160009054906101000a900473ffffffffffffffffffffffffffffffffffffffff1673ffffffffffffffffffffffffffffffffffffffff1681526020019060010190808311620013e3575b5050505050905090565b600080600760008473ffffffffffffffffffffffffffffffffffffffff1673ffffffffffffffffffffffffffffffffffffffff168152602001908152602001600020541415156200148d576001905062001492565b600090505b919050565b60008054600181600116156101000203166002900480601f016020809104026020016040519081016040528092919081815260200182805460018160011615610100020316600290048015620015315780601f10620015055761010080835404028352916020019162001531565b820191906000526020600020905b8154815290600101906020018083116200151357829003601f168201915b505050505081565b60006060806060806000600260009054906101000a900473ffffffffffffffffffffffffffffffffffffffff166000600160036005600654848054600181600116156101000203166002900480601f0160208091040260200160405190810160405280929190818152602001828054600181600116156101000203166002900480156200160a5780601f10620015de576101008083540402835291602001916200160a565b820191906000526020600020905b815481529060010190602001808311620015ec57829003601f168201915b50505050509450838054600181600116156101000203166002900480601f016020809104026020016040519081016040528092919081815260200182805460018160011615610100020316600290048015620016aa5780601f106200167e57610100808354040283529160200191620016aa565b820191906000526020600020905b8154815290600101906020018083116200168c57829003601f168201915b50505050509350828054806020026020016040519081016040528092919081815260200182805480156200173457602002820191906000526020600020905b8160009054906101000a900473ffffffffffffffffffffffffffffffffffffffff1673ffffffffffffffffffffffffffffffffffffffff1681526020019060010190808311620016e9575b5050505050925081805480602002602001604051908101604052809291908181526020018280548015620017be57602002820191906000526020600020905b8160009054906101000a900473ffffffffffffffffffffffffffffffffffffffff1673ffffffffffffffffffffffffffffffffffffffff168152602001906001019080831162001773575b50505050509150955095509550955095509550909192939495565b60606000600760008473ffffffffffffffffffffffffffffffffffffffff1673ffffffffffffffffffffffffffffffffffffffff168152602001908152602001600020541415151562001894576040517f08c379a000000000000000000000000000000000000000000000000000000000815260040180806020018281038252601f8152602001807f596f7520417265204e6f74204d656d626572206f66207468652047726f75700081525060200191505060405180910390fd5b60088054806020026020016040519081016040528092919081815260200182805480156200191857602002820191906000526020600020905b8160009054906101000a900473ffffffffffffffffffffffffffffffffffffffff1673ffffffffffffffffffffffffffffffffffffffff1681526020019060010190808311620018cd575b50505050509050919050565b600260009054906101000a900473ffffffffffffffffffffffffffffffffffffffff1673ffffffffffffffffffffffffffffffffffffffff163373ffffffffffffffffffffffffffffffffffffffff16141515620019ea576040517f08c379a000000000000000000000000000000000000000000000000000000000815260040180806020018281038252601b8152602001807f596f7520417265204e6f74207468652047726f7570204f776e6572000000000081525060200191505060405180910390fd5b6000600460008373ffffffffffffffffffffffffffffffffffffffff1673ffffffffffffffffffffffffffffffffffffffff1681526020019081526020016000205414151562001ac8576040517f08c379a000000000000000000000000000000000000000000000000000000000815260040180806020018281038252602c8152602001807f596f7220416c726561647920486176652041646465642054686973207573657281526020017f20617320616e2041646d696e000000000000000000000000000000000000000081525060400191505060405180910390fd5b600060038290806001815401808255809150509060018203906000526020600020016000909192909190916101000a81548173ffffffffffffffffffffffffffffffffffffffff021916908373ffffffffffffffffffffffffffffffffffffffff160217905550905080600460008473ffffffffffffffffffffffffffffffffffffffff1673ffffffffffffffffffffffffffffffffffffffff168152602001908152602001600020819055503073ffffffffffffffffffffffffffffffffffffffff166328ffe6c8836040518263ffffffff167c0100000000000000000000000000000000000000000000000000000000028152600401808273ffffffffffffffffffffffffffffffffffffffff1673ffffffffffffffffffffffffffffffffffffffff168152602001915050600060405180830381600087803b15801562001c1157600080fd5b505af115801562001c26573d6000803e3d6000fd5b505050505050565b60018054600181600116156101000203166002900480601f01602080910402602001604051908101604052809291908181526020018280546001816001161561010002031660029004801562001cc85780601f1062001c9c5761010080835404028352916020019162001cc8565b820191906000526020600020905b81548152906001019060200180831162001caa57829003601f168201915b505050505081565b600260009054906101000a900473ffffffffffffffffffffffffffffffffffffffff1681565b60076020528060005260406000206000915090505481565b600260009054906101000a900473ffffffffffffffffffffffffffffffffffffffff1673ffffffffffffffffffffffffffffffffffffffff163373ffffffffffffffffffffffffffffffffffffffff16148062001dab57506000600460003373ffffffffffffffffffffffffffffffffffffffff1673ffffffffffffffffffffffffffffffffffffffff1681526020019081526020016000205414155b151562001e20576040517f08c379a00000000000000000000000000000000000000000000000000000000081526004018080602001828103825260148152602001807f596f7520417265204e6f7420416e2041646d696e00000000000000000000000081525060200191505060405180910390fd5b6000600760008373ffffffffffffffffffffffffffffffffffffffff1673ffffffffffffffffffffffffffffffffffffffff168152602001908152602001600020541415151562001eff576040517f08c379a00000000000000000000000000000000000000000000000000000000081526004018080602001828103825260218152602001807f75736572206973206e6f742061206d656d626572206f66207468652067726f7581526020017f700000000000000000000000000000000000000000000000000000000000000081525060400191505060405180910390fd5b60056001600760008473ffffffffffffffffffffffffffffffffffffffff1673ffffffffffffffffffffffffffffffffffffffff168152602001908152602001600020540381548110151562001f5157fe5b9060005260206000200160006101000a81549073ffffffffffffffffffffffffffffffffffffffff02191690556000600760008373ffffffffffffffffffffffffffffffffffffffff1673ffffffffffffffffffffffffffffffffffffffff168152602001908152602001600020819055506006600081548092919060019003919050555050565b60065481565b6000600760008373ffffffffffffffffffffffffffffffffffffffff1673ffffffffffffffffffffffffffffffffffffffff168152602001908152602001600020541415151562002098576040517f08c379a000000000000000000000000000000000000000000000000000000000815260040180806020018281038252601f8152602001807f596f7520417265204e6f74204d656d626572206f66207468652047726f75700081525060200191505060405180910390fd5b60056001600760008473ffffffffffffffffffffffffffffffffffffffff1673ffffffffffffffffffffffffffffffffffffffff1681526020019081526020016000205403815481101515620020ea57fe5b9060005260206000200160006101000a81549073ffffffffffffffffffffffffffffffffffffffff02191690556000600760008373ffffffffffffffffffffffffffffffffffffffff1673ffffffffffffffffffffffffffffffffffffffff168152602001908152602001600020819055506006600081548092919060019003919050555050565b6000600760008573ffffffffffffffffffffffffffffffffffffffff1673ffffffffffffffffffffffffffffffffffffffff16815260200190815260200160002054141515156200222b576040517f08c379a000000000000000000000000000000000000000000000000000000000815260040180806020018281038252601f8152602001807f596f7520417265204e6f74204d656d626572206f66207468652047726f75700081525060200191505060405180910390fd5b60008383836200223a620025a8565b808473ffffffffffffffffffffffffffffffffffffffff1673ffffffffffffffffffffffffffffffffffffffff1681526020018060200180602001838103835285818151815260200191508051906020019080838360005b83811015620022af57808201518184015260208101905062002292565b50505050905090810190601f168015620022dd5780820380516001836020036101000a031916815260200191505b50838103825284818151815260200191508051906020019080838360005b8381101562002318578082015181840152602081019050620022fb565b50505050905090810190601f168015620023465780820380516001836020036101000a031916815260200191505b5095505050505050604051809103906000f0801580156200236b573d6000803e3d6000fd5b50905060088190806001815401808255809150509060018203906000526020600020016000909192909190916101000a81548173ffffffffffffffffffffffffffffffffffffffff021916908373ffffffffffffffffffffffffffffffffffffffff1602179055505050505050565b60046020528060005260406000206000915090505481565b600260009054906101000a900473ffffffffffffffffffffffffffffffffffffffff1673ffffffffffffffffffffffffffffffffffffffff168273ffffffffffffffffffffffffffffffffffffffff1614806200248f57506000600460008473ffffffffffffffffffffffffffffffffffffffff1673ffffffffffffffffffffffffffffffffffffffff1681526020019081526020016000205414155b151562002504576040517f08c379a00000000000000000000000000000000000000000000000000000000081526004018080602001828103825260148152602001807f596f7520417265204e6f7420416e2041646d696e00000000000000000000000081525060200191505060405180910390fd5b80600090805190602001906200251c92919062002521565b505050565b828054600181600116156101000203166002900490600052602060002090601f016020900481019282601f106200256457805160ff191683800117855562002595565b8280016001018555821562002595579182015b828111156200259457825182559160200191906001019062002577565b5b509050620025a49190620025b9565b5090565b6040516135e680620025e283390190565b620025de91905b80821115620025da576000816000905550600101620025c0565b5090565b9056fe60806040526000600555600060065560006008553480156200002057600080fd5b50604051620035e6380380620035e6833981018060405260608110156200004657600080fd5b810190808051906020019092919080516401000000008111156200006957600080fd5b828101905060208101848111156200008057600080fd5b81518560018202830111640100000000821117156200009e57600080fd5b50509291906020018051640100000000811115620000bb57600080fd5b82810190506020810184811115620000d257600080fd5b8151856001820283011164010000000082111715620000f057600080fd5b505092919050505081600190805190602001906200011092919062000195565b5080600290805190602001906200012992919062000195565b50426003819055506001600a60006101000a81548160ff021916908315150217905550826000806101000a81548173ffffffffffffffffffffffffffffffffffffffff021916908373ffffffffffffffffffffffffffffffffffffffff16021790555050505062000244565b828054600181600116156101000203166002900490600052602060002090601f016020900481019282601f10620001d857805160ff191683800117855562000209565b8280016001018555821562000209579182015b8281111562000208578251825591602001919060010190620001eb565b5b5090506200021891906200021c565b5090565b6200024191905b808211156200023d57600081600090555060010162000223565b5090565b90565b61339280620002546000396000f3fe6080604052600436106200010f576000357c0100000000000000000000000000000000000000000000000000000000900463ffffffff1680630d15fd7714620001145780631dda316514620001425780631f1bd692146200015c5780633a98ef3914620001f25780635f74bbde1462000220578063850710c3146200027f5780638c6838ba14620003155780638da5cb5b146200059157806399f71a7d14620005eb578063a0ccc8b9146200061d578063a4ff78d1146200064b578063b80777ea146200067d578063ce5036ce14620006ab578063d4923d4e1462000738578063d8bff5a514620007a1578063dac17430146200080a578063e38106c41462000838578063eeb9eac91462000866575b600080fd5b3480156200012157600080fd5b506200012c620009ef565b6040518082815260200191505060405180910390f35b3480156200014f57600080fd5b506200015a620009f5565b005b3480156200016957600080fd5b506200017462000a09565b6040518080602001828103825283818151815260200191508051906020019080838360005b83811015620001b657808201518184015260208101905062000199565b50505050905090810190601f168015620001e45780820380516001836020036101000a031916815260200191505b509250505060405180910390f35b348015620001ff57600080fd5b506200020a62000aab565b6040518082815260200191505060405180910390f35b3480156200022d57600080fd5b506200027d600480360360408110156200024657600080fd5b81019080803573ffffffffffffffffffffffffffffffffffffffff1690602001909291908035906020019092919050505062000ab1565b005b3480156200028c57600080fd5b506200029762000e1d565b6040518080602001828103825283818151815260200191508051906020019080838360005b83811015620002d9578082015181840152602081019050620002bc565b50505050905090810190601f168015620003075780820380516001836020036101000a031916815260200191505b509250505060405180910390f35b3480156200032257600080fd5b506200032d62000ebf565b604051808b73ffffffffffffffffffffffffffffffffffffffff1673ffffffffffffffffffffffffffffffffffffffff1681526020018060200180602001806020018a8152602001806020018060200189815260200188815260200187815260200186810386528f818151815260200191508051906020019080838360005b83811015620003c9578082015181840152602081019050620003ac565b50505050905090810190601f168015620003f75780820380516001836020036101000a031916815260200191505b5086810385528e818151815260200191508051906020019080838360005b838110156200043257808201518184015260208101905062000415565b50505050905090810190601f168015620004605780820380516001836020036101000a031916815260200191505b5086810384528d818151815260200191508051906020019080838360005b838110156200049b5780820151818401526020810190506200047e565b50505050905090810190601f168015620004c95780820380516001836020036101000a031916815260200191505b5086810383528b818151815260200191508051906020019060200280838360005b8381101562000507578082015181840152602081019050620004ea565b5050505090500186810382528a818151815260200191508051906020019080838360005b83811015620005485780820151818401526020810190506200052b565b50505050905090810190601f168015620005765780820380516001836020036101000a031916815260200191505b509f5050505050505050505050505050505060405180910390f35b3480156200059e57600080fd5b50620005a962001465565b604051808273ffffffffffffffffffffffffffffffffffffffff1673ffffffffffffffffffffffffffffffffffffffff16815260200191505060405180910390f35b348015620005f857600080fd5b50620006036200148a565b604051808215151515815260200191505060405180910390f35b3480156200062a57600080fd5b50620006356200149d565b6040518082815260200191505060405180910390f35b3480156200065857600080fd5b5062000663620014a3565b604051808215151515815260200191505060405180910390f35b3480156200068a57600080fd5b5062000695620014f2565b6040518082815260200191505060405180910390f35b348015620006b857600080fd5b506200071e60048036036040811015620006d157600080fd5b81019080803573ffffffffffffffffffffffffffffffffffffffff169060200190929190803573ffffffffffffffffffffffffffffffffffffffff169060200190929190505050620014f8565b604051808215151515815260200191505060405180910390f35b3480156200074557600080fd5b506200078b600480360360208110156200075e57600080fd5b81019080803573ffffffffffffffffffffffffffffffffffffffff169060200190929190505050620015f2565b6040518082815260200191505060405180910390f35b348015620007ae57600080fd5b50620007f460048036036020811015620007c757600080fd5b81019080803573ffffffffffffffffffffffffffffffffffffffff1690602001909291905050506200163b565b6040518082815260200191505060405180910390f35b3480156200081757600080fd5b506200082262001653565b6040518082815260200191505060405180910390f35b3480156200084557600080fd5b506200085062001659565b6040518082815260200191505060405180910390f35b3480156200087357600080fd5b50620009ed600480360360608110156200088c57600080fd5b81019080803573ffffffffffffffffffffffffffffffffffffffff16906020019092919080359060200190640100000000811115620008ca57600080fd5b820183602082011115620008dd57600080fd5b803590602001918460018302840111640100000000831117156200090057600080fd5b91908080601f016020809104026020016040519081016040528093929190818152602001838380828437600081840152601f19601f820116905080830192505050505050509192919290803590602001906401000000008111156200096457600080fd5b8201836020820111156200097757600080fd5b803590602001918460018302840111640100000000831117156200099a57600080fd5b91908080601f016020809104026020016040519081016040528093929190818152602001838380828437600081840152601f19601f82011690508083019250505050505050919291929050505062001695565b005b60055481565b600860008154809291906001019190505550565b60018054600181600116156101000203166002900480601f01602080910402602001604051908101604052809291908181526020018280546001816001161561010002031660029004801562000aa35780601f1062000a775761010080835404028352916020019162000aa3565b820191906000526020600020905b81548152906001019060200180831162000a8557829003601f168201915b505050505081565b60085481565b62000abd8233620014f8565b151562000b58576040517f08c379a00000000000000000000000000000000000000000000000000000000081526004018080602001828103825260228152602001807f7573657220636f6e74726163742061646472657373206973206e6f7420796f7581526020017f727300000000000000000000000000000000000000000000000000000000000081525060400191505060405180910390fd5b6001811015801562000b6b5750600a8111155b151562000c06576040517f08c379a00000000000000000000000000000000000000000000000000000000081526004018080602001828103825260228152602001807f74686520766f74652076616c7565206973206265747765656e203120616e642081526020017f313000000000000000000000000000000000000000000000000000000000000081525060400191505060405180910390fd5b6000600960008473ffffffffffffffffffffffffffffffffffffffff1673ffffffffffffffffffffffffffffffffffffffff1681526020019081526020016000205414151562000c625762000c5c8282620018eb565b62000e19565b80600960008473ffffffffffffffffffffffffffffffffffffffff1673ffffffffffffffffffffffffffffffffffffffff16815260200190815260200160002081905550806006600082825401925050819055506000809054906101000a900473ffffffffffffffffffffffffffffffffffffffff1673ffffffffffffffffffffffffffffffffffffffff16633de3f629826040518263ffffffff167c010000000000000000000000000000000000000000000000000000000002815260040180828152602001915050600060405180830381600087803b15801562000d4757600080fd5b505af115801562000d5c573d6000803e3d6000fd5b505050506000809054906101000a900473ffffffffffffffffffffffffffffffffffffffff1673ffffffffffffffffffffffffffffffffffffffff16638b7374726040518163ffffffff167c0100000000000000000000000000000000000000000000000000000000028152600401600060405180830381600087803b15801562000de657600080fd5b505af115801562000dfb573d6000803e3d6000fd5b50505050600560008154809291906001019190505550426007819055505b5050565b60028054600181600116156101000203166002900480601f01602080910402602001604051908101604052809291908181526020018280546001816001161561010002031660029004801562000eb75780601f1062000e8b5761010080835404028352916020019162000eb7565b820191906000526020600020905b81548152906001019060200180831162000e9957829003601f168201915b505050505081565b600060608060606000606080600080600062000eda620014a3565b151562000f4f576040517f08c379a000000000000000000000000000000000000000000000000000000000815260040180806020018281038252601f8152602001807f74686520706f73742068617665206c6f77206176657261676520766f7465730081525060200191505060405180910390fd5b6000809054906101000a900473ffffffffffffffffffffffffffffffffffffffff166000809054906101000a900473ffffffffffffffffffffffffffffffffffffffff1673ffffffffffffffffffffffffffffffffffffffff166306fdde036040518163ffffffff167c010000000000000000000000000000000000000000000000000000000002815260040160006040518083038186803b15801562000ff557600080fd5b505afa1580156200100a573d6000803e3d6000fd5b505050506040513d6000823e3d601f19601f8201168201806040525060208110156200103557600080fd5b8101908080516401000000008111156200104e57600080fd5b828101905060208101848111156200106557600080fd5b81518560018202830111640100000000821117156200108357600080fd5b50509291905050506001600260035460046000809054906101000a900473ffffffffffffffffffffffffffffffffffffffff1673ffffffffffffffffffffffffffffffffffffffff16630aaf15306040518163ffffffff167c010000000000000000000000000000000000000000000000000000000002815260040160006040518083038186803b1580156200111857600080fd5b505afa1580156200112d573d6000803e3d6000fd5b505050506040513d6000823e3d601f19601f8201168201806040525060208110156200115857600080fd5b8101908080516401000000008111156200117157600080fd5b828101905060208101848111156200118857600080fd5b8151856001820283011164010000000082111715620011a657600080fd5b50509291905050506005546008546000809054906101000a900473ffffffffffffffffffffffffffffffffffffffff1673ffffffffffffffffffffffffffffffffffffffff1663679aefce6040518163ffffffff167c010000000000000000000000000000000000000000000000000000000002815260040160206040518083038186803b1580156200123857600080fd5b505afa1580156200124d573d6000803e3d6000fd5b505050506040513d60208110156200126457600080fd5b8101908080519060200190929190505050889850878054600181600116156101000203166002900480601f016020809104026020016040519081016040528092919081815260200182805460018160011615610100020316600290048015620013115780601f10620012e55761010080835404028352916020019162001311565b820191906000526020600020905b815481529060010190602001808311620012f357829003601f168201915b50505050509750868054600181600116156101000203166002900480601f016020809104026020016040519081016040528092919081815260200182805460018160011615610100020316600290048015620013b15780601f106200138557610100808354040283529160200191620013b1565b820191906000526020600020905b8154815290600101906020018083116200139357829003601f168201915b50505050509650848054806020026020016040519081016040528092919081815260200182805480156200143b57602002820191906000526020600020905b8160009054906101000a900473ffffffffffffffffffffffffffffffffffffffff1673ffffffffffffffffffffffffffffffffffffffff1681526020019060010190808311620013f0575b50505050509450839350995099509950995099509950995099509950995090919293949596979899565b6000809054906101000a900473ffffffffffffffffffffffffffffffffffffffff1681565b600a60009054906101000a900460ff1681565b60065481565b600060786007544203118015620014bd5750600060075414155b15620014ea576005620014cf62001659565b1015620014e05760009050620014ef565b60019050620014ef565b600190505b90565b60035481565b6000808390508073ffffffffffffffffffffffffffffffffffffffff16632f54bf6e846040518263ffffffff167c0100000000000000000000000000000000000000000000000000000000028152600401808273ffffffffffffffffffffffffffffffffffffffff1673ffffffffffffffffffffffffffffffffffffffff16815260200191505060206040518083038186803b1580156200159857600080fd5b505afa158015620015ad573d6000803e3d6000fd5b505050506040513d6020811015620015c457600080fd5b810190808051906020019092919050505015620015e6576001915050620015ec565b60009150505b92915050565b6000600960008373ffffffffffffffffffffffffffffffffffffffff1673ffffffffffffffffffffffffffffffffffffffff168152602001908152602001600020549050919050565b60096020528060005260406000206000915090505481565b60075481565b60008060055414806200166e57506000600654145b156200167e576000905062001692565b6005546006548115156200168e57fe5b0490505b90565b620016a18333620014f8565b15156200173c576040517f08c379a00000000000000000000000000000000000000000000000000000000081526004018080602001828103825260228152602001807f7573657220636f6e74726163742061646472657373206973206e6f7420796f7581526020017f727300000000000000000000000000000000000000000000000000000000000081525060400191505060405180910390fd5b60008383836200174b62001bd3565b808473ffffffffffffffffffffffffffffffffffffffff1673ffffffffffffffffffffffffffffffffffffffff1681526020018060200180602001838103835285818151815260200191508051906020019080838360005b83811015620017c0578082015181840152602081019050620017a3565b50505050905090810190601f168015620017ee5780820380516001836020036101000a031916815260200191505b50838103825284818151815260200191508051906020019080838360005b83811015620018295780820151818401526020810190506200180c565b50505050905090810190601f168015620018575780820380516001836020036101000a031916815260200191505b5095505050505050604051809103906000f0801580156200187c573d6000803e3d6000fd5b50905060048190806001815401808255809150509060018203906000526020600020016000909192909190916101000a81548173ffffffffffffffffffffffffffffffffffffffff021916908373ffffffffffffffffffffffffffffffffffffffff1602179055505050505050565b620018f78233620014f8565b151562001992576040517f08c379a00000000000000000000000000000000000000000000000000000000081526004018080602001828103825260228152602001807f7573657220636f6e74726163742061646472657373206973206e6f7420796f7581526020017f727300000000000000000000000000000000000000000000000000000000000081525060400191505060405180910390fd5b600960008373ffffffffffffffffffffffffffffffffffffffff1673ffffffffffffffffffffffffffffffffffffffff168152602001908152602001600020546006600082825403925050819055506000809054906101000a900473ffffffffffffffffffffffffffffffffffffffff1673ffffffffffffffffffffffffffffffffffffffff16630381dc93600960008573ffffffffffffffffffffffffffffffffffffffff1673ffffffffffffffffffffffffffffffffffffffff168152602001908152602001600020546040518263ffffffff167c010000000000000000000000000000000000000000000000000000000002815260040180828152602001915050600060405180830381600087803b15801562001ab157600080fd5b505af115801562001ac6573d6000803e3d6000fd5b5050505080600960008473ffffffffffffffffffffffffffffffffffffffff1673ffffffffffffffffffffffffffffffffffffffff16815260200190815260200160002081905550806006600082825401925050819055506000809054906101000a900473ffffffffffffffffffffffffffffffffffffffff1673ffffffffffffffffffffffffffffffffffffffff16633de3f629826040518263ffffffff167c010000000000000000000000000000000000000000000000000000000002815260040180828152602001915050600060405180830381600087803b15801562001baf57600080fd5b505af115801562001bc4573d6000803e3d6000fd5b50505050426007819055505050565b6040516117828062001be58339019056fe6080604052600060045560006005553480156200001b57600080fd5b506040516200178238038062001782833981018060405260608110156200004157600080fd5b810190808051906020019092919080516401000000008111156200006457600080fd5b828101905060208101848111156200007b57600080fd5b81518560018202830111640100000000821117156200009957600080fd5b50509291906020018051640100000000811115620000b657600080fd5b82810190506020810184811115620000cd57600080fd5b8151856001820283011164010000000082111715620000eb57600080fd5b505092919050505081600190805190602001906200010b92919062000175565b5080600290805190602001906200012492919062000175565b5042600381905550826000806101000a81548173ffffffffffffffffffffffffffffffffffffffff021916908373ffffffffffffffffffffffffffffffffffffffff16021790555050505062000224565b828054600181600116156101000203166002900490600052602060002090601f016020900481019282601f10620001b857805160ff1916838001178555620001e9565b82800160010185558215620001e9579182015b82811115620001e8578251825591602001919060010190620001cb565b5b509050620001f89190620001fc565b5090565b6200022191905b808211156200021d57600081600090555060010162000203565b5090565b90565b61154e80620002346000396000f3fe6080604052600436106100c5576000357c0100000000000000000000000000000000000000000000000000000000900463ffffffff1680630d15fd77146100ca5780631f1bd692146100f55780635f74bbde14610185578063850710c3146101e0578063a0ccc8b914610270578063a4ff78d11461029b578063b80777ea146102ca578063cc773044146102f5578063ce5036ce1461050a578063d4923d4e14610593578063d8bff5a5146105f8578063dac174301461065d578063e38106c414610688575b600080fd5b3480156100d657600080fd5b506100df6106b3565b6040518082815260200191505060405180910390f35b34801561010157600080fd5b5061010a6106b9565b6040518080602001828103825283818151815260200191508051906020019080838360005b8381101561014a57808201518184015260208101905061012f565b50505050905090810190601f1680156101775780820380516001836020036101000a031916815260200191505b509250505060405180910390f35b34801561019157600080fd5b506101de600480360360408110156101a857600080fd5b81019080803573ffffffffffffffffffffffffffffffffffffffff16906020019092919080359060200190929190505050610757565b005b3480156101ec57600080fd5b506101f5610aaf565b6040518080602001828103825283818151815260200191508051906020019080838360005b8381101561023557808201518184015260208101905061021a565b50505050905090810190601f1680156102625780820380516001836020036101000a031916815260200191505b509250505060405180910390f35b34801561027c57600080fd5b50610285610b4d565b6040518082815260200191505060405180910390f35b3480156102a757600080fd5b506102b0610b53565b604051808215151515815260200191505060405180910390f35b3480156102d657600080fd5b506102df610b9c565b6040518082815260200191505060405180910390f35b34801561030157600080fd5b5061030a610ba2565b604051808873ffffffffffffffffffffffffffffffffffffffff1673ffffffffffffffffffffffffffffffffffffffff1681526020018060200180602001878152602001806020018060200186815260200185810385528b818151815260200191508051906020019080838360005b83811015610394578082015181840152602081019050610379565b50505050905090810190601f1680156103c15780820380516001836020036101000a031916815260200191505b5085810384528a818151815260200191508051906020019080838360005b838110156103fa5780820151818401526020810190506103df565b50505050905090810190601f1680156104275780820380516001836020036101000a031916815260200191505b50858103835288818151815260200191508051906020019080838360005b83811015610460578082015181840152602081019050610445565b50505050905090810190601f16801561048d5780820380516001836020036101000a031916815260200191505b50858103825287818151815260200191508051906020019080838360005b838110156104c65780820151818401526020810190506104ab565b50505050905090810190601f1680156104f35780820380516001836020036101000a031916815260200191505b509b50505050505050505050505060405180910390f35b34801561051657600080fd5b506105796004803603604081101561052d57600080fd5b81019080803573ffffffffffffffffffffffffffffffffffffffff169060200190929190803573ffffffffffffffffffffffffffffffffffffffff1690602001909291905050506110b4565b604051808215151515815260200191505060405180910390f35b34801561059f57600080fd5b506105e2600480360360208110156105b657600080fd5b81019080803573ffffffffffffffffffffffffffffffffffffffff1690602001909291905050506111a9565b6040518082815260200191505060405180910390f35b34801561060457600080fd5b506106476004803603602081101561061b57600080fd5b81019080803573ffffffffffffffffffffffffffffffffffffffff1690602001909291905050506111f2565b6040518082815260200191505060405180910390f35b34801561066957600080fd5b5061067261120a565b6040518082815260200191505060405180910390f35b34801561069457600080fd5b5061069d611210565b6040518082815260200191505060405180910390f35b60045481565b60018054600181600116156101000203166002900480601f01602080910402602001604051908101604052809291908181526020018280546001816001161561010002031660029004801561074f5780601f106107245761010080835404028352916020019161074f565b820191906000526020600020905b81548152906001019060200180831161073257829003601f168201915b505050505081565b61076182336110b4565b15156107fb576040517f08c379a00000000000000000000000000000000000000000000000000000000081526004018080602001828103825260228152602001807f7573657220636f6e74726163742061646472657373206973206e6f7420796f7581526020017f727300000000000000000000000000000000000000000000000000000000000081525060400191505060405180910390fd5b6001811015801561080d5750600a8111155b15156108a7576040517f08c379a00000000000000000000000000000000000000000000000000000000081526004018080602001828103825260228152602001807f74686520766f74652076616c7565206973206265747765656e203120616e642081526020017f313000000000000000000000000000000000000000000000000000000000000081525060400191505060405180910390fd5b6000600760008473ffffffffffffffffffffffffffffffffffffffff1673ffffffffffffffffffffffffffffffffffffffff168152602001908152602001600020541415156108ff576108fa8282611248565b610aab565b80600760008473ffffffffffffffffffffffffffffffffffffffff1673ffffffffffffffffffffffffffffffffffffffff16815260200190815260200160002081905550806005600082825401925050819055506000809054906101000a900473ffffffffffffffffffffffffffffffffffffffff1673ffffffffffffffffffffffffffffffffffffffff16633de3f629826040518263ffffffff167c010000000000000000000000000000000000000000000000000000000002815260040180828152602001915050600060405180830381600087803b1580156109e357600080fd5b505af11580156109f7573d6000803e3d6000fd5b505050506000809054906101000a900473ffffffffffffffffffffffffffffffffffffffff1673ffffffffffffffffffffffffffffffffffffffff16638b7374726040518163ffffffff167c0100000000000000000000000000000000000000000000000000000000028152600401600060405180830381600087803b158015610a8057600080fd5b505af1158015610a94573d6000803e3d6000fd5b505050506004600081548092919060010191905055505b5050565b60028054600181600116156101000203166002900480601f016020809104026020016040519081016040528092919081815260200182805460018160011615610100020316600290048015610b455780601f10610b1a57610100808354040283529160200191610b45565b820191906000526020600020905b815481529060010190602001808311610b2857829003601f168201915b505050505081565b60055481565b600061012c6006544203118015610b6d5750600060065414155b15610b94576005610b7c611210565b1015610b8b5760009050610b99565b60019050610b99565b600190505b90565b60035481565b600060608060006060806000610bb6610b53565b1515610c50576040517f08c379a00000000000000000000000000000000000000000000000000000000081526004018080602001828103825260228152602001807f74686520636f6d6d656e742068617665206c6f77206176657261676520766f7481526020017f657300000000000000000000000000000000000000000000000000000000000081525060400191505060405180910390fd5b6000809054906101000a900473ffffffffffffffffffffffffffffffffffffffff166000809054906101000a900473ffffffffffffffffffffffffffffffffffffffff1673ffffffffffffffffffffffffffffffffffffffff166306fdde036040518163ffffffff167c010000000000000000000000000000000000000000000000000000000002815260040160006040518083038186803b158015610cf557600080fd5b505afa158015610d09573d6000803e3d6000fd5b505050506040513d6000823e3d601f19601f820116820180604052506020811015610d3357600080fd5b810190808051640100000000811115610d4b57600080fd5b82810190506020810184811115610d6157600080fd5b8151856001820283011164010000000082111715610d7e57600080fd5b5050929190505050600160035460026000809054906101000a900473ffffffffffffffffffffffffffffffffffffffff1673ffffffffffffffffffffffffffffffffffffffff16630aaf15306040518163ffffffff167c010000000000000000000000000000000000000000000000000000000002815260040160006040518083038186803b158015610e1057600080fd5b505afa158015610e24573d6000803e3d6000fd5b505050506040513d6000823e3d601f19601f820116820180604052506020811015610e4e57600080fd5b810190808051640100000000811115610e6657600080fd5b82810190506020810184811115610e7c57600080fd5b8151856001820283011164010000000082111715610e9957600080fd5b50509291905050506000809054906101000a900473ffffffffffffffffffffffffffffffffffffffff1673ffffffffffffffffffffffffffffffffffffffff1663679aefce6040518163ffffffff167c010000000000000000000000000000000000000000000000000000000002815260040160206040518083038186803b158015610f2457600080fd5b505afa158015610f38573d6000803e3d6000fd5b505050506040513d6020811015610f4e57600080fd5b8101908080519060200190929190505050859550848054600181600116156101000203166002900480601f016020809104026020016040519081016040528092919081815260200182805460018160011615610100020316600290048015610ff75780601f10610fcc57610100808354040283529160200191610ff7565b820191906000526020600020905b815481529060010190602001808311610fda57829003601f168201915b50505050509450828054600181600116156101000203166002900480601f0160208091040260200160405190810160405280929190818152602001828054600181600116156101000203166002900480156110935780601f1061106857610100808354040283529160200191611093565b820191906000526020600020905b81548152906001019060200180831161107657829003601f168201915b50505050509250819150965096509650965096509650965090919293949596565b6000808390508073ffffffffffffffffffffffffffffffffffffffff16632f54bf6e846040518263ffffffff167c0100000000000000000000000000000000000000000000000000000000028152600401808273ffffffffffffffffffffffffffffffffffffffff1673ffffffffffffffffffffffffffffffffffffffff16815260200191505060206040518083038186803b15801561115357600080fd5b505afa158015611167573d6000803e3d6000fd5b505050506040513d602081101561117d57600080fd5b81019080805190602001909291905050501561119d5760019150506111a3565b60009150505b92915050565b6000600760008373ffffffffffffffffffffffffffffffffffffffff1673ffffffffffffffffffffffffffffffffffffffff168152602001908152602001600020549050919050565b60076020528060005260406000206000915090505481565b60065481565b600080600454148061122457506000600554145b156112325760009050611245565b60045460055481151561124157fe5b0490505b90565b61125282336110b4565b15156112ec576040517f08c379a00000000000000000000000000000000000000000000000000000000081526004018080602001828103825260228152602001807f7573657220636f6e74726163742061646472657373206973206e6f7420796f7581526020017f727300000000000000000000000000000000000000000000000000000000000081525060400191505060405180910390fd5b600760008373ffffffffffffffffffffffffffffffffffffffff1673ffffffffffffffffffffffffffffffffffffffff168152602001908152602001600020546005600082825403925050819055506000809054906101000a900473ffffffffffffffffffffffffffffffffffffffff1673ffffffffffffffffffffffffffffffffffffffff16630381dc93600760008573ffffffffffffffffffffffffffffffffffffffff1673ffffffffffffffffffffffffffffffffffffffff168152602001908152602001600020546040518263ffffffff167c010000000000000000000000000000000000000000000000000000000002815260040180828152602001915050600060405180830381600087803b15801561140a57600080fd5b505af115801561141e573d6000803e3d6000fd5b5050505080600760008473ffffffffffffffffffffffffffffffffffffffff1673ffffffffffffffffffffffffffffffffffffffff16815260200190815260200160002081905550806005600082825401925050819055506000809054906101000a900473ffffffffffffffffffffffffffffffffffffffff1673ffffffffffffffffffffffffffffffffffffffff16633de3f629826040518263ffffffff167c010000000000000000000000000000000000000000000000000000000002815260040180828152602001915050600060405180830381600087803b15801561150657600080fd5b505af115801561151a573d6000803e3d6000fd5b50505050505056fea165627a7a72305820ea0f147cc383d8abac08a65729d586303d4b9237a569a508624f625b0d7a080f0029a165627a7a7230582053dafc35bfdfae5cbc5ce0bca9f9e30b8d39bfdaee976a568632221243ea36c80029a165627a7a72305820dc86c47345312fa9462cebd1c823947b2cb7b620b340d2bdb68106f2f37384dc0029a165627a7a7230582087f52187ab47fdb42b884883747d688e74f56d9c3f113c4fca31aa873ac9cdcf0029",
  "source": "pragma solidity ^0.5.0;\nimport \"./Group.sol\";\nimport \"./UserFactory.sol\";\n\ncontract GroupFactory {\n\n\n    mapping(address => uint256) public groupsIndexs;\n    address[] public groups;\n    UserFactory public userFactory;\n\n    constructor(address UserFactoryAddress) public {\n        userFactory = UserFactory(UserFactoryAddress);\n    }\n\n\n    function createGroup (string memory initialTitle, string memory initialDescription, address user_contract_address) public {\n        require(userFactory.checkUserExists(msg.sender), \"you are not registered in the application\");\n        Group group = new Group(initialTitle, initialDescription, user_contract_address);\n        groupsIndexs[address(group)] = groups.push(address(group));\n    }\n\n    function getGroups () public view returns (address[] memory) {\n        return groups;\n    }\n\n    function getGroup(address group_address ) public view returns(address,string memory,string memory,address[] memory,address[] memory, uint) {\n        uint256 index = groupsIndexs[group_address];\n        return Group(groups[index-1]).getGroup();\n    }\n\n}",
  "sourcePath": "/media/adam/Source/GP/Eth-Smithereens/contracts/GroupFactory.sol",
  "compiler": {
    "name": "solc",
    "version": "0.5.0+commit.1d4f565a.Emscripten.clang"
  },
  "schemaVersion": "3.0.1",
  "updatedAt": "2019-06-22T19:22:51.613Z",
  "devdoc": {
    "methods": {}
  },
  "userdoc": {
    "methods": {}
  }
}