{
  "contractName": "Group",
  "abi": [
    {
      "constant": true,
      "inputs": [
        {
          "name": "",
          "type": "uint256"
        }
      ],
      "name": "admins",
      "outputs": [
        {
          "name": "",
          "type": "address"
        }
      ],
      "payable": false,
      "stateMutability": "view",
      "type": "function"
    },
    {
      "constant": true,
      "inputs": [],
      "name": "title",
      "outputs": [
        {
          "name": "",
          "type": "string"
        }
      ],
      "payable": false,
      "stateMutability": "view",
      "type": "function"
    },
    {
      "constant": true,
      "inputs": [],
      "name": "description",
      "outputs": [
        {
          "name": "",
          "type": "string"
        }
      ],
      "payable": false,
      "stateMutability": "view",
      "type": "function"
    },
    {
      "constant": true,
      "inputs": [],
      "name": "owner",
      "outputs": [
        {
          "name": "",
          "type": "address"
        }
      ],
      "payable": false,
      "stateMutability": "view",
      "type": "function"
    },
    {
      "constant": true,
      "inputs": [
        {
          "name": "",
          "type": "address"
        }
      ],
      "name": "usersIndex",
      "outputs": [
        {
          "name": "",
          "type": "uint256"
        }
      ],
      "payable": false,
      "stateMutability": "view",
      "type": "function"
    },
    {
      "constant": true,
      "inputs": [
        {
          "name": "",
          "type": "address"
        }
      ],
      "name": "adminsIndex",
      "outputs": [
        {
          "name": "",
          "type": "uint256"
        }
      ],
      "payable": false,
      "stateMutability": "view",
      "type": "function"
    },
    {
      "inputs": [
        {
          "name": "initialTitle",
          "type": "string"
        },
        {
          "name": "initialDescription",
          "type": "string"
        },
        {
          "name": "userContractAddress",
          "type": "address"
        }
      ],
      "payable": false,
      "stateMutability": "nonpayable",
      "type": "constructor"
    },
    {
      "constant": false,
      "inputs": [
        {
          "name": "userAddress",
          "type": "address"
        }
      ],
      "name": "addAdmin",
      "outputs": [],
      "payable": false,
      "stateMutability": "nonpayable",
      "type": "function"
    },
    {
      "constant": false,
      "inputs": [
        {
          "name": "userAddress",
          "type": "address"
        }
      ],
      "name": "removeAdmin",
      "outputs": [],
      "payable": false,
      "stateMutability": "nonpayable",
      "type": "function"
    },
    {
      "constant": false,
      "inputs": [
        {
          "name": "userAddress",
          "type": "address"
        }
      ],
      "name": "join",
      "outputs": [],
      "payable": false,
      "stateMutability": "nonpayable",
      "type": "function"
    },
    {
      "constant": false,
      "inputs": [
        {
          "name": "userAddress",
          "type": "address"
        }
      ],
      "name": "removeUser",
      "outputs": [],
      "payable": false,
      "stateMutability": "nonpayable",
      "type": "function"
    },
    {
      "constant": false,
      "inputs": [
        {
          "name": "userContractAddress",
          "type": "address"
        }
      ],
      "name": "leave",
      "outputs": [],
      "payable": false,
      "stateMutability": "nonpayable",
      "type": "function"
    },
    {
      "constant": true,
      "inputs": [],
      "name": "getUsers",
      "outputs": [
        {
          "name": "",
          "type": "address[]"
        }
      ],
      "payable": false,
      "stateMutability": "view",
      "type": "function"
    },
    {
      "constant": true,
      "inputs": [],
      "name": "getAdmins",
      "outputs": [
        {
          "name": "",
          "type": "address[]"
        }
      ],
      "payable": false,
      "stateMutability": "view",
      "type": "function"
    },
    {
      "constant": true,
      "inputs": [],
      "name": "getGroup",
      "outputs": [
        {
          "name": "",
          "type": "address"
        },
        {
          "name": "",
          "type": "string"
        },
        {
          "name": "",
          "type": "string"
        },
        {
          "name": "",
          "type": "address[]"
        },
        {
          "name": "",
          "type": "address[]"
        }
      ],
      "payable": false,
      "stateMutability": "view",
      "type": "function"
    },
    {
      "constant": false,
      "inputs": [
        {
          "name": "userContractAddress",
          "type": "address"
        },
        {
          "name": "post_text",
          "type": "string"
        },
        {
          "name": "imageUrl",
          "type": "string"
        }
      ],
      "name": "createPost",
      "outputs": [],
      "payable": false,
      "stateMutability": "nonpayable",
      "type": "function"
    },
    {
      "constant": true,
      "inputs": [
        {
          "name": "userContractAddress",
          "type": "address"
        }
      ],
      "name": "getPosts",
      "outputs": [
        {
          "name": "",
          "type": "address[]"
        }
      ],
      "payable": false,
      "stateMutability": "view",
      "type": "function"
    },
    {
      "constant": false,
      "inputs": [
        {
          "name": "userContractAddress",
          "type": "address"
        },
        {
          "name": "newTitle",
          "type": "string"
        }
      ],
      "name": "setTitle",
      "outputs": [],
      "payable": false,
      "stateMutability": "nonpayable",
      "type": "function"
    },
    {
      "constant": false,
      "inputs": [
        {
          "name": "userContractAddress",
          "type": "address"
        },
        {
          "name": "newDescription",
          "type": "string"
        }
      ],
      "name": "setDescription",
      "outputs": [],
      "payable": false,
      "stateMutability": "nonpayable",
      "type": "function"
    },
    {
      "constant": true,
      "inputs": [
        {
          "name": "user_contract_address",
          "type": "address"
        }
      ],
      "name": "checkMemberExists",
      "outputs": [
        {
          "name": "",
          "type": "bool"
        }
      ],
      "payable": false,
      "stateMutability": "view",
      "type": "function"
    }
  ],
  "bytecode": "0x60806040523480156200001157600080fd5b506040516200432e3803806200432e833981018060405260608110156200003757600080fd5b8101908080516401000000008111156200005057600080fd5b820160208101848111156200006457600080fd5b81516401000000008111828201871017156200007f57600080fd5b505092919060200180516401000000008111156200009c57600080fd5b82016020810184811115620000b057600080fd5b8151640100000000811182820187101715620000cb57600080fd5b505060209182015185519194509250620000ec916000919086019062000173565b5081516200010290600190602085019062000173565b5060028054600160a060020a03909216600160a060020a031992831681179091556005805460018101918290557f036b6384b5eca791c62761152d0c79bb0604c104a5fb6f4eb0703f3154bb3db0018054909316821790925560009081526006602052604090205550620002189050565b828054600181600116156101000203166002900490600052602060002090601f016020900481019282601f10620001b657805160ff1916838001178555620001e6565b82800160010185558215620001e6579182015b82811115620001e6578251825591602001919060010190620001c9565b50620001f4929150620001f8565b5090565b6200021591905b80821115620001f45760008155600101620001ff565b90565b61410680620002286000396000f3fe608060405260043610620001195763ffffffff7c0100000000000000000000000000000000000000000000000000000000600035041662ce8e3e81146200011e5780630323bd58146200018857806314bfd6d014620002545780631785f53c146200029e57806328ffe6c814620002d557806331ae450b146200030c578063324ddb1514620003245780634a79d50c146200036f5780634b79c07414620003ff5780634caf9d0b146200059e5780637048027514620005d55780637284e416146200060c5780638da5cb5b14620006245780638e2f229f146200063c578063985751881462000685578063bedf77a614620006bc578063c096cdd514620006f3578063c1d87b381462000847578063dba98481146200087e575b600080fd5b3480156200012b57600080fd5b506200013662000948565b60408051602080825283518183015283519192839290830191858101910280838360005b83811015620001745781810151838201526020016200015a565b505050509050019250505060405180910390f35b3480156200019557600080fd5b506200025260048036036040811015620001ae57600080fd5b600160a060020a038235169190810190604081016020820135640100000000811115620001da57600080fd5b820183602082011115620001ed57600080fd5b803590602001918460018302840111640100000000831117156200021057600080fd5b91908080601f016020809104026020016040519081016040528093929190818152602001838380828437600092019190915250929550620009ad945050505050565b005b3480156200026157600080fd5b5062000282600480360360208110156200027a57600080fd5b503562000a52565b60408051600160a060020a039092168252519081900360200190f35b348015620002ab57600080fd5b506200025260048036036020811015620002c457600080fd5b5035600160a060020a031662000a7b565b348015620002e257600080fd5b506200025260048036036020811015620002fb57600080fd5b5035600160a060020a031662000c2c565b3480156200031957600080fd5b506200013662000d2b565b3480156200033157600080fd5b506200035b600480360360208110156200034a57600080fd5b5035600160a060020a031662000d8d565b604080519115158252519081900360200190f35b3480156200037c57600080fd5b506200038762000dbe565b6040805160208082528351818301528351919283929083019185019080838360005b83811015620003c3578181015183820152602001620003a9565b50505050905090810190601f168015620003f15780820380516001836020036101000a031916815260200191505b509250505060405180910390f35b3480156200040c57600080fd5b506200041762000e50565b6040518086600160a060020a0316600160a060020a0316815260200180602001806020018060200180602001858103855289818151815260200191508051906020019080838360005b838110156200047a57818101518382015260200162000460565b50505050905090810190601f168015620004a85780820380516001836020036101000a031916815260200191505b5085810384528851815288516020918201918a019080838360005b83811015620004dd578181015183820152602001620004c3565b50505050905090810190601f1680156200050b5780820380516001836020036101000a031916815260200191505b508581038352875181528751602091820191808a01910280838360005b838110156200054257818101518382015260200162000528565b50505050905001858103825286818151815260200191508051906020019060200280838360005b838110156200058357818101518382015260200162000569565b50505050905001995050505050505050505060405180910390f35b348015620005ab57600080fd5b506200013660048036036020811015620005c457600080fd5b5035600160a060020a031662001075565b348015620005e257600080fd5b506200025260048036036020811015620005fb57600080fd5b5035600160a060020a03166200114c565b3480156200061957600080fd5b506200038762001320565b3480156200063157600080fd5b50620002826200137d565b3480156200064957600080fd5b5062000673600480360360208110156200066257600080fd5b5035600160a060020a03166200138c565b60408051918252519081900360200190f35b3480156200069257600080fd5b506200025260048036036020811015620006ab57600080fd5b5035600160a060020a03166200139e565b348015620006c957600080fd5b506200025260048036036020811015620006e257600080fd5b5035600160a060020a031662001522565b3480156200070057600080fd5b5062000252600480360360608110156200071957600080fd5b600160a060020a0382351691908101906040810160208201356401000000008111156200074557600080fd5b8201836020820111156200075857600080fd5b803590602001918460018302840111640100000000831117156200077b57600080fd5b91908080601f0160208091040260200160405190810160405280939291908181526020018383808284376000920191909152509295949360208101935035915050640100000000811115620007cf57600080fd5b820183602082011115620007e257600080fd5b803590602001918460018302840111640100000000831117156200080557600080fd5b91908080601f01602080910402602001604051908101604052809392919081815260200183838082843760009201919091525092955062001592945050505050565b3480156200085457600080fd5b5062000673600480360360208110156200086d57600080fd5b5035600160a060020a03166200177a565b3480156200088b57600080fd5b506200025260048036036040811015620008a457600080fd5b600160a060020a038235169190810190604081016020820135640100000000811115620008d057600080fd5b820183602082011115620008e357600080fd5b803590602001918460018302840111640100000000831117156200090657600080fd5b91908080601f0160208091040260200160405190810160405280939291908181526020018383808284376000920191909152509295506200178c945050505050565b60606005805480602002602001604051908101604052809291908181526020018280548015620009a257602002820191906000526020600020905b8154600160a060020a0316815260019091019060200180831162000983575b505050505090505b90565b600254600160a060020a0383811691161480620009e15750600160a060020a03821660009081526004602052604090205415155b151562000a38576040805160e560020a62461bcd02815260206004820152601460248201527f596f7520417265204e6f7420416e2041646d696e000000000000000000000000604482015290519081900360640190fd5b805162000a4d90600190602084019062001827565b505050565b600380548290811062000a6157fe5b600091825260209091200154600160a060020a0316905081565b600254600160a060020a0316331462000ade576040805160e560020a62461bcd02815260206004820152601b60248201527f596f7520417265204e6f74207468652047726f7570204f776e65720000000000604482015290519081900360640190fd5b600160a060020a038116600090815260046020526040902054151562000b4e576040805160e560020a62461bcd02815260206004820152601960248201527f546869732055736572204973204e6f7420416e2041646d696e00000000000000604482015290519081900360640190fd5b600160a060020a0381166000908152600460205260409020546003805490916000190190811062000b7b57fe5b60009182526020808320909101805473ffffffffffffffffffffffffffffffffffffffff19169055600160a060020a038316808352600491829052604080842084905580517fbedf77a60000000000000000000000000000000000000000000000000000000081529283019190915251309263bedf77a6926024808201939182900301818387803b15801562000c1057600080fd5b505af115801562000c25573d6000803e3d6000fd5b5050505050565b600160a060020a0381166000908152600660205260409020541562000cc1576040805160e560020a62461bcd02815260206004820152602260248201527f596f7520416c72656164792041206d656d626572206f6620746869732067726f60448201527f7570000000000000000000000000000000000000000000000000000000000000606482015290519081900360840190fd5b6005805460018101918290557f036b6384b5eca791c62761152d0c79bb0604c104a5fb6f4eb0703f3154bb3db0018054600160a060020a0390931673ffffffffffffffffffffffffffffffffffffffff199093168317905560009182526006602052604090912055565b60606003805480602002602001604051908101604052809291908181526020018280548015620009a257602002820191906000526020600020908154600160a060020a0316815260019091019060200180831162000983575050505050905090565b600160a060020a0381166000908152600660205260408120541562000db55750600162000db9565b5060005b919050565b6000805460408051602060026001851615610100026000190190941693909304601f8101849004840282018401909252818152929183018282801562000e485780601f1062000e1c5761010080835404028352916020019162000e48565b820191906000526020600020905b81548152906001019060200180831162000e2a57829003601f168201915b505050505081565b6000606080606080600260009054906101000a9004600160a060020a03166000600160036005838054600181600116156101000203166002900480601f01602080910402602001604051908101604052809291908181526020018280546001816001161561010002031660029004801562000f0f5780601f1062000ee35761010080835404028352916020019162000f0f565b820191906000526020600020905b81548152906001019060200180831162000ef157829003601f168201915b5050865460408051602060026001851615610100026000190190941693909304601f81018490048402820184019092528181529599508894509250840190508282801562000fa15780601f1062000f755761010080835404028352916020019162000fa1565b820191906000526020600020905b81548152906001019060200180831162000f8357829003601f168201915b505050505092508180548060200260200160405190810160405280929190818152602001828054801562000fff57602002820191906000526020600020905b8154600160a060020a0316815260019091019060200180831162000fe0575b50505050509150808054806020026020016040519081016040528092919081815260200182805480156200105d57602002820191906000526020600020905b8154600160a060020a031681526001909101906020018083116200103e575b50505050509050945094509450945094509091929394565b600160a060020a0381166000908152600660205260409020546060901515620010e8576040805160e560020a62461bcd02815260206004820152601f60248201527f596f7520417265204e6f74204d656d626572206f66207468652047726f757000604482015290519081900360640190fd5b60078054806020026020016040519081016040528092919081815260200182805480156200114057602002820191906000526020600020905b8154600160a060020a0316815260019091019060200180831162001121575b50505050509050919050565b600254600160a060020a03163314620011af576040805160e560020a62461bcd02815260206004820152601b60248201527f596f7520417265204e6f74207468652047726f7570204f776e65720000000000604482015290519081900360640190fd5b600160a060020a0381166000908152600460205260409020541562001244576040805160e560020a62461bcd02815260206004820152602c60248201527f596f7220416c726561647920486176652041646465642054686973207573657260448201527f20617320616e2041646d696e0000000000000000000000000000000000000000606482015290519081900360840190fd5b6003805460018101918290557fc2575a0e9e593c00f959f8c92f12db2869c3395a3b0502d05e2516446f71f85b01805473ffffffffffffffffffffffffffffffffffffffff1916600160a060020a038416908117909155600081815260046020819052604080832085905580517f28ffe6c800000000000000000000000000000000000000000000000000000000815291820193909352915130926328ffe6c892602480830193919282900301818387803b1580156200130357600080fd5b505af115801562001318573d6000803e3d6000fd5b505050505050565b60018054604080516020600284861615610100026000190190941693909304601f8101849004840282018401909252818152929183018282801562000e485780601f1062000e1c5761010080835404028352916020019162000e48565b600254600160a060020a031681565b60066020526000908152604090205481565b600254600160a060020a0316331480620013c657503360009081526004602052604090205415155b15156200141d576040805160e560020a62461bcd02815260206004820152601460248201527f596f7520417265204e6f7420416e2041646d696e000000000000000000000000604482015290519081900360640190fd5b600160a060020a0381166000908152600660205260409020541515620014b3576040805160e560020a62461bcd02815260206004820152602160248201527f75736572206973206e6f742061206d656d626572206f66207468652067726f7560448201527f7000000000000000000000000000000000000000000000000000000000000000606482015290519081900360840190fd5b600160a060020a03811660009081526006602052604090205460058054909160001901908110620014e057fe5b60009182526020808320909101805473ffffffffffffffffffffffffffffffffffffffff19169055600160a060020a0392909216815260069091526040812055565b600160a060020a0381166000908152600660205260409020541515620014b3576040805160e560020a62461bcd02815260206004820152601f60248201527f596f7520417265204e6f74204d656d626572206f66207468652047726f757000604482015290519081900360640190fd5b600160a060020a038316600090815260066020526040902054151562001602576040805160e560020a62461bcd02815260206004820152601f60248201527f596f7520417265204e6f74204d656d626572206f66207468652047726f757000604482015290519081900360640190fd5b600083838362001611620018ac565b600160a060020a0384168152606060208083018281528551928401929092528451604084019160808501919087019080838360005b838110156200166057818101518382015260200162001646565b50505050905090810190601f1680156200168e5780820380516001836020036101000a031916815260200191505b50838103825284518152845160209182019186019080838360005b83811015620016c3578181015183820152602001620016a9565b50505050905090810190601f168015620016f15780820380516001836020036101000a031916815260200191505b5095505050505050604051809103906000f08015801562001716573d6000803e3d6000fd5b50600780546001810182556000919091527fa66cc928b5edb82af9bd49922954155ab7b0942694bea4ce44661d9a8736c68801805473ffffffffffffffffffffffffffffffffffffffff1916600160a060020a039290921691909117905550505050565b60046020526000908152604090205481565b600254600160a060020a0383811691161480620017c05750600160a060020a03821660009081526004602052604090205415155b151562001817576040805160e560020a62461bcd02815260206004820152601460248201527f596f7520417265204e6f7420416e2041646d696e000000000000000000000000604482015290519081900360640190fd5b805162000a4d9060009060208401905b828054600181600116156101000203166002900490600052602060002090601f016020900481019282601f106200186a57805160ff19168380011785556200189a565b828001600101855582156200189a579182015b828111156200189a5782518255916020019190600101906200187d565b50620018a8929150620018bd565b5090565b60405161280080620018db83390190565b620009aa91905b80821115620018a85760008155600101620018c456fe60806040526000600555600060065560006008553480156200002057600080fd5b506040516200280038038062002800833981018060405260608110156200004657600080fd5b8151602083018051919392830192916401000000008111156200006857600080fd5b820160208101848111156200007c57600080fd5b81516401000000008111828201871017156200009757600080fd5b50509291906020018051640100000000811115620000b457600080fd5b82016020810184811115620000c857600080fd5b8151640100000000811182820187101715620000e357600080fd5b50508451909350620000ff925060019150602085019062000150565b5080516200011590600290602084019062000150565b50504260035550600a805460ff1916600117905560008054600160a060020a03909216600160a060020a0319909216919091179055620001f5565b828054600181600116156101000203166002900490600052602060002090601f016020900481019282601f106200019357805160ff1916838001178555620001c3565b82800160010185558215620001c3579182015b82811115620001c3578251825591602001919060010190620001a6565b50620001d1929150620001d5565b5090565b620001f291905b80821115620001d15760008155600101620001dc565b90565b6125fb80620002056000396000f3fe608060405260043610620000f55763ffffffff60e060020a6000350416630d15fd778114620000fa5780631dda316514620001245780631f1bd692146200013e5780633a98ef3914620001ce5780635f74bbde14620001e6578063850710c314620002235780638c6838ba146200023b5780638da5cb5b146200048757806399f71a7d14620004bb578063a0ccc8b914620004e7578063a4ff78d114620004ff578063b80777ea1462000517578063ce5036ce146200052f578063d4923d4e146200056e578063d8bff5a514620005a5578063dac1743014620005dc578063e38106c414620005f4578063eeb9eac9146200060c575b600080fd5b3480156200010757600080fd5b506200011262000760565b60408051918252519081900360200190f35b3480156200013157600080fd5b506200013c62000766565b005b3480156200014b57600080fd5b506200015662000771565b6040805160208082528351818301528351919283929083019185019080838360005b838110156200019257818101518382015260200162000178565b50505050905090810190601f168015620001c05780820380516001836020036101000a031916815260200191505b509250505060405180910390f35b348015620001db57600080fd5b506200011262000802565b348015620001f357600080fd5b506200013c600480360360408110156200020c57600080fd5b50600160a060020a03813516906020013562000808565b3480156200023057600080fd5b506200015662000a70565b3480156200024857600080fd5b506200025362000acb565b604051808b600160a060020a0316600160a060020a031681526020018060200180602001806020018a8152602001806020018060200189815260200188815260200187815260200186810386528f818151815260200191508051906020019080838360005b83811015620002d2578181015183820152602001620002b8565b50505050905090810190601f168015620003005780820380516001836020036101000a031916815260200191505b5086810385528e818151815260200191508051906020019080838360005b83811015620003385781810151838201526020016200031e565b50505050905090810190601f168015620003665780820380516001836020036101000a031916815260200191505b5086810384528d5181528d516020918201918f019080838360005b838110156200039b57818101518382015260200162000381565b50505050905090810190601f168015620003c95780820380516001836020036101000a031916815260200191505b5086810383528b5181528b51602091820191808e01910280838360005b8381101562000400578181015183820152602001620003e6565b5050505090500186810382528a818151815260200191508051906020019080838360005b838110156200043e57818101518382015260200162000424565b50505050905090810190601f1680156200046c5780820380516001836020036101000a031916815260200191505b509f5050505050505050505050505050505060405180910390f35b3480156200049457600080fd5b506200049f62000f3c565b60408051600160a060020a039092168252519081900360200190f35b348015620004c857600080fd5b50620004d362000f4b565b604080519115158252519081900360200190f35b348015620004f457600080fd5b506200011262000f54565b3480156200050c57600080fd5b50620004d362000f5a565b3480156200052457600080fd5b506200011262000fa4565b3480156200053c57600080fd5b50620004d3600480360360408110156200055557600080fd5b50600160a060020a038135811691602001351662000faa565b3480156200057b57600080fd5b5062000112600480360360208110156200059457600080fd5b5035600160a060020a031662001055565b348015620005b257600080fd5b506200011260048036036020811015620005cb57600080fd5b5035600160a060020a031662001070565b348015620005e957600080fd5b506200011262001082565b3480156200060157600080fd5b506200011262001088565b3480156200061957600080fd5b506200013c600480360360608110156200063257600080fd5b600160a060020a0382351691908101906040810160208201356401000000008111156200065e57600080fd5b8201836020820111156200067157600080fd5b803590602001918460018302840111640100000000831117156200069457600080fd5b91908080601f0160208091040260200160405190810160405280939291908181526020018383808284376000920191909152509295949360208101935035915050640100000000811115620006e857600080fd5b820183602082011115620006fb57600080fd5b803590602001918460018302840111640100000000831117156200071e57600080fd5b91908080601f016020809104026020016040519081016040528093929190818152602001838380828437600092019190915250929550620010c1945050505050565b60055481565b600880546001019055565b60018054604080516020600284861615610100026000190190941693909304601f81018490048402820184019092528181529291830182828015620007fa5780601f10620007ce57610100808354040283529160200191620007fa565b820191906000526020600020905b815481529060010190602001808311620007dc57829003601f168201915b505050505081565b60085481565b62000814823362000faa565b151562000891576040805160e560020a62461bcd02815260206004820152602260248201527f7573657220636f6e74726163742061646472657373206973206e6f7420796f7560448201527f7273000000000000000000000000000000000000000000000000000000000000606482015290519081900360840190fd5b60018110158015620008a45750600a8111155b151562000921576040805160e560020a62461bcd02815260206004820152602260248201527f74686520766f74652076616c7565206973206265747765656e203120616e642060448201527f3130000000000000000000000000000000000000000000000000000000000000606482015290519081900360840190fd5b600160a060020a0382166000908152600960205260409020541562000952576200094c8282620012c2565b62000a6c565b600160a060020a038083166000908152600960205260408082208490556006805485019055815481517f3de3f629000000000000000000000000000000000000000000000000000000008152600481018690529151931692633de3f6299260248084019391929182900301818387803b158015620009cf57600080fd5b505af1158015620009e4573d6000803e3d6000fd5b505060008054604080517f8b7374720000000000000000000000000000000000000000000000000000000081529051600160a060020a039092169450638b7374729350600480820193929182900301818387803b15801562000a4557600080fd5b505af115801562000a5a573d6000803e3d6000fd5b50506005805460010190555050426007555b5050565b6002805460408051602060018416156101000260001901909316849004601f81018490048402820184019092528181529291830182828015620007fa5780601f10620007ce57610100808354040283529160200191620007fa565b600060608060606000606080600080600062000ae662000f5a565b151562000b3d576040805160e560020a62461bcd02815260206004820152601f60248201527f74686520706f73742068617665206c6f77206176657261676520766f74657300604482015290519081900360640190fd5b60008054604080517f06fdde030000000000000000000000000000000000000000000000000000000081529051600160a060020a039092169283926306fdde03926004808201939291829003018186803b15801562000b9b57600080fd5b505afa15801562000bb0573d6000803e3d6000fd5b505050506040513d6000823e601f3d908101601f19168201604052602081101562000bda57600080fd5b81019080805164010000000081111562000bf357600080fd5b8201602081018481111562000c0757600080fd5b815164010000000081118282018710171562000c2257600080fd5b50509291905050506001600260035460046000809054906101000a9004600160a060020a0316600160a060020a0316630aaf15306040518163ffffffff1660e060020a02815260040160006040518083038186803b15801562000c8457600080fd5b505afa15801562000c99573d6000803e3d6000fd5b505050506040513d6000823e601f3d908101601f19168201604052602081101562000cc357600080fd5b81019080805164010000000081111562000cdc57600080fd5b8201602081018481111562000cf057600080fd5b815164010000000081118282018710171562000d0b57600080fd5b50509291905050506005546008546000809054906101000a9004600160a060020a0316600160a060020a031663679aefce6040518163ffffffff1660e060020a02815260040160206040518083038186803b15801562000d6a57600080fd5b505afa15801562000d7f573d6000803e3d6000fd5b505050506040513d602081101562000d9657600080fd5b50518754604080516020601f60026000196101006001881615020190951694909404938401819004810282018101909252828152918a9183018282801562000e225780601f1062000df65761010080835404028352916020019162000e22565b820191906000526020600020905b81548152906001019060200180831162000e0457829003601f168201915b50508a5460408051602060026001851615610100026000190190941693909304601f8101849004840282018401909252818152959d508c94509250840190508282801562000eb45780601f1062000e885761010080835404028352916020019162000eb4565b820191906000526020600020905b81548152906001019060200180831162000e9657829003601f168201915b505050505096508480548060200260200160405190810160405280929190818152602001828054801562000f1257602002820191906000526020600020905b8154600160a060020a0316815260019091019060200180831162000ef3575b50505050509450839350995099509950995099509950995099509950995090919293949596979899565b600054600160a060020a031681565b600a5460ff1681565b60065481565b60006078600754420311801562000f72575060075415155b1562000f9d57600562000f8462001088565b101562000f945750600062000fa1565b50600162000fa1565b5060015b90565b60035481565b60008083905080600160a060020a0316632f54bf6e846040518263ffffffff1660e060020a0281526004018082600160a060020a0316600160a060020a0316815260200191505060206040518083038186803b1580156200100a57600080fd5b505afa1580156200101f573d6000803e3d6000fd5b505050506040513d60208110156200103657600080fd5b505115620010495760019150506200104f565b60009150505b92915050565b600160a060020a031660009081526009602052604090205490565b60096020526000908152604090205481565b60075481565b6000600554600014806200109c5750600654155b15620010ab5750600062000fa1565b600554600654811515620010bb57fe5b04905090565b620010cd833362000faa565b15156200114a576040805160e560020a62461bcd02815260206004820152602260248201527f7573657220636f6e74726163742061646472657373206973206e6f7420796f7560448201527f7273000000000000000000000000000000000000000000000000000000000000606482015290519081900360840190fd5b60008383836200115962001481565b600160a060020a0384168152606060208083018281528551928401929092528451604084019160808501919087019080838360005b83811015620011a85781810151838201526020016200118e565b50505050905090810190601f168015620011d65780820380516001836020036101000a031916815260200191505b50838103825284518152845160209182019186019080838360005b838110156200120b578181015183820152602001620011f1565b50505050905090810190601f168015620012395780820380516001836020036101000a031916815260200191505b5095505050505050604051809103906000f0801580156200125e573d6000803e3d6000fd5b50600480546001810182556000919091527f8a35acfbc15ff81a39ae7d344fd709f28e8600b4aa8c65c6b64bfe7fe36bd19b01805473ffffffffffffffffffffffffffffffffffffffff1916600160a060020a039290921691909117905550505050565b620012ce823362000faa565b15156200134b576040805160e560020a62461bcd02815260206004820152602260248201527f7573657220636f6e74726163742061646472657373206973206e6f7420796f7560448201527f7273000000000000000000000000000000000000000000000000000000000000606482015290519081900360840190fd5b600160a060020a038083166000908152600960205260408082208054600680549190910390558254905482517f0381dc9300000000000000000000000000000000000000000000000000000000815260048101919091529151931692630381dc939260248084019391929182900301818387803b158015620013cc57600080fd5b505af1158015620013e1573d6000803e3d6000fd5b505050600160a060020a038084166000908152600960205260408082208590556006805486019055815481517f3de3f62900000000000000000000000000000000000000000000000000000000815260048101879052915193169350633de3f629926024808301939282900301818387803b1580156200146057600080fd5b505af115801562001475573d6000803e3d6000fd5b50504260075550505050565b60405161113d80620014938339019056fe6080604052600060045560006005553480156200001b57600080fd5b506040516200113d3803806200113d833981018060405260608110156200004157600080fd5b8151602083018051919392830192916401000000008111156200006357600080fd5b820160208101848111156200007757600080fd5b81516401000000008111828201871017156200009257600080fd5b50509291906020018051640100000000811115620000af57600080fd5b82016020810184811115620000c357600080fd5b8151640100000000811182820187101715620000de57600080fd5b50508451909350620000fa92506001915060208501906200013d565b508051620001109060029060208401906200013d565b5050426003555060008054600160a060020a031916600160a060020a0392909216919091179055620001e2565b828054600181600116156101000203166002900490600052602060002090601f016020900481019282601f106200018057805160ff1916838001178555620001b0565b82800160010185558215620001b0579182015b82811115620001b057825182559160200191906001019062000193565b50620001be929150620001c2565b5090565b620001df91905b80821115620001be5760008155600101620001c9565b90565b610f4b80620001f26000396000f3fe6080604052600436106100ab5763ffffffff60e060020a6000350416630d15fd7781146100b05780631f1bd692146100d75780635f74bbde14610161578063850710c31461019c578063a0ccc8b9146101b1578063a4ff78d1146101c6578063b80777ea146101ef578063cc77304414610204578063ce5036ce146103ea578063d4923d4e14610425578063d8bff5a514610458578063dac174301461048b578063e38106c4146104a0575b600080fd5b3480156100bc57600080fd5b506100c56104b5565b60408051918252519081900360200190f35b3480156100e357600080fd5b506100ec6104bb565b6040805160208082528351818301528351919283929083019185019080838360005b8381101561012657818101518382015260200161010e565b50505050905090810190601f1680156101535780820380516001836020036101000a031916815260200191505b509250505060405180910390f35b34801561016d57600080fd5b5061019a6004803603604081101561018457600080fd5b50600160a060020a038135169060200135610548565b005b3480156101a857600080fd5b506100ec61079f565b3480156101bd57600080fd5b506100c56107f7565b3480156101d257600080fd5b506101db6107fd565b604080519115158252519081900360200190f35b3480156101fb57600080fd5b506100c5610841565b34801561021057600080fd5b50610219610847565b6040518088600160a060020a0316600160a060020a031681526020018060200180602001878152602001806020018060200186815260200185810385528b818151815260200191508051906020019080838360005b8381101561028657818101518382015260200161026e565b50505050905090810190601f1680156102b35780820380516001836020036101000a031916815260200191505b5085810384528a5181528a516020918201918c019080838360005b838110156102e65781810151838201526020016102ce565b50505050905090810190601f1680156103135780820380516001836020036101000a031916815260200191505b5085810383528851815288516020918201918a019080838360005b8381101561034657818101518382015260200161032e565b50505050905090810190601f1680156103735780820380516001836020036101000a031916815260200191505b50858103825287518152875160209182019189019080838360005b838110156103a657818101518382015260200161038e565b50505050905090810190601f1680156103d35780820380516001836020036101000a031916815260200191505b509b50505050505050505050505060405180910390f35b3480156103f657600080fd5b506101db6004803603604081101561040d57600080fd5b50600160a060020a0381358116916020013516610c5d565b34801561043157600080fd5b506100c56004803603602081101561044857600080fd5b5035600160a060020a0316610d03565b34801561046457600080fd5b506100c56004803603602081101561047b57600080fd5b5035600160a060020a0316610d1e565b34801561049757600080fd5b506100c5610d30565b3480156104ac57600080fd5b506100c5610d36565b60045481565b60018054604080516020600284861615610100026000190190941693909304601f810184900484028201840190925281815292918301828280156105405780601f1061051557610100808354040283529160200191610540565b820191906000526020600020905b81548152906001019060200180831161052357829003601f168201915b505050505081565b6105528233610c5d565b15156105ce576040805160e560020a62461bcd02815260206004820152602260248201527f7573657220636f6e74726163742061646472657373206973206e6f7420796f7560448201527f7273000000000000000000000000000000000000000000000000000000000000606482015290519081900360840190fd5b600181101580156105e05750600a8111155b151561065c576040805160e560020a62461bcd02815260206004820152602260248201527f74686520766f74652076616c7565206973206265747765656e203120616e642060448201527f3130000000000000000000000000000000000000000000000000000000000000606482015290519081900360840190fd5b600160a060020a03821660009081526007602052604090205415610689576106848282610d6b565b61079b565b600160a060020a038083166000908152600760205260408082208490556005805485019055815481517f3de3f629000000000000000000000000000000000000000000000000000000008152600481018690529151931692633de3f6299260248084019391929182900301818387803b15801561070557600080fd5b505af1158015610719573d6000803e3d6000fd5b505060008054604080517f8b7374720000000000000000000000000000000000000000000000000000000081529051600160a060020a039092169450638b7374729350600480820193929182900301818387803b15801561077957600080fd5b505af115801561078d573d6000803e3d6000fd5b505060048054600101905550505b5050565b6002805460408051602060018416156101000260001901909316849004601f810184900484028201840190925281815292918301828280156105405780601f1061051557610100808354040283529160200191610540565b60055481565b600061012c6006544203118015610815575060065415155b1561083a576005610824610d36565b10156108325750600061083e565b50600161083e565b5060015b90565b60035481565b60006060806000606080600061085b6107fd565b15156108d7576040805160e560020a62461bcd02815260206004820152602260248201527f74686520636f6d6d656e742068617665206c6f77206176657261676520766f7460448201527f6573000000000000000000000000000000000000000000000000000000000000606482015290519081900360840190fd5b60008054604080517f06fdde030000000000000000000000000000000000000000000000000000000081529051600160a060020a039092169283926306fdde03926004808201939291829003018186803b15801561093457600080fd5b505afa158015610948573d6000803e3d6000fd5b505050506040513d6000823e601f3d908101601f19168201604052602081101561097157600080fd5b81019080805164010000000081111561098957600080fd5b8201602081018481111561099c57600080fd5b81516401000000008111828201871017156109b657600080fd5b5050929190505050600160035460026000809054906101000a9004600160a060020a0316600160a060020a0316630aaf15306040518163ffffffff1660e060020a02815260040160006040518083038186803b158015610a1557600080fd5b505afa158015610a29573d6000803e3d6000fd5b505050506040513d6000823e601f3d908101601f191682016040526020811015610a5257600080fd5b810190808051640100000000811115610a6a57600080fd5b82016020810184811115610a7d57600080fd5b8151640100000000811182820187101715610a9757600080fd5b5050600054604080517f679aefce0000000000000000000000000000000000000000000000000000000081529051929550600160a060020a03909116935063679aefce9250600480820192602092909190829003018186803b158015610afc57600080fd5b505afa158015610b10573d6000803e3d6000fd5b505050506040513d6020811015610b2657600080fd5b50518454604080516020601f60026000196101006001881615020190951694909404938401819004810282018101909252828152918791830182828015610bae5780601f10610b8357610100808354040283529160200191610bae565b820191906000526020600020905b815481529060010190602001808311610b9157829003601f168201915b5050865460408051602060026001851615610100026000190190941693909304601f8101849004840282018401909252818152959a5088945092508401905082828015610c3c5780601f10610c1157610100808354040283529160200191610c3c565b820191906000526020600020905b815481529060010190602001808311610c1f57829003601f168201915b50505050509250819150965096509650965096509650965090919293949596565b60008083905080600160a060020a0316632f54bf6e846040518263ffffffff1660e060020a0281526004018082600160a060020a0316600160a060020a0316815260200191505060206040518083038186803b158015610cbc57600080fd5b505afa158015610cd0573d6000803e3d6000fd5b505050506040513d6020811015610ce657600080fd5b505115610cf7576001915050610cfd565b60009150505b92915050565b600160a060020a031660009081526007602052604090205490565b60076020526000908152604090205481565b60065481565b600060045460001480610d495750600554155b15610d565750600061083e565b600454600554811515610d6557fe5b04905090565b610d758233610c5d565b1515610df1576040805160e560020a62461bcd02815260206004820152602260248201527f7573657220636f6e74726163742061646472657373206973206e6f7420796f7560448201527f7273000000000000000000000000000000000000000000000000000000000000606482015290519081900360840190fd5b600160a060020a038083166000908152600760205260408082208054600580549190910390558254905482517f0381dc9300000000000000000000000000000000000000000000000000000000815260048101919091529151931692630381dc939260248084019391929182900301818387803b158015610e7157600080fd5b505af1158015610e85573d6000803e3d6000fd5b505050600160a060020a038084166000908152600760205260408082208590556005805486019055815481517f3de3f62900000000000000000000000000000000000000000000000000000000815260048101879052915193169350633de3f629926024808301939282900301818387803b158015610f0357600080fd5b505af1158015610f17573d6000803e3d6000fd5b50505050505056fea165627a7a7230582026f1317e6124499e9f642b2fa691341accee88884adee270e11db60c1324c0d50029a165627a7a723058207229d5f44af81e6a00c3eaa292fa4ce8a6c5b8b2b2359d51225c682f13d3696e0029a165627a7a72305820c85001dc1883ac9d95007c463cb583cfa28f43a06df9b86a162f0a493483b7900029",
  "source": "pragma solidity ^0.5.0;\nimport \"./User.sol\";\nimport \"./Post.sol\";\nimport \"./OriginalPost.sol\";\n\ncontract Group { \n    string public title;\n    string public description;\n    User public owner;\n    address[] public admins;\n    mapping(address => uint256) public adminsIndex;\n    address[] users;\n\n    mapping(address  => uint256) public usersIndex; \n    address[] posts; \n    \n    constructor(string memory initialTitle, string memory initialDescription, address userContractAddress) public { \n        title = initialTitle; \n        description = initialDescription;\n        owner = User(userContractAddress);\n        usersIndex[userContractAddress] = users.push(userContractAddress);\n    }\n\n    function addAdmin(address userAddress) public {\n        require(msg.sender == address(owner), \"You Are Not the Group Owner\");\n        require(adminsIndex[userAddress] == 0,\"Yor Already Have Added This user as an Admin\");\n        uint index = admins.push(userAddress);\n        adminsIndex[userAddress] = index;\n        this.join(userAddress);\n    }\n\n    function removeAdmin (address userAddress) public  {\n        require(msg.sender == address(owner), \"You Are Not the Group Owner\");\n        require (adminsIndex[userAddress] != 0, \"This User Is Not An Admin\");\n        delete admins[adminsIndex[userAddress]-1];\n        adminsIndex[userAddress] = 0;\n        this.leave(userAddress);\n    }\n\n    function join (address userAddress) public {\n        require(usersIndex[userAddress] == 0, \"You Already A member of this group\");\n        uint index = users.push(userAddress);\n        usersIndex[userAddress] = index;\n    }\n\n\n    function removeUser (address userAddress) public {\n        require(User(msg.sender) == owner || adminsIndex[msg.sender]!=0,\"You Are Not An Admin\");\n        require(usersIndex[userAddress] != 0, \"user is not a member of the group\");\n        delete users[usersIndex[userAddress]-1];\n        usersIndex[userAddress] = 0;\n    }\n\n    function leave (address userContractAddress) public {\n        require(usersIndex[userContractAddress] != 0, \"You Are Not Member of the Group\");\n        delete users[usersIndex[userContractAddress]-1];\n        usersIndex[userContractAddress] = 0;\n    }\n\n    function getUsers() public view returns (address[] memory) {\n        return users;\n    }\n\n    function getAdmins() public view returns (address[] memory) {\n        return admins;\n    }\n\n    \n    function getGroup() public view returns(address,string memory,string memory,address[] memory,address[] memory){\n        return (\n        address(owner),\n        title,\n        description,\n        admins,\n        users\n            );\n    }\n\n    function createPost(address userContractAddress,string memory post_text, string memory imageUrl) public {\n        require(usersIndex[userContractAddress] != 0, \"You Are Not Member of the Group\");\n        Post post = new OriginalPost(userContractAddress,post_text, imageUrl);\n        posts.push(address(post));\n    }\n\n    function getPosts(address userContractAddress) public view returns (address[] memory) {\n        require(usersIndex[userContractAddress] != 0, \"You Are Not Member of the Group\");\n        return posts;\n    }\n    \n    function setTitle(address userContractAddress,string memory newTitle) public{\n        require(User(userContractAddress) == owner || adminsIndex[userContractAddress] !=0, \"You Are Not An Admin\");\n        title = newTitle;\n    }\n    \n    function setDescription(address userContractAddress,string memory newDescription) public {\n        require(User(userContractAddress) == owner || adminsIndex[userContractAddress] !=0, \"You Are Not An Admin\");\n        description = newDescription;\n    }\n\n    function checkMemberExists(address user_contract_address) public view returns(bool){\n        if(usersIndex[user_contract_address]!=0)\n            return true;\n        else\n            return false;\n    }\n\n}",
  "sourcePath": "/home/omar/Desktop/BSN-eth/contracts/Group.sol",
  "compiler": {
    "name": "solc",
    "version": "0.5.0+commit.1d4f565a.Emscripten.clang"
  },
  "schemaVersion": "3.0.1",
  "updatedAt": "2019-06-22T17:00:48.043Z",
  "devdoc": {
    "methods": {}
  },
  "userdoc": {
    "methods": {}
  }
}