{
  "contractName": "OriginalPost",
  "abi": [
    {
      "constant": true,
      "inputs": [],
      "name": "totalVotes",
      "outputs": [
        {
          "name": "",
          "type": "uint256"
        }
      ],
      "payable": false,
      "stateMutability": "view",
      "type": "function"
    },
    {
      "constant": false,
      "inputs": [],
      "name": "increamentShares",
      "outputs": [],
      "payable": false,
      "stateMutability": "nonpayable",
      "type": "function"
    },
    {
      "constant": true,
      "inputs": [],
      "name": "text",
      "outputs": [
        {
          "name": "",
          "type": "string"
        }
      ],
      "payable": false,
      "stateMutability": "view",
      "type": "function"
    },
    {
      "constant": true,
      "inputs": [],
      "name": "totalShares",
      "outputs": [
        {
          "name": "",
          "type": "uint256"
        }
      ],
      "payable": false,
      "stateMutability": "view",
      "type": "function"
    },
    {
      "constant": false,
      "inputs": [
        {
          "name": "userContractAddress",
          "type": "address"
        },
        {
          "name": "voteValue",
          "type": "uint256"
        }
      ],
      "name": "vote",
      "outputs": [],
      "payable": false,
      "stateMutability": "nonpayable",
      "type": "function"
    },
    {
      "constant": true,
      "inputs": [],
      "name": "contentUrl",
      "outputs": [
        {
          "name": "",
          "type": "string"
        }
      ],
      "payable": false,
      "stateMutability": "view",
      "type": "function"
    },
    {
      "constant": true,
      "inputs": [],
      "name": "owner",
      "outputs": [
        {
          "name": "",
          "type": "address"
        }
      ],
      "payable": false,
      "stateMutability": "view",
      "type": "function"
    },
    {
      "constant": true,
      "inputs": [],
      "name": "postType",
      "outputs": [
        {
          "name": "",
          "type": "bool"
        }
      ],
      "payable": false,
      "stateMutability": "view",
      "type": "function"
    },
    {
      "constant": true,
      "inputs": [],
      "name": "totalVotesValue",
      "outputs": [
        {
          "name": "",
          "type": "uint256"
        }
      ],
      "payable": false,
      "stateMutability": "view",
      "type": "function"
    },
    {
      "constant": true,
      "inputs": [],
      "name": "checkLastVote",
      "outputs": [
        {
          "name": "",
          "type": "bool"
        }
      ],
      "payable": false,
      "stateMutability": "view",
      "type": "function"
    },
    {
      "constant": true,
      "inputs": [],
      "name": "timestamp",
      "outputs": [
        {
          "name": "",
          "type": "uint256"
        }
      ],
      "payable": false,
      "stateMutability": "view",
      "type": "function"
    },
    {
      "constant": true,
      "inputs": [
        {
          "name": "user_contract_address",
          "type": "address"
        },
        {
          "name": "msg_sender",
          "type": "address"
        }
      ],
      "name": "auth",
      "outputs": [
        {
          "name": "",
          "type": "bool"
        }
      ],
      "payable": false,
      "stateMutability": "view",
      "type": "function"
    },
    {
      "constant": true,
      "inputs": [
        {
          "name": "user_contract_address",
          "type": "address"
        }
      ],
      "name": "getUserVote",
      "outputs": [
        {
          "name": "",
          "type": "uint256"
        }
      ],
      "payable": false,
      "stateMutability": "view",
      "type": "function"
    },
    {
      "constant": true,
      "inputs": [
        {
          "name": "",
          "type": "address"
        }
      ],
      "name": "votes",
      "outputs": [
        {
          "name": "",
          "type": "uint256"
        }
      ],
      "payable": false,
      "stateMutability": "view",
      "type": "function"
    },
    {
      "constant": true,
      "inputs": [],
      "name": "lastVoteTime",
      "outputs": [
        {
          "name": "",
          "type": "uint256"
        }
      ],
      "payable": false,
      "stateMutability": "view",
      "type": "function"
    },
    {
      "constant": true,
      "inputs": [],
      "name": "getAverageOfVotes",
      "outputs": [
        {
          "name": "",
          "type": "uint256"
        }
      ],
      "payable": false,
      "stateMutability": "view",
      "type": "function"
    },
    {
      "constant": false,
      "inputs": [
        {
          "name": "user_contract_address",
          "type": "address"
        },
        {
          "name": "comment_text",
          "type": "string"
        },
        {
          "name": "content_url",
          "type": "string"
        }
      ],
      "name": "createComment",
      "outputs": [],
      "payable": false,
      "stateMutability": "nonpayable",
      "type": "function"
    },
    {
      "inputs": [
        {
          "name": "user_contract_address",
          "type": "address"
        },
        {
          "name": "post_text",
          "type": "string"
        },
        {
          "name": "content_url",
          "type": "string"
        }
      ],
      "payable": false,
      "stateMutability": "nonpayable",
      "type": "constructor"
    },
    {
      "constant": true,
      "inputs": [],
      "name": "getPost",
      "outputs": [
        {
          "name": "",
          "type": "address"
        },
        {
          "name": "",
          "type": "string"
        },
        {
          "name": "",
          "type": "string"
        },
        {
          "name": "",
          "type": "string"
        },
        {
          "name": "",
          "type": "uint256"
        },
        {
          "name": "",
          "type": "address[]"
        },
        {
          "name": "",
          "type": "string"
        },
        {
          "name": "",
          "type": "uint256"
        },
        {
          "name": "",
          "type": "uint256"
        },
        {
          "name": "",
          "type": "uint256"
        }
      ],
      "payable": false,
      "stateMutability": "view",
      "type": "function"
    }
  ],
  "bytecode": "0x60806040526000600555600060065560006008553480156200002057600080fd5b50604051620035e6380380620035e6833981018060405260608110156200004657600080fd5b810190808051906020019092919080516401000000008111156200006957600080fd5b828101905060208101848111156200008057600080fd5b81518560018202830111640100000000821117156200009e57600080fd5b50509291906020018051640100000000811115620000bb57600080fd5b82810190506020810184811115620000d257600080fd5b8151856001820283011164010000000082111715620000f057600080fd5b505092919050505081600190805190602001906200011092919062000195565b5080600290805190602001906200012992919062000195565b50426003819055506001600a60006101000a81548160ff021916908315150217905550826000806101000a81548173ffffffffffffffffffffffffffffffffffffffff021916908373ffffffffffffffffffffffffffffffffffffffff16021790555050505062000244565b828054600181600116156101000203166002900490600052602060002090601f016020900481019282601f10620001d857805160ff191683800117855562000209565b8280016001018555821562000209579182015b8281111562000208578251825591602001919060010190620001eb565b5b5090506200021891906200021c565b5090565b6200024191905b808211156200023d57600081600090555060010162000223565b5090565b90565b61339280620002546000396000f3fe6080604052600436106200010f576000357c0100000000000000000000000000000000000000000000000000000000900463ffffffff1680630d15fd7714620001145780631dda316514620001425780631f1bd692146200015c5780633a98ef3914620001f25780635f74bbde1462000220578063850710c3146200027f5780638c6838ba14620003155780638da5cb5b146200059157806399f71a7d14620005eb578063a0ccc8b9146200061d578063a4ff78d1146200064b578063b80777ea146200067d578063ce5036ce14620006ab578063d4923d4e1462000738578063d8bff5a514620007a1578063dac17430146200080a578063e38106c41462000838578063eeb9eac91462000866575b600080fd5b3480156200012157600080fd5b506200012c620009ef565b6040518082815260200191505060405180910390f35b3480156200014f57600080fd5b506200015a620009f5565b005b3480156200016957600080fd5b506200017462000a09565b6040518080602001828103825283818151815260200191508051906020019080838360005b83811015620001b657808201518184015260208101905062000199565b50505050905090810190601f168015620001e45780820380516001836020036101000a031916815260200191505b509250505060405180910390f35b348015620001ff57600080fd5b506200020a62000aab565b6040518082815260200191505060405180910390f35b3480156200022d57600080fd5b506200027d600480360360408110156200024657600080fd5b81019080803573ffffffffffffffffffffffffffffffffffffffff1690602001909291908035906020019092919050505062000ab1565b005b3480156200028c57600080fd5b506200029762000e1d565b6040518080602001828103825283818151815260200191508051906020019080838360005b83811015620002d9578082015181840152602081019050620002bc565b50505050905090810190601f168015620003075780820380516001836020036101000a031916815260200191505b509250505060405180910390f35b3480156200032257600080fd5b506200032d62000ebf565b604051808b73ffffffffffffffffffffffffffffffffffffffff1673ffffffffffffffffffffffffffffffffffffffff1681526020018060200180602001806020018a8152602001806020018060200189815260200188815260200187815260200186810386528f818151815260200191508051906020019080838360005b83811015620003c9578082015181840152602081019050620003ac565b50505050905090810190601f168015620003f75780820380516001836020036101000a031916815260200191505b5086810385528e818151815260200191508051906020019080838360005b838110156200043257808201518184015260208101905062000415565b50505050905090810190601f168015620004605780820380516001836020036101000a031916815260200191505b5086810384528d818151815260200191508051906020019080838360005b838110156200049b5780820151818401526020810190506200047e565b50505050905090810190601f168015620004c95780820380516001836020036101000a031916815260200191505b5086810383528b818151815260200191508051906020019060200280838360005b8381101562000507578082015181840152602081019050620004ea565b5050505090500186810382528a818151815260200191508051906020019080838360005b83811015620005485780820151818401526020810190506200052b565b50505050905090810190601f168015620005765780820380516001836020036101000a031916815260200191505b509f5050505050505050505050505050505060405180910390f35b3480156200059e57600080fd5b50620005a962001465565b604051808273ffffffffffffffffffffffffffffffffffffffff1673ffffffffffffffffffffffffffffffffffffffff16815260200191505060405180910390f35b348015620005f857600080fd5b50620006036200148a565b604051808215151515815260200191505060405180910390f35b3480156200062a57600080fd5b50620006356200149d565b6040518082815260200191505060405180910390f35b3480156200065857600080fd5b5062000663620014a3565b604051808215151515815260200191505060405180910390f35b3480156200068a57600080fd5b5062000695620014f2565b6040518082815260200191505060405180910390f35b348015620006b857600080fd5b506200071e60048036036040811015620006d157600080fd5b81019080803573ffffffffffffffffffffffffffffffffffffffff169060200190929190803573ffffffffffffffffffffffffffffffffffffffff169060200190929190505050620014f8565b604051808215151515815260200191505060405180910390f35b3480156200074557600080fd5b506200078b600480360360208110156200075e57600080fd5b81019080803573ffffffffffffffffffffffffffffffffffffffff169060200190929190505050620015f2565b6040518082815260200191505060405180910390f35b348015620007ae57600080fd5b50620007f460048036036020811015620007c757600080fd5b81019080803573ffffffffffffffffffffffffffffffffffffffff1690602001909291905050506200163b565b6040518082815260200191505060405180910390f35b3480156200081757600080fd5b506200082262001653565b6040518082815260200191505060405180910390f35b3480156200084557600080fd5b506200085062001659565b6040518082815260200191505060405180910390f35b3480156200087357600080fd5b50620009ed600480360360608110156200088c57600080fd5b81019080803573ffffffffffffffffffffffffffffffffffffffff16906020019092919080359060200190640100000000811115620008ca57600080fd5b820183602082011115620008dd57600080fd5b803590602001918460018302840111640100000000831117156200090057600080fd5b91908080601f016020809104026020016040519081016040528093929190818152602001838380828437600081840152601f19601f820116905080830192505050505050509192919290803590602001906401000000008111156200096457600080fd5b8201836020820111156200097757600080fd5b803590602001918460018302840111640100000000831117156200099a57600080fd5b91908080601f016020809104026020016040519081016040528093929190818152602001838380828437600081840152601f19601f82011690508083019250505050505050919291929050505062001695565b005b60055481565b600860008154809291906001019190505550565b60018054600181600116156101000203166002900480601f01602080910402602001604051908101604052809291908181526020018280546001816001161561010002031660029004801562000aa35780601f1062000a775761010080835404028352916020019162000aa3565b820191906000526020600020905b81548152906001019060200180831162000a8557829003601f168201915b505050505081565b60085481565b62000abd8233620014f8565b151562000b58576040517f08c379a00000000000000000000000000000000000000000000000000000000081526004018080602001828103825260228152602001807f7573657220636f6e74726163742061646472657373206973206e6f7420796f7581526020017f727300000000000000000000000000000000000000000000000000000000000081525060400191505060405180910390fd5b6001811015801562000b6b5750600a8111155b151562000c06576040517f08c379a00000000000000000000000000000000000000000000000000000000081526004018080602001828103825260228152602001807f74686520766f74652076616c7565206973206265747765656e203120616e642081526020017f313000000000000000000000000000000000000000000000000000000000000081525060400191505060405180910390fd5b6000600960008473ffffffffffffffffffffffffffffffffffffffff1673ffffffffffffffffffffffffffffffffffffffff1681526020019081526020016000205414151562000c625762000c5c8282620018eb565b62000e19565b80600960008473ffffffffffffffffffffffffffffffffffffffff1673ffffffffffffffffffffffffffffffffffffffff16815260200190815260200160002081905550806006600082825401925050819055506000809054906101000a900473ffffffffffffffffffffffffffffffffffffffff1673ffffffffffffffffffffffffffffffffffffffff16633de3f629826040518263ffffffff167c010000000000000000000000000000000000000000000000000000000002815260040180828152602001915050600060405180830381600087803b15801562000d4757600080fd5b505af115801562000d5c573d6000803e3d6000fd5b505050506000809054906101000a900473ffffffffffffffffffffffffffffffffffffffff1673ffffffffffffffffffffffffffffffffffffffff16638b7374726040518163ffffffff167c0100000000000000000000000000000000000000000000000000000000028152600401600060405180830381600087803b15801562000de657600080fd5b505af115801562000dfb573d6000803e3d6000fd5b50505050600560008154809291906001019190505550426007819055505b5050565b60028054600181600116156101000203166002900480601f01602080910402602001604051908101604052809291908181526020018280546001816001161561010002031660029004801562000eb75780601f1062000e8b5761010080835404028352916020019162000eb7565b820191906000526020600020905b81548152906001019060200180831162000e9957829003601f168201915b505050505081565b600060608060606000606080600080600062000eda620014a3565b151562000f4f576040517f08c379a000000000000000000000000000000000000000000000000000000000815260040180806020018281038252601f8152602001807f74686520706f73742068617665206c6f77206176657261676520766f7465730081525060200191505060405180910390fd5b6000809054906101000a900473ffffffffffffffffffffffffffffffffffffffff166000809054906101000a900473ffffffffffffffffffffffffffffffffffffffff1673ffffffffffffffffffffffffffffffffffffffff166306fdde036040518163ffffffff167c010000000000000000000000000000000000000000000000000000000002815260040160006040518083038186803b15801562000ff557600080fd5b505afa1580156200100a573d6000803e3d6000fd5b505050506040513d6000823e3d601f19601f8201168201806040525060208110156200103557600080fd5b8101908080516401000000008111156200104e57600080fd5b828101905060208101848111156200106557600080fd5b81518560018202830111640100000000821117156200108357600080fd5b50509291905050506001600260035460046000809054906101000a900473ffffffffffffffffffffffffffffffffffffffff1673ffffffffffffffffffffffffffffffffffffffff16630aaf15306040518163ffffffff167c010000000000000000000000000000000000000000000000000000000002815260040160006040518083038186803b1580156200111857600080fd5b505afa1580156200112d573d6000803e3d6000fd5b505050506040513d6000823e3d601f19601f8201168201806040525060208110156200115857600080fd5b8101908080516401000000008111156200117157600080fd5b828101905060208101848111156200118857600080fd5b8151856001820283011164010000000082111715620011a657600080fd5b50509291905050506005546008546000809054906101000a900473ffffffffffffffffffffffffffffffffffffffff1673ffffffffffffffffffffffffffffffffffffffff1663679aefce6040518163ffffffff167c010000000000000000000000000000000000000000000000000000000002815260040160206040518083038186803b1580156200123857600080fd5b505afa1580156200124d573d6000803e3d6000fd5b505050506040513d60208110156200126457600080fd5b8101908080519060200190929190505050889850878054600181600116156101000203166002900480601f016020809104026020016040519081016040528092919081815260200182805460018160011615610100020316600290048015620013115780601f10620012e55761010080835404028352916020019162001311565b820191906000526020600020905b815481529060010190602001808311620012f357829003601f168201915b50505050509750868054600181600116156101000203166002900480601f016020809104026020016040519081016040528092919081815260200182805460018160011615610100020316600290048015620013b15780601f106200138557610100808354040283529160200191620013b1565b820191906000526020600020905b8154815290600101906020018083116200139357829003601f168201915b50505050509650848054806020026020016040519081016040528092919081815260200182805480156200143b57602002820191906000526020600020905b8160009054906101000a900473ffffffffffffffffffffffffffffffffffffffff1673ffffffffffffffffffffffffffffffffffffffff1681526020019060010190808311620013f0575b50505050509450839350995099509950995099509950995099509950995090919293949596979899565b6000809054906101000a900473ffffffffffffffffffffffffffffffffffffffff1681565b600a60009054906101000a900460ff1681565b60065481565b600060786007544203118015620014bd5750600060075414155b15620014ea576005620014cf62001659565b1015620014e05760009050620014ef565b60019050620014ef565b600190505b90565b60035481565b6000808390508073ffffffffffffffffffffffffffffffffffffffff16632f54bf6e846040518263ffffffff167c0100000000000000000000000000000000000000000000000000000000028152600401808273ffffffffffffffffffffffffffffffffffffffff1673ffffffffffffffffffffffffffffffffffffffff16815260200191505060206040518083038186803b1580156200159857600080fd5b505afa158015620015ad573d6000803e3d6000fd5b505050506040513d6020811015620015c457600080fd5b810190808051906020019092919050505015620015e6576001915050620015ec565b60009150505b92915050565b6000600960008373ffffffffffffffffffffffffffffffffffffffff1673ffffffffffffffffffffffffffffffffffffffff168152602001908152602001600020549050919050565b60096020528060005260406000206000915090505481565b60075481565b60008060055414806200166e57506000600654145b156200167e576000905062001692565b6005546006548115156200168e57fe5b0490505b90565b620016a18333620014f8565b15156200173c576040517f08c379a00000000000000000000000000000000000000000000000000000000081526004018080602001828103825260228152602001807f7573657220636f6e74726163742061646472657373206973206e6f7420796f7581526020017f727300000000000000000000000000000000000000000000000000000000000081525060400191505060405180910390fd5b60008383836200174b62001bd3565b808473ffffffffffffffffffffffffffffffffffffffff1673ffffffffffffffffffffffffffffffffffffffff1681526020018060200180602001838103835285818151815260200191508051906020019080838360005b83811015620017c0578082015181840152602081019050620017a3565b50505050905090810190601f168015620017ee5780820380516001836020036101000a031916815260200191505b50838103825284818151815260200191508051906020019080838360005b83811015620018295780820151818401526020810190506200180c565b50505050905090810190601f168015620018575780820380516001836020036101000a031916815260200191505b5095505050505050604051809103906000f0801580156200187c573d6000803e3d6000fd5b50905060048190806001815401808255809150509060018203906000526020600020016000909192909190916101000a81548173ffffffffffffffffffffffffffffffffffffffff021916908373ffffffffffffffffffffffffffffffffffffffff1602179055505050505050565b620018f78233620014f8565b151562001992576040517f08c379a00000000000000000000000000000000000000000000000000000000081526004018080602001828103825260228152602001807f7573657220636f6e74726163742061646472657373206973206e6f7420796f7581526020017f727300000000000000000000000000000000000000000000000000000000000081525060400191505060405180910390fd5b600960008373ffffffffffffffffffffffffffffffffffffffff1673ffffffffffffffffffffffffffffffffffffffff168152602001908152602001600020546006600082825403925050819055506000809054906101000a900473ffffffffffffffffffffffffffffffffffffffff1673ffffffffffffffffffffffffffffffffffffffff16630381dc93600960008573ffffffffffffffffffffffffffffffffffffffff1673ffffffffffffffffffffffffffffffffffffffff168152602001908152602001600020546040518263ffffffff167c010000000000000000000000000000000000000000000000000000000002815260040180828152602001915050600060405180830381600087803b15801562001ab157600080fd5b505af115801562001ac6573d6000803e3d6000fd5b5050505080600960008473ffffffffffffffffffffffffffffffffffffffff1673ffffffffffffffffffffffffffffffffffffffff16815260200190815260200160002081905550806006600082825401925050819055506000809054906101000a900473ffffffffffffffffffffffffffffffffffffffff1673ffffffffffffffffffffffffffffffffffffffff16633de3f629826040518263ffffffff167c010000000000000000000000000000000000000000000000000000000002815260040180828152602001915050600060405180830381600087803b15801562001baf57600080fd5b505af115801562001bc4573d6000803e3d6000fd5b50505050426007819055505050565b6040516117828062001be58339019056fe6080604052600060045560006005553480156200001b57600080fd5b506040516200178238038062001782833981018060405260608110156200004157600080fd5b810190808051906020019092919080516401000000008111156200006457600080fd5b828101905060208101848111156200007b57600080fd5b81518560018202830111640100000000821117156200009957600080fd5b50509291906020018051640100000000811115620000b657600080fd5b82810190506020810184811115620000cd57600080fd5b8151856001820283011164010000000082111715620000eb57600080fd5b505092919050505081600190805190602001906200010b92919062000175565b5080600290805190602001906200012492919062000175565b5042600381905550826000806101000a81548173ffffffffffffffffffffffffffffffffffffffff021916908373ffffffffffffffffffffffffffffffffffffffff16021790555050505062000224565b828054600181600116156101000203166002900490600052602060002090601f016020900481019282601f10620001b857805160ff1916838001178555620001e9565b82800160010185558215620001e9579182015b82811115620001e8578251825591602001919060010190620001cb565b5b509050620001f89190620001fc565b5090565b6200022191905b808211156200021d57600081600090555060010162000203565b5090565b90565b61154e80620002346000396000f3fe6080604052600436106100c5576000357c0100000000000000000000000000000000000000000000000000000000900463ffffffff1680630d15fd77146100ca5780631f1bd692146100f55780635f74bbde14610185578063850710c3146101e0578063a0ccc8b914610270578063a4ff78d11461029b578063b80777ea146102ca578063cc773044146102f5578063ce5036ce1461050a578063d4923d4e14610593578063d8bff5a5146105f8578063dac174301461065d578063e38106c414610688575b600080fd5b3480156100d657600080fd5b506100df6106b3565b6040518082815260200191505060405180910390f35b34801561010157600080fd5b5061010a6106b9565b6040518080602001828103825283818151815260200191508051906020019080838360005b8381101561014a57808201518184015260208101905061012f565b50505050905090810190601f1680156101775780820380516001836020036101000a031916815260200191505b509250505060405180910390f35b34801561019157600080fd5b506101de600480360360408110156101a857600080fd5b81019080803573ffffffffffffffffffffffffffffffffffffffff16906020019092919080359060200190929190505050610757565b005b3480156101ec57600080fd5b506101f5610aaf565b6040518080602001828103825283818151815260200191508051906020019080838360005b8381101561023557808201518184015260208101905061021a565b50505050905090810190601f1680156102625780820380516001836020036101000a031916815260200191505b509250505060405180910390f35b34801561027c57600080fd5b50610285610b4d565b6040518082815260200191505060405180910390f35b3480156102a757600080fd5b506102b0610b53565b604051808215151515815260200191505060405180910390f35b3480156102d657600080fd5b506102df610b9c565b6040518082815260200191505060405180910390f35b34801561030157600080fd5b5061030a610ba2565b604051808873ffffffffffffffffffffffffffffffffffffffff1673ffffffffffffffffffffffffffffffffffffffff1681526020018060200180602001878152602001806020018060200186815260200185810385528b818151815260200191508051906020019080838360005b83811015610394578082015181840152602081019050610379565b50505050905090810190601f1680156103c15780820380516001836020036101000a031916815260200191505b5085810384528a818151815260200191508051906020019080838360005b838110156103fa5780820151818401526020810190506103df565b50505050905090810190601f1680156104275780820380516001836020036101000a031916815260200191505b50858103835288818151815260200191508051906020019080838360005b83811015610460578082015181840152602081019050610445565b50505050905090810190601f16801561048d5780820380516001836020036101000a031916815260200191505b50858103825287818151815260200191508051906020019080838360005b838110156104c65780820151818401526020810190506104ab565b50505050905090810190601f1680156104f35780820380516001836020036101000a031916815260200191505b509b50505050505050505050505060405180910390f35b34801561051657600080fd5b506105796004803603604081101561052d57600080fd5b81019080803573ffffffffffffffffffffffffffffffffffffffff169060200190929190803573ffffffffffffffffffffffffffffffffffffffff1690602001909291905050506110b4565b604051808215151515815260200191505060405180910390f35b34801561059f57600080fd5b506105e2600480360360208110156105b657600080fd5b81019080803573ffffffffffffffffffffffffffffffffffffffff1690602001909291905050506111a9565b6040518082815260200191505060405180910390f35b34801561060457600080fd5b506106476004803603602081101561061b57600080fd5b81019080803573ffffffffffffffffffffffffffffffffffffffff1690602001909291905050506111f2565b6040518082815260200191505060405180910390f35b34801561066957600080fd5b5061067261120a565b6040518082815260200191505060405180910390f35b34801561069457600080fd5b5061069d611210565b6040518082815260200191505060405180910390f35b60045481565b60018054600181600116156101000203166002900480601f01602080910402602001604051908101604052809291908181526020018280546001816001161561010002031660029004801561074f5780601f106107245761010080835404028352916020019161074f565b820191906000526020600020905b81548152906001019060200180831161073257829003601f168201915b505050505081565b61076182336110b4565b15156107fb576040517f08c379a00000000000000000000000000000000000000000000000000000000081526004018080602001828103825260228152602001807f7573657220636f6e74726163742061646472657373206973206e6f7420796f7581526020017f727300000000000000000000000000000000000000000000000000000000000081525060400191505060405180910390fd5b6001811015801561080d5750600a8111155b15156108a7576040517f08c379a00000000000000000000000000000000000000000000000000000000081526004018080602001828103825260228152602001807f74686520766f74652076616c7565206973206265747765656e203120616e642081526020017f313000000000000000000000000000000000000000000000000000000000000081525060400191505060405180910390fd5b6000600760008473ffffffffffffffffffffffffffffffffffffffff1673ffffffffffffffffffffffffffffffffffffffff168152602001908152602001600020541415156108ff576108fa8282611248565b610aab565b80600760008473ffffffffffffffffffffffffffffffffffffffff1673ffffffffffffffffffffffffffffffffffffffff16815260200190815260200160002081905550806005600082825401925050819055506000809054906101000a900473ffffffffffffffffffffffffffffffffffffffff1673ffffffffffffffffffffffffffffffffffffffff16633de3f629826040518263ffffffff167c010000000000000000000000000000000000000000000000000000000002815260040180828152602001915050600060405180830381600087803b1580156109e357600080fd5b505af11580156109f7573d6000803e3d6000fd5b505050506000809054906101000a900473ffffffffffffffffffffffffffffffffffffffff1673ffffffffffffffffffffffffffffffffffffffff16638b7374726040518163ffffffff167c0100000000000000000000000000000000000000000000000000000000028152600401600060405180830381600087803b158015610a8057600080fd5b505af1158015610a94573d6000803e3d6000fd5b505050506004600081548092919060010191905055505b5050565b60028054600181600116156101000203166002900480601f016020809104026020016040519081016040528092919081815260200182805460018160011615610100020316600290048015610b455780601f10610b1a57610100808354040283529160200191610b45565b820191906000526020600020905b815481529060010190602001808311610b2857829003601f168201915b505050505081565b60055481565b600061012c6006544203118015610b6d5750600060065414155b15610b94576005610b7c611210565b1015610b8b5760009050610b99565b60019050610b99565b600190505b90565b60035481565b600060608060006060806000610bb6610b53565b1515610c50576040517f08c379a00000000000000000000000000000000000000000000000000000000081526004018080602001828103825260228152602001807f74686520636f6d6d656e742068617665206c6f77206176657261676520766f7481526020017f657300000000000000000000000000000000000000000000000000000000000081525060400191505060405180910390fd5b6000809054906101000a900473ffffffffffffffffffffffffffffffffffffffff166000809054906101000a900473ffffffffffffffffffffffffffffffffffffffff1673ffffffffffffffffffffffffffffffffffffffff166306fdde036040518163ffffffff167c010000000000000000000000000000000000000000000000000000000002815260040160006040518083038186803b158015610cf557600080fd5b505afa158015610d09573d6000803e3d6000fd5b505050506040513d6000823e3d601f19601f820116820180604052506020811015610d3357600080fd5b810190808051640100000000811115610d4b57600080fd5b82810190506020810184811115610d6157600080fd5b8151856001820283011164010000000082111715610d7e57600080fd5b5050929190505050600160035460026000809054906101000a900473ffffffffffffffffffffffffffffffffffffffff1673ffffffffffffffffffffffffffffffffffffffff16630aaf15306040518163ffffffff167c010000000000000000000000000000000000000000000000000000000002815260040160006040518083038186803b158015610e1057600080fd5b505afa158015610e24573d6000803e3d6000fd5b505050506040513d6000823e3d601f19601f820116820180604052506020811015610e4e57600080fd5b810190808051640100000000811115610e6657600080fd5b82810190506020810184811115610e7c57600080fd5b8151856001820283011164010000000082111715610e9957600080fd5b50509291905050506000809054906101000a900473ffffffffffffffffffffffffffffffffffffffff1673ffffffffffffffffffffffffffffffffffffffff1663679aefce6040518163ffffffff167c010000000000000000000000000000000000000000000000000000000002815260040160206040518083038186803b158015610f2457600080fd5b505afa158015610f38573d6000803e3d6000fd5b505050506040513d6020811015610f4e57600080fd5b8101908080519060200190929190505050859550848054600181600116156101000203166002900480601f016020809104026020016040519081016040528092919081815260200182805460018160011615610100020316600290048015610ff75780601f10610fcc57610100808354040283529160200191610ff7565b820191906000526020600020905b815481529060010190602001808311610fda57829003601f168201915b50505050509450828054600181600116156101000203166002900480601f0160208091040260200160405190810160405280929190818152602001828054600181600116156101000203166002900480156110935780601f1061106857610100808354040283529160200191611093565b820191906000526020600020905b81548152906001019060200180831161107657829003601f168201915b50505050509250819150965096509650965096509650965090919293949596565b6000808390508073ffffffffffffffffffffffffffffffffffffffff16632f54bf6e846040518263ffffffff167c0100000000000000000000000000000000000000000000000000000000028152600401808273ffffffffffffffffffffffffffffffffffffffff1673ffffffffffffffffffffffffffffffffffffffff16815260200191505060206040518083038186803b15801561115357600080fd5b505afa158015611167573d6000803e3d6000fd5b505050506040513d602081101561117d57600080fd5b81019080805190602001909291905050501561119d5760019150506111a3565b60009150505b92915050565b6000600760008373ffffffffffffffffffffffffffffffffffffffff1673ffffffffffffffffffffffffffffffffffffffff168152602001908152602001600020549050919050565b60076020528060005260406000206000915090505481565b60065481565b600080600454148061122457506000600554145b156112325760009050611245565b60045460055481151561124157fe5b0490505b90565b61125282336110b4565b15156112ec576040517f08c379a00000000000000000000000000000000000000000000000000000000081526004018080602001828103825260228152602001807f7573657220636f6e74726163742061646472657373206973206e6f7420796f7581526020017f727300000000000000000000000000000000000000000000000000000000000081525060400191505060405180910390fd5b600760008373ffffffffffffffffffffffffffffffffffffffff1673ffffffffffffffffffffffffffffffffffffffff168152602001908152602001600020546005600082825403925050819055506000809054906101000a900473ffffffffffffffffffffffffffffffffffffffff1673ffffffffffffffffffffffffffffffffffffffff16630381dc93600760008573ffffffffffffffffffffffffffffffffffffffff1673ffffffffffffffffffffffffffffffffffffffff168152602001908152602001600020546040518263ffffffff167c010000000000000000000000000000000000000000000000000000000002815260040180828152602001915050600060405180830381600087803b15801561140a57600080fd5b505af115801561141e573d6000803e3d6000fd5b5050505080600760008473ffffffffffffffffffffffffffffffffffffffff1673ffffffffffffffffffffffffffffffffffffffff16815260200190815260200160002081905550806005600082825401925050819055506000809054906101000a900473ffffffffffffffffffffffffffffffffffffffff1673ffffffffffffffffffffffffffffffffffffffff16633de3f629826040518263ffffffff167c010000000000000000000000000000000000000000000000000000000002815260040180828152602001915050600060405180830381600087803b15801561150657600080fd5b505af115801561151a573d6000803e3d6000fd5b50505050505056fea165627a7a72305820ea0f147cc383d8abac08a65729d586303d4b9237a569a508624f625b0d7a080f0029a165627a7a7230582053dafc35bfdfae5cbc5ce0bca9f9e30b8d39bfdaee976a568632221243ea36c80029",
  "source": "pragma solidity ^0.5.0;\nimport \"./User.sol\";\nimport \"./Comment.sol\";\nimport \"./Post.sol\";\n\n\ncontract OriginalPost is Post {\n    \n    constructor (address user_contract_address, string memory post_text, string memory content_url) public {\n        text = post_text;\n        contentUrl = content_url;\n        timestamp = now;\n        postType = true;\n        owner = User(user_contract_address);\n    }\n\n    function getPost() public view returns(address,string memory,string memory,string memory,uint256,address[] memory,string memory,uint,uint, uint){\n        require(checkLastVote(),\"the post have low average votes\");\n        return (\n        address(owner),\n        owner.name(),\n        text,\n        contentUrl,\n        timestamp,\n        comments,\n        owner.profilePic(),\n        totalVotes,\n        totalShares,\n        owner.getRate()\n            );\n    }\n\n\n\n\n}",
  "sourcePath": "/media/adam/Source/GP/Eth-Smithereens/contracts/OriginalPost.sol",
  "compiler": {
    "name": "solc",
    "version": "0.5.0+commit.1d4f565a.Emscripten.clang"
  },
  "schemaVersion": "3.0.1",
  "updatedAt": "2019-06-22T19:22:51.616Z",
  "devdoc": {
    "methods": {}
  },
  "userdoc": {
    "methods": {}
  }
}