{
  "contractName": "Post",
  "abi": [
    {
      "constant": true,
      "inputs": [],
      "name": "totalVotes",
      "outputs": [
        {
          "name": "",
          "type": "uint256"
        }
      ],
      "payable": false,
      "stateMutability": "view",
      "type": "function"
    },
    {
      "constant": true,
      "inputs": [],
      "name": "text",
      "outputs": [
        {
          "name": "",
          "type": "string"
        }
      ],
      "payable": false,
      "stateMutability": "view",
      "type": "function"
    },
    {
      "constant": true,
      "inputs": [],
      "name": "totalShares",
      "outputs": [
        {
          "name": "",
          "type": "uint256"
        }
      ],
      "payable": false,
      "stateMutability": "view",
      "type": "function"
    },
    {
      "constant": true,
      "inputs": [],
      "name": "contentUrl",
      "outputs": [
        {
          "name": "",
          "type": "string"
        }
      ],
      "payable": false,
      "stateMutability": "view",
      "type": "function"
    },
    {
      "constant": true,
      "inputs": [],
      "name": "owner",
      "outputs": [
        {
          "name": "",
          "type": "address"
        }
      ],
      "payable": false,
      "stateMutability": "view",
      "type": "function"
    },
    {
      "constant": true,
      "inputs": [],
      "name": "postType",
      "outputs": [
        {
          "name": "",
          "type": "bool"
        }
      ],
      "payable": false,
      "stateMutability": "view",
      "type": "function"
    },
    {
      "constant": true,
      "inputs": [],
      "name": "totalVotesValue",
      "outputs": [
        {
          "name": "",
          "type": "uint256"
        }
      ],
      "payable": false,
      "stateMutability": "view",
      "type": "function"
    },
    {
      "constant": true,
      "inputs": [],
      "name": "timestamp",
      "outputs": [
        {
          "name": "",
          "type": "uint256"
        }
      ],
      "payable": false,
      "stateMutability": "view",
      "type": "function"
    },
    {
      "constant": true,
      "inputs": [
        {
          "name": "",
          "type": "address"
        }
      ],
      "name": "votes",
      "outputs": [
        {
          "name": "",
          "type": "uint256"
        }
      ],
      "payable": false,
      "stateMutability": "view",
      "type": "function"
    },
    {
      "constant": true,
      "inputs": [],
      "name": "lastVoteTime",
      "outputs": [
        {
          "name": "",
          "type": "uint256"
        }
      ],
      "payable": false,
      "stateMutability": "view",
      "type": "function"
    },
    {
      "constant": false,
      "inputs": [
        {
          "name": "user_contract_address",
          "type": "address"
        },
        {
          "name": "comment_text",
          "type": "string"
        },
        {
          "name": "content_url",
          "type": "string"
        }
      ],
      "name": "createComment",
      "outputs": [],
      "payable": false,
      "stateMutability": "nonpayable",
      "type": "function"
    },
    {
      "constant": false,
      "inputs": [
        {
          "name": "userContractAddress",
          "type": "address"
        },
        {
          "name": "voteValue",
          "type": "uint256"
        }
      ],
      "name": "vote",
      "outputs": [],
      "payable": false,
      "stateMutability": "nonpayable",
      "type": "function"
    },
    {
      "constant": true,
      "inputs": [
        {
          "name": "user_contract_address",
          "type": "address"
        }
      ],
      "name": "getUserVote",
      "outputs": [
        {
          "name": "",
          "type": "uint256"
        }
      ],
      "payable": false,
      "stateMutability": "view",
      "type": "function"
    },
    {
      "constant": true,
      "inputs": [],
      "name": "getAverageOfVotes",
      "outputs": [
        {
          "name": "",
          "type": "uint256"
        }
      ],
      "payable": false,
      "stateMutability": "view",
      "type": "function"
    },
    {
      "constant": true,
      "inputs": [],
      "name": "checkLastVote",
      "outputs": [
        {
          "name": "",
          "type": "bool"
        }
      ],
      "payable": false,
      "stateMutability": "view",
      "type": "function"
    },
    {
      "constant": true,
      "inputs": [
        {
          "name": "user_contract_address",
          "type": "address"
        },
        {
          "name": "msg_sender",
          "type": "address"
        }
      ],
      "name": "auth",
      "outputs": [
        {
          "name": "",
          "type": "bool"
        }
      ],
      "payable": false,
      "stateMutability": "view",
      "type": "function"
    },
    {
      "constant": false,
      "inputs": [],
      "name": "increamentShares",
      "outputs": [],
      "payable": false,
      "stateMutability": "nonpayable",
      "type": "function"
    }
  ],
  "bytecode": "0x608060405260006005556000600655600060085534801561001f57600080fd5b50612a168061002f6000396000f3fe60806040526004361062000103576000357c0100000000000000000000000000000000000000000000000000000000900463ffffffff1680630d15fd7714620001085780631dda316514620001365780631f1bd69214620001505780633a98ef3914620001e65780635f74bbde1462000214578063850710c314620002735780638da5cb5b146200030957806399f71a7d1462000363578063a0ccc8b91462000395578063a4ff78d114620003c3578063b80777ea14620003f5578063ce5036ce1462000423578063d4923d4e14620004b0578063d8bff5a51462000519578063dac174301462000582578063e38106c414620005b0578063eeb9eac914620005de575b600080fd5b3480156200011557600080fd5b506200012062000767565b6040518082815260200191505060405180910390f35b3480156200014357600080fd5b506200014e6200076d565b005b3480156200015d57600080fd5b506200016862000781565b6040518080602001828103825283818151815260200191508051906020019080838360005b83811015620001aa5780820151818401526020810190506200018d565b50505050905090810190601f168015620001d85780820380516001836020036101000a031916815260200191505b509250505060405180910390f35b348015620001f357600080fd5b50620001fe62000823565b6040518082815260200191505060405180910390f35b3480156200022157600080fd5b5062000271600480360360408110156200023a57600080fd5b81019080803573ffffffffffffffffffffffffffffffffffffffff1690602001909291908035906020019092919050505062000829565b005b3480156200028057600080fd5b506200028b62000aee565b6040518080602001828103825283818151815260200191508051906020019080838360005b83811015620002cd578082015181840152602081019050620002b0565b50505050905090810190601f168015620002fb5780820380516001836020036101000a031916815260200191505b509250505060405180910390f35b3480156200031657600080fd5b506200032162000b90565b604051808273ffffffffffffffffffffffffffffffffffffffff1673ffffffffffffffffffffffffffffffffffffffff16815260200191505060405180910390f35b3480156200037057600080fd5b506200037b62000bb5565b604051808215151515815260200191505060405180910390f35b348015620003a257600080fd5b50620003ad62000bc8565b6040518082815260200191505060405180910390f35b348015620003d057600080fd5b50620003db62000bce565b604051808215151515815260200191505060405180910390f35b3480156200040257600080fd5b506200040d62000c1d565b6040518082815260200191505060405180910390f35b3480156200043057600080fd5b5062000496600480360360408110156200044957600080fd5b81019080803573ffffffffffffffffffffffffffffffffffffffff169060200190929190803573ffffffffffffffffffffffffffffffffffffffff16906020019092919050505062000c23565b604051808215151515815260200191505060405180910390f35b348015620004bd57600080fd5b506200050360048036036020811015620004d657600080fd5b81019080803573ffffffffffffffffffffffffffffffffffffffff16906020019092919050505062000d1d565b6040518082815260200191505060405180910390f35b3480156200052657600080fd5b506200056c600480360360208110156200053f57600080fd5b81019080803573ffffffffffffffffffffffffffffffffffffffff16906020019092919050505062000d66565b6040518082815260200191505060405180910390f35b3480156200058f57600080fd5b506200059a62000d7e565b6040518082815260200191505060405180910390f35b348015620005bd57600080fd5b50620005c862000d84565b6040518082815260200191505060405180910390f35b348015620005eb57600080fd5b5062000765600480360360608110156200060457600080fd5b81019080803573ffffffffffffffffffffffffffffffffffffffff169060200190929190803590602001906401000000008111156200064257600080fd5b8201836020820111156200065557600080fd5b803590602001918460018302840111640100000000831117156200067857600080fd5b91908080601f016020809104026020016040519081016040528093929190818152602001838380828437600081840152601f19601f82011690508083019250505050505050919291929080359060200190640100000000811115620006dc57600080fd5b820183602082011115620006ef57600080fd5b803590602001918460018302840111640100000000831117156200071257600080fd5b91908080601f016020809104026020016040519081016040528093929190818152602001838380828437600081840152601f19601f82011690508083019250505050505050919291929050505062000dc0565b005b60055481565b600860008154809291906001019190505550565b60018054600181600116156101000203166002900480601f0160208091040260200160405190810160405280929190818152602001828054600181600116156101000203166002900480156200081b5780601f10620007ef576101008083540402835291602001916200081b565b820191906000526020600020905b815481529060010190602001808311620007fd57829003601f168201915b505050505081565b60085481565b600181101580156200083c5750600a8111155b1515620008d7576040517f08c379a00000000000000000000000000000000000000000000000000000000081526004018080602001828103825260228152602001807f74686520766f74652076616c7565206973206265747765656e203120616e642081526020017f313000000000000000000000000000000000000000000000000000000000000081525060400191505060405180910390fd5b6000600960008473ffffffffffffffffffffffffffffffffffffffff1673ffffffffffffffffffffffffffffffffffffffff1681526020019081526020016000205414151562000933576200092d828262001016565b62000aea565b80600960008473ffffffffffffffffffffffffffffffffffffffff1673ffffffffffffffffffffffffffffffffffffffff16815260200190815260200160002081905550806006600082825401925050819055506000809054906101000a900473ffffffffffffffffffffffffffffffffffffffff1673ffffffffffffffffffffffffffffffffffffffff16633de3f629826040518263ffffffff167c010000000000000000000000000000000000000000000000000000000002815260040180828152602001915050600060405180830381600087803b15801562000a1857600080fd5b505af115801562000a2d573d6000803e3d6000fd5b505050506000809054906101000a900473ffffffffffffffffffffffffffffffffffffffff1673ffffffffffffffffffffffffffffffffffffffff16638b7374726040518163ffffffff167c0100000000000000000000000000000000000000000000000000000000028152600401600060405180830381600087803b15801562000ab757600080fd5b505af115801562000acc573d6000803e3d6000fd5b50505050600560008154809291906001019190505550426007819055505b5050565b60028054600181600116156101000203166002900480601f01602080910402602001604051908101604052809291908181526020018280546001816001161561010002031660029004801562000b885780601f1062000b5c5761010080835404028352916020019162000b88565b820191906000526020600020905b81548152906001019060200180831162000b6a57829003601f168201915b505050505081565b6000809054906101000a900473ffffffffffffffffffffffffffffffffffffffff1681565b600a60009054906101000a900460ff1681565b60065481565b60006078600754420311801562000be85750600060075414155b1562000c1557600562000bfa62000d84565b101562000c0b576000905062000c1a565b6001905062000c1a565b600190505b90565b60035481565b6000808390508073ffffffffffffffffffffffffffffffffffffffff16632f54bf6e846040518263ffffffff167c0100000000000000000000000000000000000000000000000000000000028152600401808273ffffffffffffffffffffffffffffffffffffffff1673ffffffffffffffffffffffffffffffffffffffff16815260200191505060206040518083038186803b15801562000cc357600080fd5b505afa15801562000cd8573d6000803e3d6000fd5b505050506040513d602081101562000cef57600080fd5b81019080805190602001909291905050501562000d1157600191505062000d17565b60009150505b92915050565b6000600960008373ffffffffffffffffffffffffffffffffffffffff1673ffffffffffffffffffffffffffffffffffffffff168152602001908152602001600020549050919050565b60096020528060005260406000206000915090505481565b60075481565b600080600554148062000d9957506000600654145b1562000da9576000905062000dbd565b60055460065481151562000db957fe5b0490505b90565b62000dcc833362000c23565b151562000e67576040517f08c379a00000000000000000000000000000000000000000000000000000000081526004018080602001828103825260228152602001807f7573657220636f6e74726163742061646472657373206973206e6f7420796f7581526020017f727300000000000000000000000000000000000000000000000000000000000081525060400191505060405180910390fd5b600083838362000e7662001257565b808473ffffffffffffffffffffffffffffffffffffffff1673ffffffffffffffffffffffffffffffffffffffff1681526020018060200180602001838103835285818151815260200191508051906020019080838360005b8381101562000eeb57808201518184015260208101905062000ece565b50505050905090810190601f16801562000f195780820380516001836020036101000a031916815260200191505b50838103825284818151815260200191508051906020019080838360005b8381101562000f5457808201518184015260208101905062000f37565b50505050905090810190601f16801562000f825780820380516001836020036101000a031916815260200191505b5095505050505050604051809103906000f08015801562000fa7573d6000803e3d6000fd5b50905060048190806001815401808255809150509060018203906000526020600020016000909192909190916101000a81548173ffffffffffffffffffffffffffffffffffffffff021916908373ffffffffffffffffffffffffffffffffffffffff1602179055505050505050565b600960008373ffffffffffffffffffffffffffffffffffffffff1673ffffffffffffffffffffffffffffffffffffffff168152602001908152602001600020546006600082825403925050819055506000809054906101000a900473ffffffffffffffffffffffffffffffffffffffff1673ffffffffffffffffffffffffffffffffffffffff16630381dc93600960008573ffffffffffffffffffffffffffffffffffffffff1673ffffffffffffffffffffffffffffffffffffffff168152602001908152602001600020546040518263ffffffff167c010000000000000000000000000000000000000000000000000000000002815260040180828152602001915050600060405180830381600087803b1580156200113557600080fd5b505af11580156200114a573d6000803e3d6000fd5b5050505080600960008473ffffffffffffffffffffffffffffffffffffffff1673ffffffffffffffffffffffffffffffffffffffff16815260200190815260200160002081905550806006600082825401925050819055506000809054906101000a900473ffffffffffffffffffffffffffffffffffffffff1673ffffffffffffffffffffffffffffffffffffffff16633de3f629826040518263ffffffff167c010000000000000000000000000000000000000000000000000000000002815260040180828152602001915050600060405180830381600087803b1580156200123357600080fd5b505af115801562001248573d6000803e3d6000fd5b50505050426007819055505050565b60405161178280620012698339019056fe6080604052600060045560006005553480156200001b57600080fd5b506040516200178238038062001782833981018060405260608110156200004157600080fd5b810190808051906020019092919080516401000000008111156200006457600080fd5b828101905060208101848111156200007b57600080fd5b81518560018202830111640100000000821117156200009957600080fd5b50509291906020018051640100000000811115620000b657600080fd5b82810190506020810184811115620000cd57600080fd5b8151856001820283011164010000000082111715620000eb57600080fd5b505092919050505081600190805190602001906200010b92919062000175565b5080600290805190602001906200012492919062000175565b5042600381905550826000806101000a81548173ffffffffffffffffffffffffffffffffffffffff021916908373ffffffffffffffffffffffffffffffffffffffff16021790555050505062000224565b828054600181600116156101000203166002900490600052602060002090601f016020900481019282601f10620001b857805160ff1916838001178555620001e9565b82800160010185558215620001e9579182015b82811115620001e8578251825591602001919060010190620001cb565b5b509050620001f89190620001fc565b5090565b6200022191905b808211156200021d57600081600090555060010162000203565b5090565b90565b61154e80620002346000396000f3fe6080604052600436106100c5576000357c0100000000000000000000000000000000000000000000000000000000900463ffffffff1680630d15fd77146100ca5780631f1bd692146100f55780635f74bbde14610185578063850710c3146101e0578063a0ccc8b914610270578063a4ff78d11461029b578063b80777ea146102ca578063cc773044146102f5578063ce5036ce1461050a578063d4923d4e14610593578063d8bff5a5146105f8578063dac174301461065d578063e38106c414610688575b600080fd5b3480156100d657600080fd5b506100df6106b3565b6040518082815260200191505060405180910390f35b34801561010157600080fd5b5061010a6106b9565b6040518080602001828103825283818151815260200191508051906020019080838360005b8381101561014a57808201518184015260208101905061012f565b50505050905090810190601f1680156101775780820380516001836020036101000a031916815260200191505b509250505060405180910390f35b34801561019157600080fd5b506101de600480360360408110156101a857600080fd5b81019080803573ffffffffffffffffffffffffffffffffffffffff16906020019092919080359060200190929190505050610757565b005b3480156101ec57600080fd5b506101f5610aaf565b6040518080602001828103825283818151815260200191508051906020019080838360005b8381101561023557808201518184015260208101905061021a565b50505050905090810190601f1680156102625780820380516001836020036101000a031916815260200191505b509250505060405180910390f35b34801561027c57600080fd5b50610285610b4d565b6040518082815260200191505060405180910390f35b3480156102a757600080fd5b506102b0610b53565b604051808215151515815260200191505060405180910390f35b3480156102d657600080fd5b506102df610b9c565b6040518082815260200191505060405180910390f35b34801561030157600080fd5b5061030a610ba2565b604051808873ffffffffffffffffffffffffffffffffffffffff1673ffffffffffffffffffffffffffffffffffffffff1681526020018060200180602001878152602001806020018060200186815260200185810385528b818151815260200191508051906020019080838360005b83811015610394578082015181840152602081019050610379565b50505050905090810190601f1680156103c15780820380516001836020036101000a031916815260200191505b5085810384528a818151815260200191508051906020019080838360005b838110156103fa5780820151818401526020810190506103df565b50505050905090810190601f1680156104275780820380516001836020036101000a031916815260200191505b50858103835288818151815260200191508051906020019080838360005b83811015610460578082015181840152602081019050610445565b50505050905090810190601f16801561048d5780820380516001836020036101000a031916815260200191505b50858103825287818151815260200191508051906020019080838360005b838110156104c65780820151818401526020810190506104ab565b50505050905090810190601f1680156104f35780820380516001836020036101000a031916815260200191505b509b50505050505050505050505060405180910390f35b34801561051657600080fd5b506105796004803603604081101561052d57600080fd5b81019080803573ffffffffffffffffffffffffffffffffffffffff169060200190929190803573ffffffffffffffffffffffffffffffffffffffff1690602001909291905050506110b4565b604051808215151515815260200191505060405180910390f35b34801561059f57600080fd5b506105e2600480360360208110156105b657600080fd5b81019080803573ffffffffffffffffffffffffffffffffffffffff1690602001909291905050506111a9565b6040518082815260200191505060405180910390f35b34801561060457600080fd5b506106476004803603602081101561061b57600080fd5b81019080803573ffffffffffffffffffffffffffffffffffffffff1690602001909291905050506111f2565b6040518082815260200191505060405180910390f35b34801561066957600080fd5b5061067261120a565b6040518082815260200191505060405180910390f35b34801561069457600080fd5b5061069d611210565b6040518082815260200191505060405180910390f35b60045481565b60018054600181600116156101000203166002900480601f01602080910402602001604051908101604052809291908181526020018280546001816001161561010002031660029004801561074f5780601f106107245761010080835404028352916020019161074f565b820191906000526020600020905b81548152906001019060200180831161073257829003601f168201915b505050505081565b61076182336110b4565b15156107fb576040517f08c379a00000000000000000000000000000000000000000000000000000000081526004018080602001828103825260228152602001807f7573657220636f6e74726163742061646472657373206973206e6f7420796f7581526020017f727300000000000000000000000000000000000000000000000000000000000081525060400191505060405180910390fd5b6001811015801561080d5750600a8111155b15156108a7576040517f08c379a00000000000000000000000000000000000000000000000000000000081526004018080602001828103825260228152602001807f74686520766f74652076616c7565206973206265747765656e203120616e642081526020017f313000000000000000000000000000000000000000000000000000000000000081525060400191505060405180910390fd5b6000600760008473ffffffffffffffffffffffffffffffffffffffff1673ffffffffffffffffffffffffffffffffffffffff168152602001908152602001600020541415156108ff576108fa8282611248565b610aab565b80600760008473ffffffffffffffffffffffffffffffffffffffff1673ffffffffffffffffffffffffffffffffffffffff16815260200190815260200160002081905550806005600082825401925050819055506000809054906101000a900473ffffffffffffffffffffffffffffffffffffffff1673ffffffffffffffffffffffffffffffffffffffff16633de3f629826040518263ffffffff167c010000000000000000000000000000000000000000000000000000000002815260040180828152602001915050600060405180830381600087803b1580156109e357600080fd5b505af11580156109f7573d6000803e3d6000fd5b505050506000809054906101000a900473ffffffffffffffffffffffffffffffffffffffff1673ffffffffffffffffffffffffffffffffffffffff16638b7374726040518163ffffffff167c0100000000000000000000000000000000000000000000000000000000028152600401600060405180830381600087803b158015610a8057600080fd5b505af1158015610a94573d6000803e3d6000fd5b505050506004600081548092919060010191905055505b5050565b60028054600181600116156101000203166002900480601f016020809104026020016040519081016040528092919081815260200182805460018160011615610100020316600290048015610b455780601f10610b1a57610100808354040283529160200191610b45565b820191906000526020600020905b815481529060010190602001808311610b2857829003601f168201915b505050505081565b60055481565b600061012c6006544203118015610b6d5750600060065414155b15610b94576005610b7c611210565b1015610b8b5760009050610b99565b60019050610b99565b600190505b90565b60035481565b600060608060006060806000610bb6610b53565b1515610c50576040517f08c379a00000000000000000000000000000000000000000000000000000000081526004018080602001828103825260228152602001807f74686520636f6d6d656e742068617665206c6f77206176657261676520766f7481526020017f657300000000000000000000000000000000000000000000000000000000000081525060400191505060405180910390fd5b6000809054906101000a900473ffffffffffffffffffffffffffffffffffffffff166000809054906101000a900473ffffffffffffffffffffffffffffffffffffffff1673ffffffffffffffffffffffffffffffffffffffff166306fdde036040518163ffffffff167c010000000000000000000000000000000000000000000000000000000002815260040160006040518083038186803b158015610cf557600080fd5b505afa158015610d09573d6000803e3d6000fd5b505050506040513d6000823e3d601f19601f820116820180604052506020811015610d3357600080fd5b810190808051640100000000811115610d4b57600080fd5b82810190506020810184811115610d6157600080fd5b8151856001820283011164010000000082111715610d7e57600080fd5b5050929190505050600160035460026000809054906101000a900473ffffffffffffffffffffffffffffffffffffffff1673ffffffffffffffffffffffffffffffffffffffff16630aaf15306040518163ffffffff167c010000000000000000000000000000000000000000000000000000000002815260040160006040518083038186803b158015610e1057600080fd5b505afa158015610e24573d6000803e3d6000fd5b505050506040513d6000823e3d601f19601f820116820180604052506020811015610e4e57600080fd5b810190808051640100000000811115610e6657600080fd5b82810190506020810184811115610e7c57600080fd5b8151856001820283011164010000000082111715610e9957600080fd5b50509291905050506000809054906101000a900473ffffffffffffffffffffffffffffffffffffffff1673ffffffffffffffffffffffffffffffffffffffff1663679aefce6040518163ffffffff167c010000000000000000000000000000000000000000000000000000000002815260040160206040518083038186803b158015610f2457600080fd5b505afa158015610f38573d6000803e3d6000fd5b505050506040513d6020811015610f4e57600080fd5b8101908080519060200190929190505050859550848054600181600116156101000203166002900480601f016020809104026020016040519081016040528092919081815260200182805460018160011615610100020316600290048015610ff75780601f10610fcc57610100808354040283529160200191610ff7565b820191906000526020600020905b815481529060010190602001808311610fda57829003601f168201915b50505050509450828054600181600116156101000203166002900480601f0160208091040260200160405190810160405280929190818152602001828054600181600116156101000203166002900480156110935780601f1061106857610100808354040283529160200191611093565b820191906000526020600020905b81548152906001019060200180831161107657829003601f168201915b50505050509250819150965096509650965096509650965090919293949596565b6000808390508073ffffffffffffffffffffffffffffffffffffffff16632f54bf6e846040518263ffffffff167c0100000000000000000000000000000000000000000000000000000000028152600401808273ffffffffffffffffffffffffffffffffffffffff1673ffffffffffffffffffffffffffffffffffffffff16815260200191505060206040518083038186803b15801561115357600080fd5b505afa158015611167573d6000803e3d6000fd5b505050506040513d602081101561117d57600080fd5b81019080805190602001909291905050501561119d5760019150506111a3565b60009150505b92915050565b6000600760008373ffffffffffffffffffffffffffffffffffffffff1673ffffffffffffffffffffffffffffffffffffffff168152602001908152602001600020549050919050565b60076020528060005260406000206000915090505481565b60065481565b600080600454148061122457506000600554145b156112325760009050611245565b60045460055481151561124157fe5b0490505b90565b61125282336110b4565b15156112ec576040517f08c379a00000000000000000000000000000000000000000000000000000000081526004018080602001828103825260228152602001807f7573657220636f6e74726163742061646472657373206973206e6f7420796f7581526020017f727300000000000000000000000000000000000000000000000000000000000081525060400191505060405180910390fd5b600760008373ffffffffffffffffffffffffffffffffffffffff1673ffffffffffffffffffffffffffffffffffffffff168152602001908152602001600020546005600082825403925050819055506000809054906101000a900473ffffffffffffffffffffffffffffffffffffffff1673ffffffffffffffffffffffffffffffffffffffff16630381dc93600760008573ffffffffffffffffffffffffffffffffffffffff1673ffffffffffffffffffffffffffffffffffffffff168152602001908152602001600020546040518263ffffffff167c010000000000000000000000000000000000000000000000000000000002815260040180828152602001915050600060405180830381600087803b15801561140a57600080fd5b505af115801561141e573d6000803e3d6000fd5b5050505080600760008473ffffffffffffffffffffffffffffffffffffffff1673ffffffffffffffffffffffffffffffffffffffff16815260200190815260200160002081905550806005600082825401925050819055506000809054906101000a900473ffffffffffffffffffffffffffffffffffffffff1673ffffffffffffffffffffffffffffffffffffffff16633de3f629826040518263ffffffff167c010000000000000000000000000000000000000000000000000000000002815260040180828152602001915050600060405180830381600087803b15801561150657600080fd5b505af115801561151a573d6000803e3d6000fd5b50505050505056fea165627a7a723058202a92ec661abebd02628d52f25c0f3a968e1bae922dc8a11f141402223495069c0029a165627a7a72305820c7b1935066e5f8c4bb25fbf5d9a225eb5bed6ffe34245fe5f2cf76457222fd6e0029",
  "source": "pragma solidity ^0.5.0;\nimport \"./User.sol\";\nimport \"./Comment.sol\";\n\ncontract Post {\n    \n    User public owner;\n    string public text;\n    string public contentUrl;\n\n    uint256 public timestamp;\n    address[] comments;\n    uint public totalVotes = 0;\n    uint public totalVotesValue = 0;\n    uint256 public lastVoteTime;\n    uint public totalShares = 0;\n    mapping(address => uint) public votes;\n    \n    //1 is original 0 is shared\n    bool public postType;\n    \n    function createComment(address user_contract_address,string memory comment_text, string memory content_url)public{\n        require(auth(user_contract_address,msg.sender),\"user contract address is not yours\");\n        Comment comment = new Comment(user_contract_address,comment_text, content_url);\n        comments.push(address(comment));\n    }\n    \n    function vote(address userContractAddress,uint voteValue) public {\n\n        // require(auth(userContractAddress,msg.sender),\"user contract address is not yours\");\n        require(voteValue >= 1 && voteValue <= 10, \"the vote value is between 1 and 10\");\n        \n        if(votes[userContractAddress] != 0 ){\n            editVoteValue(userContractAddress,voteValue);\n            return;\n        }\n        votes[userContractAddress] = voteValue;\n        totalVotesValue += voteValue;\n        owner.addVoteValue(voteValue);\n        owner.addTotalVotes();\n        totalVotes++;\n        lastVoteTime = now;\n    }\n    \n    function editVoteValue(address voter, uint voteValue) private {\n        // require(auth(voter,msg.sender),\"user contract address is not yours\");\n        totalVotesValue -= votes[voter];\n        owner.subVoteValue(votes[voter]);\n        votes[voter] = voteValue;\n        totalVotesValue += voteValue;\n        owner.addVoteValue(voteValue);\n        lastVoteTime = now;\n    }\n\n    function getUserVote(address user_contract_address) public view returns(uint256){\n        return votes[user_contract_address];\n    }\n\n    function getAverageOfVotes() public view returns(uint){\n        if(totalVotes == 0 || totalVotesValue == 0){\n            return 0;\n        }\n        return totalVotesValue/totalVotes;\n    }\n    function checkLastVote() public view returns(bool){\n         if(now-lastVoteTime>120&&lastVoteTime!=0){\n             if(getAverageOfVotes()<5)\n                return false;\n             else\n                return true;\n         }\n            \n        return true;\n    }\n\n    function auth(address user_contract_address,address msg_sender) public view returns(bool){\n        User user = User(user_contract_address);\n        if(user.isOwner(msg_sender))\n            return true;\n        else\n            return false;\n    }\n\n    function increamentShares() public {\n        totalShares++;\n    }\n    \n}",
  "sourcePath": "/home/omar/Desktop/BSN-eth/contracts/Post.sol",
  "compiler": {
    "name": "solc",
    "version": "0.5.0+commit.1d4f565a.Emscripten.clang"
  },
  "schemaVersion": "3.0.1",
  "updatedAt": "2019-06-22T13:50:07.780Z",
  "devdoc": {
    "methods": {}
  },
  "userdoc": {
    "methods": {}
  }
}