{
  "contractName": "PostFactory",
  "abi": [
    {
      "constant": true,
      "inputs": [
        {
          "name": "",
          "type": "address"
        },
        {
          "name": "",
          "type": "uint256"
        }
      ],
      "name": "posts",
      "outputs": [
        {
          "name": "",
          "type": "address"
        }
      ],
      "payable": false,
      "stateMutability": "view",
      "type": "function",
      "signature": "0x5c538df3"
    },
    {
      "inputs": [
        {
          "name": "user_factory_address",
          "type": "address"
        }
      ],
      "payable": false,
      "stateMutability": "nonpayable",
      "type": "constructor",
      "signature": "constructor"
    },
    {
      "constant": false,
      "inputs": [
        {
          "name": "user_contract_address",
          "type": "address"
        },
        {
          "name": "post_text",
          "type": "string"
        }
      ],
      "name": "createPost",
      "outputs": [],
      "payable": false,
      "stateMutability": "nonpayable",
      "type": "function",
      "signature": "0xfe7ec5a5"
    },
    {
      "constant": true,
      "inputs": [
        {
          "name": "user_contract_address",
          "type": "address"
        }
      ],
      "name": "getPostsOfUser",
      "outputs": [
        {
          "name": "",
          "type": "address[]"
        }
      ],
      "payable": false,
      "stateMutability": "view",
      "type": "function",
      "signature": "0x192efd72"
    }
  ],
  "bytecode": "0x608060405234801561001057600080fd5b50604051602080611baa8339810180604052602081101561003057600080fd5b810190808051906020019092919050505080600160006101000a81548173ffffffffffffffffffffffffffffffffffffffff021916908373ffffffffffffffffffffffffffffffffffffffff16021790555050611b18806100926000396000f3fe608060405260043610610057576000357c0100000000000000000000000000000000000000000000000000000000900463ffffffff168063192efd721461005c5780635c538df314610102578063fe7ec5a51461019d575b600080fd5b34801561006857600080fd5b506100ab6004803603602081101561007f57600080fd5b81019080803573ffffffffffffffffffffffffffffffffffffffff169060200190929190505050610285565b6040518080602001828103825283818151815260200191508051906020019060200280838360005b838110156100ee5780820151818401526020810190506100d3565b505050509050019250505060405180910390f35b34801561010e57600080fd5b5061015b6004803603604081101561012557600080fd5b81019080803573ffffffffffffffffffffffffffffffffffffffff16906020019092919080359060200190929190505050610351565b604051808273ffffffffffffffffffffffffffffffffffffffff1673ffffffffffffffffffffffffffffffffffffffff16815260200191505060405180910390f35b3480156101a957600080fd5b50610283600480360360408110156101c057600080fd5b81019080803573ffffffffffffffffffffffffffffffffffffffff169060200190929190803590602001906401000000008111156101fd57600080fd5b82018360208201111561020f57600080fd5b8035906020019184600183028401116401000000008311171561023157600080fd5b91908080601f016020809104026020016040519081016040528093929190818152602001838380828437600081840152601f19601f82011690508083019250505050505050919291929050505061039e565b005b60606000808373ffffffffffffffffffffffffffffffffffffffff1673ffffffffffffffffffffffffffffffffffffffff16815260200190815260200160002080548060200260200160405190810160405280929190818152602001828054801561034557602002820191906000526020600020905b8160009054906101000a900473ffffffffffffffffffffffffffffffffffffffff1673ffffffffffffffffffffffffffffffffffffffff16815260200190600101908083116102fb575b50505050509050919050565b60006020528160005260406000208181548110151561036c57fe5b906000526020600020016000915091509054906101000a900473ffffffffffffffffffffffffffffffffffffffff1681565b600160009054906101000a900473ffffffffffffffffffffffffffffffffffffffff1673ffffffffffffffffffffffffffffffffffffffff1663133f50f5336040518263ffffffff167c0100000000000000000000000000000000000000000000000000000000028152600401808273ffffffffffffffffffffffffffffffffffffffff1673ffffffffffffffffffffffffffffffffffffffff16815260200191505060206040518083038186803b15801561045957600080fd5b505afa15801561046d573d6000803e3d6000fd5b505050506040513d602081101561048357600080fd5b8101908080519060200190929190505050151561049f57600080fd5b600082826104ab610613565b808373ffffffffffffffffffffffffffffffffffffffff1673ffffffffffffffffffffffffffffffffffffffff16815260200180602001828103825283818151815260200191508051906020019080838360005b8381101561051a5780820151818401526020810190506104ff565b50505050905090810190601f1680156105475780820380516001836020036101000a031916815260200191505b509350505050604051809103906000f080158015610569573d6000803e3d6000fd5b5090506000808473ffffffffffffffffffffffffffffffffffffffff1673ffffffffffffffffffffffffffffffffffffffff1681526020019081526020016000208190806001815401808255809150509060018203906000526020600020016000909192909190916101000a81548173ffffffffffffffffffffffffffffffffffffffff021916908373ffffffffffffffffffffffffffffffffffffffff16021790555050505050565b6040516114c9806106248339019056fe60806040526000600455600060055534801561001a57600080fd5b506040516114c93803806114c98339810180604052604081101561003d57600080fd5b8101908080519060200190929190805164010000000081111561005f57600080fd5b8281019050602081018481111561007557600080fd5b815185600182028301116401000000008211171561009257600080fd5b505092919050505080600190805190602001906100b09291906100ff565b5042600281905550816000806101000a81548173ffffffffffffffffffffffffffffffffffffffff021916908373ffffffffffffffffffffffffffffffffffffffff16021790555050506101a4565b828054600181600116156101000203166002900490600052602060002090601f016020900481019282601f1061014057805160ff191683800117855561016e565b8280016001018555821561016e579182015b8281111561016d578251825591602001919060010190610152565b5b50905061017b919061017f565b5090565b6101a191905b8082111561019d576000816000905550600101610185565b5090565b90565b611316806101b36000396000f3fe60806040526004361061008e576000357c0100000000000000000000000000000000000000000000000000000000900463ffffffff1680630d15fd77146100935780631f1bd692146100be57806338e979811461014e5780635f74bbde146102365780638c6838ba14610291578063a0ccc8b9146103c7578063b80777ea146103f2578063d8bff5a51461041d575b600080fd5b34801561009f57600080fd5b506100a8610482565b6040518082815260200191505060405180910390f35b3480156100ca57600080fd5b506100d3610488565b6040518080602001828103825283818151815260200191508051906020019080838360005b838110156101135780820151818401526020810190506100f8565b50505050905090810190601f1680156101405780820380516001836020036101000a031916815260200191505b509250505060405180910390f35b34801561015a57600080fd5b506102346004803603604081101561017157600080fd5b81019080803573ffffffffffffffffffffffffffffffffffffffff169060200190929190803590602001906401000000008111156101ae57600080fd5b8201836020820111156101c057600080fd5b803590602001918460018302840111640100000000831117156101e257600080fd5b91908080601f016020809104026020016040519081016040528093929190818152602001838380828437600081840152601f19601f820116905080830192505050505050509192919290505050610526565b005b34801561024257600080fd5b5061028f6004803603604081101561025957600080fd5b81019080803573ffffffffffffffffffffffffffffffffffffffff1690602001909291908035906020019092919050505061065e565b005b34801561029d57600080fd5b506102a6610780565b604051808573ffffffffffffffffffffffffffffffffffffffff1673ffffffffffffffffffffffffffffffffffffffff1681526020018060200180602001848152602001838103835286818151815260200191508051906020019080838360005b83811015610322578082015181840152602081019050610307565b50505050905090810190601f16801561034f5780820380516001836020036101000a031916815260200191505b50838103825285818151815260200191508051906020019080838360005b8381101561038857808201518184015260208101905061036d565b50505050905090810190601f1680156103b55780820380516001836020036101000a031916815260200191505b50965050505050505060405180910390f35b3480156103d357600080fd5b506103dc61096f565b6040518082815260200191505060405180910390f35b3480156103fe57600080fd5b50610407610975565b6040518082815260200191505060405180910390f35b34801561042957600080fd5b5061046c6004803603602081101561044057600080fd5b81019080803573ffffffffffffffffffffffffffffffffffffffff16906020019092919050505061097b565b6040518082815260200191505060405180910390f35b60045481565b60018054600181600116156101000203166002900480601f01602080910402602001604051908101604052809291908181526020018280546001816001161561010002031660029004801561051e5780601f106104f35761010080835404028352916020019161051e565b820191906000526020600020905b81548152906001019060200180831161050157829003601f168201915b505050505081565b60008282610532610993565b808373ffffffffffffffffffffffffffffffffffffffff1673ffffffffffffffffffffffffffffffffffffffff16815260200180602001828103825283818151815260200191508051906020019080838360005b838110156105a1578082015181840152602081019050610586565b50505050905090810190601f1680156105ce5780820380516001836020036101000a031916815260200191505b509350505050604051809103906000f0801580156105f0573d6000803e3d6000fd5b50905060038190806001815401808255809150509060018203906000526020600020016000909192909190916101000a81548173ffffffffffffffffffffffffffffffffffffffff021916908373ffffffffffffffffffffffffffffffffffffffff16021790555050505050565b6000600660008473ffffffffffffffffffffffffffffffffffffffff1673ffffffffffffffffffffffffffffffffffffffff1681526020019081526020016000205414151515610716576040517f08c379a00000000000000000000000000000000000000000000000000000000081526004018080602001828103825260118152602001807f796f7520616c726561647920766f74656400000000000000000000000000000081525060200191505060405180910390fd5b80600660008473ffffffffffffffffffffffffffffffffffffffff1673ffffffffffffffffffffffffffffffffffffffff16815260200190815260200160002081905550806005600082825401925050819055506004600081548092919060010191905055505050565b600060608060008060009054906101000a900473ffffffffffffffffffffffffffffffffffffffff166000809054906101000a900473ffffffffffffffffffffffffffffffffffffffff1673ffffffffffffffffffffffffffffffffffffffff166306fdde036040518163ffffffff167c010000000000000000000000000000000000000000000000000000000002815260040160006040518083038186803b15801561082c57600080fd5b505afa158015610840573d6000803e3d6000fd5b505050506040513d6000823e3d601f19601f82011682018060405250602081101561086a57600080fd5b81019080805164010000000081111561088257600080fd5b8281019050602081018481111561089857600080fd5b81518560018202830111640100000000821117156108b557600080fd5b50509291905050506001600254829250818054600181600116156101000203166002900480601f01602080910402602001604051908101604052809291908181526020018280546001816001161561010002031660029004801561095a5780601f1061092f5761010080835404028352916020019161095a565b820191906000526020600020905b81548152906001019060200180831161093d57829003601f168201915b50505050509150935093509350935090919293565b60055481565b60025481565b60066020528060005260406000206000915090505481565b604051610947806109a48339019056fe60806040526000600355600060045534801561001a57600080fd5b506040516109473803806109478339810180604052604081101561003d57600080fd5b8101908080519060200190929190805164010000000081111561005f57600080fd5b8281019050602081018481111561007557600080fd5b815185600182028301116401000000008211171561009257600080fd5b505092919050505080600190805190602001906100b09291906100ff565b5042600281905550816000806101000a81548173ffffffffffffffffffffffffffffffffffffffff021916908373ffffffffffffffffffffffffffffffffffffffff16021790555050506101a4565b828054600181600116156101000203166002900490600052602060002090601f016020900481019282601f1061014057805160ff191683800117855561016e565b8280016001018555821561016e579182015b8281111561016d578251825591602001919060010190610152565b5b50905061017b919061017f565b5090565b6101a191905b8082111561019d576000816000905550600101610185565b5090565b90565b610794806101b36000396000f3fe608060405260043610610083576000357c0100000000000000000000000000000000000000000000000000000000900463ffffffff1680630d15fd77146100885780631f1bd692146100b35780635f74bbde14610143578063a0ccc8b91461019e578063b80777ea146101c9578063cc773044146101f4578063d8bff5a51461032a575b600080fd5b34801561009457600080fd5b5061009d61038f565b6040518082815260200191505060405180910390f35b3480156100bf57600080fd5b506100c8610395565b6040518080602001828103825283818151815260200191508051906020019080838360005b838110156101085780820151818401526020810190506100ed565b50505050905090810190601f1680156101355780820380516001836020036101000a031916815260200191505b509250505060405180910390f35b34801561014f57600080fd5b5061019c6004803603604081101561016657600080fd5b81019080803573ffffffffffffffffffffffffffffffffffffffff16906020019092919080359060200190929190505050610433565b005b3480156101aa57600080fd5b506101b3610555565b6040518082815260200191505060405180910390f35b3480156101d557600080fd5b506101de61055b565b6040518082815260200191505060405180910390f35b34801561020057600080fd5b50610209610561565b604051808573ffffffffffffffffffffffffffffffffffffffff1673ffffffffffffffffffffffffffffffffffffffff1681526020018060200180602001848152602001838103835286818151815260200191508051906020019080838360005b8381101561028557808201518184015260208101905061026a565b50505050905090810190601f1680156102b25780820380516001836020036101000a031916815260200191505b50838103825285818151815260200191508051906020019080838360005b838110156102eb5780820151818401526020810190506102d0565b50505050905090810190601f1680156103185780820380516001836020036101000a031916815260200191505b50965050505050505060405180910390f35b34801561033657600080fd5b506103796004803603602081101561034d57600080fd5b81019080803573ffffffffffffffffffffffffffffffffffffffff169060200190929190505050610750565b6040518082815260200191505060405180910390f35b60035481565b60018054600181600116156101000203166002900480601f01602080910402602001604051908101604052809291908181526020018280546001816001161561010002031660029004801561042b5780601f106104005761010080835404028352916020019161042b565b820191906000526020600020905b81548152906001019060200180831161040e57829003601f168201915b505050505081565b6000600560008473ffffffffffffffffffffffffffffffffffffffff1673ffffffffffffffffffffffffffffffffffffffff16815260200190815260200160002054141515156104eb576040517f08c379a00000000000000000000000000000000000000000000000000000000081526004018080602001828103825260118152602001807f796f7520616c726561647920766f74656400000000000000000000000000000081525060200191505060405180910390fd5b80600560008473ffffffffffffffffffffffffffffffffffffffff1673ffffffffffffffffffffffffffffffffffffffff16815260200190815260200160002081905550806004600082825401925050819055506003600081548092919060010191905055505050565b60045481565b60025481565b600060608060008060009054906101000a900473ffffffffffffffffffffffffffffffffffffffff166000809054906101000a900473ffffffffffffffffffffffffffffffffffffffff1673ffffffffffffffffffffffffffffffffffffffff166306fdde036040518163ffffffff167c010000000000000000000000000000000000000000000000000000000002815260040160006040518083038186803b15801561060d57600080fd5b505afa158015610621573d6000803e3d6000fd5b505050506040513d6000823e3d601f19601f82011682018060405250602081101561064b57600080fd5b81019080805164010000000081111561066357600080fd5b8281019050602081018481111561067957600080fd5b815185600182028301116401000000008211171561069657600080fd5b50509291905050506001600254829250818054600181600116156101000203166002900480601f01602080910402602001604051908101604052809291908181526020018280546001816001161561010002031660029004801561073b5780601f106107105761010080835404028352916020019161073b565b820191906000526020600020905b81548152906001019060200180831161071e57829003601f168201915b50505050509150935093509350935090919293565b6005602052806000526040600020600091509050548156fea165627a7a72305820720ca386eba697338cdaa0a04adae42714b5bfd4c47e033bd05a23001f8e628e0029a165627a7a7230582069b399950a35f6bf7c8f54934adc3a932f186c911457bfa834ba07ae5b1c63e50029a165627a7a72305820d3ca08b3163d9f0d9a64b8ebaab3397a9bd6e905056e6f19aa251f590bc52dc10029",
  "source": "pragma solidity ^0.5.0;\nimport \"./Post.sol\";\nimport \"./UserFactory.sol\";\ncontract PostFactory {\n    \n    //user contract address => user's posts contract addresses\n    mapping(address => address[]) public posts;\n    // need userfactory to check if user exits or not before create post\n    UserFactory private userFactory;\n\n    \n    \n    constructor(address user_factory_address)public{\n        userFactory=UserFactory(user_factory_address);\n    }\n\n    function createPost(address user_contract_address,string memory post_text) public {\n        \n        require(userFactory.checkUserExists(msg.sender));\n        Post post = new Post(user_contract_address,post_text);\n        posts[user_contract_address].push(address(post));\n    }\n\n    function getPostsOfUser(address user_contract_address) public view returns(address[] memory){\n        return posts[user_contract_address];\n    }\n\n    \n    \n    \n}\n",
  "sourcePath": "/home/omar/Desktop/BSN-eth/contracts/PostFactory.sol",
  "compiler": {
    "name": "solc",
    "version": "0.5.0+commit.1d4f565a.Emscripten.clang"
  },
  "schemaVersion": "3.0.1",
  "updatedAt": "2019-05-04T21:31:51.882Z",
  "devdoc": {
    "methods": {}
  },
  "userdoc": {
    "methods": {}
  }
}