{
  "contractName": "Post",
  "abi": [
    {
      "constant": true,
      "inputs": [],
      "name": "totalVotes",
      "outputs": [
        {
          "name": "",
          "type": "uint256"
        }
      ],
      "payable": false,
      "stateMutability": "view",
      "type": "function"
    },
    {
      "constant": true,
      "inputs": [],
      "name": "text",
      "outputs": [
        {
          "name": "",
          "type": "string"
        }
      ],
      "payable": false,
      "stateMutability": "view",
      "type": "function"
    },
    {
      "constant": true,
      "inputs": [],
      "name": "totalVotesValue",
      "outputs": [
        {
          "name": "",
          "type": "uint256"
        }
      ],
      "payable": false,
      "stateMutability": "view",
      "type": "function"
    },
    {
      "constant": true,
      "inputs": [],
      "name": "timestamp",
      "outputs": [
        {
          "name": "",
          "type": "uint256"
        }
      ],
      "payable": false,
      "stateMutability": "view",
      "type": "function"
    },
    {
      "constant": true,
      "inputs": [
        {
          "name": "",
          "type": "address"
        }
      ],
      "name": "votes",
      "outputs": [
        {
          "name": "",
          "type": "uint256"
        }
      ],
      "payable": false,
      "stateMutability": "view",
      "type": "function"
    },
    {
      "inputs": [
        {
          "name": "user_contract_address",
          "type": "address"
        },
        {
          "name": "post_text",
          "type": "string"
        }
      ],
      "payable": false,
      "stateMutability": "nonpayable",
      "type": "constructor"
    },
    {
      "constant": true,
      "inputs": [],
      "name": "getPost",
      "outputs": [
        {
          "name": "",
          "type": "address"
        },
        {
          "name": "",
          "type": "string"
        },
        {
          "name": "",
          "type": "string"
        },
        {
          "name": "",
          "type": "uint256"
        },
        {
          "name": "",
          "type": "address[]"
        }
      ],
      "payable": false,
      "stateMutability": "view",
      "type": "function"
    },
    {
      "constant": false,
      "inputs": [
        {
          "name": "user_contract_address",
          "type": "address"
        },
        {
          "name": "comment_text",
          "type": "string"
        }
      ],
      "name": "createComment",
      "outputs": [],
      "payable": false,
      "stateMutability": "nonpayable",
      "type": "function"
    },
    {
      "constant": false,
      "inputs": [
        {
          "name": "userContractAddress",
          "type": "address"
        },
        {
          "name": "voteValue",
          "type": "uint256"
        }
      ],
      "name": "vote",
      "outputs": [],
      "payable": false,
      "stateMutability": "nonpayable",
      "type": "function"
    }
  ],
  "bytecode": "0x60806040526000600455600060055534801561001a57600080fd5b506040516115a03803806115a08339810180604052604081101561003d57600080fd5b8101908080519060200190929190805164010000000081111561005f57600080fd5b8281019050602081018481111561007557600080fd5b815185600182028301116401000000008211171561009257600080fd5b505092919050505080600190805190602001906100b09291906100ff565b5042600281905550816000806101000a81548173ffffffffffffffffffffffffffffffffffffffff021916908373ffffffffffffffffffffffffffffffffffffffff16021790555050506101a4565b828054600181600116156101000203166002900490600052602060002090601f016020900481019282601f1061014057805160ff191683800117855561016e565b8280016001018555821561016e579182015b8281111561016d578251825591602001919060010190610152565b5b50905061017b919061017f565b5090565b6101a191905b8082111561019d576000816000905550600101610185565b5090565b90565b6113ed806101b36000396000f3fe60806040526004361061008e576000357c0100000000000000000000000000000000000000000000000000000000900463ffffffff1680630d15fd77146100935780631f1bd692146100be57806338e979811461014e5780635f74bbde146102365780638c6838ba14610291578063a0ccc8b91461040f578063b80777ea1461043a578063d8bff5a514610465575b600080fd5b34801561009f57600080fd5b506100a86104ca565b6040518082815260200191505060405180910390f35b3480156100ca57600080fd5b506100d36104d0565b6040518080602001828103825283818151815260200191508051906020019080838360005b838110156101135780820151818401526020810190506100f8565b50505050905090810190601f1680156101405780820380516001836020036101000a031916815260200191505b509250505060405180910390f35b34801561015a57600080fd5b506102346004803603604081101561017157600080fd5b81019080803573ffffffffffffffffffffffffffffffffffffffff169060200190929190803590602001906401000000008111156101ae57600080fd5b8201836020820111156101c057600080fd5b803590602001918460018302840111640100000000831117156101e257600080fd5b91908080601f016020809104026020016040519081016040528093929190818152602001838380828437600081840152601f19601f82011690508083019250505050505050919291929050505061056e565b005b34801561024257600080fd5b5061028f6004803603604081101561025957600080fd5b81019080803573ffffffffffffffffffffffffffffffffffffffff169060200190929190803590602001909291905050506106a6565b005b34801561029d57600080fd5b506102a66107c8565b604051808673ffffffffffffffffffffffffffffffffffffffff1673ffffffffffffffffffffffffffffffffffffffff168152602001806020018060200185815260200180602001848103845288818151815260200191508051906020019080838360005b8381101561032657808201518184015260208101905061030b565b50505050905090810190601f1680156103535780820380516001836020036101000a031916815260200191505b50848103835287818151815260200191508051906020019080838360005b8381101561038c578082015181840152602081019050610371565b50505050905090810190601f1680156103b95780820380516001836020036101000a031916815260200191505b50848103825285818151815260200191508051906020019060200280838360005b838110156103f55780820151818401526020810190506103da565b505050509050019850505050505050505060405180910390f35b34801561041b57600080fd5b50610424610a46565b6040518082815260200191505060405180910390f35b34801561044657600080fd5b5061044f610a4c565b6040518082815260200191505060405180910390f35b34801561047157600080fd5b506104b46004803603602081101561048857600080fd5b81019080803573ffffffffffffffffffffffffffffffffffffffff169060200190929190505050610a52565b6040518082815260200191505060405180910390f35b60045481565b60018054600181600116156101000203166002900480601f0160208091040260200160405190810160405280929190818152602001828054600181600116156101000203166002900480156105665780601f1061053b57610100808354040283529160200191610566565b820191906000526020600020905b81548152906001019060200180831161054957829003601f168201915b505050505081565b6000828261057a610a6a565b808373ffffffffffffffffffffffffffffffffffffffff1673ffffffffffffffffffffffffffffffffffffffff16815260200180602001828103825283818151815260200191508051906020019080838360005b838110156105e95780820151818401526020810190506105ce565b50505050905090810190601f1680156106165780820380516001836020036101000a031916815260200191505b509350505050604051809103906000f080158015610638573d6000803e3d6000fd5b50905060038190806001815401808255809150509060018203906000526020600020016000909192909190916101000a81548173ffffffffffffffffffffffffffffffffffffffff021916908373ffffffffffffffffffffffffffffffffffffffff16021790555050505050565b6000600660008473ffffffffffffffffffffffffffffffffffffffff1673ffffffffffffffffffffffffffffffffffffffff168152602001908152602001600020541415151561075e576040517f08c379a00000000000000000000000000000000000000000000000000000000081526004018080602001828103825260118152602001807f796f7520616c726561647920766f74656400000000000000000000000000000081525060200191505060405180910390fd5b80600660008473ffffffffffffffffffffffffffffffffffffffff1673ffffffffffffffffffffffffffffffffffffffff16815260200190815260200160002081905550806005600082825401925050819055506004600081548092919060010191905055505050565b6000606080600060606000809054906101000a900473ffffffffffffffffffffffffffffffffffffffff166000809054906101000a900473ffffffffffffffffffffffffffffffffffffffff1673ffffffffffffffffffffffffffffffffffffffff166306fdde036040518163ffffffff167c010000000000000000000000000000000000000000000000000000000002815260040160006040518083038186803b15801561087657600080fd5b505afa15801561088a573d6000803e3d6000fd5b505050506040513d6000823e3d601f19601f8201168201806040525060208110156108b457600080fd5b8101908080516401000000008111156108cc57600080fd5b828101905060208101848111156108e257600080fd5b81518560018202830111640100000000821117156108ff57600080fd5b505092919050505060016002546003839350828054600181600116156101000203166002900480601f0160208091040260200160405190810160405280929190818152602001828054600181600116156101000203166002900480156109a65780601f1061097b576101008083540402835291602001916109a6565b820191906000526020600020905b81548152906001019060200180831161098957829003601f168201915b5050505050925080805480602002602001604051908101604052809291908181526020018280548015610a2e57602002820191906000526020600020905b8160009054906101000a900473ffffffffffffffffffffffffffffffffffffffff1673ffffffffffffffffffffffffffffffffffffffff16815260200190600101908083116109e4575b50505050509050945094509450945094509091929394565b60055481565b60025481565b60066020528060005260406000206000915090505481565b60405161094780610a7b8339019056fe60806040526000600355600060045534801561001a57600080fd5b506040516109473803806109478339810180604052604081101561003d57600080fd5b8101908080519060200190929190805164010000000081111561005f57600080fd5b8281019050602081018481111561007557600080fd5b815185600182028301116401000000008211171561009257600080fd5b505092919050505080600190805190602001906100b09291906100ff565b5042600281905550816000806101000a81548173ffffffffffffffffffffffffffffffffffffffff021916908373ffffffffffffffffffffffffffffffffffffffff16021790555050506101a4565b828054600181600116156101000203166002900490600052602060002090601f016020900481019282601f1061014057805160ff191683800117855561016e565b8280016001018555821561016e579182015b8281111561016d578251825591602001919060010190610152565b5b50905061017b919061017f565b5090565b6101a191905b8082111561019d576000816000905550600101610185565b5090565b90565b610794806101b36000396000f3fe608060405260043610610083576000357c0100000000000000000000000000000000000000000000000000000000900463ffffffff1680630d15fd77146100885780631f1bd692146100b35780635f74bbde14610143578063a0ccc8b91461019e578063b80777ea146101c9578063cc773044146101f4578063d8bff5a51461032a575b600080fd5b34801561009457600080fd5b5061009d61038f565b6040518082815260200191505060405180910390f35b3480156100bf57600080fd5b506100c8610395565b6040518080602001828103825283818151815260200191508051906020019080838360005b838110156101085780820151818401526020810190506100ed565b50505050905090810190601f1680156101355780820380516001836020036101000a031916815260200191505b509250505060405180910390f35b34801561014f57600080fd5b5061019c6004803603604081101561016657600080fd5b81019080803573ffffffffffffffffffffffffffffffffffffffff16906020019092919080359060200190929190505050610433565b005b3480156101aa57600080fd5b506101b3610555565b6040518082815260200191505060405180910390f35b3480156101d557600080fd5b506101de61055b565b6040518082815260200191505060405180910390f35b34801561020057600080fd5b50610209610561565b604051808573ffffffffffffffffffffffffffffffffffffffff1673ffffffffffffffffffffffffffffffffffffffff1681526020018060200180602001848152602001838103835286818151815260200191508051906020019080838360005b8381101561028557808201518184015260208101905061026a565b50505050905090810190601f1680156102b25780820380516001836020036101000a031916815260200191505b50838103825285818151815260200191508051906020019080838360005b838110156102eb5780820151818401526020810190506102d0565b50505050905090810190601f1680156103185780820380516001836020036101000a031916815260200191505b50965050505050505060405180910390f35b34801561033657600080fd5b506103796004803603602081101561034d57600080fd5b81019080803573ffffffffffffffffffffffffffffffffffffffff169060200190929190505050610750565b6040518082815260200191505060405180910390f35b60035481565b60018054600181600116156101000203166002900480601f01602080910402602001604051908101604052809291908181526020018280546001816001161561010002031660029004801561042b5780601f106104005761010080835404028352916020019161042b565b820191906000526020600020905b81548152906001019060200180831161040e57829003601f168201915b505050505081565b6000600560008473ffffffffffffffffffffffffffffffffffffffff1673ffffffffffffffffffffffffffffffffffffffff16815260200190815260200160002054141515156104eb576040517f08c379a00000000000000000000000000000000000000000000000000000000081526004018080602001828103825260118152602001807f796f7520616c726561647920766f74656400000000000000000000000000000081525060200191505060405180910390fd5b80600560008473ffffffffffffffffffffffffffffffffffffffff1673ffffffffffffffffffffffffffffffffffffffff16815260200190815260200160002081905550806004600082825401925050819055506003600081548092919060010191905055505050565b60045481565b60025481565b600060608060008060009054906101000a900473ffffffffffffffffffffffffffffffffffffffff166000809054906101000a900473ffffffffffffffffffffffffffffffffffffffff1673ffffffffffffffffffffffffffffffffffffffff166306fdde036040518163ffffffff167c010000000000000000000000000000000000000000000000000000000002815260040160006040518083038186803b15801561060d57600080fd5b505afa158015610621573d6000803e3d6000fd5b505050506040513d6000823e3d601f19601f82011682018060405250602081101561064b57600080fd5b81019080805164010000000081111561066357600080fd5b8281019050602081018481111561067957600080fd5b815185600182028301116401000000008211171561069657600080fd5b50509291905050506001600254829250818054600181600116156101000203166002900480601f01602080910402602001604051908101604052809291908181526020018280546001816001161561010002031660029004801561073b5780601f106107105761010080835404028352916020019161073b565b820191906000526020600020905b81548152906001019060200180831161071e57829003601f168201915b50505050509150935093509350935090919293565b6005602052806000526040600020600091509050548156fea165627a7a72305820720ca386eba697338cdaa0a04adae42714b5bfd4c47e033bd05a23001f8e628e0029a165627a7a723058200416f0f0a46434a7bb6f5a0b2d6d12daa9a9f5ab3bf88cdaccd725ef72f843db0029",
  "source": "pragma solidity ^0.5.0;\nimport \"./User.sol\";\nimport \"./Comment.sol\";\ncontract Post {\n\n    User owner;\n    string public text;\n    uint256 public timestamp;\n    address[] comments;\n\n    uint public totalVotes = 0;\n    uint public totalVotesValue = 0;\n    mapping(address => uint) public votes;\n\n    constructor (address user_contract_address,string memory post_text) public {\n        text = post_text;\n        timestamp = now;\n        owner = User(user_contract_address);\n    }\n\n    function getPost() public view returns(address,string memory,string memory,uint256,address[] memory){\n        return (\n        address(owner),\n        owner.name(),\n        text,\n        timestamp,\n        comments\n            );\n    }\n\n    function createComment(address user_contract_address,string memory comment_text)public{\n        Comment comment = new Comment(user_contract_address,comment_text);\n        comments.push(address(comment));\n    }\n\n    function vote(address userContractAddress,uint voteValue) public {\n\n        require(votes[userContractAddress]!=0, \"you already voted\");\n        votes[userContractAddress] = voteValue;\n        totalVotesValue += voteValue;\n        totalVotes++;\n\n    }\n\n}",
  "sourcePath": "/home/omar/Desktop/BSN-eth/contracts/Post.sol",
  "compiler": {
    "name": "solc",
    "version": "0.5.0+commit.1d4f565a.Emscripten.clang"
  },
  "schemaVersion": "3.0.1",
  "updatedAt": "2019-05-05T05:31:15.101Z",
  "devdoc": {
    "methods": {}
  },
  "userdoc": {
    "methods": {}
  }
}