{
  "contractName": "Post",
  "abi": [
    {
      "constant": true,
      "inputs": [],
      "name": "totalVotes",
      "outputs": [
        {
          "name": "",
          "type": "uint256"
        }
      ],
      "payable": false,
      "stateMutability": "view",
      "type": "function"
    },
    {
      "constant": true,
      "inputs": [],
      "name": "text",
      "outputs": [
        {
          "name": "",
          "type": "string"
        }
      ],
      "payable": false,
      "stateMutability": "view",
      "type": "function"
    },
    {
      "constant": true,
      "inputs": [],
      "name": "totalShares",
      "outputs": [
        {
          "name": "",
          "type": "uint256"
        }
      ],
      "payable": false,
      "stateMutability": "view",
      "type": "function"
    },
    {
      "constant": true,
      "inputs": [],
      "name": "contentUrl",
      "outputs": [
        {
          "name": "",
          "type": "string"
        }
      ],
      "payable": false,
      "stateMutability": "view",
      "type": "function"
    },
    {
      "constant": true,
      "inputs": [],
      "name": "owner",
      "outputs": [
        {
          "name": "",
          "type": "address"
        }
      ],
      "payable": false,
      "stateMutability": "view",
      "type": "function"
    },
    {
      "constant": true,
      "inputs": [],
      "name": "postType",
      "outputs": [
        {
          "name": "",
          "type": "bool"
        }
      ],
      "payable": false,
      "stateMutability": "view",
      "type": "function"
    },
    {
      "constant": true,
      "inputs": [],
      "name": "totalVotesValue",
      "outputs": [
        {
          "name": "",
          "type": "uint256"
        }
      ],
      "payable": false,
      "stateMutability": "view",
      "type": "function"
    },
    {
      "constant": true,
      "inputs": [],
      "name": "timestamp",
      "outputs": [
        {
          "name": "",
          "type": "uint256"
        }
      ],
      "payable": false,
      "stateMutability": "view",
      "type": "function"
    },
    {
      "constant": true,
      "inputs": [
        {
          "name": "",
          "type": "address"
        }
      ],
      "name": "votes",
      "outputs": [
        {
          "name": "",
          "type": "uint256"
        }
      ],
      "payable": false,
      "stateMutability": "view",
      "type": "function"
    },
    {
      "constant": true,
      "inputs": [],
      "name": "lastVoteTime",
      "outputs": [
        {
          "name": "",
          "type": "uint256"
        }
      ],
      "payable": false,
      "stateMutability": "view",
      "type": "function"
    },
    {
      "constant": false,
      "inputs": [
        {
          "name": "user_contract_address",
          "type": "address"
        },
        {
          "name": "comment_text",
          "type": "string"
        },
        {
          "name": "content_url",
          "type": "string"
        }
      ],
      "name": "createComment",
      "outputs": [],
      "payable": false,
      "stateMutability": "nonpayable",
      "type": "function"
    },
    {
      "constant": false,
      "inputs": [
        {
          "name": "userContractAddress",
          "type": "address"
        },
        {
          "name": "voteValue",
          "type": "uint256"
        }
      ],
      "name": "vote",
      "outputs": [],
      "payable": false,
      "stateMutability": "nonpayable",
      "type": "function"
    },
    {
      "constant": true,
      "inputs": [
        {
          "name": "user_contract_address",
          "type": "address"
        }
      ],
      "name": "getUserVote",
      "outputs": [
        {
          "name": "",
          "type": "uint256"
        }
      ],
      "payable": false,
      "stateMutability": "view",
      "type": "function"
    },
    {
      "constant": true,
      "inputs": [],
      "name": "getAverageOfVotes",
      "outputs": [
        {
          "name": "",
          "type": "uint256"
        }
      ],
      "payable": false,
      "stateMutability": "view",
      "type": "function"
    },
    {
      "constant": true,
      "inputs": [],
      "name": "checkLastVote",
      "outputs": [
        {
          "name": "",
          "type": "bool"
        }
      ],
      "payable": false,
      "stateMutability": "view",
      "type": "function"
    },
    {
      "constant": true,
      "inputs": [
        {
          "name": "user_contract_address",
          "type": "address"
        },
        {
          "name": "msg_sender",
          "type": "address"
        }
      ],
      "name": "auth",
      "outputs": [
        {
          "name": "",
          "type": "bool"
        }
      ],
      "payable": false,
      "stateMutability": "view",
      "type": "function"
    },
    {
      "constant": false,
      "inputs": [],
      "name": "increamentShares",
      "outputs": [],
      "payable": false,
      "stateMutability": "nonpayable",
      "type": "function"
    }
  ],
  "bytecode": "0x608060405260006005556000600655600060085534801561001f57600080fd5b50611f648061002f6000396000f3fe608060405260043610620001025763ffffffff7c01000000000000000000000000000000000000000000000000000000006000350416630d15fd778114620001075780631dda316514620001315780631f1bd692146200014b5780633a98ef3914620001db5780635f74bbde14620001f3578063850710c314620002305780638da5cb5b146200024857806399f71a7d146200027c578063a0ccc8b914620002a8578063a4ff78d114620002c0578063b80777ea14620002d8578063ce5036ce14620002f0578063d4923d4e146200032f578063d8bff5a51462000366578063dac17430146200039d578063e38106c414620003b5578063eeb9eac914620003cd575b600080fd5b3480156200011457600080fd5b506200011f62000521565b60408051918252519081900360200190f35b3480156200013e57600080fd5b506200014962000527565b005b3480156200015857600080fd5b506200016362000532565b6040805160208082528351818301528351919283929083019185019080838360005b838110156200019f57818101518382015260200162000185565b50505050905090810190601f168015620001cd5780820380516001836020036101000a031916815260200191505b509250505060405180910390f35b348015620001e857600080fd5b506200011f620005c3565b3480156200020057600080fd5b5062000149600480360360408110156200021957600080fd5b50600160a060020a038135169060200135620005c9565b3480156200023d57600080fd5b506200016362000831565b3480156200025557600080fd5b50620002606200088c565b60408051600160a060020a039092168252519081900360200190f35b3480156200028957600080fd5b50620002946200089b565b604080519115158252519081900360200190f35b348015620002b557600080fd5b506200011f620008a4565b348015620002cd57600080fd5b5062000294620008aa565b348015620002e557600080fd5b506200011f620008f4565b348015620002fd57600080fd5b5062000294600480360360408110156200031657600080fd5b50600160a060020a0381358116916020013516620008fa565b3480156200033c57600080fd5b506200011f600480360360208110156200035557600080fd5b5035600160a060020a0316620009be565b3480156200037357600080fd5b506200011f600480360360208110156200038c57600080fd5b5035600160a060020a0316620009d9565b348015620003aa57600080fd5b506200011f620009eb565b348015620003c257600080fd5b506200011f620009f1565b348015620003da57600080fd5b506200014960048036036060811015620003f357600080fd5b600160a060020a0382351691908101906040810160208201356401000000008111156200041f57600080fd5b8201836020820111156200043257600080fd5b803590602001918460018302840111640100000000831117156200045557600080fd5b91908080601f0160208091040260200160405190810160405280939291908181526020018383808284376000920191909152509295949360208101935035915050640100000000811115620004a957600080fd5b820183602082011115620004bc57600080fd5b80359060200191846001830284011164010000000083111715620004df57600080fd5b91908080601f01602080910402602001604051908101604052809392919081815260200183838082843760009201919091525092955062000a2a945050505050565b60055481565b600880546001019055565b60018054604080516020600284861615610100026000190190941693909304601f81018490048402820184019092528181529291830182828015620005bb5780601f106200058f57610100808354040283529160200191620005bb565b820191906000526020600020905b8154815290600101906020018083116200059d57829003601f168201915b505050505081565b60085481565b620005d58233620008fa565b151562000652576040805160e560020a62461bcd02815260206004820152602260248201527f7573657220636f6e74726163742061646472657373206973206e6f7420796f7560448201527f7273000000000000000000000000000000000000000000000000000000000000606482015290519081900360840190fd5b60018110158015620006655750600a8111155b1515620006e2576040805160e560020a62461bcd02815260206004820152602260248201527f74686520766f74652076616c7565206973206265747765656e203120616e642060448201527f3130000000000000000000000000000000000000000000000000000000000000606482015290519081900360840190fd5b600160a060020a0382166000908152600960205260409020541562000713576200070d828262000c2b565b6200082d565b600160a060020a038083166000908152600960205260408082208490556006805485019055815481517f3de3f629000000000000000000000000000000000000000000000000000000008152600481018690529151931692633de3f6299260248084019391929182900301818387803b1580156200079057600080fd5b505af1158015620007a5573d6000803e3d6000fd5b505060008054604080517f8b7374720000000000000000000000000000000000000000000000000000000081529051600160a060020a039092169450638b7374729350600480820193929182900301818387803b1580156200080657600080fd5b505af11580156200081b573d6000803e3d6000fd5b50506005805460010190555050426007555b5050565b6002805460408051602060018416156101000260001901909316849004601f81018490048402820184019092528181529291830182828015620005bb5780601f106200058f57610100808354040283529160200191620005bb565b600054600160a060020a031681565b600a5460ff1681565b60065481565b600060786007544203118015620008c2575060075415155b15620008ed576005620008d4620009f1565b1015620008e457506000620008f1565b506001620008f1565b5060015b90565b60035481565b60008083905080600160a060020a0316632f54bf6e846040518263ffffffff167c01000000000000000000000000000000000000000000000000000000000281526004018082600160a060020a0316600160a060020a0316815260200191505060206040518083038186803b1580156200097357600080fd5b505afa15801562000988573d6000803e3d6000fd5b505050506040513d60208110156200099f57600080fd5b505115620009b2576001915050620009b8565b60009150505b92915050565b600160a060020a031660009081526009602052604090205490565b60096020526000908152604090205481565b60075481565b60006005546000148062000a055750600654155b1562000a1457506000620008f1565b60055460065481151562000a2457fe5b04905090565b62000a368333620008fa565b151562000ab3576040805160e560020a62461bcd02815260206004820152602260248201527f7573657220636f6e74726163742061646472657373206973206e6f7420796f7560448201527f7273000000000000000000000000000000000000000000000000000000000000606482015290519081900360840190fd5b600083838362000ac262000dea565b600160a060020a0384168152606060208083018281528551928401929092528451604084019160808501919087019080838360005b8381101562000b1157818101518382015260200162000af7565b50505050905090810190601f16801562000b3f5780820380516001836020036101000a031916815260200191505b50838103825284518152845160209182019186019080838360005b8381101562000b7457818101518382015260200162000b5a565b50505050905090810190601f16801562000ba25780820380516001836020036101000a031916815260200191505b5095505050505050604051809103906000f08015801562000bc7573d6000803e3d6000fd5b50600480546001810182556000919091527f8a35acfbc15ff81a39ae7d344fd709f28e8600b4aa8c65c6b64bfe7fe36bd19b01805473ffffffffffffffffffffffffffffffffffffffff1916600160a060020a039290921691909117905550505050565b62000c378233620008fa565b151562000cb4576040805160e560020a62461bcd02815260206004820152602260248201527f7573657220636f6e74726163742061646472657373206973206e6f7420796f7560448201527f7273000000000000000000000000000000000000000000000000000000000000606482015290519081900360840190fd5b600160a060020a038083166000908152600960205260408082208054600680549190910390558254905482517f0381dc9300000000000000000000000000000000000000000000000000000000815260048101919091529151931692630381dc939260248084019391929182900301818387803b15801562000d3557600080fd5b505af115801562000d4a573d6000803e3d6000fd5b505050600160a060020a038084166000908152600960205260408082208590556006805486019055815481517f3de3f62900000000000000000000000000000000000000000000000000000000815260048101879052915193169350633de3f629926024808301939282900301818387803b15801562000dc957600080fd5b505af115801562000dde573d6000803e3d6000fd5b50504260075550505050565b60405161113d8062000dfc8339019056fe6080604052600060045560006005553480156200001b57600080fd5b506040516200113d3803806200113d833981018060405260608110156200004157600080fd5b8151602083018051919392830192916401000000008111156200006357600080fd5b820160208101848111156200007757600080fd5b81516401000000008111828201871017156200009257600080fd5b50509291906020018051640100000000811115620000af57600080fd5b82016020810184811115620000c357600080fd5b8151640100000000811182820187101715620000de57600080fd5b50508451909350620000fa92506001915060208501906200013d565b508051620001109060029060208401906200013d565b5050426003555060008054600160a060020a031916600160a060020a0392909216919091179055620001e2565b828054600181600116156101000203166002900490600052602060002090601f016020900481019282601f106200018057805160ff1916838001178555620001b0565b82800160010185558215620001b0579182015b82811115620001b057825182559160200191906001019062000193565b50620001be929150620001c2565b5090565b620001df91905b80821115620001be5760008155600101620001c9565b90565b610f4b80620001f26000396000f3fe6080604052600436106100ab5763ffffffff60e060020a6000350416630d15fd7781146100b05780631f1bd692146100d75780635f74bbde14610161578063850710c31461019c578063a0ccc8b9146101b1578063a4ff78d1146101c6578063b80777ea146101ef578063cc77304414610204578063ce5036ce146103ea578063d4923d4e14610425578063d8bff5a514610458578063dac174301461048b578063e38106c4146104a0575b600080fd5b3480156100bc57600080fd5b506100c56104b5565b60408051918252519081900360200190f35b3480156100e357600080fd5b506100ec6104bb565b6040805160208082528351818301528351919283929083019185019080838360005b8381101561012657818101518382015260200161010e565b50505050905090810190601f1680156101535780820380516001836020036101000a031916815260200191505b509250505060405180910390f35b34801561016d57600080fd5b5061019a6004803603604081101561018457600080fd5b50600160a060020a038135169060200135610548565b005b3480156101a857600080fd5b506100ec61079f565b3480156101bd57600080fd5b506100c56107f7565b3480156101d257600080fd5b506101db6107fd565b604080519115158252519081900360200190f35b3480156101fb57600080fd5b506100c5610841565b34801561021057600080fd5b50610219610847565b6040518088600160a060020a0316600160a060020a031681526020018060200180602001878152602001806020018060200186815260200185810385528b818151815260200191508051906020019080838360005b8381101561028657818101518382015260200161026e565b50505050905090810190601f1680156102b35780820380516001836020036101000a031916815260200191505b5085810384528a5181528a516020918201918c019080838360005b838110156102e65781810151838201526020016102ce565b50505050905090810190601f1680156103135780820380516001836020036101000a031916815260200191505b5085810383528851815288516020918201918a019080838360005b8381101561034657818101518382015260200161032e565b50505050905090810190601f1680156103735780820380516001836020036101000a031916815260200191505b50858103825287518152875160209182019189019080838360005b838110156103a657818101518382015260200161038e565b50505050905090810190601f1680156103d35780820380516001836020036101000a031916815260200191505b509b50505050505050505050505060405180910390f35b3480156103f657600080fd5b506101db6004803603604081101561040d57600080fd5b50600160a060020a0381358116916020013516610c5d565b34801561043157600080fd5b506100c56004803603602081101561044857600080fd5b5035600160a060020a0316610d03565b34801561046457600080fd5b506100c56004803603602081101561047b57600080fd5b5035600160a060020a0316610d1e565b34801561049757600080fd5b506100c5610d30565b3480156104ac57600080fd5b506100c5610d36565b60045481565b60018054604080516020600284861615610100026000190190941693909304601f810184900484028201840190925281815292918301828280156105405780601f1061051557610100808354040283529160200191610540565b820191906000526020600020905b81548152906001019060200180831161052357829003601f168201915b505050505081565b6105528233610c5d565b15156105ce576040805160e560020a62461bcd02815260206004820152602260248201527f7573657220636f6e74726163742061646472657373206973206e6f7420796f7560448201527f7273000000000000000000000000000000000000000000000000000000000000606482015290519081900360840190fd5b600181101580156105e05750600a8111155b151561065c576040805160e560020a62461bcd02815260206004820152602260248201527f74686520766f74652076616c7565206973206265747765656e203120616e642060448201527f3130000000000000000000000000000000000000000000000000000000000000606482015290519081900360840190fd5b600160a060020a03821660009081526007602052604090205415610689576106848282610d6b565b61079b565b600160a060020a038083166000908152600760205260408082208490556005805485019055815481517f3de3f629000000000000000000000000000000000000000000000000000000008152600481018690529151931692633de3f6299260248084019391929182900301818387803b15801561070557600080fd5b505af1158015610719573d6000803e3d6000fd5b505060008054604080517f8b7374720000000000000000000000000000000000000000000000000000000081529051600160a060020a039092169450638b7374729350600480820193929182900301818387803b15801561077957600080fd5b505af115801561078d573d6000803e3d6000fd5b505060048054600101905550505b5050565b6002805460408051602060018416156101000260001901909316849004601f810184900484028201840190925281815292918301828280156105405780601f1061051557610100808354040283529160200191610540565b60055481565b600061012c6006544203118015610815575060065415155b1561083a576005610824610d36565b10156108325750600061083e565b50600161083e565b5060015b90565b60035481565b60006060806000606080600061085b6107fd565b15156108d7576040805160e560020a62461bcd02815260206004820152602260248201527f74686520636f6d6d656e742068617665206c6f77206176657261676520766f7460448201527f6573000000000000000000000000000000000000000000000000000000000000606482015290519081900360840190fd5b60008054604080517f06fdde030000000000000000000000000000000000000000000000000000000081529051600160a060020a039092169283926306fdde03926004808201939291829003018186803b15801561093457600080fd5b505afa158015610948573d6000803e3d6000fd5b505050506040513d6000823e601f3d908101601f19168201604052602081101561097157600080fd5b81019080805164010000000081111561098957600080fd5b8201602081018481111561099c57600080fd5b81516401000000008111828201871017156109b657600080fd5b5050929190505050600160035460026000809054906101000a9004600160a060020a0316600160a060020a0316630aaf15306040518163ffffffff1660e060020a02815260040160006040518083038186803b158015610a1557600080fd5b505afa158015610a29573d6000803e3d6000fd5b505050506040513d6000823e601f3d908101601f191682016040526020811015610a5257600080fd5b810190808051640100000000811115610a6a57600080fd5b82016020810184811115610a7d57600080fd5b8151640100000000811182820187101715610a9757600080fd5b5050600054604080517f679aefce0000000000000000000000000000000000000000000000000000000081529051929550600160a060020a03909116935063679aefce9250600480820192602092909190829003018186803b158015610afc57600080fd5b505afa158015610b10573d6000803e3d6000fd5b505050506040513d6020811015610b2657600080fd5b50518454604080516020601f60026000196101006001881615020190951694909404938401819004810282018101909252828152918791830182828015610bae5780601f10610b8357610100808354040283529160200191610bae565b820191906000526020600020905b815481529060010190602001808311610b9157829003601f168201915b5050865460408051602060026001851615610100026000190190941693909304601f8101849004840282018401909252818152959a5088945092508401905082828015610c3c5780601f10610c1157610100808354040283529160200191610c3c565b820191906000526020600020905b815481529060010190602001808311610c1f57829003601f168201915b50505050509250819150965096509650965096509650965090919293949596565b60008083905080600160a060020a0316632f54bf6e846040518263ffffffff1660e060020a0281526004018082600160a060020a0316600160a060020a0316815260200191505060206040518083038186803b158015610cbc57600080fd5b505afa158015610cd0573d6000803e3d6000fd5b505050506040513d6020811015610ce657600080fd5b505115610cf7576001915050610cfd565b60009150505b92915050565b600160a060020a031660009081526007602052604090205490565b60076020526000908152604090205481565b60065481565b600060045460001480610d495750600554155b15610d565750600061083e565b600454600554811515610d6557fe5b04905090565b610d758233610c5d565b1515610df1576040805160e560020a62461bcd02815260206004820152602260248201527f7573657220636f6e74726163742061646472657373206973206e6f7420796f7560448201527f7273000000000000000000000000000000000000000000000000000000000000606482015290519081900360840190fd5b600160a060020a038083166000908152600760205260408082208054600580549190910390558254905482517f0381dc9300000000000000000000000000000000000000000000000000000000815260048101919091529151931692630381dc939260248084019391929182900301818387803b158015610e7157600080fd5b505af1158015610e85573d6000803e3d6000fd5b505050600160a060020a038084166000908152600760205260408082208590556005805486019055815481517f3de3f62900000000000000000000000000000000000000000000000000000000815260048101879052915193169350633de3f629926024808301939282900301818387803b158015610f0357600080fd5b505af1158015610f17573d6000803e3d6000fd5b50505050505056fea165627a7a7230582026f1317e6124499e9f642b2fa691341accee88884adee270e11db60c1324c0d50029a165627a7a72305820e9c15a51f72583dbda5f831f240fbe7d9b8e85ca3fc37f72bab8ee1802ddbe9c0029",
  "source": "pragma solidity ^0.5.0;\nimport \"./User.sol\";\nimport \"./Comment.sol\";\n\ncontract Post {\n    \n    User public owner;\n    string public text;\n    string public contentUrl;\n\n    uint256 public timestamp;\n    address[] comments;\n    uint public totalVotes = 0;\n    uint public totalVotesValue = 0;\n    uint256 public lastVoteTime;\n    uint public totalShares = 0;\n    mapping(address => uint) public votes;\n    \n    //1 is original 0 is shared\n    bool public postType;\n    \n    function createComment(address user_contract_address,string memory comment_text, string memory content_url)public{\n        require(auth(user_contract_address,msg.sender),\"user contract address is not yours\");\n        Comment comment = new Comment(user_contract_address,comment_text, content_url);\n        comments.push(address(comment));\n    }\n    \n    function vote(address userContractAddress,uint voteValue) public {\n\n        require(auth(userContractAddress,msg.sender),\"user contract address is not yours\");\n        require(voteValue >= 1 && voteValue <= 10, \"the vote value is between 1 and 10\");\n        \n        if(votes[userContractAddress] != 0 ){\n            editVoteValue(userContractAddress,voteValue);\n            return;\n        }\n        votes[userContractAddress] = voteValue;\n        totalVotesValue += voteValue;\n        owner.addVoteValue(voteValue);\n        owner.addTotalVotes();\n        totalVotes++;\n        lastVoteTime = now;\n    }\n    \n    function editVoteValue(address voter, uint voteValue) private {\n        require(auth(voter,msg.sender),\"user contract address is not yours\");\n        totalVotesValue -= votes[voter];\n        owner.subVoteValue(votes[voter]);\n        votes[voter] = voteValue;\n        totalVotesValue += voteValue;\n        owner.addVoteValue(voteValue);\n        lastVoteTime = now;\n    }\n\n    function getUserVote(address user_contract_address) public view returns(uint256){\n        return votes[user_contract_address];\n    }\n\n    function getAverageOfVotes() public view returns(uint){\n        if(totalVotes == 0 || totalVotesValue == 0){\n            return 0;\n        }\n        return totalVotesValue/totalVotes;\n    }\n    function checkLastVote() public view returns(bool){\n         if(now-lastVoteTime>120&&lastVoteTime!=0){\n             if(getAverageOfVotes()<5)\n                return false;\n             else\n                return true;\n         }\n            \n        return true;\n    }\n\n    function auth(address user_contract_address,address msg_sender) public view returns(bool){\n        User user = User(user_contract_address);\n        if(user.isOwner(msg_sender))\n            return true;\n        else\n            return false;\n    }\n\n    function increamentShares() public {\n        totalShares++;\n    }\n    \n}",
  "sourcePath": "/home/omar/Desktop/BSN-eth/contracts/Post.sol",
  "compiler": {
    "name": "solc",
    "version": "0.5.0+commit.1d4f565a.Emscripten.clang"
  },
  "schemaVersion": "3.0.1",
  "updatedAt": "2019-06-22T17:00:48.065Z",
  "devdoc": {
    "methods": {}
  },
  "userdoc": {
    "methods": {}
  }
}