{
  "contractName": "SharedPost",
  "abi": [
    {
      "constant": true,
      "inputs": [],
      "name": "totalVotes",
      "outputs": [
        {
          "name": "",
          "type": "uint256"
        }
      ],
      "payable": false,
      "stateMutability": "view",
      "type": "function"
    },
    {
      "constant": false,
      "inputs": [],
      "name": "increamentShares",
      "outputs": [],
      "payable": false,
      "stateMutability": "nonpayable",
      "type": "function"
    },
    {
      "constant": true,
      "inputs": [],
      "name": "text",
      "outputs": [
        {
          "name": "",
          "type": "string"
        }
      ],
      "payable": false,
      "stateMutability": "view",
      "type": "function"
    },
    {
      "constant": true,
      "inputs": [],
      "name": "totalShares",
      "outputs": [
        {
          "name": "",
          "type": "uint256"
        }
      ],
      "payable": false,
      "stateMutability": "view",
      "type": "function"
    },
    {
      "constant": false,
      "inputs": [
        {
          "name": "userContractAddress",
          "type": "address"
        },
        {
          "name": "voteValue",
          "type": "uint256"
        }
      ],
      "name": "vote",
      "outputs": [],
      "payable": false,
      "stateMutability": "nonpayable",
      "type": "function"
    },
    {
      "constant": true,
      "inputs": [],
      "name": "contentUrl",
      "outputs": [
        {
          "name": "",
          "type": "string"
        }
      ],
      "payable": false,
      "stateMutability": "view",
      "type": "function"
    },
    {
      "constant": true,
      "inputs": [],
      "name": "owner",
      "outputs": [
        {
          "name": "",
          "type": "address"
        }
      ],
      "payable": false,
      "stateMutability": "view",
      "type": "function"
    },
    {
      "constant": true,
      "inputs": [],
      "name": "postType",
      "outputs": [
        {
          "name": "",
          "type": "bool"
        }
      ],
      "payable": false,
      "stateMutability": "view",
      "type": "function"
    },
    {
      "constant": true,
      "inputs": [],
      "name": "totalVotesValue",
      "outputs": [
        {
          "name": "",
          "type": "uint256"
        }
      ],
      "payable": false,
      "stateMutability": "view",
      "type": "function"
    },
    {
      "constant": true,
      "inputs": [],
      "name": "checkLastVote",
      "outputs": [
        {
          "name": "",
          "type": "bool"
        }
      ],
      "payable": false,
      "stateMutability": "view",
      "type": "function"
    },
    {
      "constant": true,
      "inputs": [],
      "name": "timestamp",
      "outputs": [
        {
          "name": "",
          "type": "uint256"
        }
      ],
      "payable": false,
      "stateMutability": "view",
      "type": "function"
    },
    {
      "constant": true,
      "inputs": [
        {
          "name": "user_contract_address",
          "type": "address"
        },
        {
          "name": "msg_sender",
          "type": "address"
        }
      ],
      "name": "auth",
      "outputs": [
        {
          "name": "",
          "type": "bool"
        }
      ],
      "payable": false,
      "stateMutability": "view",
      "type": "function"
    },
    {
      "constant": true,
      "inputs": [
        {
          "name": "user_contract_address",
          "type": "address"
        }
      ],
      "name": "getUserVote",
      "outputs": [
        {
          "name": "",
          "type": "uint256"
        }
      ],
      "payable": false,
      "stateMutability": "view",
      "type": "function"
    },
    {
      "constant": true,
      "inputs": [
        {
          "name": "",
          "type": "address"
        }
      ],
      "name": "votes",
      "outputs": [
        {
          "name": "",
          "type": "uint256"
        }
      ],
      "payable": false,
      "stateMutability": "view",
      "type": "function"
    },
    {
      "constant": true,
      "inputs": [],
      "name": "lastVoteTime",
      "outputs": [
        {
          "name": "",
          "type": "uint256"
        }
      ],
      "payable": false,
      "stateMutability": "view",
      "type": "function"
    },
    {
      "constant": true,
      "inputs": [],
      "name": "getAverageOfVotes",
      "outputs": [
        {
          "name": "",
          "type": "uint256"
        }
      ],
      "payable": false,
      "stateMutability": "view",
      "type": "function"
    },
    {
      "constant": false,
      "inputs": [
        {
          "name": "user_contract_address",
          "type": "address"
        },
        {
          "name": "comment_text",
          "type": "string"
        },
        {
          "name": "content_url",
          "type": "string"
        }
      ],
      "name": "createComment",
      "outputs": [],
      "payable": false,
      "stateMutability": "nonpayable",
      "type": "function"
    },
    {
      "inputs": [
        {
          "name": "user_contract_address",
          "type": "address"
        },
        {
          "name": "original_post_address",
          "type": "address"
        },
        {
          "name": "post_text",
          "type": "string"
        }
      ],
      "payable": false,
      "stateMutability": "nonpayable",
      "type": "constructor"
    },
    {
      "constant": true,
      "inputs": [],
      "name": "getPost",
      "outputs": [
        {
          "name": "",
          "type": "address"
        },
        {
          "name": "",
          "type": "string"
        },
        {
          "name": "",
          "type": "string"
        },
        {
          "name": "",
          "type": "string"
        },
        {
          "name": "",
          "type": "uint256"
        },
        {
          "name": "",
          "type": "address[]"
        },
        {
          "name": "",
          "type": "string"
        },
        {
          "name": "",
          "type": "uint256"
        },
        {
          "name": "",
          "type": "uint256"
        },
        {
          "name": "",
          "type": "uint256"
        }
      ],
      "payable": false,
      "stateMutability": "view",
      "type": "function"
    },
    {
      "constant": true,
      "inputs": [],
      "name": "getOriginalPost",
      "outputs": [
        {
          "name": "",
          "type": "address"
        },
        {
          "name": "",
          "type": "address"
        },
        {
          "name": "",
          "type": "string"
        },
        {
          "name": "",
          "type": "string"
        },
        {
          "name": "",
          "type": "string"
        },
        {
          "name": "",
          "type": "uint256"
        },
        {
          "name": "",
          "type": "string"
        },
        {
          "name": "",
          "type": "uint256"
        }
      ],
      "payable": false,
      "stateMutability": "view",
      "type": "function"
    }
  ],
  "bytecode": "0x60806040526000600555600060065560006008553480156200002057600080fd5b506040516200410f3803806200410f833981018060405260608110156200004657600080fd5b81019080805190602001909291908051906020019092919080516401000000008111156200007357600080fd5b828101905060208101848111156200008a57600080fd5b8151856001820283011164010000000082111715620000a857600080fd5b50509291905050508060019080519060200190620000c892919062000175565b50426003819055506000600a60006101000a81548160ff02191690831515021790555081600a60016101000a81548173ffffffffffffffffffffffffffffffffffffffff021916908373ffffffffffffffffffffffffffffffffffffffff160217905550826000806101000a81548173ffffffffffffffffffffffffffffffffffffffff021916908373ffffffffffffffffffffffffffffffffffffffff16021790555050505062000224565b828054600181600116156101000203166002900490600052602060002090601f016020900481019282601f10620001b857805160ff1916838001178555620001e9565b82800160010185558215620001e9579182015b82811115620001e8578251825591602001919060010190620001cb565b5b509050620001f89190620001fc565b5090565b6200022191905b808211156200021d57600081600090555060010162000203565b5090565b90565b613edb80620002346000396000f3fe6080604052600436106200011b576000357c0100000000000000000000000000000000000000000000000000000000900463ffffffff1680630d15fd7714620001205780631dda3165146200014e5780631f1bd69214620001685780633a98ef3914620001fe5780635f74bbde146200022c57806384165599146200028b578063850710c314620004e25780638c6838ba14620005785780638da5cb5b14620007f457806399f71a7d146200084e578063a0ccc8b91462000880578063a4ff78d114620008ae578063b80777ea14620008e0578063ce5036ce146200090e578063d4923d4e146200099b578063d8bff5a51462000a04578063dac174301462000a6d578063e38106c41462000a9b578063eeb9eac91462000ac9575b600080fd5b3480156200012d57600080fd5b506200013862000c52565b6040518082815260200191505060405180910390f35b3480156200015b57600080fd5b506200016662000c58565b005b3480156200017557600080fd5b506200018062000c6c565b6040518080602001828103825283818151815260200191508051906020019080838360005b83811015620001c2578082015181840152602081019050620001a5565b50505050905090810190601f168015620001f05780820380516001836020036101000a031916815260200191505b509250505060405180910390f35b3480156200020b57600080fd5b506200021662000d0e565b6040518082815260200191505060405180910390f35b3480156200023957600080fd5b5062000289600480360360408110156200025257600080fd5b81019080803573ffffffffffffffffffffffffffffffffffffffff1690602001909291908035906020019092919050505062000d14565b005b3480156200029857600080fd5b50620002a362001080565b604051808973ffffffffffffffffffffffffffffffffffffffff1673ffffffffffffffffffffffffffffffffffffffff1681526020018873ffffffffffffffffffffffffffffffffffffffff1673ffffffffffffffffffffffffffffffffffffffff1681526020018060200180602001806020018781526020018060200186815260200185810385528b818151815260200191508051906020019080838360005b838110156200036157808201518184015260208101905062000344565b50505050905090810190601f1680156200038f5780820380516001836020036101000a031916815260200191505b5085810384528a818151815260200191508051906020019080838360005b83811015620003ca578082015181840152602081019050620003ad565b50505050905090810190601f168015620003f85780820380516001836020036101000a031916815260200191505b50858103835289818151815260200191508051906020019080838360005b838110156200043357808201518184015260208101905062000416565b50505050905090810190601f168015620004615780820380516001836020036101000a031916815260200191505b50858103825287818151815260200191508051906020019080838360005b838110156200049c5780820151818401526020810190506200047f565b50505050905090810190601f168015620004ca5780820380516001836020036101000a031916815260200191505b509c5050505050505050505050505060405180910390f35b348015620004ef57600080fd5b50620004fa620019e5565b6040518080602001828103825283818151815260200191508051906020019080838360005b838110156200053c5780820151818401526020810190506200051f565b50505050905090810190601f1680156200056a5780820380516001836020036101000a031916815260200191505b509250505060405180910390f35b3480156200058557600080fd5b506200059062001a87565b604051808b73ffffffffffffffffffffffffffffffffffffffff1673ffffffffffffffffffffffffffffffffffffffff1681526020018060200180602001806020018a8152602001806020018060200189815260200188815260200187815260200186810386528f818151815260200191508051906020019080838360005b838110156200062c5780820151818401526020810190506200060f565b50505050905090810190601f1680156200065a5780820380516001836020036101000a031916815260200191505b5086810385528e818151815260200191508051906020019080838360005b838110156200069557808201518184015260208101905062000678565b50505050905090810190601f168015620006c35780820380516001836020036101000a031916815260200191505b5086810384528d818151815260200191508051906020019080838360005b83811015620006fe578082015181840152602081019050620006e1565b50505050905090810190601f1680156200072c5780820380516001836020036101000a031916815260200191505b5086810383528b818151815260200191508051906020019060200280838360005b838110156200076a5780820151818401526020810190506200074d565b5050505090500186810382528a818151815260200191508051906020019080838360005b83811015620007ab5780820151818401526020810190506200078e565b50505050905090810190601f168015620007d95780820380516001836020036101000a031916815260200191505b509f5050505050505050505050505050505060405180910390f35b3480156200080157600080fd5b506200080c62001fae565b604051808273ffffffffffffffffffffffffffffffffffffffff1673ffffffffffffffffffffffffffffffffffffffff16815260200191505060405180910390f35b3480156200085b57600080fd5b506200086662001fd3565b604051808215151515815260200191505060405180910390f35b3480156200088d57600080fd5b506200089862001fe6565b6040518082815260200191505060405180910390f35b348015620008bb57600080fd5b50620008c662001fec565b604051808215151515815260200191505060405180910390f35b348015620008ed57600080fd5b50620008f86200203b565b6040518082815260200191505060405180910390f35b3480156200091b57600080fd5b5062000981600480360360408110156200093457600080fd5b81019080803573ffffffffffffffffffffffffffffffffffffffff169060200190929190803573ffffffffffffffffffffffffffffffffffffffff16906020019092919050505062002041565b604051808215151515815260200191505060405180910390f35b348015620009a857600080fd5b50620009ee60048036036020811015620009c157600080fd5b81019080803573ffffffffffffffffffffffffffffffffffffffff1690602001909291905050506200213b565b6040518082815260200191505060405180910390f35b34801562000a1157600080fd5b5062000a576004803603602081101562000a2a57600080fd5b81019080803573ffffffffffffffffffffffffffffffffffffffff16906020019092919050505062002184565b6040518082815260200191505060405180910390f35b34801562000a7a57600080fd5b5062000a856200219c565b6040518082815260200191505060405180910390f35b34801562000aa857600080fd5b5062000ab3620021a2565b6040518082815260200191505060405180910390f35b34801562000ad657600080fd5b5062000c506004803603606081101562000aef57600080fd5b81019080803573ffffffffffffffffffffffffffffffffffffffff1690602001909291908035906020019064010000000081111562000b2d57600080fd5b82018360208201111562000b4057600080fd5b8035906020019184600183028401116401000000008311171562000b6357600080fd5b91908080601f016020809104026020016040519081016040528093929190818152602001838380828437600081840152601f19601f8201169050808301925050505050505091929192908035906020019064010000000081111562000bc757600080fd5b82018360208201111562000bda57600080fd5b8035906020019184600183028401116401000000008311171562000bfd57600080fd5b91908080601f016020809104026020016040519081016040528093929190818152602001838380828437600081840152601f19601f820116905080830192505050505050509192919290505050620021de565b005b60055481565b600860008154809291906001019190505550565b60018054600181600116156101000203166002900480601f01602080910402602001604051908101604052809291908181526020018280546001816001161561010002031660029004801562000d065780601f1062000cda5761010080835404028352916020019162000d06565b820191906000526020600020905b81548152906001019060200180831162000ce857829003601f168201915b505050505081565b60085481565b62000d20823362002041565b151562000dbb576040517f08c379a00000000000000000000000000000000000000000000000000000000081526004018080602001828103825260228152602001807f7573657220636f6e74726163742061646472657373206973206e6f7420796f7581526020017f727300000000000000000000000000000000000000000000000000000000000081525060400191505060405180910390fd5b6001811015801562000dce5750600a8111155b151562000e69576040517f08c379a00000000000000000000000000000000000000000000000000000000081526004018080602001828103825260228152602001807f74686520766f74652076616c7565206973206265747765656e203120616e642081526020017f313000000000000000000000000000000000000000000000000000000000000081525060400191505060405180910390fd5b6000600960008473ffffffffffffffffffffffffffffffffffffffff1673ffffffffffffffffffffffffffffffffffffffff1681526020019081526020016000205414151562000ec55762000ebf828262002434565b6200107c565b80600960008473ffffffffffffffffffffffffffffffffffffffff1673ffffffffffffffffffffffffffffffffffffffff16815260200190815260200160002081905550806006600082825401925050819055506000809054906101000a900473ffffffffffffffffffffffffffffffffffffffff1673ffffffffffffffffffffffffffffffffffffffff16633de3f629826040518263ffffffff167c010000000000000000000000000000000000000000000000000000000002815260040180828152602001915050600060405180830381600087803b15801562000faa57600080fd5b505af115801562000fbf573d6000803e3d6000fd5b505050506000809054906101000a900473ffffffffffffffffffffffffffffffffffffffff1673ffffffffffffffffffffffffffffffffffffffff16638b7374726040518163ffffffff167c0100000000000000000000000000000000000000000000000000000000028152600401600060405180830381600087803b1580156200104957600080fd5b505af11580156200105e573d6000803e3d6000fd5b50505050600560008154809291906001019190505550426007819055505b5050565b60008060608060606000606060006200109862001fec565b15156200110d576040517f08c379a000000000000000000000000000000000000000000000000000000000815260040180806020018281038252601f8152602001807f74686520706f73742068617665206c6f77206176657261676520766f7465730081525060200191505060405180910390fd5b600a60019054906101000a900473ffffffffffffffffffffffffffffffffffffffff16600a60019054906101000a900473ffffffffffffffffffffffffffffffffffffffff1673ffffffffffffffffffffffffffffffffffffffff16638da5cb5b6040518163ffffffff167c010000000000000000000000000000000000000000000000000000000002815260040160206040518083038186803b158015620011b557600080fd5b505afa158015620011ca573d6000803e3d6000fd5b505050506040513d6020811015620011e157600080fd5b8101908080519060200190929190505050600a60019054906101000a900473ffffffffffffffffffffffffffffffffffffffff1673ffffffffffffffffffffffffffffffffffffffff16638da5cb5b6040518163ffffffff167c010000000000000000000000000000000000000000000000000000000002815260040160206040518083038186803b1580156200127757600080fd5b505afa1580156200128c573d6000803e3d6000fd5b505050506040513d6020811015620012a357600080fd5b810190808051906020019092919050505073ffffffffffffffffffffffffffffffffffffffff166306fdde036040518163ffffffff167c010000000000000000000000000000000000000000000000000000000002815260040160006040518083038186803b1580156200131657600080fd5b505afa1580156200132b573d6000803e3d6000fd5b505050506040513d6000823e3d601f19601f8201168201806040525060208110156200135657600080fd5b8101908080516401000000008111156200136f57600080fd5b828101905060208101848111156200138657600080fd5b8151856001820283011164010000000082111715620013a457600080fd5b5050929190505050600a60019054906101000a900473ffffffffffffffffffffffffffffffffffffffff1673ffffffffffffffffffffffffffffffffffffffff16631f1bd6926040518163ffffffff167c010000000000000000000000000000000000000000000000000000000002815260040160006040518083038186803b1580156200143157600080fd5b505afa15801562001446573d6000803e3d6000fd5b505050506040513d6000823e3d601f19601f8201168201806040525060208110156200147157600080fd5b8101908080516401000000008111156200148a57600080fd5b82810190506020810184811115620014a157600080fd5b8151856001820283011164010000000082111715620014bf57600080fd5b5050929190505050600a60019054906101000a900473ffffffffffffffffffffffffffffffffffffffff1673ffffffffffffffffffffffffffffffffffffffff1663850710c36040518163ffffffff167c010000000000000000000000000000000000000000000000000000000002815260040160006040518083038186803b1580156200154c57600080fd5b505afa15801562001561573d6000803e3d6000fd5b505050506040513d6000823e3d601f19601f8201168201806040525060208110156200158c57600080fd5b810190808051640100000000811115620015a557600080fd5b82810190506020810184811115620015bc57600080fd5b8151856001820283011164010000000082111715620015da57600080fd5b5050929190505050600a60019054906101000a900473ffffffffffffffffffffffffffffffffffffffff1673ffffffffffffffffffffffffffffffffffffffff1663b80777ea6040518163ffffffff167c010000000000000000000000000000000000000000000000000000000002815260040160206040518083038186803b1580156200166757600080fd5b505afa1580156200167c573d6000803e3d6000fd5b505050506040513d60208110156200169357600080fd5b8101908080519060200190929190505050600a60019054906101000a900473ffffffffffffffffffffffffffffffffffffffff1673ffffffffffffffffffffffffffffffffffffffff16638da5cb5b6040518163ffffffff167c010000000000000000000000000000000000000000000000000000000002815260040160206040518083038186803b1580156200172957600080fd5b505afa1580156200173e573d6000803e3d6000fd5b505050506040513d60208110156200175557600080fd5b810190808051906020019092919050505073ffffffffffffffffffffffffffffffffffffffff16630aaf15306040518163ffffffff167c010000000000000000000000000000000000000000000000000000000002815260040160006040518083038186803b158015620017c857600080fd5b505afa158015620017dd573d6000803e3d6000fd5b505050506040513d6000823e3d601f19601f8201168201806040525060208110156200180857600080fd5b8101908080516401000000008111156200182157600080fd5b828101905060208101848111156200183857600080fd5b81518560018202830111640100000000821117156200185657600080fd5b5050929190505050600a60019054906101000a900473ffffffffffffffffffffffffffffffffffffffff1673ffffffffffffffffffffffffffffffffffffffff16638da5cb5b6040518163ffffffff167c010000000000000000000000000000000000000000000000000000000002815260040160206040518083038186803b158015620018e357600080fd5b505afa158015620018f8573d6000803e3d6000fd5b505050506040513d60208110156200190f57600080fd5b810190808051906020019092919050505073ffffffffffffffffffffffffffffffffffffffff1663679aefce6040518163ffffffff167c010000000000000000000000000000000000000000000000000000000002815260040160206040518083038186803b1580156200198257600080fd5b505afa15801562001997573d6000803e3d6000fd5b505050506040513d6020811015620019ae57600080fd5b8101908080519060200190929190505050859550849450839350819150975097509750975097509750975097509091929394959697565b60028054600181600116156101000203166002900480601f01602080910402602001604051908101604052809291908181526020018280546001816001161561010002031660029004801562001a7f5780601f1062001a535761010080835404028352916020019162001a7f565b820191906000526020600020905b81548152906001019060200180831162001a6157829003601f168201915b505050505081565b60006060806060600060608060008060008060009054906101000a900473ffffffffffffffffffffffffffffffffffffffff166000809054906101000a900473ffffffffffffffffffffffffffffffffffffffff1673ffffffffffffffffffffffffffffffffffffffff166306fdde036040518163ffffffff167c010000000000000000000000000000000000000000000000000000000002815260040160006040518083038186803b15801562001b3e57600080fd5b505afa15801562001b53573d6000803e3d6000fd5b505050506040513d6000823e3d601f19601f82011682018060405250602081101562001b7e57600080fd5b81019080805164010000000081111562001b9757600080fd5b8281019050602081018481111562001bae57600080fd5b815185600182028301116401000000008211171562001bcc57600080fd5b50509291905050506001600260035460046000809054906101000a900473ffffffffffffffffffffffffffffffffffffffff1673ffffffffffffffffffffffffffffffffffffffff16630aaf15306040518163ffffffff167c010000000000000000000000000000000000000000000000000000000002815260040160006040518083038186803b15801562001c6157600080fd5b505afa15801562001c76573d6000803e3d6000fd5b505050506040513d6000823e3d601f19601f82011682018060405250602081101562001ca157600080fd5b81019080805164010000000081111562001cba57600080fd5b8281019050602081018481111562001cd157600080fd5b815185600182028301116401000000008211171562001cef57600080fd5b50509291905050506005546008546000809054906101000a900473ffffffffffffffffffffffffffffffffffffffff1673ffffffffffffffffffffffffffffffffffffffff1663679aefce6040518163ffffffff167c010000000000000000000000000000000000000000000000000000000002815260040160206040518083038186803b15801562001d8157600080fd5b505afa15801562001d96573d6000803e3d6000fd5b505050506040513d602081101562001dad57600080fd5b8101908080519060200190929190505050889850878054600181600116156101000203166002900480601f01602080910402602001604051908101604052809291908181526020018280546001816001161561010002031660029004801562001e5a5780601f1062001e2e5761010080835404028352916020019162001e5a565b820191906000526020600020905b81548152906001019060200180831162001e3c57829003601f168201915b50505050509750868054600181600116156101000203166002900480601f01602080910402602001604051908101604052809291908181526020018280546001816001161561010002031660029004801562001efa5780601f1062001ece5761010080835404028352916020019162001efa565b820191906000526020600020905b81548152906001019060200180831162001edc57829003601f168201915b505050505096508480548060200260200160405190810160405280929190818152602001828054801562001f8457602002820191906000526020600020905b8160009054906101000a900473ffffffffffffffffffffffffffffffffffffffff1673ffffffffffffffffffffffffffffffffffffffff168152602001906001019080831162001f39575b50505050509450839350995099509950995099509950995099509950995090919293949596979899565b6000809054906101000a900473ffffffffffffffffffffffffffffffffffffffff1681565b600a60009054906101000a900460ff1681565b60065481565b600060786007544203118015620020065750600060075414155b156200203357600562002018620021a2565b101562002029576000905062002038565b6001905062002038565b600190505b90565b60035481565b6000808390508073ffffffffffffffffffffffffffffffffffffffff16632f54bf6e846040518263ffffffff167c0100000000000000000000000000000000000000000000000000000000028152600401808273ffffffffffffffffffffffffffffffffffffffff1673ffffffffffffffffffffffffffffffffffffffff16815260200191505060206040518083038186803b158015620020e157600080fd5b505afa158015620020f6573d6000803e3d6000fd5b505050506040513d60208110156200210d57600080fd5b8101908080519060200190929190505050156200212f57600191505062002135565b60009150505b92915050565b6000600960008373ffffffffffffffffffffffffffffffffffffffff1673ffffffffffffffffffffffffffffffffffffffff168152602001908152602001600020549050919050565b60096020528060005260406000206000915090505481565b60075481565b6000806005541480620021b757506000600654145b15620021c75760009050620021db565b600554600654811515620021d757fe5b0490505b90565b620021ea833362002041565b151562002285576040517f08c379a00000000000000000000000000000000000000000000000000000000081526004018080602001828103825260228152602001807f7573657220636f6e74726163742061646472657373206973206e6f7420796f7581526020017f727300000000000000000000000000000000000000000000000000000000000081525060400191505060405180910390fd5b6000838383620022946200271c565b808473ffffffffffffffffffffffffffffffffffffffff1673ffffffffffffffffffffffffffffffffffffffff1681526020018060200180602001838103835285818151815260200191508051906020019080838360005b8381101562002309578082015181840152602081019050620022ec565b50505050905090810190601f168015620023375780820380516001836020036101000a031916815260200191505b50838103825284818151815260200191508051906020019080838360005b838110156200237257808201518184015260208101905062002355565b50505050905090810190601f168015620023a05780820380516001836020036101000a031916815260200191505b5095505050505050604051809103906000f080158015620023c5573d6000803e3d6000fd5b50905060048190806001815401808255809150509060018203906000526020600020016000909192909190916101000a81548173ffffffffffffffffffffffffffffffffffffffff021916908373ffffffffffffffffffffffffffffffffffffffff1602179055505050505050565b62002440823362002041565b1515620024db576040517f08c379a00000000000000000000000000000000000000000000000000000000081526004018080602001828103825260228152602001807f7573657220636f6e74726163742061646472657373206973206e6f7420796f7581526020017f727300000000000000000000000000000000000000000000000000000000000081525060400191505060405180910390fd5b600960008373ffffffffffffffffffffffffffffffffffffffff1673ffffffffffffffffffffffffffffffffffffffff168152602001908152602001600020546006600082825403925050819055506000809054906101000a900473ffffffffffffffffffffffffffffffffffffffff1673ffffffffffffffffffffffffffffffffffffffff16630381dc93600960008573ffffffffffffffffffffffffffffffffffffffff1673ffffffffffffffffffffffffffffffffffffffff168152602001908152602001600020546040518263ffffffff167c010000000000000000000000000000000000000000000000000000000002815260040180828152602001915050600060405180830381600087803b158015620025fa57600080fd5b505af11580156200260f573d6000803e3d6000fd5b5050505080600960008473ffffffffffffffffffffffffffffffffffffffff1673ffffffffffffffffffffffffffffffffffffffff16815260200190815260200160002081905550806006600082825401925050819055506000809054906101000a900473ffffffffffffffffffffffffffffffffffffffff1673ffffffffffffffffffffffffffffffffffffffff16633de3f629826040518263ffffffff167c010000000000000000000000000000000000000000000000000000000002815260040180828152602001915050600060405180830381600087803b158015620026f857600080fd5b505af11580156200270d573d6000803e3d6000fd5b50505050426007819055505050565b604051611782806200272e8339019056fe6080604052600060045560006005553480156200001b57600080fd5b506040516200178238038062001782833981018060405260608110156200004157600080fd5b810190808051906020019092919080516401000000008111156200006457600080fd5b828101905060208101848111156200007b57600080fd5b81518560018202830111640100000000821117156200009957600080fd5b50509291906020018051640100000000811115620000b657600080fd5b82810190506020810184811115620000cd57600080fd5b8151856001820283011164010000000082111715620000eb57600080fd5b505092919050505081600190805190602001906200010b92919062000175565b5080600290805190602001906200012492919062000175565b5042600381905550826000806101000a81548173ffffffffffffffffffffffffffffffffffffffff021916908373ffffffffffffffffffffffffffffffffffffffff16021790555050505062000224565b828054600181600116156101000203166002900490600052602060002090601f016020900481019282601f10620001b857805160ff1916838001178555620001e9565b82800160010185558215620001e9579182015b82811115620001e8578251825591602001919060010190620001cb565b5b509050620001f89190620001fc565b5090565b6200022191905b808211156200021d57600081600090555060010162000203565b5090565b90565b61154e80620002346000396000f3fe6080604052600436106100c5576000357c0100000000000000000000000000000000000000000000000000000000900463ffffffff1680630d15fd77146100ca5780631f1bd692146100f55780635f74bbde14610185578063850710c3146101e0578063a0ccc8b914610270578063a4ff78d11461029b578063b80777ea146102ca578063cc773044146102f5578063ce5036ce1461050a578063d4923d4e14610593578063d8bff5a5146105f8578063dac174301461065d578063e38106c414610688575b600080fd5b3480156100d657600080fd5b506100df6106b3565b6040518082815260200191505060405180910390f35b34801561010157600080fd5b5061010a6106b9565b6040518080602001828103825283818151815260200191508051906020019080838360005b8381101561014a57808201518184015260208101905061012f565b50505050905090810190601f1680156101775780820380516001836020036101000a031916815260200191505b509250505060405180910390f35b34801561019157600080fd5b506101de600480360360408110156101a857600080fd5b81019080803573ffffffffffffffffffffffffffffffffffffffff16906020019092919080359060200190929190505050610757565b005b3480156101ec57600080fd5b506101f5610aaf565b6040518080602001828103825283818151815260200191508051906020019080838360005b8381101561023557808201518184015260208101905061021a565b50505050905090810190601f1680156102625780820380516001836020036101000a031916815260200191505b509250505060405180910390f35b34801561027c57600080fd5b50610285610b4d565b6040518082815260200191505060405180910390f35b3480156102a757600080fd5b506102b0610b53565b604051808215151515815260200191505060405180910390f35b3480156102d657600080fd5b506102df610b9c565b6040518082815260200191505060405180910390f35b34801561030157600080fd5b5061030a610ba2565b604051808873ffffffffffffffffffffffffffffffffffffffff1673ffffffffffffffffffffffffffffffffffffffff1681526020018060200180602001878152602001806020018060200186815260200185810385528b818151815260200191508051906020019080838360005b83811015610394578082015181840152602081019050610379565b50505050905090810190601f1680156103c15780820380516001836020036101000a031916815260200191505b5085810384528a818151815260200191508051906020019080838360005b838110156103fa5780820151818401526020810190506103df565b50505050905090810190601f1680156104275780820380516001836020036101000a031916815260200191505b50858103835288818151815260200191508051906020019080838360005b83811015610460578082015181840152602081019050610445565b50505050905090810190601f16801561048d5780820380516001836020036101000a031916815260200191505b50858103825287818151815260200191508051906020019080838360005b838110156104c65780820151818401526020810190506104ab565b50505050905090810190601f1680156104f35780820380516001836020036101000a031916815260200191505b509b50505050505050505050505060405180910390f35b34801561051657600080fd5b506105796004803603604081101561052d57600080fd5b81019080803573ffffffffffffffffffffffffffffffffffffffff169060200190929190803573ffffffffffffffffffffffffffffffffffffffff1690602001909291905050506110b4565b604051808215151515815260200191505060405180910390f35b34801561059f57600080fd5b506105e2600480360360208110156105b657600080fd5b81019080803573ffffffffffffffffffffffffffffffffffffffff1690602001909291905050506111a9565b6040518082815260200191505060405180910390f35b34801561060457600080fd5b506106476004803603602081101561061b57600080fd5b81019080803573ffffffffffffffffffffffffffffffffffffffff1690602001909291905050506111f2565b6040518082815260200191505060405180910390f35b34801561066957600080fd5b5061067261120a565b6040518082815260200191505060405180910390f35b34801561069457600080fd5b5061069d611210565b6040518082815260200191505060405180910390f35b60045481565b60018054600181600116156101000203166002900480601f01602080910402602001604051908101604052809291908181526020018280546001816001161561010002031660029004801561074f5780601f106107245761010080835404028352916020019161074f565b820191906000526020600020905b81548152906001019060200180831161073257829003601f168201915b505050505081565b61076182336110b4565b15156107fb576040517f08c379a00000000000000000000000000000000000000000000000000000000081526004018080602001828103825260228152602001807f7573657220636f6e74726163742061646472657373206973206e6f7420796f7581526020017f727300000000000000000000000000000000000000000000000000000000000081525060400191505060405180910390fd5b6001811015801561080d5750600a8111155b15156108a7576040517f08c379a00000000000000000000000000000000000000000000000000000000081526004018080602001828103825260228152602001807f74686520766f74652076616c7565206973206265747765656e203120616e642081526020017f313000000000000000000000000000000000000000000000000000000000000081525060400191505060405180910390fd5b6000600760008473ffffffffffffffffffffffffffffffffffffffff1673ffffffffffffffffffffffffffffffffffffffff168152602001908152602001600020541415156108ff576108fa8282611248565b610aab565b80600760008473ffffffffffffffffffffffffffffffffffffffff1673ffffffffffffffffffffffffffffffffffffffff16815260200190815260200160002081905550806005600082825401925050819055506000809054906101000a900473ffffffffffffffffffffffffffffffffffffffff1673ffffffffffffffffffffffffffffffffffffffff16633de3f629826040518263ffffffff167c010000000000000000000000000000000000000000000000000000000002815260040180828152602001915050600060405180830381600087803b1580156109e357600080fd5b505af11580156109f7573d6000803e3d6000fd5b505050506000809054906101000a900473ffffffffffffffffffffffffffffffffffffffff1673ffffffffffffffffffffffffffffffffffffffff16638b7374726040518163ffffffff167c0100000000000000000000000000000000000000000000000000000000028152600401600060405180830381600087803b158015610a8057600080fd5b505af1158015610a94573d6000803e3d6000fd5b505050506004600081548092919060010191905055505b5050565b60028054600181600116156101000203166002900480601f016020809104026020016040519081016040528092919081815260200182805460018160011615610100020316600290048015610b455780601f10610b1a57610100808354040283529160200191610b45565b820191906000526020600020905b815481529060010190602001808311610b2857829003601f168201915b505050505081565b60055481565b600061012c6006544203118015610b6d5750600060065414155b15610b94576005610b7c611210565b1015610b8b5760009050610b99565b60019050610b99565b600190505b90565b60035481565b600060608060006060806000610bb6610b53565b1515610c50576040517f08c379a00000000000000000000000000000000000000000000000000000000081526004018080602001828103825260228152602001807f74686520636f6d6d656e742068617665206c6f77206176657261676520766f7481526020017f657300000000000000000000000000000000000000000000000000000000000081525060400191505060405180910390fd5b6000809054906101000a900473ffffffffffffffffffffffffffffffffffffffff166000809054906101000a900473ffffffffffffffffffffffffffffffffffffffff1673ffffffffffffffffffffffffffffffffffffffff166306fdde036040518163ffffffff167c010000000000000000000000000000000000000000000000000000000002815260040160006040518083038186803b158015610cf557600080fd5b505afa158015610d09573d6000803e3d6000fd5b505050506040513d6000823e3d601f19601f820116820180604052506020811015610d3357600080fd5b810190808051640100000000811115610d4b57600080fd5b82810190506020810184811115610d6157600080fd5b8151856001820283011164010000000082111715610d7e57600080fd5b5050929190505050600160035460026000809054906101000a900473ffffffffffffffffffffffffffffffffffffffff1673ffffffffffffffffffffffffffffffffffffffff16630aaf15306040518163ffffffff167c010000000000000000000000000000000000000000000000000000000002815260040160006040518083038186803b158015610e1057600080fd5b505afa158015610e24573d6000803e3d6000fd5b505050506040513d6000823e3d601f19601f820116820180604052506020811015610e4e57600080fd5b810190808051640100000000811115610e6657600080fd5b82810190506020810184811115610e7c57600080fd5b8151856001820283011164010000000082111715610e9957600080fd5b50509291905050506000809054906101000a900473ffffffffffffffffffffffffffffffffffffffff1673ffffffffffffffffffffffffffffffffffffffff1663679aefce6040518163ffffffff167c010000000000000000000000000000000000000000000000000000000002815260040160206040518083038186803b158015610f2457600080fd5b505afa158015610f38573d6000803e3d6000fd5b505050506040513d6020811015610f4e57600080fd5b8101908080519060200190929190505050859550848054600181600116156101000203166002900480601f016020809104026020016040519081016040528092919081815260200182805460018160011615610100020316600290048015610ff75780601f10610fcc57610100808354040283529160200191610ff7565b820191906000526020600020905b815481529060010190602001808311610fda57829003601f168201915b50505050509450828054600181600116156101000203166002900480601f0160208091040260200160405190810160405280929190818152602001828054600181600116156101000203166002900480156110935780601f1061106857610100808354040283529160200191611093565b820191906000526020600020905b81548152906001019060200180831161107657829003601f168201915b50505050509250819150965096509650965096509650965090919293949596565b6000808390508073ffffffffffffffffffffffffffffffffffffffff16632f54bf6e846040518263ffffffff167c0100000000000000000000000000000000000000000000000000000000028152600401808273ffffffffffffffffffffffffffffffffffffffff1673ffffffffffffffffffffffffffffffffffffffff16815260200191505060206040518083038186803b15801561115357600080fd5b505afa158015611167573d6000803e3d6000fd5b505050506040513d602081101561117d57600080fd5b81019080805190602001909291905050501561119d5760019150506111a3565b60009150505b92915050565b6000600760008373ffffffffffffffffffffffffffffffffffffffff1673ffffffffffffffffffffffffffffffffffffffff168152602001908152602001600020549050919050565b60076020528060005260406000206000915090505481565b60065481565b600080600454148061122457506000600554145b156112325760009050611245565b60045460055481151561124157fe5b0490505b90565b61125282336110b4565b15156112ec576040517f08c379a00000000000000000000000000000000000000000000000000000000081526004018080602001828103825260228152602001807f7573657220636f6e74726163742061646472657373206973206e6f7420796f7581526020017f727300000000000000000000000000000000000000000000000000000000000081525060400191505060405180910390fd5b600760008373ffffffffffffffffffffffffffffffffffffffff1673ffffffffffffffffffffffffffffffffffffffff168152602001908152602001600020546005600082825403925050819055506000809054906101000a900473ffffffffffffffffffffffffffffffffffffffff1673ffffffffffffffffffffffffffffffffffffffff16630381dc93600760008573ffffffffffffffffffffffffffffffffffffffff1673ffffffffffffffffffffffffffffffffffffffff168152602001908152602001600020546040518263ffffffff167c010000000000000000000000000000000000000000000000000000000002815260040180828152602001915050600060405180830381600087803b15801561140a57600080fd5b505af115801561141e573d6000803e3d6000fd5b5050505080600760008473ffffffffffffffffffffffffffffffffffffffff1673ffffffffffffffffffffffffffffffffffffffff16815260200190815260200160002081905550806005600082825401925050819055506000809054906101000a900473ffffffffffffffffffffffffffffffffffffffff1673ffffffffffffffffffffffffffffffffffffffff16633de3f629826040518263ffffffff167c010000000000000000000000000000000000000000000000000000000002815260040180828152602001915050600060405180830381600087803b15801561150657600080fd5b505af115801561151a573d6000803e3d6000fd5b50505050505056fea165627a7a72305820ea0f147cc383d8abac08a65729d586303d4b9237a569a508624f625b0d7a080f0029a165627a7a7230582019273171c61393e44e866a37be4924530e4fde33090450c30bbdd92bb913598b0029",
  "source": "pragma solidity ^0.5.0;\nimport \"./User.sol\";\nimport \"./Comment.sol\";\nimport \"./Post.sol\";\nimport \"./OriginalPost.sol\";\n\ncontract SharedPost is Post{\n    \n    OriginalPost originalPost;\n    \n    constructor (address user_contract_address,address original_post_address,string memory post_text) public {\n        text = post_text;\n        timestamp = now;\n        postType = false;\n        originalPost = OriginalPost(original_post_address);\n        owner = User(user_contract_address);\n    }\n\n    function getPost() public view returns(address,string memory,string memory, string memory,uint256,address[] memory, string memory,uint,uint, uint){\n        return (\n        address(owner),\n        owner.name(),\n        text,\n        contentUrl,\n        timestamp,\n        comments,\n        owner.profilePic(),\n        totalVotes,\n        totalShares,\n        owner.getRate()\n            );\n    }        \n    \n    function getOriginalPost() public view returns(address, address, string memory, string memory, string memory, uint256, string memory, uint){\n        require(checkLastVote(),\"the post have low average votes\");\n        return(\n        address(originalPost),\n        address(originalPost.owner()),\n        originalPost.owner().name(),\n        originalPost.text(),\n        originalPost.contentUrl(),\n        originalPost.timestamp(),\n        originalPost.owner().profilePic(),\n        originalPost.owner().getRate()\n            );\n    }\n    \n    \n\n    \n\n    \n}",
  "sourcePath": "/media/adam/Source/GP/Eth-Smithereens/contracts/SharedPost.sol",
  "compiler": {
    "name": "solc",
    "version": "0.5.0+commit.1d4f565a.Emscripten.clang"
  },
  "schemaVersion": "3.0.1",
  "updatedAt": "2019-06-22T07:48:24.614Z",
  "devdoc": {
    "methods": {}
  },
  "userdoc": {
    "methods": {}
  }
}