{
  "contractName": "SharedPost",
  "abi": [
    {
      "constant": true,
      "inputs": [],
      "name": "totalVotes",
      "outputs": [
        {
          "name": "",
          "type": "uint256"
        }
      ],
      "payable": false,
      "stateMutability": "view",
      "type": "function"
    },
    {
      "constant": false,
      "inputs": [],
      "name": "increamentShares",
      "outputs": [],
      "payable": false,
      "stateMutability": "nonpayable",
      "type": "function"
    },
    {
      "constant": true,
      "inputs": [],
      "name": "text",
      "outputs": [
        {
          "name": "",
          "type": "string"
        }
      ],
      "payable": false,
      "stateMutability": "view",
      "type": "function"
    },
    {
      "constant": true,
      "inputs": [],
      "name": "totalShares",
      "outputs": [
        {
          "name": "",
          "type": "uint256"
        }
      ],
      "payable": false,
      "stateMutability": "view",
      "type": "function"
    },
    {
      "constant": false,
      "inputs": [
        {
          "name": "userContractAddress",
          "type": "address"
        },
        {
          "name": "voteValue",
          "type": "uint256"
        }
      ],
      "name": "vote",
      "outputs": [],
      "payable": false,
      "stateMutability": "nonpayable",
      "type": "function"
    },
    {
      "constant": true,
      "inputs": [],
      "name": "contentUrl",
      "outputs": [
        {
          "name": "",
          "type": "string"
        }
      ],
      "payable": false,
      "stateMutability": "view",
      "type": "function"
    },
    {
      "constant": true,
      "inputs": [],
      "name": "owner",
      "outputs": [
        {
          "name": "",
          "type": "address"
        }
      ],
      "payable": false,
      "stateMutability": "view",
      "type": "function"
    },
    {
      "constant": true,
      "inputs": [],
      "name": "postType",
      "outputs": [
        {
          "name": "",
          "type": "bool"
        }
      ],
      "payable": false,
      "stateMutability": "view",
      "type": "function"
    },
    {
      "constant": true,
      "inputs": [],
      "name": "totalVotesValue",
      "outputs": [
        {
          "name": "",
          "type": "uint256"
        }
      ],
      "payable": false,
      "stateMutability": "view",
      "type": "function"
    },
    {
      "constant": true,
      "inputs": [],
      "name": "checkLastVote",
      "outputs": [
        {
          "name": "",
          "type": "bool"
        }
      ],
      "payable": false,
      "stateMutability": "view",
      "type": "function"
    },
    {
      "constant": true,
      "inputs": [],
      "name": "timestamp",
      "outputs": [
        {
          "name": "",
          "type": "uint256"
        }
      ],
      "payable": false,
      "stateMutability": "view",
      "type": "function"
    },
    {
      "constant": true,
      "inputs": [
        {
          "name": "user_contract_address",
          "type": "address"
        },
        {
          "name": "msg_sender",
          "type": "address"
        }
      ],
      "name": "auth",
      "outputs": [
        {
          "name": "",
          "type": "bool"
        }
      ],
      "payable": false,
      "stateMutability": "view",
      "type": "function"
    },
    {
      "constant": true,
      "inputs": [
        {
          "name": "user_contract_address",
          "type": "address"
        }
      ],
      "name": "getUserVote",
      "outputs": [
        {
          "name": "",
          "type": "uint256"
        }
      ],
      "payable": false,
      "stateMutability": "view",
      "type": "function"
    },
    {
      "constant": true,
      "inputs": [
        {
          "name": "",
          "type": "address"
        }
      ],
      "name": "votes",
      "outputs": [
        {
          "name": "",
          "type": "uint256"
        }
      ],
      "payable": false,
      "stateMutability": "view",
      "type": "function"
    },
    {
      "constant": true,
      "inputs": [],
      "name": "lastVoteTime",
      "outputs": [
        {
          "name": "",
          "type": "uint256"
        }
      ],
      "payable": false,
      "stateMutability": "view",
      "type": "function"
    },
    {
      "constant": true,
      "inputs": [],
      "name": "getAverageOfVotes",
      "outputs": [
        {
          "name": "",
          "type": "uint256"
        }
      ],
      "payable": false,
      "stateMutability": "view",
      "type": "function"
    },
    {
      "constant": false,
      "inputs": [
        {
          "name": "user_contract_address",
          "type": "address"
        },
        {
          "name": "comment_text",
          "type": "string"
        },
        {
          "name": "content_url",
          "type": "string"
        }
      ],
      "name": "createComment",
      "outputs": [],
      "payable": false,
      "stateMutability": "nonpayable",
      "type": "function"
    },
    {
      "inputs": [
        {
          "name": "user_contract_address",
          "type": "address"
        },
        {
          "name": "original_post_address",
          "type": "address"
        },
        {
          "name": "post_text",
          "type": "string"
        }
      ],
      "payable": false,
      "stateMutability": "nonpayable",
      "type": "constructor"
    },
    {
      "constant": true,
      "inputs": [],
      "name": "getPost",
      "outputs": [
        {
          "name": "",
          "type": "address"
        },
        {
          "name": "",
          "type": "string"
        },
        {
          "name": "",
          "type": "string"
        },
        {
          "name": "",
          "type": "string"
        },
        {
          "name": "",
          "type": "uint256"
        },
        {
          "name": "",
          "type": "address[]"
        },
        {
          "name": "",
          "type": "string"
        },
        {
          "name": "",
          "type": "uint256"
        },
        {
          "name": "",
          "type": "uint256"
        }
      ],
      "payable": false,
      "stateMutability": "view",
      "type": "function"
    },
    {
      "constant": true,
      "inputs": [],
      "name": "getOriginalPost",
      "outputs": [
        {
          "name": "",
          "type": "address"
        },
        {
          "name": "",
          "type": "address"
        },
        {
          "name": "",
          "type": "string"
        },
        {
          "name": "",
          "type": "string"
        },
        {
          "name": "",
          "type": "string"
        },
        {
          "name": "",
          "type": "uint256"
        },
        {
          "name": "",
          "type": "string"
        }
      ],
      "payable": false,
      "stateMutability": "view",
      "type": "function"
    }
  ],
  "bytecode": "0x60806040526000600555600060065560006008553480156200002057600080fd5b5060405162003e0a38038062003e0a833981018060405260608110156200004657600080fd5b81019080805190602001909291908051906020019092919080516401000000008111156200007357600080fd5b828101905060208101848111156200008a57600080fd5b8151856001820283011164010000000082111715620000a857600080fd5b50509291905050508060019080519060200190620000c892919062000175565b50426003819055506000600a60006101000a81548160ff02191690831515021790555081600a60016101000a81548173ffffffffffffffffffffffffffffffffffffffff021916908373ffffffffffffffffffffffffffffffffffffffff160217905550826000806101000a81548173ffffffffffffffffffffffffffffffffffffffff021916908373ffffffffffffffffffffffffffffffffffffffff16021790555050505062000224565b828054600181600116156101000203166002900490600052602060002090601f016020900481019282601f10620001b857805160ff1916838001178555620001e9565b82800160010185558215620001e9579182015b82811115620001e8578251825591602001919060010190620001cb565b5b509050620001f89190620001fc565b5090565b6200022191905b808211156200021d57600081600090555060010162000203565b5090565b90565b613bd680620002346000396000f3fe6080604052600436106200011b576000357c0100000000000000000000000000000000000000000000000000000000900463ffffffff1680630d15fd7714620001205780631dda3165146200014e5780631f1bd69214620001685780633a98ef3914620001fe5780635f74bbde146200022c57806384165599146200028b578063850710c314620004db5780638c6838ba14620005715780638da5cb5b14620007e657806399f71a7d1462000840578063a0ccc8b91462000872578063a4ff78d114620008a0578063b80777ea14620008d2578063ce5036ce1462000900578063d4923d4e146200098d578063d8bff5a514620009f6578063dac174301462000a5f578063e38106c41462000a8d578063eeb9eac91462000abb575b600080fd5b3480156200012d57600080fd5b506200013862000c44565b6040518082815260200191505060405180910390f35b3480156200015b57600080fd5b506200016662000c4a565b005b3480156200017557600080fd5b506200018062000c5e565b6040518080602001828103825283818151815260200191508051906020019080838360005b83811015620001c2578082015181840152602081019050620001a5565b50505050905090810190601f168015620001f05780820380516001836020036101000a031916815260200191505b509250505060405180910390f35b3480156200020b57600080fd5b506200021662000d00565b6040518082815260200191505060405180910390f35b3480156200023957600080fd5b5062000289600480360360408110156200025257600080fd5b81019080803573ffffffffffffffffffffffffffffffffffffffff1690602001909291908035906020019092919050505062000d06565b005b3480156200029857600080fd5b50620002a362001072565b604051808873ffffffffffffffffffffffffffffffffffffffff1673ffffffffffffffffffffffffffffffffffffffff1681526020018773ffffffffffffffffffffffffffffffffffffffff1673ffffffffffffffffffffffffffffffffffffffff1681526020018060200180602001806020018681526020018060200185810385528a818151815260200191508051906020019080838360005b838110156200035b5780820151818401526020810190506200033e565b50505050905090810190601f168015620003895780820380516001836020036101000a031916815260200191505b50858103845289818151815260200191508051906020019080838360005b83811015620003c4578082015181840152602081019050620003a7565b50505050905090810190601f168015620003f25780820380516001836020036101000a031916815260200191505b50858103835288818151815260200191508051906020019080838360005b838110156200042d57808201518184015260208101905062000410565b50505050905090810190601f1680156200045b5780820380516001836020036101000a031916815260200191505b50858103825286818151815260200191508051906020019080838360005b838110156200049657808201518184015260208101905062000479565b50505050905090810190601f168015620004c45780820380516001836020036101000a031916815260200191505b509b50505050505050505050505060405180910390f35b348015620004e857600080fd5b50620004f362001871565b6040518080602001828103825283818151815260200191508051906020019080838360005b838110156200053557808201518184015260208101905062000518565b50505050905090810190601f168015620005635780820380516001836020036101000a031916815260200191505b509250505060405180910390f35b3480156200057e57600080fd5b506200058962001913565b604051808a73ffffffffffffffffffffffffffffffffffffffff1673ffffffffffffffffffffffffffffffffffffffff168152602001806020018060200180602001898152602001806020018060200188815260200187815260200186810386528e818151815260200191508051906020019080838360005b838110156200061f57808201518184015260208101905062000602565b50505050905090810190601f1680156200064d5780820380516001836020036101000a031916815260200191505b5086810385528d818151815260200191508051906020019080838360005b83811015620006885780820151818401526020810190506200066b565b50505050905090810190601f168015620006b65780820380516001836020036101000a031916815260200191505b5086810384528c818151815260200191508051906020019080838360005b83811015620006f1578082015181840152602081019050620006d4565b50505050905090810190601f1680156200071f5780820380516001836020036101000a031916815260200191505b5086810383528a818151815260200191508051906020019060200280838360005b838110156200075d57808201518184015260208101905062000740565b50505050905001868103825289818151815260200191508051906020019080838360005b838110156200079e57808201518184015260208101905062000781565b50505050905090810190601f168015620007cc5780820380516001836020036101000a031916815260200191505b509e50505050505050505050505050505060405180910390f35b348015620007f357600080fd5b50620007fe62001d74565b604051808273ffffffffffffffffffffffffffffffffffffffff1673ffffffffffffffffffffffffffffffffffffffff16815260200191505060405180910390f35b3480156200084d57600080fd5b506200085862001d99565b604051808215151515815260200191505060405180910390f35b3480156200087f57600080fd5b506200088a62001dac565b6040518082815260200191505060405180910390f35b348015620008ad57600080fd5b50620008b862001db2565b604051808215151515815260200191505060405180910390f35b348015620008df57600080fd5b50620008ea62001e01565b6040518082815260200191505060405180910390f35b3480156200090d57600080fd5b5062000973600480360360408110156200092657600080fd5b81019080803573ffffffffffffffffffffffffffffffffffffffff169060200190929190803573ffffffffffffffffffffffffffffffffffffffff16906020019092919050505062001e07565b604051808215151515815260200191505060405180910390f35b3480156200099a57600080fd5b50620009e060048036036020811015620009b357600080fd5b81019080803573ffffffffffffffffffffffffffffffffffffffff16906020019092919050505062001f01565b6040518082815260200191505060405180910390f35b34801562000a0357600080fd5b5062000a496004803603602081101562000a1c57600080fd5b81019080803573ffffffffffffffffffffffffffffffffffffffff16906020019092919050505062001f4a565b6040518082815260200191505060405180910390f35b34801562000a6c57600080fd5b5062000a7762001f62565b6040518082815260200191505060405180910390f35b34801562000a9a57600080fd5b5062000aa562001f68565b6040518082815260200191505060405180910390f35b34801562000ac857600080fd5b5062000c426004803603606081101562000ae157600080fd5b81019080803573ffffffffffffffffffffffffffffffffffffffff1690602001909291908035906020019064010000000081111562000b1f57600080fd5b82018360208201111562000b3257600080fd5b8035906020019184600183028401116401000000008311171562000b5557600080fd5b91908080601f016020809104026020016040519081016040528093929190818152602001838380828437600081840152601f19601f8201169050808301925050505050505091929192908035906020019064010000000081111562000bb957600080fd5b82018360208201111562000bcc57600080fd5b8035906020019184600183028401116401000000008311171562000bef57600080fd5b91908080601f016020809104026020016040519081016040528093929190818152602001838380828437600081840152601f19601f82011690508083019250505050505050919291929050505062001fa4565b005b60055481565b600860008154809291906001019190505550565b60018054600181600116156101000203166002900480601f01602080910402602001604051908101604052809291908181526020018280546001816001161561010002031660029004801562000cf85780601f1062000ccc5761010080835404028352916020019162000cf8565b820191906000526020600020905b81548152906001019060200180831162000cda57829003601f168201915b505050505081565b60085481565b62000d12823362001e07565b151562000dad576040517f08c379a00000000000000000000000000000000000000000000000000000000081526004018080602001828103825260228152602001807f7573657220636f6e74726163742061646472657373206973206e6f7420796f7581526020017f727300000000000000000000000000000000000000000000000000000000000081525060400191505060405180910390fd5b6001811015801562000dc05750600a8111155b151562000e5b576040517f08c379a00000000000000000000000000000000000000000000000000000000081526004018080602001828103825260228152602001807f74686520766f74652076616c7565206973206265747765656e203120616e642081526020017f313000000000000000000000000000000000000000000000000000000000000081525060400191505060405180910390fd5b6000600960008473ffffffffffffffffffffffffffffffffffffffff1673ffffffffffffffffffffffffffffffffffffffff1681526020019081526020016000205414151562000eb75762000eb18282620021fa565b6200106e565b80600960008473ffffffffffffffffffffffffffffffffffffffff1673ffffffffffffffffffffffffffffffffffffffff16815260200190815260200160002081905550806006600082825401925050819055506000809054906101000a900473ffffffffffffffffffffffffffffffffffffffff1673ffffffffffffffffffffffffffffffffffffffff16633de3f629826040518263ffffffff167c010000000000000000000000000000000000000000000000000000000002815260040180828152602001915050600060405180830381600087803b15801562000f9c57600080fd5b505af115801562000fb1573d6000803e3d6000fd5b505050506000809054906101000a900473ffffffffffffffffffffffffffffffffffffffff1673ffffffffffffffffffffffffffffffffffffffff16638b7374726040518163ffffffff167c0100000000000000000000000000000000000000000000000000000000028152600401600060405180830381600087803b1580156200103b57600080fd5b505af115801562001050573d6000803e3d6000fd5b50505050600560008154809291906001019190505550426007819055505b5050565b6000806060806060600060606200108862001db2565b1515620010fd576040517f08c379a000000000000000000000000000000000000000000000000000000000815260040180806020018281038252601f8152602001807f74686520706f73742068617665206c6f77206176657261676520766f7465730081525060200191505060405180910390fd5b600a60019054906101000a900473ffffffffffffffffffffffffffffffffffffffff16600a60019054906101000a900473ffffffffffffffffffffffffffffffffffffffff1673ffffffffffffffffffffffffffffffffffffffff16638da5cb5b6040518163ffffffff167c010000000000000000000000000000000000000000000000000000000002815260040160206040518083038186803b158015620011a557600080fd5b505afa158015620011ba573d6000803e3d6000fd5b505050506040513d6020811015620011d157600080fd5b8101908080519060200190929190505050600a60019054906101000a900473ffffffffffffffffffffffffffffffffffffffff1673ffffffffffffffffffffffffffffffffffffffff16638da5cb5b6040518163ffffffff167c010000000000000000000000000000000000000000000000000000000002815260040160206040518083038186803b1580156200126757600080fd5b505afa1580156200127c573d6000803e3d6000fd5b505050506040513d60208110156200129357600080fd5b810190808051906020019092919050505073ffffffffffffffffffffffffffffffffffffffff166306fdde036040518163ffffffff167c010000000000000000000000000000000000000000000000000000000002815260040160006040518083038186803b1580156200130657600080fd5b505afa1580156200131b573d6000803e3d6000fd5b505050506040513d6000823e3d601f19601f8201168201806040525060208110156200134657600080fd5b8101908080516401000000008111156200135f57600080fd5b828101905060208101848111156200137657600080fd5b81518560018202830111640100000000821117156200139457600080fd5b5050929190505050600a60019054906101000a900473ffffffffffffffffffffffffffffffffffffffff1673ffffffffffffffffffffffffffffffffffffffff16631f1bd6926040518163ffffffff167c010000000000000000000000000000000000000000000000000000000002815260040160006040518083038186803b1580156200142157600080fd5b505afa15801562001436573d6000803e3d6000fd5b505050506040513d6000823e3d601f19601f8201168201806040525060208110156200146157600080fd5b8101908080516401000000008111156200147a57600080fd5b828101905060208101848111156200149157600080fd5b8151856001820283011164010000000082111715620014af57600080fd5b5050929190505050600a60019054906101000a900473ffffffffffffffffffffffffffffffffffffffff1673ffffffffffffffffffffffffffffffffffffffff1663850710c36040518163ffffffff167c010000000000000000000000000000000000000000000000000000000002815260040160006040518083038186803b1580156200153c57600080fd5b505afa15801562001551573d6000803e3d6000fd5b505050506040513d6000823e3d601f19601f8201168201806040525060208110156200157c57600080fd5b8101908080516401000000008111156200159557600080fd5b82810190506020810184811115620015ac57600080fd5b8151856001820283011164010000000082111715620015ca57600080fd5b5050929190505050600a60019054906101000a900473ffffffffffffffffffffffffffffffffffffffff1673ffffffffffffffffffffffffffffffffffffffff1663b80777ea6040518163ffffffff167c010000000000000000000000000000000000000000000000000000000002815260040160206040518083038186803b1580156200165757600080fd5b505afa1580156200166c573d6000803e3d6000fd5b505050506040513d60208110156200168357600080fd5b8101908080519060200190929190505050600a60019054906101000a900473ffffffffffffffffffffffffffffffffffffffff1673ffffffffffffffffffffffffffffffffffffffff16638da5cb5b6040518163ffffffff167c010000000000000000000000000000000000000000000000000000000002815260040160206040518083038186803b1580156200171957600080fd5b505afa1580156200172e573d6000803e3d6000fd5b505050506040513d60208110156200174557600080fd5b810190808051906020019092919050505073ffffffffffffffffffffffffffffffffffffffff16630aaf15306040518163ffffffff167c010000000000000000000000000000000000000000000000000000000002815260040160006040518083038186803b158015620017b857600080fd5b505afa158015620017cd573d6000803e3d6000fd5b505050506040513d6000823e3d601f19601f820116820180604052506020811015620017f857600080fd5b8101908080516401000000008111156200181157600080fd5b828101905060208101848111156200182857600080fd5b81518560018202830111640100000000821117156200184657600080fd5b5050929190505050849450839350829250809050965096509650965096509650965090919293949596565b60028054600181600116156101000203166002900480601f0160208091040260200160405190810160405280929190818152602001828054600181600116156101000203166002900480156200190b5780601f10620018df576101008083540402835291602001916200190b565b820191906000526020600020905b815481529060010190602001808311620018ed57829003601f168201915b505050505081565b6000606080606060006060806000806000809054906101000a900473ffffffffffffffffffffffffffffffffffffffff166000809054906101000a900473ffffffffffffffffffffffffffffffffffffffff1673ffffffffffffffffffffffffffffffffffffffff166306fdde036040518163ffffffff167c010000000000000000000000000000000000000000000000000000000002815260040160006040518083038186803b158015620019c857600080fd5b505afa158015620019dd573d6000803e3d6000fd5b505050506040513d6000823e3d601f19601f82011682018060405250602081101562001a0857600080fd5b81019080805164010000000081111562001a2157600080fd5b8281019050602081018481111562001a3857600080fd5b815185600182028301116401000000008211171562001a5657600080fd5b50509291905050506001600260035460046000809054906101000a900473ffffffffffffffffffffffffffffffffffffffff1673ffffffffffffffffffffffffffffffffffffffff16630aaf15306040518163ffffffff167c010000000000000000000000000000000000000000000000000000000002815260040160006040518083038186803b15801562001aeb57600080fd5b505afa15801562001b00573d6000803e3d6000fd5b505050506040513d6000823e3d601f19601f82011682018060405250602081101562001b2b57600080fd5b81019080805164010000000081111562001b4457600080fd5b8281019050602081018481111562001b5b57600080fd5b815185600182028301116401000000008211171562001b7957600080fd5b5050929190505050600554600854879750868054600181600116156101000203166002900480601f01602080910402602001604051908101604052809291908181526020018280546001816001161561010002031660029004801562001c235780601f1062001bf75761010080835404028352916020019162001c23565b820191906000526020600020905b81548152906001019060200180831162001c0557829003601f168201915b50505050509650858054600181600116156101000203166002900480601f01602080910402602001604051908101604052809291908181526020018280546001816001161561010002031660029004801562001cc35780601f1062001c975761010080835404028352916020019162001cc3565b820191906000526020600020905b81548152906001019060200180831162001ca557829003601f168201915b505050505095508380548060200260200160405190810160405280929190818152602001828054801562001d4d57602002820191906000526020600020905b8160009054906101000a900473ffffffffffffffffffffffffffffffffffffffff1673ffffffffffffffffffffffffffffffffffffffff168152602001906001019080831162001d02575b50505050509350829250985098509850985098509850985098509850909192939495969798565b6000809054906101000a900473ffffffffffffffffffffffffffffffffffffffff1681565b600a60009054906101000a900460ff1681565b60065481565b60006078600754420311801562001dcc5750600060075414155b1562001df957600562001dde62001f68565b101562001def576000905062001dfe565b6001905062001dfe565b600190505b90565b60035481565b6000808390508073ffffffffffffffffffffffffffffffffffffffff16632f54bf6e846040518263ffffffff167c0100000000000000000000000000000000000000000000000000000000028152600401808273ffffffffffffffffffffffffffffffffffffffff1673ffffffffffffffffffffffffffffffffffffffff16815260200191505060206040518083038186803b15801562001ea757600080fd5b505afa15801562001ebc573d6000803e3d6000fd5b505050506040513d602081101562001ed357600080fd5b81019080805190602001909291905050501562001ef557600191505062001efb565b60009150505b92915050565b6000600960008373ffffffffffffffffffffffffffffffffffffffff1673ffffffffffffffffffffffffffffffffffffffff168152602001908152602001600020549050919050565b60096020528060005260406000206000915090505481565b60075481565b600080600554148062001f7d57506000600654145b1562001f8d576000905062001fa1565b60055460065481151562001f9d57fe5b0490505b90565b62001fb0833362001e07565b15156200204b576040517f08c379a00000000000000000000000000000000000000000000000000000000081526004018080602001828103825260228152602001807f7573657220636f6e74726163742061646472657373206973206e6f7420796f7581526020017f727300000000000000000000000000000000000000000000000000000000000081525060400191505060405180910390fd5b60008383836200205a620024e2565b808473ffffffffffffffffffffffffffffffffffffffff1673ffffffffffffffffffffffffffffffffffffffff1681526020018060200180602001838103835285818151815260200191508051906020019080838360005b83811015620020cf578082015181840152602081019050620020b2565b50505050905090810190601f168015620020fd5780820380516001836020036101000a031916815260200191505b50838103825284818151815260200191508051906020019080838360005b83811015620021385780820151818401526020810190506200211b565b50505050905090810190601f168015620021665780820380516001836020036101000a031916815260200191505b5095505050505050604051809103906000f0801580156200218b573d6000803e3d6000fd5b50905060048190806001815401808255809150509060018203906000526020600020016000909192909190916101000a81548173ffffffffffffffffffffffffffffffffffffffff021916908373ffffffffffffffffffffffffffffffffffffffff1602179055505050505050565b62002206823362001e07565b1515620022a1576040517f08c379a00000000000000000000000000000000000000000000000000000000081526004018080602001828103825260228152602001807f7573657220636f6e74726163742061646472657373206973206e6f7420796f7581526020017f727300000000000000000000000000000000000000000000000000000000000081525060400191505060405180910390fd5b600960008373ffffffffffffffffffffffffffffffffffffffff1673ffffffffffffffffffffffffffffffffffffffff168152602001908152602001600020546006600082825403925050819055506000809054906101000a900473ffffffffffffffffffffffffffffffffffffffff1673ffffffffffffffffffffffffffffffffffffffff16630381dc93600960008573ffffffffffffffffffffffffffffffffffffffff1673ffffffffffffffffffffffffffffffffffffffff168152602001908152602001600020546040518263ffffffff167c010000000000000000000000000000000000000000000000000000000002815260040180828152602001915050600060405180830381600087803b158015620023c057600080fd5b505af1158015620023d5573d6000803e3d6000fd5b5050505080600960008473ffffffffffffffffffffffffffffffffffffffff1673ffffffffffffffffffffffffffffffffffffffff16815260200190815260200160002081905550806006600082825401925050819055506000809054906101000a900473ffffffffffffffffffffffffffffffffffffffff1673ffffffffffffffffffffffffffffffffffffffff16633de3f629826040518263ffffffff167c010000000000000000000000000000000000000000000000000000000002815260040180828152602001915050600060405180830381600087803b158015620024be57600080fd5b505af1158015620024d3573d6000803e3d6000fd5b50505050426007819055505050565b6040516116b780620024f48339019056fe6080604052600060045560006005553480156200001b57600080fd5b50604051620016b7380380620016b7833981018060405260608110156200004157600080fd5b810190808051906020019092919080516401000000008111156200006457600080fd5b828101905060208101848111156200007b57600080fd5b81518560018202830111640100000000821117156200009957600080fd5b50509291906020018051640100000000811115620000b657600080fd5b82810190506020810184811115620000cd57600080fd5b8151856001820283011164010000000082111715620000eb57600080fd5b505092919050505081600190805190602001906200010b92919062000175565b5080600290805190602001906200012492919062000175565b5042600381905550826000806101000a81548173ffffffffffffffffffffffffffffffffffffffff021916908373ffffffffffffffffffffffffffffffffffffffff16021790555050505062000224565b828054600181600116156101000203166002900490600052602060002090601f016020900481019282601f10620001b857805160ff1916838001178555620001e9565b82800160010185558215620001e9579182015b82811115620001e8578251825591602001919060010190620001cb565b5b509050620001f89190620001fc565b5090565b6200022191905b808211156200021d57600081600090555060010162000203565b5090565b90565b61148380620002346000396000f3fe6080604052600436106100c5576000357c0100000000000000000000000000000000000000000000000000000000900463ffffffff1680630d15fd77146100ca5780631f1bd692146100f55780635f74bbde14610185578063850710c3146101e0578063a0ccc8b914610270578063a4ff78d11461029b578063b80777ea146102ca578063cc773044146102f5578063ce5036ce14610503578063d4923d4e1461058c578063d8bff5a5146105f1578063dac1743014610656578063e38106c414610681575b600080fd5b3480156100d657600080fd5b506100df6106ac565b6040518082815260200191505060405180910390f35b34801561010157600080fd5b5061010a6106b2565b6040518080602001828103825283818151815260200191508051906020019080838360005b8381101561014a57808201518184015260208101905061012f565b50505050905090810190601f1680156101775780820380516001836020036101000a031916815260200191505b509250505060405180910390f35b34801561019157600080fd5b506101de600480360360408110156101a857600080fd5b81019080803573ffffffffffffffffffffffffffffffffffffffff16906020019092919080359060200190929190505050610750565b005b3480156101ec57600080fd5b506101f5610aa8565b6040518080602001828103825283818151815260200191508051906020019080838360005b8381101561023557808201518184015260208101905061021a565b50505050905090810190601f1680156102625780820380516001836020036101000a031916815260200191505b509250505060405180910390f35b34801561027c57600080fd5b50610285610b46565b6040518082815260200191505060405180910390f35b3480156102a757600080fd5b506102b0610b4c565b604051808215151515815260200191505060405180910390f35b3480156102d657600080fd5b506102df610b94565b6040518082815260200191505060405180910390f35b34801561030157600080fd5b5061030a610b9a565b604051808773ffffffffffffffffffffffffffffffffffffffff1673ffffffffffffffffffffffffffffffffffffffff1681526020018060200180602001868152602001806020018060200185810385528a818151815260200191508051906020019080838360005b8381101561038e578082015181840152602081019050610373565b50505050905090810190601f1680156103bb5780820380516001836020036101000a031916815260200191505b50858103845289818151815260200191508051906020019080838360005b838110156103f45780820151818401526020810190506103d9565b50505050905090810190601f1680156104215780820380516001836020036101000a031916815260200191505b50858103835287818151815260200191508051906020019080838360005b8381101561045a57808201518184015260208101905061043f565b50505050905090810190601f1680156104875780820380516001836020036101000a031916815260200191505b50858103825286818151815260200191508051906020019080838360005b838110156104c05780820151818401526020810190506104a5565b50505050905090810190601f1680156104ed5780820380516001836020036101000a031916815260200191505b509a505050505050505050505060405180910390f35b34801561050f57600080fd5b506105726004803603604081101561052657600080fd5b81019080803573ffffffffffffffffffffffffffffffffffffffff169060200190929190803573ffffffffffffffffffffffffffffffffffffffff169060200190929190505050610fe9565b604051808215151515815260200191505060405180910390f35b34801561059857600080fd5b506105db600480360360208110156105af57600080fd5b81019080803573ffffffffffffffffffffffffffffffffffffffff1690602001909291905050506110de565b6040518082815260200191505060405180910390f35b3480156105fd57600080fd5b506106406004803603602081101561061457600080fd5b81019080803573ffffffffffffffffffffffffffffffffffffffff169060200190929190505050611127565b6040518082815260200191505060405180910390f35b34801561066257600080fd5b5061066b61113f565b6040518082815260200191505060405180910390f35b34801561068d57600080fd5b50610696611145565b6040518082815260200191505060405180910390f35b60045481565b60018054600181600116156101000203166002900480601f0160208091040260200160405190810160405280929190818152602001828054600181600116156101000203166002900480156107485780601f1061071d57610100808354040283529160200191610748565b820191906000526020600020905b81548152906001019060200180831161072b57829003601f168201915b505050505081565b61075a8233610fe9565b15156107f4576040517f08c379a00000000000000000000000000000000000000000000000000000000081526004018080602001828103825260228152602001807f7573657220636f6e74726163742061646472657373206973206e6f7420796f7581526020017f727300000000000000000000000000000000000000000000000000000000000081525060400191505060405180910390fd5b600181101580156108065750600a8111155b15156108a0576040517f08c379a00000000000000000000000000000000000000000000000000000000081526004018080602001828103825260228152602001807f74686520766f74652076616c7565206973206265747765656e203120616e642081526020017f313000000000000000000000000000000000000000000000000000000000000081525060400191505060405180910390fd5b6000600760008473ffffffffffffffffffffffffffffffffffffffff1673ffffffffffffffffffffffffffffffffffffffff168152602001908152602001600020541415156108f8576108f3828261117d565b610aa4565b80600760008473ffffffffffffffffffffffffffffffffffffffff1673ffffffffffffffffffffffffffffffffffffffff16815260200190815260200160002081905550806005600082825401925050819055506000809054906101000a900473ffffffffffffffffffffffffffffffffffffffff1673ffffffffffffffffffffffffffffffffffffffff16633de3f629826040518263ffffffff167c010000000000000000000000000000000000000000000000000000000002815260040180828152602001915050600060405180830381600087803b1580156109dc57600080fd5b505af11580156109f0573d6000803e3d6000fd5b505050506000809054906101000a900473ffffffffffffffffffffffffffffffffffffffff1673ffffffffffffffffffffffffffffffffffffffff16638b7374726040518163ffffffff167c0100000000000000000000000000000000000000000000000000000000028152600401600060405180830381600087803b158015610a7957600080fd5b505af1158015610a8d573d6000803e3d6000fd5b505050506004600081548092919060010191905055505b5050565b60028054600181600116156101000203166002900480601f016020809104026020016040519081016040528092919081815260200182805460018160011615610100020316600290048015610b3e5780601f10610b1357610100808354040283529160200191610b3e565b820191906000526020600020905b815481529060010190602001808311610b2157829003601f168201915b505050505081565b60055481565b600060786006544203118015610b655750600060065414155b15610b8c576005610b74611145565b1015610b835760009050610b91565b60019050610b91565b600190505b90565b60035481565b60006060806000606080610bac610b4c565b1515610c46576040517f08c379a00000000000000000000000000000000000000000000000000000000081526004018080602001828103825260228152602001807f74686520636f6d6d656e742068617665206c6f77206176657261676520766f7481526020017f657300000000000000000000000000000000000000000000000000000000000081525060400191505060405180910390fd5b6000809054906101000a900473ffffffffffffffffffffffffffffffffffffffff166000809054906101000a900473ffffffffffffffffffffffffffffffffffffffff1673ffffffffffffffffffffffffffffffffffffffff166306fdde036040518163ffffffff167c010000000000000000000000000000000000000000000000000000000002815260040160006040518083038186803b158015610ceb57600080fd5b505afa158015610cff573d6000803e3d6000fd5b505050506040513d6000823e3d601f19601f820116820180604052506020811015610d2957600080fd5b810190808051640100000000811115610d4157600080fd5b82810190506020810184811115610d5757600080fd5b8151856001820283011164010000000082111715610d7457600080fd5b5050929190505050600160035460026000809054906101000a900473ffffffffffffffffffffffffffffffffffffffff1673ffffffffffffffffffffffffffffffffffffffff16630aaf15306040518163ffffffff167c010000000000000000000000000000000000000000000000000000000002815260040160006040518083038186803b158015610e0657600080fd5b505afa158015610e1a573d6000803e3d6000fd5b505050506040513d6000823e3d601f19601f820116820180604052506020811015610e4457600080fd5b810190808051640100000000811115610e5c57600080fd5b82810190506020810184811115610e7257600080fd5b8151856001820283011164010000000082111715610e8f57600080fd5b5050929190505050849450838054600181600116156101000203166002900480601f016020809104026020016040519081016040528092919081815260200182805460018160011615610100020316600290048015610f2f5780601f10610f0457610100808354040283529160200191610f2f565b820191906000526020600020905b815481529060010190602001808311610f1257829003601f168201915b50505050509350818054600181600116156101000203166002900480601f016020809104026020016040519081016040528092919081815260200182805460018160011615610100020316600290048015610fcb5780601f10610fa057610100808354040283529160200191610fcb565b820191906000526020600020905b815481529060010190602001808311610fae57829003601f168201915b50505050509150809050955095509550955095509550909192939495565b6000808390508073ffffffffffffffffffffffffffffffffffffffff16632f54bf6e846040518263ffffffff167c0100000000000000000000000000000000000000000000000000000000028152600401808273ffffffffffffffffffffffffffffffffffffffff1673ffffffffffffffffffffffffffffffffffffffff16815260200191505060206040518083038186803b15801561108857600080fd5b505afa15801561109c573d6000803e3d6000fd5b505050506040513d60208110156110b257600080fd5b8101908080519060200190929190505050156110d25760019150506110d8565b60009150505b92915050565b6000600760008373ffffffffffffffffffffffffffffffffffffffff1673ffffffffffffffffffffffffffffffffffffffff168152602001908152602001600020549050919050565b60076020528060005260406000206000915090505481565b60065481565b600080600454148061115957506000600554145b15611167576000905061117a565b60045460055481151561117657fe5b0490505b90565b6111878233610fe9565b1515611221576040517f08c379a00000000000000000000000000000000000000000000000000000000081526004018080602001828103825260228152602001807f7573657220636f6e74726163742061646472657373206973206e6f7420796f7581526020017f727300000000000000000000000000000000000000000000000000000000000081525060400191505060405180910390fd5b600760008373ffffffffffffffffffffffffffffffffffffffff1673ffffffffffffffffffffffffffffffffffffffff168152602001908152602001600020546005600082825403925050819055506000809054906101000a900473ffffffffffffffffffffffffffffffffffffffff1673ffffffffffffffffffffffffffffffffffffffff16630381dc93600760008573ffffffffffffffffffffffffffffffffffffffff1673ffffffffffffffffffffffffffffffffffffffff168152602001908152602001600020546040518263ffffffff167c010000000000000000000000000000000000000000000000000000000002815260040180828152602001915050600060405180830381600087803b15801561133f57600080fd5b505af1158015611353573d6000803e3d6000fd5b5050505080600760008473ffffffffffffffffffffffffffffffffffffffff1673ffffffffffffffffffffffffffffffffffffffff16815260200190815260200160002081905550806005600082825401925050819055506000809054906101000a900473ffffffffffffffffffffffffffffffffffffffff1673ffffffffffffffffffffffffffffffffffffffff16633de3f629826040518263ffffffff167c010000000000000000000000000000000000000000000000000000000002815260040180828152602001915050600060405180830381600087803b15801561143b57600080fd5b505af115801561144f573d6000803e3d6000fd5b50505050505056fea165627a7a723058204259e2f9261414eff5db704de8878eaeb7900afae6d2089e4dccccb7df32fe8c0029a165627a7a72305820138534aad873d677d9032d502022be7b28abcb358bd9639205c10a1b8dd527720029",
  "source": "pragma solidity ^0.5.0;\nimport \"./User.sol\";\nimport \"./Comment.sol\";\nimport \"./Post.sol\";\nimport \"./OriginalPost.sol\";\n\ncontract SharedPost is Post{\n    \n    OriginalPost originalPost;\n    \n    constructor (address user_contract_address,address original_post_address,string memory post_text) public {\n        text = post_text;\n        timestamp = now;\n        postType = false;\n        originalPost = OriginalPost(original_post_address);\n        owner = User(user_contract_address);\n    }\n\n    function getPost() public view returns(address,string memory,string memory, string memory,uint256,address[] memory, string memory,uint,uint){\n        return (\n        address(owner),\n        owner.name(),\n        text,\n        contentUrl,\n        timestamp,\n        comments,\n        owner.profilePic(),\n        totalVotes,\n        totalShares\n            );\n    }        \n    \n    function getOriginalPost() public view returns(address, address, string memory, string memory, string memory, uint256, string memory){\n        require(checkLastVote(),\"the post have low average votes\");\n        return(\n        address(originalPost),\n        address(originalPost.owner()),\n        originalPost.owner().name(),\n        originalPost.text(),\n        originalPost.contentUrl(),\n        originalPost.timestamp(),\n        originalPost.owner().profilePic()\n            );\n    }\n    \n    \n\n    \n\n    \n}",
  "sourcePath": "/media/adam/Source/GP/Eth-Smithereens/contracts/SharedPost.sol",
  "compiler": {
    "name": "solc",
    "version": "0.5.0+commit.1d4f565a.Emscripten.clang"
  },
  "schemaVersion": "3.0.1",
  "updatedAt": "2019-06-22T05:45:47.467Z",
  "devdoc": {
    "methods": {}
  },
  "userdoc": {
    "methods": {}
  }
}