{
  "contractName": "User",
  "abi": [
    {
      "constant": true,
      "inputs": [
        {
          "name": "",
          "type": "address"
        }
      ],
      "name": "followersIndex",
      "outputs": [
        {
          "name": "",
          "type": "uint256"
        }
      ],
      "payable": false,
      "stateMutability": "view",
      "type": "function"
    },
    {
      "constant": true,
      "inputs": [],
      "name": "name",
      "outputs": [
        {
          "name": "",
          "type": "string"
        }
      ],
      "payable": false,
      "stateMutability": "view",
      "type": "function"
    },
    {
      "constant": true,
      "inputs": [
        {
          "name": "",
          "type": "uint256"
        }
      ],
      "name": "followers",
      "outputs": [
        {
          "name": "",
          "type": "address"
        }
      ],
      "payable": false,
      "stateMutability": "view",
      "type": "function"
    },
    {
      "constant": true,
      "inputs": [],
      "name": "walletAddress",
      "outputs": [
        {
          "name": "",
          "type": "address"
        }
      ],
      "payable": false,
      "stateMutability": "view",
      "type": "function"
    },
    {
      "constant": true,
      "inputs": [],
      "name": "email",
      "outputs": [
        {
          "name": "",
          "type": "string"
        }
      ],
      "payable": false,
      "stateMutability": "view",
      "type": "function"
    },
    {
      "inputs": [
        {
          "name": "wallet_address",
          "type": "address"
        },
        {
          "name": "user_name",
          "type": "string"
        },
        {
          "name": "user_email",
          "type": "string"
        }
      ],
      "payable": false,
      "stateMutability": "nonpayable",
      "type": "constructor"
    },
    {
      "constant": true,
      "inputs": [],
      "name": "getData",
      "outputs": [
        {
          "name": "",
          "type": "string"
        },
        {
          "name": "",
          "type": "string"
        },
        {
          "name": "",
          "type": "address"
        },
        {
          "name": "",
          "type": "uint256"
        }
      ],
      "payable": false,
      "stateMutability": "view",
      "type": "function"
    },
    {
      "constant": false,
      "inputs": [
        {
          "name": "new_name",
          "type": "string"
        }
      ],
      "name": "setName",
      "outputs": [],
      "payable": false,
      "stateMutability": "nonpayable",
      "type": "function"
    },
    {
      "constant": false,
      "inputs": [
        {
          "name": "new_mail",
          "type": "string"
        }
      ],
      "name": "setEmail",
      "outputs": [],
      "payable": false,
      "stateMutability": "nonpayable",
      "type": "function"
    },
    {
      "constant": false,
      "inputs": [
        {
          "name": "userAddress",
          "type": "address"
        }
      ],
      "name": "follow",
      "outputs": [],
      "payable": false,
      "stateMutability": "nonpayable",
      "type": "function"
    },
    {
      "constant": false,
      "inputs": [
        {
          "name": "userAddress",
          "type": "address"
        }
      ],
      "name": "unfollow",
      "outputs": [],
      "payable": false,
      "stateMutability": "nonpayable",
      "type": "function"
    },
    {
      "constant": true,
      "inputs": [],
      "name": "getFollowers",
      "outputs": [
        {
          "name": "",
          "type": "address[]"
        }
      ],
      "payable": false,
      "stateMutability": "view",
      "type": "function"
    }
  ],
  "bytecode": "0x60806040523480156200001157600080fd5b5060405162000f1a38038062000f1a833981018060405260608110156200003757600080fd5b810190808051906020019092919080516401000000008111156200005a57600080fd5b828101905060208101848111156200007157600080fd5b81518560018202830111640100000000821117156200008f57600080fd5b50509291906020018051640100000000811115620000ac57600080fd5b82810190506020810184811115620000c357600080fd5b8151856001820283011164010000000082111715620000e157600080fd5b5050929190505050826000806101000a81548173ffffffffffffffffffffffffffffffffffffffff021916908373ffffffffffffffffffffffffffffffffffffffff16021790555081600190805190602001906200014192919062000164565b5080600290805190602001906200015a92919062000164565b5050505062000213565b828054600181600116156101000203166002900490600052602060002090601f016020900481019282601f10620001a757805160ff1916838001178555620001d8565b82800160010185558215620001d8579182015b82811115620001d7578251825591602001919060010190620001ba565b5b509050620001e79190620001eb565b5090565b6200021091905b808211156200020c576000816000905550600101620001f2565b5090565b90565b610cf780620002236000396000f3fe6080604052600436106100af576000357c0100000000000000000000000000000000000000000000000000000000900463ffffffff168063015a4ead146100b457806304e997321461010557806306fdde031461016a5780630d79f561146101fa5780631abc901f14610266578063282b065a146102e15780633bc5de30146103a95780634dbf27cc146104df5780636ad5b3ea14610530578063820e93f514610587578063c47f002714610617575b600080fd5b3480156100c057600080fd5b50610103600480360360208110156100d757600080fd5b81019080803573ffffffffffffffffffffffffffffffffffffffff1690602001909291905050506106df565b005b34801561011157600080fd5b506101546004803603602081101561012857600080fd5b81019080803573ffffffffffffffffffffffffffffffffffffffff1690602001909291905050506107a5565b6040518082815260200191505060405180910390f35b34801561017657600080fd5b5061017f6107bd565b6040518080602001828103825283818151815260200191508051906020019080838360005b838110156101bf5780820151818401526020810190506101a4565b50505050905090810190601f1680156101ec5780820380516001836020036101000a031916815260200191505b509250505060405180910390f35b34801561020657600080fd5b5061020f61085b565b6040518080602001828103825283818151815260200191508051906020019060200280838360005b83811015610252578082015181840152602081019050610237565b505050509050019250505060405180910390f35b34801561027257600080fd5b5061029f6004803603602081101561028957600080fd5b81019080803590602001909291905050506108e9565b604051808273ffffffffffffffffffffffffffffffffffffffff1673ffffffffffffffffffffffffffffffffffffffff16815260200191505060405180910390f35b3480156102ed57600080fd5b506103a76004803603602081101561030457600080fd5b810190808035906020019064010000000081111561032157600080fd5b82018360208201111561033357600080fd5b8035906020019184600183028401116401000000008311171561035557600080fd5b91908080601f016020809104026020016040519081016040528093929190818152602001838380828437600081840152601f19601f820116905080830192505050505050509192919290505050610927565b005b3480156103b557600080fd5b506103be610941565b6040518080602001806020018573ffffffffffffffffffffffffffffffffffffffff1673ffffffffffffffffffffffffffffffffffffffff168152602001848152602001838103835287818151815260200191508051906020019080838360005b8381101561043a57808201518184015260208101905061041f565b50505050905090810190601f1680156104675780820380516001836020036101000a031916815260200191505b50838103825286818151815260200191508051906020019080838360005b838110156104a0578082015181840152602081019050610485565b50505050905090810190601f1680156104cd5780820380516001836020036101000a031916815260200191505b50965050505050505060405180910390f35b3480156104eb57600080fd5b5061052e6004803603602081101561050257600080fd5b81019080803573ffffffffffffffffffffffffffffffffffffffff169060200190929190505050610a98565b005b34801561053c57600080fd5b50610545610b49565b604051808273ffffffffffffffffffffffffffffffffffffffff1673ffffffffffffffffffffffffffffffffffffffff16815260200191505060405180910390f35b34801561059357600080fd5b5061059c610b6e565b6040518080602001828103825283818151815260200191508051906020019080838360005b838110156105dc5780820151818401526020810190506105c1565b50505050905090810190601f1680156106095780820380516001836020036101000a031916815260200191505b509250505060405180910390f35b34801561062357600080fd5b506106dd6004803603602081101561063a57600080fd5b810190808035906020019064010000000081111561065757600080fd5b82018360208201111561066957600080fd5b8035906020019184600183028401116401000000008311171561068b57600080fd5b91908080601f016020809104026020016040519081016040528093929190818152602001838380828437600081840152601f19601f820116905080830192505050505050509192919290505050610c0c565b005b60036001600460008473ffffffffffffffffffffffffffffffffffffffff1673ffffffffffffffffffffffffffffffffffffffff168152602001908152602001600020540381548110151561073057fe5b9060005260206000200160006101000a81549073ffffffffffffffffffffffffffffffffffffffff02191690556000600460008373ffffffffffffffffffffffffffffffffffffffff1673ffffffffffffffffffffffffffffffffffffffff1681526020019081526020016000208190555050565b60046020528060005260406000206000915090505481565b60018054600181600116156101000203166002900480601f0160208091040260200160405190810160405280929190818152602001828054600181600116156101000203166002900480156108535780601f1061082857610100808354040283529160200191610853565b820191906000526020600020905b81548152906001019060200180831161083657829003601f168201915b505050505081565b606060038054806020026020016040519081016040528092919081815260200182805480156108df57602002820191906000526020600020905b8160009054906101000a900473ffffffffffffffffffffffffffffffffffffffff1673ffffffffffffffffffffffffffffffffffffffff1681526020019060010190808311610895575b5050505050905090565b6003818154811015156108f857fe5b906000526020600020016000915054906101000a900473ffffffffffffffffffffffffffffffffffffffff1681565b806002908051906020019061093d929190610c26565b5050565b6060806000806001600230600380549050838054600181600116156101000203166002900480601f0160208091040260200160405190810160405280929190818152602001828054600181600116156101000203166002900480156109e75780601f106109bc576101008083540402835291602001916109e7565b820191906000526020600020905b8154815290600101906020018083116109ca57829003601f168201915b50505050509350828054600181600116156101000203166002900480601f016020809104026020016040519081016040528092919081815260200182805460018160011615610100020316600290048015610a835780601f10610a5857610100808354040283529160200191610a83565b820191906000526020600020905b815481529060010190602001808311610a6657829003601f168201915b50505050509250935093509350935090919293565b600060038290806001815401808255809150509060018203906000526020600020016000909192909190916101000a81548173ffffffffffffffffffffffffffffffffffffffff021916908373ffffffffffffffffffffffffffffffffffffffff160217905550905080600460008473ffffffffffffffffffffffffffffffffffffffff1673ffffffffffffffffffffffffffffffffffffffff168152602001908152602001600020819055505050565b6000809054906101000a900473ffffffffffffffffffffffffffffffffffffffff1681565b60028054600181600116156101000203166002900480601f016020809104026020016040519081016040528092919081815260200182805460018160011615610100020316600290048015610c045780601f10610bd957610100808354040283529160200191610c04565b820191906000526020600020905b815481529060010190602001808311610be757829003601f168201915b505050505081565b8060019080519060200190610c22929190610c26565b5050565b828054600181600116156101000203166002900490600052602060002090601f016020900481019282601f10610c6757805160ff1916838001178555610c95565b82800160010185558215610c95579182015b82811115610c94578251825591602001919060010190610c79565b5b509050610ca29190610ca6565b5090565b610cc891905b80821115610cc4576000816000905550600101610cac565b5090565b9056fea165627a7a72305820eafa9582650da086480b6591a3a2467bbdaa9ac36f854ee99ce15f3035402e770029",
  "source": "pragma solidity ^0.5.0;\n\ncontract User {\n    \n    address public walletAddress;\n    string public name;\n    string public email;\n\n    address[] public followers;\n    mapping(address => uint256) public followersIndex;\n\n    constructor (address wallet_address,string memory user_name,string memory user_email) public {\n        walletAddress = wallet_address;\n        name = user_name;\n        email = user_email;\n    }\n\n    function getData() public view returns(string memory, string memory,address,uint){\n        return (\n            name,\n            email,\n            address(this),\n            followers.length\n            );\n    }\n    \n    function setName(string memory new_name) public{\n        name = new_name;\n    }\n    \n    function setEmail(string memory new_mail) public{\n        \n        email = new_mail;\n    }\n\n    function follow(address userAddress) public {\n        uint index = followers.push(userAddress);\n        followersIndex[userAddress] = index;\n    }\n    \n    function unfollow (address userAddress) public  {\n        delete followers[followersIndex[userAddress]-1];\n        followersIndex[userAddress] = 0;\n    }\n\n    function getFollowers () public view returns(address[] memory) {\n        return followers;\n    }\n\n    \n}\n",
  "sourcePath": "/home/omar/Desktop/BSN-eth/contracts/User.sol",
  "compiler": {
    "name": "solc",
    "version": "0.5.0+commit.1d4f565a.Emscripten.clang"
  },
  "schemaVersion": "3.0.1",
  "updatedAt": "2019-05-04T21:07:23.790Z",
  "devdoc": {
    "methods": {}
  },
  "userdoc": {
    "methods": {}
  }
}