{
  "contractName": "User",
  "abi": [
    {
      "constant": true,
      "inputs": [
        {
          "name": "",
          "type": "address"
        }
      ],
      "name": "followersIndex",
      "outputs": [
        {
          "name": "",
          "type": "uint256"
        }
      ],
      "payable": false,
      "stateMutability": "view",
      "type": "function"
    },
    {
      "constant": true,
      "inputs": [],
      "name": "name",
      "outputs": [
        {
          "name": "",
          "type": "string"
        }
      ],
      "payable": false,
      "stateMutability": "view",
      "type": "function"
    },
    {
      "constant": true,
      "inputs": [],
      "name": "profilePic",
      "outputs": [
        {
          "name": "",
          "type": "string"
        }
      ],
      "payable": false,
      "stateMutability": "view",
      "type": "function"
    },
    {
      "constant": true,
      "inputs": [],
      "name": "totalVotes",
      "outputs": [
        {
          "name": "",
          "type": "uint256"
        }
      ],
      "payable": false,
      "stateMutability": "view",
      "type": "function"
    },
    {
      "constant": true,
      "inputs": [
        {
          "name": "",
          "type": "uint256"
        }
      ],
      "name": "followers",
      "outputs": [
        {
          "name": "",
          "type": "address"
        }
      ],
      "payable": false,
      "stateMutability": "view",
      "type": "function"
    },
    {
      "constant": true,
      "inputs": [],
      "name": "walletAddress",
      "outputs": [
        {
          "name": "",
          "type": "address"
        }
      ],
      "payable": false,
      "stateMutability": "view",
      "type": "function"
    },
    {
      "constant": true,
      "inputs": [],
      "name": "email",
      "outputs": [
        {
          "name": "",
          "type": "string"
        }
      ],
      "payable": false,
      "stateMutability": "view",
      "type": "function"
    },
    {
      "constant": true,
      "inputs": [],
      "name": "votes",
      "outputs": [
        {
          "name": "",
          "type": "uint256"
        }
      ],
      "payable": false,
      "stateMutability": "view",
      "type": "function"
    },
    {
      "inputs": [
        {
          "name": "wallet_address",
          "type": "address"
        },
        {
          "name": "user_name",
          "type": "string"
        },
        {
          "name": "user_email",
          "type": "string"
        }
      ],
      "payable": false,
      "stateMutability": "nonpayable",
      "type": "constructor"
    },
    {
      "constant": true,
      "inputs": [],
      "name": "getData",
      "outputs": [
        {
          "name": "",
          "type": "string"
        },
        {
          "name": "",
          "type": "string"
        },
        {
          "name": "",
          "type": "address"
        },
        {
          "name": "",
          "type": "uint256"
        },
        {
          "name": "",
          "type": "uint256"
        },
        {
          "name": "",
          "type": "string"
        }
      ],
      "payable": false,
      "stateMutability": "view",
      "type": "function"
    },
    {
      "constant": false,
      "inputs": [
        {
          "name": "new_name",
          "type": "string"
        }
      ],
      "name": "setName",
      "outputs": [],
      "payable": false,
      "stateMutability": "nonpayable",
      "type": "function"
    },
    {
      "constant": false,
      "inputs": [
        {
          "name": "new_mail",
          "type": "string"
        }
      ],
      "name": "setEmail",
      "outputs": [],
      "payable": false,
      "stateMutability": "nonpayable",
      "type": "function"
    },
    {
      "constant": false,
      "inputs": [
        {
          "name": "new_name",
          "type": "string"
        },
        {
          "name": "new_mail",
          "type": "string"
        },
        {
          "name": "profile_pic",
          "type": "string"
        }
      ],
      "name": "updateInfo",
      "outputs": [],
      "payable": false,
      "stateMutability": "nonpayable",
      "type": "function"
    },
    {
      "constant": false,
      "inputs": [
        {
          "name": "userAddress",
          "type": "address"
        }
      ],
      "name": "follow",
      "outputs": [],
      "payable": false,
      "stateMutability": "nonpayable",
      "type": "function"
    },
    {
      "constant": false,
      "inputs": [
        {
          "name": "userAddress",
          "type": "address"
        }
      ],
      "name": "unfollow",
      "outputs": [],
      "payable": false,
      "stateMutability": "nonpayable",
      "type": "function"
    },
    {
      "constant": true,
      "inputs": [],
      "name": "getFollowers",
      "outputs": [
        {
          "name": "",
          "type": "address[]"
        }
      ],
      "payable": false,
      "stateMutability": "view",
      "type": "function"
    },
    {
      "constant": true,
      "inputs": [
        {
          "name": "wallet_address",
          "type": "address"
        }
      ],
      "name": "isOwner",
      "outputs": [
        {
          "name": "",
          "type": "bool"
        }
      ],
      "payable": false,
      "stateMutability": "view",
      "type": "function"
    },
    {
      "constant": true,
      "inputs": [],
      "name": "getTotalAverageVotes",
      "outputs": [
        {
          "name": "",
          "type": "uint256"
        }
      ],
      "payable": false,
      "stateMutability": "view",
      "type": "function"
    },
    {
      "constant": false,
      "inputs": [
        {
          "name": "vote",
          "type": "uint256"
        }
      ],
      "name": "addVoteValue",
      "outputs": [],
      "payable": false,
      "stateMutability": "nonpayable",
      "type": "function"
    },
    {
      "constant": false,
      "inputs": [
        {
          "name": "vote",
          "type": "uint256"
        }
      ],
      "name": "subVoteValue",
      "outputs": [],
      "payable": false,
      "stateMutability": "nonpayable",
      "type": "function"
    },
    {
      "constant": false,
      "inputs": [],
      "name": "addTotalVotes",
      "outputs": [],
      "payable": false,
      "stateMutability": "nonpayable",
      "type": "function"
    }
  ],
  "bytecode": "0x6080604052600060045560006005553480156200001b57600080fd5b5060405162001d0f38038062001d0f833981018060405260608110156200004157600080fd5b810190808051906020019092919080516401000000008111156200006457600080fd5b828101905060208101848111156200007b57600080fd5b81518560018202830111640100000000821117156200009957600080fd5b50509291906020018051640100000000811115620000b657600080fd5b82810190506020810184811115620000cd57600080fd5b8151856001820283011164010000000082111715620000eb57600080fd5b5050929190505050826000806101000a81548173ffffffffffffffffffffffffffffffffffffffff021916908373ffffffffffffffffffffffffffffffffffffffff16021790555081600190805190602001906200014b929190620001bc565b50806002908051906020019062000164929190620001bc565b506040805190810160405280600481526020017f6e756c6c0000000000000000000000000000000000000000000000000000000081525060039080519060200190620001b2929190620001bc565b505050506200026b565b828054600181600116156101000203166002900490600052602060002090601f016020900481019282601f10620001ff57805160ff191683800117855562000230565b8280016001018555821562000230579182015b828111156200022f57825182559160200191906001019062000212565b5b5090506200023f919062000243565b5090565b6200026891905b80821115620002645760008160009055506001016200024a565b5090565b90565b611a94806200027b6000396000f3fe608060405260043610610112576000357c0100000000000000000000000000000000000000000000000000000000900463ffffffff168063015a4ead146101175780630381dc931461016857806304e99732146101a357806306fdde03146102085780630aaf1530146102985780630d15fd77146103285780630d79f561146103535780631abc901f146103bf578063282b065a1461043a5780632f54bf6e146105025780633bc5de301461056b5780633de3f629146107145780634dbf27cc1461074f57806355cbabd7146107a05780636ad5b3ea146107cb578063820e93f5146108225780638b737472146108b2578063a4a21c3c146108c9578063c47f002714610abf578063e168c3ec14610b87575b600080fd5b34801561012357600080fd5b506101666004803603602081101561013a57600080fd5b81019080803573ffffffffffffffffffffffffffffffffffffffff169060200190929190505050610bb2565b005b34801561017457600080fd5b506101a16004803603602081101561018b57600080fd5b8101908080359060200190929190505050610d30565b005b3480156101af57600080fd5b506101f2600480360360208110156101c657600080fd5b81019080803573ffffffffffffffffffffffffffffffffffffffff169060200190929190505050610d43565b6040518082815260200191505060405180910390f35b34801561021457600080fd5b5061021d610d5b565b6040518080602001828103825283818151815260200191508051906020019080838360005b8381101561025d578082015181840152602081019050610242565b50505050905090810190601f16801561028a5780820380516001836020036101000a031916815260200191505b509250505060405180910390f35b3480156102a457600080fd5b506102ad610df9565b6040518080602001828103825283818151815260200191508051906020019080838360005b838110156102ed5780820151818401526020810190506102d2565b50505050905090810190601f16801561031a5780820380516001836020036101000a031916815260200191505b509250505060405180910390f35b34801561033457600080fd5b5061033d610e97565b6040518082815260200191505060405180910390f35b34801561035f57600080fd5b50610368610e9d565b6040518080602001828103825283818151815260200191508051906020019060200280838360005b838110156103ab578082015181840152602081019050610390565b505050509050019250505060405180910390f35b3480156103cb57600080fd5b506103f8600480360360208110156103e257600080fd5b8101908080359060200190929190505050610f2b565b604051808273ffffffffffffffffffffffffffffffffffffffff1673ffffffffffffffffffffffffffffffffffffffff16815260200191505060405180910390f35b34801561044657600080fd5b506105006004803603602081101561045d57600080fd5b810190808035906020019064010000000081111561047a57600080fd5b82018360208201111561048c57600080fd5b803590602001918460018302840111640100000000831117156104ae57600080fd5b91908080601f016020809104026020016040519081016040528093929190818152602001838380828437600081840152601f19601f820116905080830192505050505050509192919290505050610f69565b005b34801561050e57600080fd5b506105516004803603602081101561052557600080fd5b81019080803573ffffffffffffffffffffffffffffffffffffffff16906020019092919050505061106d565b604051808215151515815260200191505060405180910390f35b34801561057757600080fd5b506105806110d7565b6040518080602001806020018773ffffffffffffffffffffffffffffffffffffffff1673ffffffffffffffffffffffffffffffffffffffff1681526020018681526020018581526020018060200184810384528a818151815260200191508051906020019080838360005b838110156106065780820151818401526020810190506105eb565b50505050905090810190601f1680156106335780820380516001836020036101000a031916815260200191505b50848103835289818151815260200191508051906020019080838360005b8381101561066c578082015181840152602081019050610651565b50505050905090810190601f1680156106995780820380516001836020036101000a031916815260200191505b50848103825285818151815260200191508051906020019080838360005b838110156106d25780820151818401526020810190506106b7565b50505050905090810190601f1680156106ff5780820380516001836020036101000a031916815260200191505b50995050505050505050505060405180910390f35b34801561072057600080fd5b5061074d6004803603602081101561073757600080fd5b81019080803590602001909291905050506114f6565b005b34801561075b57600080fd5b5061079e6004803603602081101561077257600080fd5b81019080803573ffffffffffffffffffffffffffffffffffffffff169060200190929190505050611509565b005b3480156107ac57600080fd5b506107b5611697565b6040518082815260200191505060405180910390f35b3480156107d757600080fd5b506107e06116ae565b604051808273ffffffffffffffffffffffffffffffffffffffff1673ffffffffffffffffffffffffffffffffffffffff16815260200191505060405180910390f35b34801561082e57600080fd5b506108376116d3565b6040518080602001828103825283818151815260200191508051906020019080838360005b8381101561087757808201518184015260208101905061085c565b50505050905090810190601f1680156108a45780820380516001836020036101000a031916815260200191505b509250505060405180910390f35b3480156108be57600080fd5b506108c7611771565b005b3480156108d557600080fd5b50610abd600480360360608110156108ec57600080fd5b810190808035906020019064010000000081111561090957600080fd5b82018360208201111561091b57600080fd5b8035906020019184600183028401116401000000008311171561093d57600080fd5b91908080601f016020809104026020016040519081016040528093929190818152602001838380828437600081840152601f19601f820116905080830192505050505050509192919290803590602001906401000000008111156109a057600080fd5b8201836020820111156109b257600080fd5b803590602001918460018302840111640100000000831117156109d457600080fd5b91908080601f016020809104026020016040519081016040528093929190818152602001838380828437600081840152601f19601f82011690508083019250505050505050919291929080359060200190640100000000811115610a3757600080fd5b820183602082011115610a4957600080fd5b80359060200191846001830284011164010000000083111715610a6b57600080fd5b91908080601f016020809104026020016040519081016040528093929190818152602001838380828437600081840152601f19601f820116905080830192505050505050509192919290505050611785565b005b348015610acb57600080fd5b50610b8560048036036020811015610ae257600080fd5b8101908080359060200190640100000000811115610aff57600080fd5b820183602082011115610b1157600080fd5b80359060200191846001830284011164010000000083111715610b3357600080fd5b91908080601f016020809104026020016040519081016040528093929190818152602001838380828437600081840152601f19601f8201169050808301925050505050505091929192905050506118b9565b005b348015610b9357600080fd5b50610b9c6119bd565b6040518082815260200191505060405180910390f35b6000600760008373ffffffffffffffffffffffffffffffffffffffff1673ffffffffffffffffffffffffffffffffffffffff1681526020019081526020016000205414151515610c6a576040517f08c379a000000000000000000000000000000000000000000000000000000000815260040180806020018281038252601f8152602001807f596f7520617265206e6f7420666f6c6c6f77696e67207468697320757365720081525060200191505060405180910390fd5b60066001600760008473ffffffffffffffffffffffffffffffffffffffff1673ffffffffffffffffffffffffffffffffffffffff1681526020019081526020016000205403815481101515610cbb57fe5b9060005260206000200160006101000a81549073ffffffffffffffffffffffffffffffffffffffff02191690556000600760008373ffffffffffffffffffffffffffffffffffffffff1673ffffffffffffffffffffffffffffffffffffffff1681526020019081526020016000208190555050565b8060046000828254039250508190555050565b60076020528060005260406000206000915090505481565b60018054600181600116156101000203166002900480601f016020809104026020016040519081016040528092919081815260200182805460018160011615610100020316600290048015610df15780601f10610dc657610100808354040283529160200191610df1565b820191906000526020600020905b815481529060010190602001808311610dd457829003601f168201915b505050505081565b60038054600181600116156101000203166002900480601f016020809104026020016040519081016040528092919081815260200182805460018160011615610100020316600290048015610e8f5780601f10610e6457610100808354040283529160200191610e8f565b820191906000526020600020905b815481529060010190602001808311610e7257829003601f168201915b505050505081565b60055481565b60606006805480602002602001604051908101604052809291908181526020018280548015610f2157602002820191906000526020600020905b8160009054906101000a900473ffffffffffffffffffffffffffffffffffffffff1673ffffffffffffffffffffffffffffffffffffffff1681526020019060010190808311610ed7575b5050505050905090565b600681815481101515610f3a57fe5b906000526020600020016000915054906101000a900473ffffffffffffffffffffffffffffffffffffffff1681565b3373ffffffffffffffffffffffffffffffffffffffff166000809054906101000a900473ffffffffffffffffffffffffffffffffffffffff1673ffffffffffffffffffffffffffffffffffffffff16141515611053576040517f08c379a00000000000000000000000000000000000000000000000000000000081526004018080602001828103825260258152602001807f596f7520617265206e6f7420746865206f776e6572206f662074686520636f6e81526020017f747261637400000000000000000000000000000000000000000000000000000081525060400191505060405180910390fd5b80600290805190602001906110699291906119c3565b5050565b60008173ffffffffffffffffffffffffffffffffffffffff166000809054906101000a900473ffffffffffffffffffffffffffffffffffffffff1673ffffffffffffffffffffffffffffffffffffffff1614156110cd57600190506110d2565b600090505b919050565b60608060008060006060600060045414806110f457506000600554145b156112f057600160023060068054905060006003858054600181600116156101000203166002900480601f01602080910402602001604051908101604052809291908181526020018280546001816001161561010002031660029004801561119d5780601f106111725761010080835404028352916020019161119d565b820191906000526020600020905b81548152906001019060200180831161118057829003601f168201915b50505050509550848054600181600116156101000203166002900480601f0160208091040260200160405190810160405280929190818152602001828054600181600116156101000203166002900480156112395780601f1061120e57610100808354040283529160200191611239565b820191906000526020600020905b81548152906001019060200180831161121c57829003601f168201915b50505050509450819150808054600181600116156101000203166002900480601f0160208091040260200160405190810160405280929190818152602001828054600181600116156101000203166002900480156112d85780601f106112ad576101008083540402835291602001916112d8565b820191906000526020600020905b8154815290600101906020018083116112bb57829003601f168201915b505050505090509550955095509550955095506114ee565b600160023060068054905060055460045481151561130a57fe5b046003858054600181600116156101000203166002900480601f0160208091040260200160405190810160405280929190818152602001828054600181600116156101000203166002900480156113a25780601f10611377576101008083540402835291602001916113a2565b820191906000526020600020905b81548152906001019060200180831161138557829003601f168201915b50505050509550848054600181600116156101000203166002900480601f01602080910402602001604051908101604052809291908181526020018280546001816001161561010002031660029004801561143e5780601f106114135761010080835404028352916020019161143e565b820191906000526020600020905b81548152906001019060200180831161142157829003601f168201915b50505050509450808054600181600116156101000203166002900480601f0160208091040260200160405190810160405280929190818152602001828054600181600116156101000203166002900480156114da5780601f106114af576101008083540402835291602001916114da565b820191906000526020600020905b8154815290600101906020018083116114bd57829003601f168201915b505050505090509550955095509550955095505b909192939495565b8060046000828254019250508190555050565b6000600760008373ffffffffffffffffffffffffffffffffffffffff1673ffffffffffffffffffffffffffffffffffffffff168152602001908152602001600020541415156115e6576040517f08c379a00000000000000000000000000000000000000000000000000000000081526004018080602001828103825260228152602001807f596f75206861766520666f6c6c6f77656420746869732075736572206265666f81526020017f726500000000000000000000000000000000000000000000000000000000000081525060400191505060405180910390fd5b600060068290806001815401808255809150509060018203906000526020600020016000909192909190916101000a81548173ffffffffffffffffffffffffffffffffffffffff021916908373ffffffffffffffffffffffffffffffffffffffff160217905550905080600760008473ffffffffffffffffffffffffffffffffffffffff1673ffffffffffffffffffffffffffffffffffffffff168152602001908152602001600020819055505050565b60006005546004548115156116a857fe5b04905090565b6000809054906101000a900473ffffffffffffffffffffffffffffffffffffffff1681565b60028054600181600116156101000203166002900480601f0160208091040260200160405190810160405280929190818152602001828054600181600116156101000203166002900480156117695780601f1061173e57610100808354040283529160200191611769565b820191906000526020600020905b81548152906001019060200180831161174c57829003601f168201915b505050505081565b600560008154809291906001019190505550565b3373ffffffffffffffffffffffffffffffffffffffff166000809054906101000a900473ffffffffffffffffffffffffffffffffffffffff1673ffffffffffffffffffffffffffffffffffffffff1614151561186f576040517f08c379a00000000000000000000000000000000000000000000000000000000081526004018080602001828103825260258152602001807f596f7520617265206e6f7420746865206f776e6572206f662074686520636f6e81526020017f747261637400000000000000000000000000000000000000000000000000000081525060400191505060405180910390fd5b82600190805190602001906118859291906119c3565b50816002908051906020019061189c9291906119c3565b5080600390805190602001906118b39291906119c3565b50505050565b3373ffffffffffffffffffffffffffffffffffffffff166000809054906101000a900473ffffffffffffffffffffffffffffffffffffffff1673ffffffffffffffffffffffffffffffffffffffff161415156119a3576040517f08c379a00000000000000000000000000000000000000000000000000000000081526004018080602001828103825260258152602001807f596f7520617265206e6f7420746865206f776e6572206f662074686520636f6e81526020017f747261637400000000000000000000000000000000000000000000000000000081525060400191505060405180910390fd5b80600190805190602001906119b99291906119c3565b5050565b60045481565b828054600181600116156101000203166002900490600052602060002090601f016020900481019282601f10611a0457805160ff1916838001178555611a32565b82800160010185558215611a32579182015b82811115611a31578251825591602001919060010190611a16565b5b509050611a3f9190611a43565b5090565b611a6591905b80821115611a61576000816000905550600101611a49565b5090565b9056fea165627a7a723058201b59e3d4140772cde8aee482cd1cef73921de8e16ef38f63c664bbfc185ebfc10029",
  "source": "pragma solidity ^0.5.0;\n\ncontract User {\n\n    address public walletAddress;\n    string public name;\n    string public email;\n    string public profilePic;\n    uint public votes =  0;\n    uint public  totalVotes = 0;\n    address[] public followers;\n    mapping(address => uint256) public followersIndex;\n\n    constructor (address wallet_address,string memory user_name,string memory user_email) public {\n        walletAddress = wallet_address;\n        name = user_name;\n        email = user_email;\n        profilePic = \"null\";\n\n    }\n\n    function getData() public view returns(string memory, string memory,address,uint,uint, string memory){\n        if(votes == 0 || totalVotes == 0 ){\n          return (\n            name,\n            email,\n            address(this),\n            followers.length,\n            0,\n            profilePic\n            );\n        }\n\n        return (\n            name,\n            email,\n            address(this),\n            followers.length,\n            votes/totalVotes,\n            profilePic\n            );\n    }\n\n    function setName(string memory new_name) public{\n        require(walletAddress==msg.sender,\"You are not the owner of the contract\");\n        name = new_name;\n\n    }\n\n    function setEmail(string memory new_mail) public{\n        require(walletAddress==msg.sender,\"You are not the owner of the contract\");\n        email = new_mail;\n    }\n\n    function updateInfo(string memory new_name,string memory new_mail, string memory profile_pic) public{\n        require(walletAddress==msg.sender,\"You are not the owner of the contract\");\n        name = new_name;\n        email = new_mail;\n        profilePic = profile_pic;\n    }\n\n    function follow(address userAddress) public {\n        require(followersIndex[userAddress] == 0,\"You have followed this user before\");\n        uint index = followers.push(userAddress);\n        followersIndex[userAddress] = index;\n    }\n\n    function unfollow (address userAddress) public  {\n        require (followersIndex[userAddress] != 0, \"You are not following this user\");\n        delete followers[followersIndex[userAddress]-1];\n        followersIndex[userAddress] = 0;\n    }\n\n    function getFollowers () public view returns(address[] memory) {\n        return followers;\n    }\n\n    function isOwner(address wallet_address) public view returns(bool){\n        if(walletAddress==wallet_address)\n            return true;\n        else\n            return false;\n    }\n\n    function getTotalAverageVotes() public view returns (uint) {\n       return votes/totalVotes;\n    }\n\n    function addVoteValue(uint vote) public {\n        votes += vote;\n    }\n\n    function subVoteValue(uint vote) public {\n        votes -= vote;\n    }\n\n    function addTotalVotes() public {\n        totalVotes++;\n    }\n\n\n\n\n}\n",
  "sourcePath": "/media/adam/Source/GP/Eth-Smithereens/contracts/User.sol",
  "compiler": {
    "name": "solc",
    "version": "0.5.0+commit.1d4f565a.Emscripten.clang"
  },
  "schemaVersion": "3.0.1",
  "updatedAt": "2019-06-22T05:45:47.468Z",
  "devdoc": {
    "methods": {}
  },
  "userdoc": {
    "methods": {}
  }
}