{
  "contractName": "UserFactory",
  "abi": [
    {
      "constant": true,
      "inputs": [
        {
          "name": "",
          "type": "uint256"
        }
      ],
      "name": "users",
      "outputs": [
        {
          "name": "",
          "type": "address"
        }
      ],
      "payable": false,
      "stateMutability": "view",
      "type": "function"
    },
    {
      "constant": true,
      "inputs": [
        {
          "name": "",
          "type": "address"
        }
      ],
      "name": "usersIndexer",
      "outputs": [
        {
          "name": "",
          "type": "uint256"
        }
      ],
      "payable": false,
      "stateMutability": "view",
      "type": "function"
    },
    {
      "constant": false,
      "inputs": [
        {
          "name": "name",
          "type": "string"
        },
        {
          "name": "email",
          "type": "string"
        }
      ],
      "name": "createUser",
      "outputs": [],
      "payable": false,
      "stateMutability": "nonpayable",
      "type": "function"
    },
    {
      "constant": true,
      "inputs": [
        {
          "name": "wallet_address",
          "type": "address"
        }
      ],
      "name": "getUserAddress",
      "outputs": [
        {
          "name": "",
          "type": "address"
        }
      ],
      "payable": false,
      "stateMutability": "view",
      "type": "function"
    },
    {
      "constant": true,
      "inputs": [
        {
          "name": "wallet_address",
          "type": "address"
        }
      ],
      "name": "getUser",
      "outputs": [
        {
          "name": "",
          "type": "string"
        },
        {
          "name": "",
          "type": "string"
        },
        {
          "name": "",
          "type": "address"
        },
        {
          "name": "",
          "type": "uint256"
        },
        {
          "name": "",
          "type": "uint256"
        },
        {
          "name": "",
          "type": "string"
        },
        {
          "name": "",
          "type": "uint256"
        },
        {
          "name": "",
          "type": "string"
        },
        {
          "name": "",
          "type": "uint256"
        }
      ],
      "payable": false,
      "stateMutability": "view",
      "type": "function"
    },
    {
      "constant": true,
      "inputs": [],
      "name": "getUsers",
      "outputs": [
        {
          "name": "",
          "type": "address[]"
        }
      ],
      "payable": false,
      "stateMutability": "view",
      "type": "function"
    },
    {
      "constant": true,
      "inputs": [
        {
          "name": "wallet_address",
          "type": "address"
        }
      ],
      "name": "checkUserExists",
      "outputs": [
        {
          "name": "",
          "type": "bool"
        }
      ],
      "payable": false,
      "stateMutability": "view",
      "type": "function"
    }
  ],
  "bytecode": "0x608060405234801561001057600080fd5b50613129806100206000396000f3fe608060405260043610610082576000357c0100000000000000000000000000000000000000000000000000000000900463ffffffff168062ce8e3e14610087578063133f50f5146100f3578063365b98b21461015c5780634d6849d2146101d75780636f77926b1461026857806387b162b5146104c557806397b8535e14610624575b600080fd5b34801561009357600080fd5b5061009c610689565b6040518080602001828103825283818151815260200191508051906020019060200280838360005b838110156100df5780820151818401526020810190506100c4565b505050509050019250505060405180910390f35b3480156100ff57600080fd5b506101426004803603602081101561011657600080fd5b81019080803573ffffffffffffffffffffffffffffffffffffffff169060200190929190505050610717565b604051808215151515815260200191505060405180910390f35b34801561016857600080fd5b506101956004803603602081101561017f57600080fd5b8101908080359060200190929190505050610773565b604051808273ffffffffffffffffffffffffffffffffffffffff1673ffffffffffffffffffffffffffffffffffffffff16815260200191505060405180910390f35b3480156101e357600080fd5b50610226600480360360208110156101fa57600080fd5b81019080803573ffffffffffffffffffffffffffffffffffffffff1690602001909291905050506107b1565b604051808273ffffffffffffffffffffffffffffffffffffffff1673ffffffffffffffffffffffffffffffffffffffff16815260200191505060405180910390f35b34801561027457600080fd5b506102b76004803603602081101561028b57600080fd5b81019080803573ffffffffffffffffffffffffffffffffffffffff1690602001909291905050506108b1565b6040518080602001806020018a73ffffffffffffffffffffffffffffffffffffffff1673ffffffffffffffffffffffffffffffffffffffff168152602001898152602001888152602001806020018781526020018060200186815260200185810385528e818151815260200191508051906020019080838360005b8381101561034d578082015181840152602081019050610332565b50505050905090810190601f16801561037a5780820380516001836020036101000a031916815260200191505b5085810384528d818151815260200191508051906020019080838360005b838110156103b3578082015181840152602081019050610398565b50505050905090810190601f1680156103e05780820380516001836020036101000a031916815260200191505b50858103835289818151815260200191508051906020019080838360005b838110156104195780820151818401526020810190506103fe565b50505050905090810190601f1680156104465780820380516001836020036101000a031916815260200191505b50858103825287818151815260200191508051906020019080838360005b8381101561047f578082015181840152602081019050610464565b50505050905090810190601f1680156104ac5780820380516001836020036101000a031916815260200191505b509d505050505050505050505050505060405180910390f35b3480156104d157600080fd5b50610622600480360360408110156104e857600080fd5b810190808035906020019064010000000081111561050557600080fd5b82018360208201111561051757600080fd5b8035906020019184600183028401116401000000008311171561053957600080fd5b91908080601f016020809104026020016040519081016040528093929190818152602001838380828437600081840152601f19601f8201169050808301925050505050505091929192908035906020019064010000000081111561059c57600080fd5b8201836020820111156105ae57600080fd5b803590602001918460018302840111640100000000831117156105d057600080fd5b91908080601f016020809104026020016040519081016040528093929190818152602001838380828437600081840152601f19601f820116905080830192505050505050509192919290505050610bf2565b005b34801561063057600080fd5b506106736004803603602081101561064757600080fd5b81019080803573ffffffffffffffffffffffffffffffffffffffff169060200190929190505050610e5d565b6040518082815260200191505060405180910390f35b6060600180548060200260200160405190810160405280929190818152602001828054801561070d57602002820191906000526020600020905b8160009054906101000a900473ffffffffffffffffffffffffffffffffffffffff1673ffffffffffffffffffffffffffffffffffffffff16815260200190600101908083116106c3575b5050505050905090565b6000806000808473ffffffffffffffffffffffffffffffffffffffff1673ffffffffffffffffffffffffffffffffffffffff16815260200190815260200160002054141515610769576001905061076e565b600090505b919050565b60018181548110151561078257fe5b906000526020600020016000915054906101000a900473ffffffffffffffffffffffffffffffffffffffff1681565b60006107bc82610717565b1515610830576040517f08c379a00000000000000000000000000000000000000000000000000000000081526004018080602001828103825260128152602001807f5573657220646f65736e2774206578697473000000000000000000000000000081525060200191505060405180910390fd5b6001806000808573ffffffffffffffffffffffffffffffffffffffff1673ffffffffffffffffffffffffffffffffffffffff168152602001908152602001600020540381548110151561087f57fe5b9060005260206000200160009054906101000a900473ffffffffffffffffffffffffffffffffffffffff169050919050565b606080600080600060606000606060006108ca8a610717565b151561093e576040517f08c379a00000000000000000000000000000000000000000000000000000000081526004018080602001828103825260128152602001807f5573657220646f65736e2774206578697473000000000000000000000000000081525060200191505060405180910390fd5b60006001806000808e73ffffffffffffffffffffffffffffffffffffffff1673ffffffffffffffffffffffffffffffffffffffff168152602001908152602001600020540381548110151561098f57fe5b9060005260206000200160009054906101000a900473ffffffffffffffffffffffffffffffffffffffff1690508073ffffffffffffffffffffffffffffffffffffffff16633bc5de306040518163ffffffff167c010000000000000000000000000000000000000000000000000000000002815260040160006040518083038186803b158015610a1e57600080fd5b505afa158015610a32573d6000803e3d6000fd5b505050506040513d6000823e3d601f19601f82011682018060405250610120811015610a5d57600080fd5b810190808051640100000000811115610a7557600080fd5b82810190506020810184811115610a8b57600080fd5b8151856001820283011164010000000082111715610aa857600080fd5b50509291906020018051640100000000811115610ac457600080fd5b82810190506020810184811115610ada57600080fd5b8151856001820283011164010000000082111715610af757600080fd5b50509291906020018051906020019092919080519060200190929190805190602001909291908051640100000000811115610b3157600080fd5b82810190506020810184811115610b4757600080fd5b8151856001820283011164010000000082111715610b6457600080fd5b5050929190602001805190602001909291908051640100000000811115610b8a57600080fd5b82810190506020810184811115610ba057600080fd5b8151856001820283011164010000000082111715610bbd57600080fd5b505092919060200180519060200190929190505050995099509950995099509950995099509950509193959799909294969850565b610bfb33610717565b151515610c70576040517f08c379a00000000000000000000000000000000000000000000000000000000081526004018080602001828103825260128152602001807f596f7520616c726561647920657869737473000000000000000000000000000081525060200191505060405180910390fd5b6000338383610c7d610e75565b808473ffffffffffffffffffffffffffffffffffffffff1673ffffffffffffffffffffffffffffffffffffffff1681526020018060200180602001838103835285818151815260200191508051906020019080838360005b83811015610cf0578082015181840152602081019050610cd5565b50505050905090810190601f168015610d1d5780820380516001836020036101000a031916815260200191505b50838103825284818151815260200191508051906020019080838360005b83811015610d56578082015181840152602081019050610d3b565b50505050905090810190601f168015610d835780820380516001836020036101000a031916815260200191505b5095505050505050604051809103906000f080158015610da7573d6000803e3d6000fd5b50905060018190806001815401808255809150509060018203906000526020600020016000909192909190916101000a81548173ffffffffffffffffffffffffffffffffffffffff021916908373ffffffffffffffffffffffffffffffffffffffff160217905550506001805490506000803373ffffffffffffffffffffffffffffffffffffffff1673ffffffffffffffffffffffffffffffffffffffff16815260200190815260200160002081905550505050565b60006020528060005260406000206000915090505481565b6040516122778062000e878339019056fe60806040526000600555600060065560006008553480156200002057600080fd5b506040516200227738038062002277833981018060405260608110156200004657600080fd5b810190808051906020019092919080516401000000008111156200006957600080fd5b828101905060208101848111156200008057600080fd5b81518560018202830111640100000000821117156200009e57600080fd5b50509291906020018051640100000000811115620000bb57600080fd5b82810190506020810184811115620000d257600080fd5b8151856001820283011164010000000082111715620000f057600080fd5b5050929190505050826000806101000a81548173ffffffffffffffffffffffffffffffffffffffff021916908373ffffffffffffffffffffffffffffffffffffffff160217905550816001908051906020019062000150929190620001c8565b50806002908051906020019062000169929190620001c8565b506040805190810160405280600481526020017f6e756c6c0000000000000000000000000000000000000000000000000000000081525060039080519060200190620001b7929190620001c8565b504260098190555050505062000277565b828054600181600116156101000203166002900490600052602060002090601f016020900481019282601f106200020b57805160ff19168380011785556200023c565b828001600101855582156200023c579182015b828111156200023b5782518255916020019190600101906200021e565b5b5090506200024b91906200024f565b5090565b6200027491905b808211156200027057600081600090555060010162000256565b5090565b90565b611ff080620002876000396000f3fe608060405260043610610149576000357c0100000000000000000000000000000000000000000000000000000000900463ffffffff168063015a4ead1461014e5780630381dc931461019f57806304e99732146101da57806306fdde031461023f5780630aaf1530146102cf5780630d15fd771461035f5780630d79f5611461038a5780631abc901f146103f65780631d94dff114610471578063282b065a1461049c5780632f54bf6e146105645780633bc5de30146105cd5780633de3f629146107f05780634dbf27cc1461082b578063542587f91461087c57806355cbabd7146108935780635e1d5482146108be578063679aefce1461094e5780636878e171146109795780636ad5b3ea14610c06578063820e93f514610c5d5780638b73747214610ced578063b80777ea14610d04578063c47f002714610d2f578063e168c3ec14610df7575b600080fd5b34801561015a57600080fd5b5061019d6004803603602081101561017157600080fd5b81019080803573ffffffffffffffffffffffffffffffffffffffff169060200190929190505050610e22565b005b3480156101ab57600080fd5b506101d8600480360360208110156101c257600080fd5b8101908080359060200190929190505050610fa0565b005b3480156101e657600080fd5b50610229600480360360208110156101fd57600080fd5b81019080803573ffffffffffffffffffffffffffffffffffffffff169060200190929190505050610fb3565b6040518082815260200191505060405180910390f35b34801561024b57600080fd5b50610254610fcb565b6040518080602001828103825283818151815260200191508051906020019080838360005b83811015610294578082015181840152602081019050610279565b50505050905090810190601f1680156102c15780820380516001836020036101000a031916815260200191505b509250505060405180910390f35b3480156102db57600080fd5b506102e4611069565b6040518080602001828103825283818151815260200191508051906020019080838360005b83811015610324578082015181840152602081019050610309565b50505050905090810190601f1680156103515780820380516001836020036101000a031916815260200191505b509250505060405180910390f35b34801561036b57600080fd5b50610374611107565b6040518082815260200191505060405180910390f35b34801561039657600080fd5b5061039f61110d565b6040518080602001828103825283818151815260200191508051906020019060200280838360005b838110156103e25780820151818401526020810190506103c7565b505050509050019250505060405180910390f35b34801561040257600080fd5b5061042f6004803603602081101561041957600080fd5b810190808035906020019092919050505061119b565b604051808273ffffffffffffffffffffffffffffffffffffffff1673ffffffffffffffffffffffffffffffffffffffff16815260200191505060405180910390f35b34801561047d57600080fd5b506104866111d9565b6040518082815260200191505060405180910390f35b3480156104a857600080fd5b50610562600480360360208110156104bf57600080fd5b81019080803590602001906401000000008111156104dc57600080fd5b8201836020820111156104ee57600080fd5b8035906020019184600183028401116401000000008311171561051057600080fd5b91908080601f016020809104026020016040519081016040528093929190818152602001838380828437600081840152601f19601f8201169050808301925050505050505091929192905050506111df565b005b34801561057057600080fd5b506105b36004803603602081101561058757600080fd5b81019080803573ffffffffffffffffffffffffffffffffffffffff1690602001909291905050506112e3565b604051808215151515815260200191505060405180910390f35b3480156105d957600080fd5b506105e261134d565b6040518080602001806020018a73ffffffffffffffffffffffffffffffffffffffff1673ffffffffffffffffffffffffffffffffffffffff168152602001898152602001888152602001806020018781526020018060200186815260200185810385528e818151815260200191508051906020019080838360005b8381101561067857808201518184015260208101905061065d565b50505050905090810190601f1680156106a55780820380516001836020036101000a031916815260200191505b5085810384528d818151815260200191508051906020019080838360005b838110156106de5780820151818401526020810190506106c3565b50505050905090810190601f16801561070b5780820380516001836020036101000a031916815260200191505b50858103835289818151815260200191508051906020019080838360005b83811015610744578082015181840152602081019050610729565b50505050905090810190601f1680156107715780820380516001836020036101000a031916815260200191505b50858103825287818151815260200191508051906020019080838360005b838110156107aa57808201518184015260208101905061078f565b50505050905090810190601f1680156107d75780820380516001836020036101000a031916815260200191505b509d505050505050505050505050505060405180910390f35b3480156107fc57600080fd5b506108296004803603602081101561081357600080fd5b81019080803590602001909291905050506118c8565b005b34801561083757600080fd5b5061087a6004803603602081101561084e57600080fd5b81019080803573ffffffffffffffffffffffffffffffffffffffff1690602001909291905050506118db565b005b34801561088857600080fd5b50610891611aeb565b005b34801561089f57600080fd5b506108a8611aff565b6040518082815260200191505060405180910390f35b3480156108ca57600080fd5b506108d3611b16565b6040518080602001828103825283818151815260200191508051906020019080838360005b838110156109135780820151818401526020810190506108f8565b50505050905090810190601f1680156109405780820380516001836020036101000a031916815260200191505b509250505060405180910390f35b34801561095a57600080fd5b50610963611bb4565b6040518082815260200191505060405180910390f35b34801561098557600080fd5b50610c046004803603608081101561099c57600080fd5b81019080803590602001906401000000008111156109b957600080fd5b8201836020820111156109cb57600080fd5b803590602001918460018302840111640100000000831117156109ed57600080fd5b91908080601f016020809104026020016040519081016040528093929190818152602001838380828437600081840152601f19601f82011690508083019250505050505050919291929080359060200190640100000000811115610a5057600080fd5b820183602082011115610a6257600080fd5b80359060200191846001830284011164010000000083111715610a8457600080fd5b91908080601f016020809104026020016040519081016040528093929190818152602001838380828437600081840152601f19601f82011690508083019250505050505050919291929080359060200190640100000000811115610ae757600080fd5b820183602082011115610af957600080fd5b80359060200191846001830284011164010000000083111715610b1b57600080fd5b91908080601f016020809104026020016040519081016040528093929190818152602001838380828437600081840152601f19601f82011690508083019250505050505050919291929080359060200190640100000000811115610b7e57600080fd5b820183602082011115610b9057600080fd5b80359060200191846001830284011164010000000083111715610bb257600080fd5b91908080601f016020809104026020016040519081016040528093929190818152602001838380828437600081840152601f19601f820116905080830192505050505050509192919290505050611bec565b005b348015610c1257600080fd5b50610c1b611d38565b604051808273ffffffffffffffffffffffffffffffffffffffff1673ffffffffffffffffffffffffffffffffffffffff16815260200191505060405180910390f35b348015610c6957600080fd5b50610c72611d5d565b6040518080602001828103825283818151815260200191508051906020019080838360005b83811015610cb2578082015181840152602081019050610c97565b50505050905090810190601f168015610cdf5780820380516001836020036101000a031916815260200191505b509250505060405180910390f35b348015610cf957600080fd5b50610d02611dfb565b005b348015610d1057600080fd5b50610d19611e0f565b6040518082815260200191505060405180910390f35b348015610d3b57600080fd5b50610df560048036036020811015610d5257600080fd5b8101908080359060200190640100000000811115610d6f57600080fd5b820183602082011115610d8157600080fd5b80359060200191846001830284011164010000000083111715610da357600080fd5b91908080601f016020809104026020016040519081016040528093929190818152602001838380828437600081840152601f19601f820116905080830192505050505050509192919290505050611e15565b005b348015610e0357600080fd5b50610e0c611f19565b6040518082815260200191505060405180910390f35b6000600a60008373ffffffffffffffffffffffffffffffffffffffff1673ffffffffffffffffffffffffffffffffffffffff1681526020019081526020016000205414151515610eda576040517f08c379a000000000000000000000000000000000000000000000000000000000815260040180806020018281038252601f8152602001807f596f7520617265206e6f7420666f6c6c6f77696e67207468697320757365720081525060200191505060405180910390fd5b60076001600a60008473ffffffffffffffffffffffffffffffffffffffff1673ffffffffffffffffffffffffffffffffffffffff1681526020019081526020016000205403815481101515610f2b57fe5b9060005260206000200160006101000a81549073ffffffffffffffffffffffffffffffffffffffff02191690556000600a60008373ffffffffffffffffffffffffffffffffffffffff1673ffffffffffffffffffffffffffffffffffffffff1681526020019081526020016000208190555050565b8060056000828254039250508190555050565b600a6020528060005260406000206000915090505481565b60018054600181600116156101000203166002900480601f0160208091040260200160405190810160405280929190818152602001828054600181600116156101000203166002900480156110615780601f1061103657610100808354040283529160200191611061565b820191906000526020600020905b81548152906001019060200180831161104457829003601f168201915b505050505081565b60038054600181600116156101000203166002900480601f0160208091040260200160405190810160405280929190818152602001828054600181600116156101000203166002900480156110ff5780601f106110d4576101008083540402835291602001916110ff565b820191906000526020600020905b8154815290600101906020018083116110e257829003601f168201915b505050505081565b60065481565b6060600780548060200260200160405190810160405280929190818152602001828054801561119157602002820191906000526020600020905b8160009054906101000a900473ffffffffffffffffffffffffffffffffffffffff1673ffffffffffffffffffffffffffffffffffffffff1681526020019060010190808311611147575b5050505050905090565b6007818154811015156111aa57fe5b906000526020600020016000915054906101000a900473ffffffffffffffffffffffffffffffffffffffff1681565b60085481565b3373ffffffffffffffffffffffffffffffffffffffff166000809054906101000a900473ffffffffffffffffffffffffffffffffffffffff1673ffffffffffffffffffffffffffffffffffffffff161415156112c9576040517f08c379a00000000000000000000000000000000000000000000000000000000081526004018080602001828103825260258152602001807f596f7520617265206e6f7420746865206f776e6572206f662074686520636f6e81526020017f747261637400000000000000000000000000000000000000000000000000000081525060400191505060405180910390fd5b80600290805190602001906112df929190611f1f565b5050565b60008173ffffffffffffffffffffffffffffffffffffffff166000809054906101000a900473ffffffffffffffffffffffffffffffffffffffff1673ffffffffffffffffffffffffffffffffffffffff1614156113435760019050611348565b600090505b919050565b6060806000806000606060006060600080600554148061136f57506000600654145b15611615576001600230600780549050600060036008546004600954888054600181600116156101000203166002900480601f0160208091040260200160405190810160405280929190818152602001828054600181600116156101000203166002900480156114205780601f106113f557610100808354040283529160200191611420565b820191906000526020600020905b81548152906001019060200180831161140357829003601f168201915b50505050509850878054600181600116156101000203166002900480601f0160208091040260200160405190810160405280929190818152602001828054600181600116156101000203166002900480156114bc5780601f10611491576101008083540402835291602001916114bc565b820191906000526020600020905b81548152906001019060200180831161149f57829003601f168201915b50505050509750849450838054600181600116156101000203166002900480601f01602080910402602001604051908101604052809291908181526020018280546001816001161561010002031660029004801561155b5780601f106115305761010080835404028352916020019161155b565b820191906000526020600020905b81548152906001019060200180831161153e57829003601f168201915b50505050509350818054600181600116156101000203166002900480601f0160208091040260200160405190810160405280929190818152602001828054600181600116156101000203166002900480156115f75780601f106115cc576101008083540402835291602001916115f7565b820191906000526020600020905b8154815290600101906020018083116115da57829003601f168201915b505050505091509850985098509850985098509850985098506118bd565b600160023060078054905060065460055481151561162f57fe5b0460036008546004600954888054600181600116156101000203166002900480601f0160208091040260200160405190810160405280929190818152602001828054600181600116156101000203166002900480156116cf5780601f106116a4576101008083540402835291602001916116cf565b820191906000526020600020905b8154815290600101906020018083116116b257829003601f168201915b50505050509850878054600181600116156101000203166002900480601f01602080910402602001604051908101604052809291908181526020018280546001816001161561010002031660029004801561176b5780601f106117405761010080835404028352916020019161176b565b820191906000526020600020905b81548152906001019060200180831161174e57829003601f168201915b50505050509750838054600181600116156101000203166002900480601f0160208091040260200160405190810160405280929190818152602001828054600181600116156101000203166002900480156118075780601f106117dc57610100808354040283529160200191611807565b820191906000526020600020905b8154815290600101906020018083116117ea57829003601f168201915b50505050509350818054600181600116156101000203166002900480601f0160208091040260200160405190810160405280929190818152602001828054600181600116156101000203166002900480156118a35780601f10611878576101008083540402835291602001916118a3565b820191906000526020600020905b81548152906001019060200180831161188657829003601f168201915b505050505091509850985098509850985098509850985098505b909192939495969798565b8060056000828254019250508190555050565b6000600a60008373ffffffffffffffffffffffffffffffffffffffff1673ffffffffffffffffffffffffffffffffffffffff168152602001908152602001600020541415156119b8576040517f08c379a00000000000000000000000000000000000000000000000000000000081526004018080602001828103825260228152602001807f596f75206861766520666f6c6c6f77656420746869732075736572206265666f81526020017f726500000000000000000000000000000000000000000000000000000000000081525060400191505060405180910390fd5b600060078290806001815401808255809150509060018203906000526020600020016000909192909190916101000a81548173ffffffffffffffffffffffffffffffffffffffff021916908373ffffffffffffffffffffffffffffffffffffffff160217905550905080600a60008473ffffffffffffffffffffffffffffffffffffffff1673ffffffffffffffffffffffffffffffffffffffff1681526020019081526020016000208190555060008290508073ffffffffffffffffffffffffffffffffffffffff1663542587f96040518163ffffffff167c0100000000000000000000000000000000000000000000000000000000028152600401600060405180830381600087803b158015611ace57600080fd5b505af1158015611ae2573d6000803e3d6000fd5b50505050505050565b600860008154809291906001019190505550565b6000600654600554811515611b1057fe5b04905090565b60048054600181600116156101000203166002900480601f016020809104026020016040519081016040528092919081815260200182805460018160011615610100020316600290048015611bac5780601f10611b8157610100808354040283529160200191611bac565b820191906000526020600020905b815481529060010190602001808311611b8f57829003601f168201915b505050505081565b6000806005541480611bc857506000600654145b15611bd65760009050611be9565b600654600554811515611be557fe5b0490505b90565b3373ffffffffffffffffffffffffffffffffffffffff166000809054906101000a900473ffffffffffffffffffffffffffffffffffffffff1673ffffffffffffffffffffffffffffffffffffffff16141515611cd6576040517f08c379a00000000000000000000000000000000000000000000000000000000081526004018080602001828103825260258152602001807f596f7520617265206e6f7420746865206f776e6572206f662074686520636f6e81526020017f747261637400000000000000000000000000000000000000000000000000000081525060400191505060405180910390fd5b8360019080519060200190611cec929190611f1f565b508260029080519060200190611d03929190611f1f565b508160039080519060200190611d1a929190611f1f565b508060049080519060200190611d31929190611f1f565b5050505050565b6000809054906101000a900473ffffffffffffffffffffffffffffffffffffffff1681565b60028054600181600116156101000203166002900480601f016020809104026020016040519081016040528092919081815260200182805460018160011615610100020316600290048015611df35780601f10611dc857610100808354040283529160200191611df3565b820191906000526020600020905b815481529060010190602001808311611dd657829003601f168201915b505050505081565b600660008154809291906001019190505550565b60095481565b3373ffffffffffffffffffffffffffffffffffffffff166000809054906101000a900473ffffffffffffffffffffffffffffffffffffffff1673ffffffffffffffffffffffffffffffffffffffff16141515611eff576040517f08c379a00000000000000000000000000000000000000000000000000000000081526004018080602001828103825260258152602001807f596f7520617265206e6f7420746865206f776e6572206f662074686520636f6e81526020017f747261637400000000000000000000000000000000000000000000000000000081525060400191505060405180910390fd5b8060019080519060200190611f15929190611f1f565b5050565b60055481565b828054600181600116156101000203166002900490600052602060002090601f016020900481019282601f10611f6057805160ff1916838001178555611f8e565b82800160010185558215611f8e579182015b82811115611f8d578251825591602001919060010190611f72565b5b509050611f9b9190611f9f565b5090565b611fc191905b80821115611fbd576000816000905550600101611fa5565b5090565b9056fea165627a7a72305820af986e3e7805b0ba2f845c827370b7c87fc0c5554a407f9316d0779f7017a1b90029a165627a7a7230582037f96d80ff089894a65f80afd98b19fa3708916d8fb1d37b3af70584e17400b10029",
  "source": "pragma solidity ^0.5.0;\nimport \"./User.sol\";\n\ncontract UserFactory {\n\n    //user wallet address => index\n    mapping(address => uint256) public usersIndexer;\n    //array of smart contracts;\n    address[] public users;\n\n    function createUser(string memory name,string memory email) public{\n        \n        require(!checkUserExists(msg.sender),\"You already exists\");\n        User user = new User(msg.sender,name,email);\n        users.push(address(user));\n        usersIndexer[msg.sender] = users.length;\n    }\n\n    // get UserContract address of that user\n    function getUserAddress(address wallet_address) public view returns(address){\n        require(checkUserExists(wallet_address),\"User doesn't exits\");\n        return users[usersIndexer[wallet_address]-1];\n    }\n\n    //get User data from it's contract;\n    function getUser(address wallet_address) public view returns(string memory,string memory,address,uint, uint, string memory,uint,string memory,uint256){\n        require(checkUserExists(wallet_address),\"User doesn't exits\");\n        User user = User(users[usersIndexer[wallet_address]-1]);\n        return user.getData();\n    }\n\n    function getUsers() public view returns(address[] memory){\n        return users;\n    }\n\n    function random() private view returns (uint8) \n    {\n        return uint8(uint256(keccak256(abi.encodePacked(block.timestamp, block.difficulty)))%users.length);\n    }\n\n    function checkUserExists(address wallet_address) public view returns(bool){\n        if(usersIndexer[wallet_address]!=0)\n            return true;\n        else\n            return false;\n    }\n    \n}\n\n",
  "sourcePath": "/media/adam/Source/GP/Eth-Smithereens/contracts/UserFactory.sol",
  "compiler": {
    "name": "solc",
    "version": "0.5.0+commit.1d4f565a.Emscripten.clang"
  },
  "schemaVersion": "3.0.1",
  "updatedAt": "2019-06-22T19:22:51.624Z",
  "devdoc": {
    "methods": {}
  },
  "userdoc": {
    "methods": {}
  }
}