{
  "contractName": "User",
  "abi": [
    {
      "constant": true,
      "inputs": [
        {
          "name": "",
          "type": "address"
        }
      ],
      "name": "followersIndex",
      "outputs": [
        {
          "name": "",
          "type": "uint256"
        }
      ],
      "payable": false,
      "stateMutability": "view",
      "type": "function"
    },
    {
      "constant": true,
      "inputs": [],
      "name": "name",
      "outputs": [
        {
          "name": "",
          "type": "string"
        }
      ],
      "payable": false,
      "stateMutability": "view",
      "type": "function"
    },
    {
      "constant": true,
      "inputs": [],
      "name": "profilePic",
      "outputs": [
        {
          "name": "",
          "type": "string"
        }
      ],
      "payable": false,
      "stateMutability": "view",
      "type": "function"
    },
    {
      "constant": true,
      "inputs": [],
      "name": "totalVotes",
      "outputs": [
        {
          "name": "",
          "type": "uint256"
        }
      ],
      "payable": false,
      "stateMutability": "view",
      "type": "function"
    },
    {
      "constant": true,
      "inputs": [
        {
          "name": "",
          "type": "uint256"
        }
      ],
      "name": "followers",
      "outputs": [
        {
          "name": "",
          "type": "address"
        }
      ],
      "payable": false,
      "stateMutability": "view",
      "type": "function"
    },
    {
      "constant": true,
      "inputs": [],
      "name": "following",
      "outputs": [
        {
          "name": "",
          "type": "uint256"
        }
      ],
      "payable": false,
      "stateMutability": "view",
      "type": "function"
    },
    {
      "constant": true,
      "inputs": [],
      "name": "about",
      "outputs": [
        {
          "name": "",
          "type": "string"
        }
      ],
      "payable": false,
      "stateMutability": "view",
      "type": "function"
    },
    {
      "constant": true,
      "inputs": [],
      "name": "walletAddress",
      "outputs": [
        {
          "name": "",
          "type": "address"
        }
      ],
      "payable": false,
      "stateMutability": "view",
      "type": "function"
    },
    {
      "constant": true,
      "inputs": [],
      "name": "email",
      "outputs": [
        {
          "name": "",
          "type": "string"
        }
      ],
      "payable": false,
      "stateMutability": "view",
      "type": "function"
    },
    {
      "constant": true,
      "inputs": [],
      "name": "timestamp",
      "outputs": [
        {
          "name": "",
          "type": "uint256"
        }
      ],
      "payable": false,
      "stateMutability": "view",
      "type": "function"
    },
    {
      "constant": true,
      "inputs": [],
      "name": "votes",
      "outputs": [
        {
          "name": "",
          "type": "uint256"
        }
      ],
      "payable": false,
      "stateMutability": "view",
      "type": "function"
    },
    {
      "inputs": [
        {
          "name": "wallet_address",
          "type": "address"
        },
        {
          "name": "user_name",
          "type": "string"
        },
        {
          "name": "user_email",
          "type": "string"
        }
      ],
      "payable": false,
      "stateMutability": "nonpayable",
      "type": "constructor"
    },
    {
      "constant": true,
      "inputs": [],
      "name": "getData",
      "outputs": [
        {
          "name": "",
          "type": "string"
        },
        {
          "name": "",
          "type": "string"
        },
        {
          "name": "",
          "type": "address"
        },
        {
          "name": "",
          "type": "uint256"
        },
        {
          "name": "",
          "type": "uint256"
        },
        {
          "name": "",
          "type": "string"
        },
        {
          "name": "",
          "type": "uint256"
        },
        {
          "name": "",
          "type": "string"
        },
        {
          "name": "",
          "type": "uint256"
        }
      ],
      "payable": false,
      "stateMutability": "view",
      "type": "function"
    },
    {
      "constant": false,
      "inputs": [
        {
          "name": "new_name",
          "type": "string"
        }
      ],
      "name": "setName",
      "outputs": [],
      "payable": false,
      "stateMutability": "nonpayable",
      "type": "function"
    },
    {
      "constant": false,
      "inputs": [
        {
          "name": "new_mail",
          "type": "string"
        }
      ],
      "name": "setEmail",
      "outputs": [],
      "payable": false,
      "stateMutability": "nonpayable",
      "type": "function"
    },
    {
      "constant": false,
      "inputs": [
        {
          "name": "new_name",
          "type": "string"
        },
        {
          "name": "new_mail",
          "type": "string"
        },
        {
          "name": "profile_pic",
          "type": "string"
        },
        {
          "name": "about_user",
          "type": "string"
        }
      ],
      "name": "updateInfo",
      "outputs": [],
      "payable": false,
      "stateMutability": "nonpayable",
      "type": "function"
    },
    {
      "constant": false,
      "inputs": [
        {
          "name": "userAddress",
          "type": "address"
        }
      ],
      "name": "follow",
      "outputs": [],
      "payable": false,
      "stateMutability": "nonpayable",
      "type": "function"
    },
    {
      "constant": false,
      "inputs": [
        {
          "name": "userAddress",
          "type": "address"
        }
      ],
      "name": "unfollow",
      "outputs": [],
      "payable": false,
      "stateMutability": "nonpayable",
      "type": "function"
    },
    {
      "constant": true,
      "inputs": [],
      "name": "getFollowers",
      "outputs": [
        {
          "name": "",
          "type": "address[]"
        }
      ],
      "payable": false,
      "stateMutability": "view",
      "type": "function"
    },
    {
      "constant": true,
      "inputs": [
        {
          "name": "wallet_address",
          "type": "address"
        }
      ],
      "name": "isOwner",
      "outputs": [
        {
          "name": "",
          "type": "bool"
        }
      ],
      "payable": false,
      "stateMutability": "view",
      "type": "function"
    },
    {
      "constant": true,
      "inputs": [],
      "name": "getTotalAverageVotes",
      "outputs": [
        {
          "name": "",
          "type": "uint256"
        }
      ],
      "payable": false,
      "stateMutability": "view",
      "type": "function"
    },
    {
      "constant": false,
      "inputs": [
        {
          "name": "vote",
          "type": "uint256"
        }
      ],
      "name": "addVoteValue",
      "outputs": [],
      "payable": false,
      "stateMutability": "nonpayable",
      "type": "function"
    },
    {
      "constant": false,
      "inputs": [
        {
          "name": "vote",
          "type": "uint256"
        }
      ],
      "name": "subVoteValue",
      "outputs": [],
      "payable": false,
      "stateMutability": "nonpayable",
      "type": "function"
    },
    {
      "constant": false,
      "inputs": [],
      "name": "addTotalVotes",
      "outputs": [],
      "payable": false,
      "stateMutability": "nonpayable",
      "type": "function"
    },
    {
      "constant": false,
      "inputs": [],
      "name": "increamentFollowing",
      "outputs": [],
      "payable": false,
      "stateMutability": "nonpayable",
      "type": "function"
    },
    {
      "constant": true,
      "inputs": [],
      "name": "getRate",
      "outputs": [
        {
          "name": "",
          "type": "uint256"
        }
      ],
      "payable": false,
      "stateMutability": "view",
      "type": "function"
    }
  ],
  "bytecode": "0x60806040526000600555600060065560006008553480156200002057600080fd5b50604051620019de380380620019de833981018060405260608110156200004657600080fd5b8151602083018051919392830192916401000000008111156200006857600080fd5b820160208101848111156200007c57600080fd5b81516401000000008111828201871017156200009757600080fd5b50509291906020018051640100000000811115620000b457600080fd5b82016020810184811115620000c857600080fd5b8151640100000000811182820187101715620000e357600080fd5b505060008054600160a060020a031916600160a060020a03881617905584519093506200011a925060019150602085019062000186565b5080516200013090600290602084019062000186565b506040805180820190915260048082527f6e756c6c000000000000000000000000000000000000000000000000000000006020909201918252620001779160039162000186565b505042600955506200022b9050565b828054600181600116156101000203166002900490600052602060002090601f016020900481019282601f10620001c957805160ff1916838001178555620001f9565b82800160010185558215620001f9579182015b82811115620001f9578251825591602001919060010190620001dc565b50620002079291506200020b565b5090565b6200022891905b8082111562000207576000815560010162000212565b90565b6117a3806200023b6000396000f3fe6080604052600436106101485763ffffffff7c0100000000000000000000000000000000000000000000000000000000600035041663015a4ead811461014d5780630381dc931461018257806304e99732146101ac57806306fdde03146101f15780630aaf15301461027b5780630d15fd77146102905780630d79f561146102a55780631abc901f1461030a5780631d94dff114610350578063282b065a146103655780632f54bf6e146104185780633bc5de301461045f5780633de3f629146106535780634dbf27cc1461067d578063542587f9146106b057806355cbabd7146106c55780635e1d5482146106da578063679aefce146106ef5780636878e171146107045780636ad5b3ea1461094c578063820e93f5146109615780638b73747214610976578063b80777ea1461098b578063c47f0027146109a0578063e168c3ec14610a53575b600080fd5b34801561015957600080fd5b506101806004803603602081101561017057600080fd5b5035600160a060020a0316610a68565b005b34801561018e57600080fd5b50610180600480360360208110156101a557600080fd5b5035610b45565b3480156101b857600080fd5b506101df600480360360208110156101cf57600080fd5b5035600160a060020a0316610b51565b60408051918252519081900360200190f35b3480156101fd57600080fd5b50610206610b63565b6040805160208082528351818301528351919283929083019185019080838360005b83811015610240578181015183820152602001610228565b50505050905090810190601f16801561026d5780820380516001836020036101000a031916815260200191505b509250505060405180910390f35b34801561028757600080fd5b50610206610bf0565b34801561029c57600080fd5b506101df610c4b565b3480156102b157600080fd5b506102ba610c51565b60408051602080825283518183015283519192839290830191858101910280838360005b838110156102f65781810151838201526020016102de565b505050509050019250505060405180910390f35b34801561031657600080fd5b506103346004803603602081101561032d57600080fd5b5035610cb4565b60408051600160a060020a039092168252519081900360200190f35b34801561035c57600080fd5b506101df610cdc565b34801561037157600080fd5b506101806004803603602081101561038857600080fd5b8101906020810181356401000000008111156103a357600080fd5b8201836020820111156103b557600080fd5b803590602001918460018302840111640100000000831117156103d757600080fd5b91908080601f016020809104026020016040519081016040528093929190818152602001838380828437600092019190915250929550610ce2945050505050565b34801561042457600080fd5b5061044b6004803603602081101561043b57600080fd5b5035600160a060020a0316610d81565b604080519115158252519081900360200190f35b34801561046b57600080fd5b50610474610da9565b6040518080602001806020018a600160a060020a0316600160a060020a03168152602001898152602001888152602001806020018781526020018060200186815260200185810385528e818151815260200191508051906020019080838360005b838110156104ed5781810151838201526020016104d5565b50505050905090810190601f16801561051a5780820380516001836020036101000a031916815260200191505b5085810384528d5181528d516020918201918f019080838360005b8381101561054d578181015183820152602001610535565b50505050905090810190601f16801561057a5780820380516001836020036101000a031916815260200191505b5085810383528951815289516020918201918b019080838360005b838110156105ad578181015183820152602001610595565b50505050905090810190601f1680156105da5780820380516001836020036101000a031916815260200191505b50858103825287518152875160209182019189019080838360005b8381101561060d5781810151838201526020016105f5565b50505050905090810190601f16801561063a5780820380516001836020036101000a031916815260200191505b509d505050505050505050505050505060405180910390f35b34801561065f57600080fd5b506101806004803603602081101561067657600080fd5b50356112c3565b34801561068957600080fd5b50610180600480360360208110156106a057600080fd5b5035600160a060020a03166112ce565b3480156106bc57600080fd5b50610180611434565b3480156106d157600080fd5b506101df61143f565b3480156106e657600080fd5b50610206611456565b3480156106fb57600080fd5b506101df6114b1565b34801561071057600080fd5b506101806004803603608081101561072757600080fd5b81019060208101813564010000000081111561074257600080fd5b82018360208201111561075457600080fd5b8035906020019184600183028401116401000000008311171561077657600080fd5b91908080601f01602080910402602001604051908101604052809392919081815260200183838082843760009201919091525092959493602081019350359150506401000000008111156107c957600080fd5b8201836020820111156107db57600080fd5b803590602001918460018302840111640100000000831117156107fd57600080fd5b91908080601f016020809104026020016040519081016040528093929190818152602001838380828437600092019190915250929594936020810193503591505064010000000081111561085057600080fd5b82018360208201111561086257600080fd5b8035906020019184600183028401116401000000008311171561088457600080fd5b91908080601f01602080910402602001604051908101604052809392919081815260200183838082843760009201919091525092959493602081019350359150506401000000008111156108d757600080fd5b8201836020820111156108e957600080fd5b8035906020019184600183028401116401000000008311171561090b57600080fd5b91908080601f0160208091040260200160405190810160405280939291908181526020018383808284376000920191909152509295506114e8945050505050565b34801561095857600080fd5b506103346115c6565b34801561096d57600080fd5b506102066115d5565b34801561098257600080fd5b5061018061162d565b34801561099757600080fd5b506101df611638565b3480156109ac57600080fd5b50610180600480360360208110156109c357600080fd5b8101906020810181356401000000008111156109de57600080fd5b8201836020820111156109f057600080fd5b80359060200191846001830284011164010000000083111715610a1257600080fd5b91908080601f01602080910402602001604051908101604052809392919081815260200183838082843760009201919091525092955061163e945050505050565b348015610a5f57600080fd5b506101df6116d9565b600160a060020a0381166000908152600a60205260409020541515610ad7576040805160e560020a62461bcd02815260206004820152601f60248201527f596f7520617265206e6f7420666f6c6c6f77696e672074686973207573657200604482015290519081900360640190fd5b600160a060020a0381166000908152600a602052604090205460078054909160001901908110610b0357fe5b60009182526020808320909101805473ffffffffffffffffffffffffffffffffffffffff19169055600160a060020a03929092168152600a9091526040812055565b60058054919091039055565b600a6020526000908152604090205481565b60018054604080516020600284861615610100026000190190941693909304601f81018490048402820184019092528181529291830182828015610be85780601f10610bbd57610100808354040283529160200191610be8565b820191906000526020600020905b815481529060010190602001808311610bcb57829003601f168201915b505050505081565b6003805460408051602060026001851615610100026000190190941693909304601f81018490048402820184019092528181529291830182828015610be85780601f10610bbd57610100808354040283529160200191610be8565b60065481565b60606007805480602002602001604051908101604052809291908181526020018280548015610ca957602002820191906000526020600020905b8154600160a060020a03168152600190910190602001808311610c8b575b505050505090505b90565b6007805482908110610cc257fe5b600091825260209091200154600160a060020a0316905081565b60085481565b600054600160a060020a03163314610d6a576040805160e560020a62461bcd02815260206004820152602560248201527f596f7520617265206e6f7420746865206f776e6572206f662074686520636f6e60448201527f7472616374000000000000000000000000000000000000000000000000000000606482015290519081900360840190fd5b8051610d7d9060029060208401906116df565b5050565b60008054600160a060020a0383811691161415610da057506001610da4565b5060005b919050565b6060806000806000606060006060600060055460001480610dca5750600654155b15611043576001600230600780549050600060036008546004600954888054600181600116156101000203166002900480601f016020809104026020016040519081016040528092919081815260200182805460018160011615610100020316600290048015610e7b5780601f10610e5057610100808354040283529160200191610e7b565b820191906000526020600020905b815481529060010190602001808311610e5e57829003601f168201915b50508b5460408051602060026001851615610100026000190190941693909304601f8101849004840282018401909252818152959e508d945092508401905082828015610f095780601f10610ede57610100808354040283529160200191610f09565b820191906000526020600020905b815481529060010190602001808311610eec57829003601f168201915b5050875460408051602060026001851615610100026000190190941693909304601f8101849004840282018401909252818152959d5089945092508401905082828015610f975780601f10610f6c57610100808354040283529160200191610f97565b820191906000526020600020905b815481529060010190602001808311610f7a57829003601f168201915b5050855460408051602060026001851615610100026000190190941693909304601f8101849004840282018401909252818152959950879450925084019050828280156110255780601f10610ffa57610100808354040283529160200191611025565b820191906000526020600020905b81548152906001019060200180831161100857829003601f168201915b505050505091509850985098509850985098509850985098506112b8565b600160023060078054905060065460055481151561105d57fe5b6008546009548754604080516020601f600260001961010060018816150201909516949094049384018190048102820181019092528281529590940494600394600493928b918301828280156110f45780601f106110c9576101008083540402835291602001916110f4565b820191906000526020600020905b8154815290600101906020018083116110d757829003601f168201915b50508b5460408051602060026001851615610100026000190190941693909304601f8101849004840282018401909252818152959e508d9450925084019050828280156111825780601f1061115757610100808354040283529160200191611182565b820191906000526020600020905b81548152906001019060200180831161116557829003601f168201915b5050875460408051602060026001851615610100026000190190941693909304601f8101849004840282018401909252818152959d50899450925084019050828280156112105780601f106111e557610100808354040283529160200191611210565b820191906000526020600020905b8154815290600101906020018083116111f357829003601f168201915b5050855460408051602060026001851615610100026000190190941693909304601f81018490048402820184019092528181529599508794509250840190508282801561129e5780601f106112735761010080835404028352916020019161129e565b820191906000526020600020905b81548152906001019060200180831161128157829003601f168201915b505050505091509850985098509850985098509850985098505b909192939495969798565b600580549091019055565b600160a060020a0381166000908152600a602052604090205415611362576040805160e560020a62461bcd02815260206004820152602260248201527f596f75206861766520666f6c6c6f77656420746869732075736572206265666f60448201527f7265000000000000000000000000000000000000000000000000000000000000606482015290519081900360840190fd5b6007805460018101918290557fa66cc928b5edb82af9bd49922954155ab7b0942694bea4ce44661d9a8736c68801805473ffffffffffffffffffffffffffffffffffffffff1916600160a060020a0384169081179091556000818152600a602052604080822084905580517f542587f9000000000000000000000000000000000000000000000000000000008152905185939263542587f9926004808201939182900301818387803b15801561141757600080fd5b505af115801561142b573d6000803e3d6000fd5b50505050505050565b600880546001019055565b600060065460055481151561145057fe5b04905090565b6004805460408051602060026001851615610100026000190190941693909304601f81018490048402820184019092528181529291830182828015610be85780601f10610bbd57610100808354040283529160200191610be8565b6000600554600014806114c45750600654155b156114d157506000610cb1565b6006546005548115156114e057fe5b049050610cb1565b600054600160a060020a03163314611570576040805160e560020a62461bcd02815260206004820152602560248201527f596f7520617265206e6f7420746865206f776e6572206f662074686520636f6e60448201527f7472616374000000000000000000000000000000000000000000000000000000606482015290519081900360840190fd5b83516115839060019060208701906116df565b5082516115979060029060208601906116df565b5081516115ab9060039060208501906116df565b5080516115bf9060049060208401906116df565b5050505050565b600054600160a060020a031681565b6002805460408051602060018416156101000260001901909316849004601f81018490048402820184019092528181529291830182828015610be85780601f10610bbd57610100808354040283529160200191610be8565b600680546001019055565b60095481565b600054600160a060020a031633146116c6576040805160e560020a62461bcd02815260206004820152602560248201527f596f7520617265206e6f7420746865206f776e6572206f662074686520636f6e60448201527f7472616374000000000000000000000000000000000000000000000000000000606482015290519081900360840190fd5b8051610d7d9060019060208401906116df565b60055481565b828054600181600116156101000203166002900490600052602060002090601f016020900481019282601f1061172057805160ff191683800117855561174d565b8280016001018555821561174d579182015b8281111561174d578251825591602001919060010190611732565b5061175992915061175d565b5090565b610cb191905b80821115611759576000815560010161176356fea165627a7a723058204b05c8ec2bd6a940274e73d8c129d2eeeb2297471aef1cb3ff5ce1506c199f770029",
  "source": "pragma solidity ^0.5.0;\n\ncontract User {\n\n    address public walletAddress;\n    string public name;\n    string public email;\n    string public profilePic;\n    string public about;\n    uint public votes =  0;\n    uint public  totalVotes = 0;\n    address[] public followers;\n    uint public following=0;\n    uint256 public timestamp;\n    mapping(address => uint256) public followersIndex;\n\n    constructor (address wallet_address,string memory user_name,string memory user_email) public {\n        walletAddress = wallet_address;\n        name = user_name;\n        email = user_email;\n        profilePic = \"null\";\n        timestamp = now;\n\n    }\n\n    function getData() public view returns(string memory, string memory,address,uint,uint, string memory,uint,string memory,uint256){\n        if(votes == 0 || totalVotes == 0 ){\n          return (\n            name,\n            email,\n            address(this),\n            followers.length,\n            0,\n            profilePic,\n            following,\n            about,\n            timestamp\n            );\n        }\n\n        return (\n            name,\n            email,\n            address(this),\n            followers.length,\n            votes/totalVotes,\n            profilePic,\n            following,\n            about,\n            timestamp\n            );\n    }\n\n    function setName(string memory new_name) public{\n        require(walletAddress==msg.sender,\"You are not the owner of the contract\");\n        name = new_name;\n\n    }\n\n    function setEmail(string memory new_mail) public{\n        require(walletAddress==msg.sender,\"You are not the owner of the contract\");\n        email = new_mail;\n    }\n\n    function updateInfo(string memory new_name,string memory new_mail, string memory profile_pic,string memory about_user) public{\n        require(walletAddress==msg.sender,\"You are not the owner of the contract\");\n        name = new_name;\n        email = new_mail;\n        profilePic = profile_pic;\n        about = about_user;\n    }\n\n    function follow(address userAddress) public {\n        require(followersIndex[userAddress] == 0,\"You have followed this user before\");\n        uint index = followers.push(userAddress);\n        followersIndex[userAddress] = index;\n        User user = User(userAddress);\n        user.increamentFollowing();\n    }\n\n    function unfollow (address userAddress) public  {\n        require (followersIndex[userAddress] != 0, \"You are not following this user\");\n        delete followers[followersIndex[userAddress]-1];\n        followersIndex[userAddress] = 0;\n    }\n\n    function getFollowers () public view returns(address[] memory) {\n        return followers;\n    }\n\n    function isOwner(address wallet_address) public view returns(bool){\n        if(walletAddress==wallet_address)\n            return true;\n        else\n            return false;\n    }\n\n    function getTotalAverageVotes() public view returns (uint) {\n       return votes/totalVotes;\n    }\n\n    function addVoteValue(uint vote) public {\n        votes += vote;\n    }\n\n    function subVoteValue(uint vote) public {\n        votes -= vote;\n    }\n\n    function addTotalVotes() public {\n        totalVotes++;\n    }\n\n    function increamentFollowing()public{\n        following++;\n    }\n\n    function getRate() public view returns (uint) {\n         if(votes == 0 || totalVotes == 0 ){\n             return 0;\n         }else {\n             return votes/totalVotes;\n         }\n    }\n\n\n\n\n}\n",
  "sourcePath": "/home/omar/Desktop/BSN-eth/contracts/User.sol",
  "compiler": {
    "name": "solc",
    "version": "0.5.0+commit.1d4f565a.Emscripten.clang"
  },
  "schemaVersion": "3.0.1",
  "updatedAt": "2019-06-22T17:00:48.078Z",
  "devdoc": {
    "methods": {}
  },
  "userdoc": {
    "methods": {}
  }
}